{
  "contractName": "AcademyWallet",
  "abi": [
    {
      "inputs": [],
      "stateMutability": "nonpayable",
      "type": "constructor"
    },
    {
      "inputs": [],
      "name": "owner",
      "outputs": [
        {
          "internalType": "address",
          "name": "",
          "type": "address"
        }
      ],
      "stateMutability": "view",
      "type": "function",
      "constant": true
    },
    {
      "stateMutability": "payable",
      "type": "receive",
      "payable": true
    },
    {
      "inputs": [],
      "name": "deposit",
      "outputs": [
        {
          "internalType": "bool",
          "name": "",
          "type": "bool"
        }
      ],
      "stateMutability": "payable",
      "type": "function",
      "payable": true
    },
    {
      "inputs": [],
      "name": "withdraw",
      "outputs": [
        {
          "internalType": "bool",
          "name": "",
          "type": "bool"
        }
      ],
      "stateMutability": "nonpayable",
      "type": "function"
    },
    {
      "inputs": [
        {
          "internalType": "address",
          "name": "account",
          "type": "address"
        }
      ],
      "name": "balanceOf",
      "outputs": [
        {
          "internalType": "uint256",
          "name": "",
          "type": "uint256"
        }
      ],
      "stateMutability": "view",
      "type": "function",
      "constant": true
    },
    {
      "inputs": [],
      "name": "thisBalance",
      "outputs": [
        {
          "internalType": "uint256",
          "name": "",
          "type": "uint256"
        }
      ],
      "stateMutability": "view",
      "type": "function",
      "constant": true
    }
  ],
  "bytecode": "0x608060405234801561001057600080fd5b5033600160006101000a81548173ffffffffffffffffffffffffffffffffffffffff021916908373ffffffffffffffffffffffffffffffffffffffff160217905550610512806100616000396000f3fe60806040526004361061004e5760003560e01c806327f3a72a146100af5780633ccfd60b146100da57806370a08231146101055780638da5cb5b14610142578063d0e30db01461016d576100aa565b366100aa57346000803373ffffffffffffffffffffffffffffffffffffffff1673ffffffffffffffffffffffffffffffffffffffff16815260200190815260200160002060008282546100a191906103f8565b92505081905550005b600080fd5b3480156100bb57600080fd5b506100c461018b565b6040516100d191906103dd565b60405180910390f35b3480156100e657600080fd5b506100ef610193565b6040516100fc91906103c2565b60405180910390f35b34801561011157600080fd5b5061012c60048036038101906101279190610351565b610270565b60405161013991906103dd565b60405180910390f35b34801561014e57600080fd5b506101576102b8565b60405161016491906103a7565b60405180910390f35b6101756102de565b60405161018291906103c2565b60405180910390f35b600047905090565b60008033905060008060008373ffffffffffffffffffffffffffffffffffffffff1673ffffffffffffffffffffffffffffffffffffffff16815260200190815260200160002054905060008060008473ffffffffffffffffffffffffffffffffffffffff1673ffffffffffffffffffffffffffffffffffffffff168152602001908152602001600020819055508173ffffffffffffffffffffffffffffffffffffffff166108fc829081150290604051600060405180830381858888f19350505050158015610266573d6000803e3d6000fd5b5060019250505090565b60008060008373ffffffffffffffffffffffffffffffffffffffff1673ffffffffffffffffffffffffffffffffffffffff168152602001908152602001600020549050919050565b600160009054906101000a900473ffffffffffffffffffffffffffffffffffffffff1681565b6000346000803373ffffffffffffffffffffffffffffffffffffffff1673ffffffffffffffffffffffffffffffffffffffff168152602001908152602001600020600082825461032e91906103f8565b925050819055506001905090565b60008135905061034b816104c5565b92915050565b60006020828403121561036357600080fd5b60006103718482850161033c565b91505092915050565b6103838161044e565b82525050565b61039281610460565b82525050565b6103a18161048c565b82525050565b60006020820190506103bc600083018461037a565b92915050565b60006020820190506103d76000830184610389565b92915050565b60006020820190506103f26000830184610398565b92915050565b60006104038261048c565b915061040e8361048c565b9250827fffffffffffffffffffffffffffffffffffffffffffffffffffffffffffffffff0382111561044357610442610496565b5b828201905092915050565b60006104598261046c565b9050919050565b60008115159050919050565b600073ffffffffffffffffffffffffffffffffffffffff82169050919050565b6000819050919050565b7f4e487b7100000000000000000000000000000000000000000000000000000000600052601160045260246000fd5b6104ce8161044e565b81146104d957600080fd5b5056fea26469706673582212206675d2182a18a2c8085710994ee3742cf6cc6770c60802036d73b29d0f99b76064736f6c63430008010033",
  "immutableReferences": {},
  "source": "pragma solidity 0.8.1;\n\ncontract AcademyWallet {\n\n    mapping(address => uint256) private _balances;\n    address public owner;\n    \n    constructor() {\n        owner = msg.sender;\n    }\n\n    receive() external payable  {\n        _balances[msg.sender] += msg.value;\n    }\n\n    function deposit() payable public returns (bool) {\n        _balances[msg.sender] += msg.value;\n        return true;\n    }\n\n    function withdraw() public returns (bool) {\n        address payable sender = payable(msg.sender);\n        uint256 withdrawAmount = _balances[sender];\n        _balances[sender] = 0;\n        sender.transfer(withdrawAmount);\n        return true;\n    }\n\n    function balanceOf(address account) public view returns (uint256) {\n        return _balances[account];\n    }\n    \n    function thisBalance() public view returns (uint256) {\n        return address(this).balance;\n    }\n    \n}\n",
  "sourcePath": "/Users/7alip/code/projects/rsk/rsk-academy-dapp/contracts/AcademyWallet.sol",
  "compiler": {
    "name": "solc",
    "version": "0.8.1+commit.df193b15.Emscripten.clang"
  },
  "schemaVersion": "3.3.4",
  "updatedAt": "2021-04-02T22:31:59.845Z",
  "networkType": "ethereum",
  "devdoc": {
    "kind": "dev",
    "methods": {},
    "version": 1
  },
  "userdoc": {
    "kind": "user",
    "methods": {},
    "version": 1
  }
}