{
  "contractName": "AcademyClass",
  "abi": [
    {
      "inputs": [
        {
          "internalType": "address",
          "name": "addressStudentList",
          "type": "address"
        },
        {
          "internalType": "string",
          "name": "className_",
          "type": "string"
        }
      ],
      "stateMutability": "nonpayable",
      "type": "constructor"
    },
    {
      "anonymous": false,
      "inputs": [
        {
          "indexed": true,
          "internalType": "bytes32",
          "name": "role",
          "type": "bytes32"
        },
        {
          "indexed": true,
          "internalType": "bytes32",
          "name": "previousAdminRole",
          "type": "bytes32"
        },
        {
          "indexed": true,
          "internalType": "bytes32",
          "name": "newAdminRole",
          "type": "bytes32"
        }
      ],
      "name": "RoleAdminChanged",
      "type": "event"
    },
    {
      "anonymous": false,
      "inputs": [
        {
          "indexed": true,
          "internalType": "bytes32",
          "name": "role",
          "type": "bytes32"
        },
        {
          "indexed": true,
          "internalType": "address",
          "name": "account",
          "type": "address"
        },
        {
          "indexed": true,
          "internalType": "address",
          "name": "sender",
          "type": "address"
        }
      ],
      "name": "RoleGranted",
      "type": "event"
    },
    {
      "anonymous": false,
      "inputs": [
        {
          "indexed": true,
          "internalType": "bytes32",
          "name": "role",
          "type": "bytes32"
        },
        {
          "indexed": true,
          "internalType": "address",
          "name": "account",
          "type": "address"
        },
        {
          "indexed": true,
          "internalType": "address",
          "name": "sender",
          "type": "address"
        }
      ],
      "name": "RoleRevoked",
      "type": "event"
    },
    {
      "anonymous": false,
      "inputs": [
        {
          "indexed": true,
          "internalType": "address",
          "name": "_studentAddress",
          "type": "address"
        }
      ],
      "name": "StudentAddedInClass",
      "type": "event"
    },
    {
      "anonymous": false,
      "inputs": [
        {
          "indexed": true,
          "internalType": "address",
          "name": "_studentAddress",
          "type": "address"
        },
        {
          "indexed": false,
          "internalType": "enum StudentStatus",
          "name": "_status",
          "type": "uint8"
        }
      ],
      "name": "StudentStatusChanged",
      "type": "event"
    },
    {
      "inputs": [],
      "name": "DEFAULT_ADMIN_ROLE",
      "outputs": [
        {
          "internalType": "bytes32",
          "name": "",
          "type": "bytes32"
        }
      ],
      "stateMutability": "view",
      "type": "function"
    },
    {
      "inputs": [],
      "name": "active",
      "outputs": [
        {
          "internalType": "bool",
          "name": "",
          "type": "bool"
        }
      ],
      "stateMutability": "view",
      "type": "function"
    },
    {
      "inputs": [],
      "name": "className",
      "outputs": [
        {
          "internalType": "string",
          "name": "",
          "type": "string"
        }
      ],
      "stateMutability": "view",
      "type": "function"
    },
    {
      "inputs": [
        {
          "internalType": "bytes32",
          "name": "role",
          "type": "bytes32"
        }
      ],
      "name": "getRoleAdmin",
      "outputs": [
        {
          "internalType": "bytes32",
          "name": "",
          "type": "bytes32"
        }
      ],
      "stateMutability": "view",
      "type": "function"
    },
    {
      "inputs": [
        {
          "internalType": "bytes32",
          "name": "role",
          "type": "bytes32"
        },
        {
          "internalType": "uint256",
          "name": "index",
          "type": "uint256"
        }
      ],
      "name": "getRoleMember",
      "outputs": [
        {
          "internalType": "address",
          "name": "",
          "type": "address"
        }
      ],
      "stateMutability": "view",
      "type": "function"
    },
    {
      "inputs": [
        {
          "internalType": "bytes32",
          "name": "role",
          "type": "bytes32"
        }
      ],
      "name": "getRoleMemberCount",
      "outputs": [
        {
          "internalType": "uint256",
          "name": "",
          "type": "uint256"
        }
      ],
      "stateMutability": "view",
      "type": "function"
    },
    {
      "inputs": [
        {
          "internalType": "bytes32",
          "name": "role",
          "type": "bytes32"
        },
        {
          "internalType": "address",
          "name": "account",
          "type": "address"
        }
      ],
      "name": "grantRole",
      "outputs": [],
      "stateMutability": "nonpayable",
      "type": "function"
    },
    {
      "inputs": [
        {
          "internalType": "bytes32",
          "name": "role",
          "type": "bytes32"
        },
        {
          "internalType": "address",
          "name": "account",
          "type": "address"
        }
      ],
      "name": "hasRole",
      "outputs": [
        {
          "internalType": "bool",
          "name": "",
          "type": "bool"
        }
      ],
      "stateMutability": "view",
      "type": "function"
    },
    {
      "inputs": [
        {
          "internalType": "bytes32",
          "name": "role",
          "type": "bytes32"
        },
        {
          "internalType": "address",
          "name": "account",
          "type": "address"
        }
      ],
      "name": "renounceRole",
      "outputs": [],
      "stateMutability": "nonpayable",
      "type": "function"
    },
    {
      "inputs": [
        {
          "internalType": "bytes32",
          "name": "role",
          "type": "bytes32"
        },
        {
          "internalType": "address",
          "name": "account",
          "type": "address"
        }
      ],
      "name": "revokeRole",
      "outputs": [],
      "stateMutability": "nonpayable",
      "type": "function"
    },
    {
      "inputs": [],
      "name": "studentList",
      "outputs": [
        {
          "internalType": "contract iAcademyStudents",
          "name": "",
          "type": "address"
        }
      ],
      "stateMutability": "view",
      "type": "function"
    },
    {
      "inputs": [],
      "name": "subscribe",
      "outputs": [
        {
          "internalType": "bool",
          "name": "",
          "type": "bool"
        }
      ],
      "stateMutability": "nonpayable",
      "type": "function"
    },
    {
      "inputs": [
        {
          "internalType": "address",
          "name": "account",
          "type": "address"
        }
      ],
      "name": "addStudent",
      "outputs": [
        {
          "internalType": "bool",
          "name": "",
          "type": "bool"
        }
      ],
      "stateMutability": "nonpayable",
      "type": "function"
    },
    {
      "inputs": [
        {
          "internalType": "address",
          "name": "account",
          "type": "address"
        }
      ],
      "name": "courseComplete",
      "outputs": [
        {
          "internalType": "bool",
          "name": "",
          "type": "bool"
        }
      ],
      "stateMutability": "nonpayable",
      "type": "function"
    },
    {
      "inputs": [],
      "name": "unsubscribe",
      "outputs": [
        {
          "internalType": "bool",
          "name": "",
          "type": "bool"
        }
      ],
      "stateMutability": "nonpayable",
      "type": "function"
    },
    {
      "inputs": [
        {
          "internalType": "address",
          "name": "account",
          "type": "address"
        }
      ],
      "name": "cancelStudent",
      "outputs": [
        {
          "internalType": "bool",
          "name": "",
          "type": "bool"
        }
      ],
      "stateMutability": "nonpayable",
      "type": "function"
    },
    {
      "inputs": [],
      "name": "changeClassStatus",
      "outputs": [
        {
          "internalType": "bool",
          "name": "",
          "type": "bool"
        }
      ],
      "stateMutability": "nonpayable",
      "type": "function"
    },
    {
      "inputs": [
        {
          "internalType": "address",
          "name": "account",
          "type": "address"
        }
      ],
      "name": "isStudent",
      "outputs": [
        {
          "internalType": "bool",
          "name": "",
          "type": "bool"
        }
      ],
      "stateMutability": "view",
      "type": "function"
    },
    {
      "inputs": [
        {
          "internalType": "address",
          "name": "account",
          "type": "address"
        }
      ],
      "name": "getStudentByAddress",
      "outputs": [
        {
          "components": [
            {
              "internalType": "enum StudentStatus",
              "name": "status",
              "type": "uint8"
            },
            {
              "internalType": "uint256",
              "name": "start",
              "type": "uint256"
            },
            {
              "internalType": "uint256",
              "name": "end",
              "type": "uint256"
            }
          ],
          "internalType": "struct StudentInClass",
          "name": "",
          "type": "tuple"
        }
      ],
      "stateMutability": "view",
      "type": "function"
    },
    {
      "inputs": [],
      "name": "listStudentsByAddress",
      "outputs": [
        {
          "internalType": "address[]",
          "name": "",
          "type": "address[]"
        }
      ],
      "stateMutability": "view",
      "type": "function"
    },
    {
      "inputs": [],
      "name": "countStudents",
      "outputs": [
        {
          "internalType": "uint256",
          "name": "",
          "type": "uint256"
        }
      ],
      "stateMutability": "view",
      "type": "function"
    }
  ],
  "bytecode": "0x60806040523480156200001157600080fd5b5060405162002b8c38038062002b8c833981810160405281019062000037919062000397565b6200004c6000801b33620000c860201b60201c565b8060029080519060200190620000649291906200025e565b5060018060006101000a81548160ff02191690831515021790555081600360006101000a81548173ffffffffffffffffffffffffffffffffffffffff021916908373ffffffffffffffffffffffffffffffffffffffff1602179055505050620005af565b620000da8282620000de60201b60201c565b5050565b6200010c816000808581526020019081526020016000206000016200018160201b62000ce91790919060201c565b156200017d5762000122620001b960201b60201c565b73ffffffffffffffffffffffffffffffffffffffff168173ffffffffffffffffffffffffffffffffffffffff16837f2f8788117e7eff1d82e926ec794901d17c78024a50270940304540a733656f0d60405160405180910390a45b5050565b6000620001b1836000018373ffffffffffffffffffffffffffffffffffffffff1660001b620001c160201b60201c565b905092915050565b600033905090565b6000620001d583836200023b60201b60201c565b6200023057826000018290806001815401808255809150506001900390600052602060002001600090919091909150558260000180549050836001016000848152602001908152602001600020819055506001905062000235565b600090505b92915050565b600080836001016000848152602001908152602001600020541415905092915050565b8280546200026c90620004ba565b90600052602060002090601f016020900481019282620002905760008555620002dc565b82601f10620002ab57805160ff1916838001178555620002dc565b82800160010185558215620002dc579182015b82811115620002db578251825591602001919060010190620002be565b5b509050620002eb9190620002ef565b5090565b5b808211156200030a576000816000905550600101620002f0565b5090565b6000620003256200031f846200041a565b620003f1565b9050828152602081018484840111156200033e57600080fd5b6200034b84828562000484565b509392505050565b600081519050620003648162000595565b92915050565b600082601f8301126200037c57600080fd5b81516200038e8482602086016200030e565b91505092915050565b60008060408385031215620003ab57600080fd5b6000620003bb8582860162000353565b925050602083015167ffffffffffffffff811115620003d957600080fd5b620003e7858286016200036a565b9150509250929050565b6000620003fd62000410565b90506200040b8282620004f0565b919050565b6000604051905090565b600067ffffffffffffffff82111562000438576200043762000555565b5b620004438262000584565b9050602081019050919050565b60006200045d8262000464565b9050919050565b600073ffffffffffffffffffffffffffffffffffffffff82169050919050565b60005b83811015620004a457808201518184015260208101905062000487565b83811115620004b4576000848401525b50505050565b60006002820490506001821680620004d357607f821691505b60208210811415620004ea57620004e962000526565b5b50919050565b620004fb8262000584565b810181811067ffffffffffffffff821117156200051d576200051c62000555565b5b80604052505050565b7f4e487b7100000000000000000000000000000000000000000000000000000000600052602260045260246000fd5b7f4e487b7100000000000000000000000000000000000000000000000000000000600052604160045260246000fd5b6000601f19601f8301169050919050565b620005a08162000450565b8114620005ac57600080fd5b50565b6125cd80620005bf6000396000f3fe608060405234801561001057600080fd5b50600436106101365760003560e01c80639010d07c116100b8578063bd06ea191161007c578063bd06ea1914610377578063ca15c873146103a7578063d43e001a146103d7578063d547741f146103f5578063fcae448414610411578063ff2e27951461042f57610136565b80639010d07c1461029957806391d14854146102c95780639aa8e722146102f95780639f3da5cc14610329578063a217fddf1461035957610136565b806336568abe116100ff57806336568abe146101e1578063477f5a69146101fd578063733d09d21461021b57806382f7d3921461024b5780638f449a051461027b57610136565b8062c51f8c1461013b57806302fb0c5e14610159578063035410f614610177578063248a9ca3146101955780632f2ff15d146101c5575b600080fd5b61014361044d565b6040516101509190611e71565b60405180910390f35b6101616104db565b60405161016e9190611e05565b60405180910390f35b61017f6104ee565b60405161018c9190611de3565b60405180910390f35b6101af60048036038101906101aa91906119dc565b61057c565b6040516101bc9190611e20565b60405180910390f35b6101df60048036038101906101da9190611a05565b61059b565b005b6101fb60048036038101906101f69190611a05565b61060e565b005b610205610691565b604051610212919061200e565b60405180910390f35b6102356004803603810190610230919061198a565b61069e565b6040516102429190611e05565b60405180910390f35b6102656004803603810190610260919061198a565b6108b3565b6040516102729190611e05565b60405180910390f35b610283610912565b6040516102909190611e05565b60405180910390f35b6102b360048036038101906102ae9190611a41565b610925565b6040516102c09190611d9f565b60405180910390f35b6102e360048036038101906102de9190611a05565b610956565b6040516102f09190611e05565b60405180910390f35b610313600480360381019061030e919061198a565b610987565b6040516103209190611e05565b60405180910390f35b610343600480360381019061033e919061198a565b6109e7565b6040516103509190611ff3565b60405180910390f35b610361610b23565b60405161036e9190611e20565b60405180910390f35b610391600480360381019061038c919061198a565b610b2a565b60405161039e9190611e05565b60405180910390f35b6103c160048036038101906103bc91906119dc565b610b8b565b6040516103ce919061200e565b60405180910390f35b6103df610bb1565b6040516103ec9190611e3b565b60405180910390f35b61040f600480360381019061040a9190611a05565b610bd7565b005b610419610c4a565b6040516104269190611e05565b60405180910390f35b610437610c5c565b6040516104449190611e05565b60405180910390f35b6002805461045a906121d6565b80601f0160208091040260200160405190810160405280929190818152602001828054610486906121d6565b80156104d35780601f106104a8576101008083540402835291602001916104d3565b820191906000526020600020905b8154815290600101906020018083116104b657829003601f168201915b505050505081565b600160009054906101000a900460ff1681565b6060600580548060200260200160405190810160405280929190818152602001828054801561057257602002820191906000526020600020905b8160009054906101000a900473ffffffffffffffffffffffffffffffffffffffff1673ffffffffffffffffffffffffffffffffffffffff1681526020019060010190808311610528575b5050505050905090565b6000806000838152602001908152602001600020600201549050919050565b6105c1600080848152602001908152602001600020600201546105bc610d19565b610956565b610600576040517f08c379a00000000000000000000000000000000000000000000000000000000081526004016105f790611eb3565b60405180910390fd5b61060a8282610d21565b5050565b610616610d19565b73ffffffffffffffffffffffffffffffffffffffff168173ffffffffffffffffffffffffffffffffffffffff1614610683576040517f08c379a000000000000000000000000000000000000000000000000000000000815260040161067a90611fd3565b60405180910390fd5b61068d8282610db4565b5050565b6000600580549050905090565b60006106ad6000801b33610956565b6106ec576040517f08c379a00000000000000000000000000000000000000000000000000000000081526004016106e390611f33565b60405180910390fd5b600160009054906101000a900460ff1661073b576040517f08c379a000000000000000000000000000000000000000000000000000000000815260040161073290611f13565b60405180910390fd5b610744826108b3565b610783576040517f08c379a000000000000000000000000000000000000000000000000000000000815260040161077a90611f53565b60405180910390fd5b6002600460008473ffffffffffffffffffffffffffffffffffffffff1673ffffffffffffffffffffffffffffffffffffffff16815260200190815260200160002060000160006101000a81548160ff0219169083600281111561080f577f4e487b7100000000000000000000000000000000000000000000000000000000600052602160045260246000fd5b021790555042600460008473ffffffffffffffffffffffffffffffffffffffff1673ffffffffffffffffffffffffffffffffffffffff168152602001908152602001600020600201819055508173ffffffffffffffffffffffffffffffffffffffff167ffcac4ad276b3d596f594dd2e15d40999195593dfd3631982e5d8f03e9b62042b60026040516108a29190611e56565b60405180910390a260019050919050565b600080600460008473ffffffffffffffffffffffffffffffffffffffff1673ffffffffffffffffffffffffffffffffffffffff168152602001908152602001600020600101541115610908576001905061090d565b600090505b919050565b600061091d33610e47565b506001905090565b600061094e826000808681526020019081526020016000206000016113b090919063ffffffff16565b905092915050565b600061097f826000808681526020019081526020016000206000016113ca90919063ffffffff16565b905092915050565b60006109966000801b33610956565b6109d5576040517f08c379a00000000000000000000000000000000000000000000000000000000081526004016109cc90611f33565b60405180910390fd5b6109de826113fa565b60019050919050565b6109ef6118c8565b6109f8826108b3565b610a37576040517f08c379a0000000000000000000000000000000000000000000000000000000008152600401610a2e90611ef3565b60405180910390fd5b600460008373ffffffffffffffffffffffffffffffffffffffff1673ffffffffffffffffffffffffffffffffffffffff1681526020019081526020016000206040518060600160405290816000820160009054906101000a900460ff166002811115610acc577f4e487b7100000000000000000000000000000000000000000000000000000000600052602160045260246000fd5b6002811115610b04577f4e487b7100000000000000000000000000000000000000000000000000000000600052602160045260246000fd5b8152602001600182015481526020016002820154815250509050919050565b6000801b81565b6000610b396000801b33610956565b610b78576040517f08c379a0000000000000000000000000000000000000000000000000000000008152600401610b6f90611f33565b60405180910390fd5b610b8182610e47565b5060019050919050565b6000610baa6000808481526020019081526020016000206000016115bb565b9050919050565b600360009054906101000a900473ffffffffffffffffffffffffffffffffffffffff1681565b610bfd60008084815260200190815260200160002060020154610bf8610d19565b610956565b610c3c576040517f08c379a0000000000000000000000000000000000000000000000000000000008152600401610c3390611f73565b60405180910390fd5b610c468282610db4565b5050565b6000610c55336113fa565b6001905090565b6000610c6b6000801b33610956565b610caa576040517f08c379a0000000000000000000000000000000000000000000000000000000008152600401610ca190611f33565b60405180910390fd5b600160009054906101000a900460ff1615600160006101000a81548160ff021916908315150217905550600160009054906101000a900460ff16905090565b6000610d11836000018373ffffffffffffffffffffffffffffffffffffffff1660001b6115d0565b905092915050565b600033905090565b610d4881600080858152602001908152602001600020600001610ce990919063ffffffff16565b15610db057610d55610d19565b73ffffffffffffffffffffffffffffffffffffffff168173ffffffffffffffffffffffffffffffffffffffff16837f2f8788117e7eff1d82e926ec794901d17c78024a50270940304540a733656f0d60405160405180910390a45b5050565b610ddb8160008085815260200190815260200160002060000161164090919063ffffffff16565b15610e4357610de8610d19565b73ffffffffffffffffffffffffffffffffffffffff168173ffffffffffffffffffffffffffffffffffffffff16837ff6391f5c32d9c69d2a47ea670b442974b53935d1edc7fd64eb21e047a839171b60405160405180910390a45b5050565b6000600160009054906101000a900460ff16610e98576040517f08c379a0000000000000000000000000000000000000000000000000000000008152600401610e8f90611f13565b60405180910390fd5b610ea1826108b3565b15610ee1576040517f08c379a0000000000000000000000000000000000000000000000000000000008152600401610ed890611fb3565b60405180910390fd5b60006001600460008573ffffffffffffffffffffffffffffffffffffffff1673ffffffffffffffffffffffffffffffffffffffff16815260200190815260200160002060000160006101000a81548160ff02191690836002811115610f6f577f4e487b7100000000000000000000000000000000000000000000000000000000600052602160045260246000fd5b021790555042600460008573ffffffffffffffffffffffffffffffffffffffff1673ffffffffffffffffffffffffffffffffffffffff168152602001908152602001600020600101819055506005839080600181540180825580915050600190039060005260206000200160009091909190916101000a81548173ffffffffffffffffffffffffffffffffffffffff021916908373ffffffffffffffffffffffffffffffffffffffff160217905550600360009054906101000a900473ffffffffffffffffffffffffffffffffffffffff1673ffffffffffffffffffffffffffffffffffffffff166382f7d392846040518263ffffffff1660e01b81526004016110799190611d9f565b60206040518083038186803b15801561109157600080fd5b505afa1580156110a5573d6000803e3d6000fd5b505050506040513d601f19601f820116820180604052508101906110c991906119b3565b61118157600360009054906101000a900473ffffffffffffffffffffffffffffffffffffffff1673ffffffffffffffffffffffffffffffffffffffff1663bd06ea19846040518263ffffffff1660e01b81526004016111289190611d9f565b602060405180830381600087803b15801561114257600080fd5b505af1158015611156573d6000803e3d6000fd5b505050506040513d601f19601f8201168201806040525081019061117a9190611a7d565b9050611182565b5b6000309050600360009054906101000a900473ffffffffffffffffffffffffffffffffffffffff1673ffffffffffffffffffffffffffffffffffffffff16636cd3fedf85836040518363ffffffff1660e01b81526004016111e4929190611dba565b602060405180830381600087803b1580156111fe57600080fd5b505af1158015611212573d6000803e3d6000fd5b505050506040513d601f19601f8201168201806040525081019061123691906119b3565b611275576040517f08c379a000000000000000000000000000000000000000000000000000000000815260040161126c90611f93565b60405180910390fd5b600360009054906101000a900473ffffffffffffffffffffffffffffffffffffffff1673ffffffffffffffffffffffffffffffffffffffff16630c78a97485836040518363ffffffff1660e01b81526004016112d2929190611dba565b602060405180830381600087803b1580156112ec57600080fd5b505af1158015611300573d6000803e3d6000fd5b505050506040513d601f19601f8201168201806040525081019061132491906119b3565b611363576040517f08c379a000000000000000000000000000000000000000000000000000000000815260040161135a90611ed3565b60405180910390fd5b8373ffffffffffffffffffffffffffffffffffffffff167fc2cd73f6970f5e40dce13d5b14924b73bf1a89d678b30618a3135716213a2c6560405160405180910390a28192505050919050565b60006113bf8360000183611670565b60001c905092915050565b60006113f2836000018373ffffffffffffffffffffffffffffffffffffffff1660001b61170a565b905092915050565b600160009054906101000a900460ff16611449576040517f08c379a000000000000000000000000000000000000000000000000000000000815260040161144090611f13565b60405180910390fd5b611452816108b3565b611491576040517f08c379a000000000000000000000000000000000000000000000000000000000815260040161148890611f53565b60405180910390fd5b6000600460008373ffffffffffffffffffffffffffffffffffffffff1673ffffffffffffffffffffffffffffffffffffffff16815260200190815260200160002060000160006101000a81548160ff0219169083600281111561151d577f4e487b7100000000000000000000000000000000000000000000000000000000600052602160045260246000fd5b021790555042600460008373ffffffffffffffffffffffffffffffffffffffff1673ffffffffffffffffffffffffffffffffffffffff168152602001908152602001600020600201819055508073ffffffffffffffffffffffffffffffffffffffff167ffcac4ad276b3d596f594dd2e15d40999195593dfd3631982e5d8f03e9b62042b60006040516115b09190611e56565b60405180910390a250565b60006115c98260000161172d565b9050919050565b60006115dc838361170a565b61163557826000018290806001815401808255809150506001900390600052602060002001600090919091909150558260000180549050836001016000848152602001908152602001600020819055506001905061163a565b600090505b92915050565b6000611668836000018373ffffffffffffffffffffffffffffffffffffffff1660001b61173e565b905092915050565b6000818360000180549050116116bb576040517f08c379a00000000000000000000000000000000000000000000000000000000081526004016116b290611e93565b60405180910390fd5b8260000182815481106116f7577f4e487b7100000000000000000000000000000000000000000000000000000000600052603260045260246000fd5b9060005260206000200154905092915050565b600080836001016000848152602001908152602001600020541415905092915050565b600081600001805490509050919050565b600080836001016000848152602001908152602001600020549050600081146118bc57600060018261177091906120d4565b905060006001866000018054905061178891906120d4565b905060008660000182815481106117c8577f4e487b7100000000000000000000000000000000000000000000000000000000600052603260045260246000fd5b9060005260206000200154905080876000018481548110611812577f4e487b7100000000000000000000000000000000000000000000000000000000600052603260045260246000fd5b906000526020600020018190555060018361182d919061207e565b8760010160008381526020019081526020016000208190555086600001805480611880577f4e487b7100000000000000000000000000000000000000000000000000000000600052603160045260246000fd5b600190038181906000526020600020016000905590558660010160008781526020019081526020016000206000905560019450505050506118c2565b60009150505b92915050565b60405180606001604052806000600281111561190d577f4e487b7100000000000000000000000000000000000000000000000000000000600052602160045260246000fd5b815260200160008152602001600081525090565b6000813590506119308161253b565b92915050565b60008151905061194581612552565b92915050565b60008135905061195a81612569565b92915050565b60008135905061196f81612580565b92915050565b60008151905061198481612580565b92915050565b60006020828403121561199c57600080fd5b60006119aa84828501611921565b91505092915050565b6000602082840312156119c557600080fd5b60006119d384828501611936565b91505092915050565b6000602082840312156119ee57600080fd5b60006119fc8482850161194b565b91505092915050565b60008060408385031215611a1857600080fd5b6000611a268582860161194b565b9250506020611a3785828601611921565b9150509250929050565b60008060408385031215611a5457600080fd5b6000611a628582860161194b565b9250506020611a7385828601611960565b9150509250929050565b600060208284031215611a8f57600080fd5b6000611a9d84828501611975565b91505092915050565b6000611ab28383611abe565b60208301905092915050565b611ac781612108565b82525050565b611ad681612108565b82525050565b6000611ae782612039565b611af1818561205c565b9350611afc83612029565b8060005b83811015611b2d578151611b148882611aa6565b9750611b1f8361204f565b925050600181019050611b00565b5085935050505092915050565b611b438161211a565b82525050565b611b5281612126565b82525050565b611b618161216d565b82525050565b611b7081612191565b82525050565b611b7f81612191565b82525050565b6000611b9082612044565b611b9a818561206d565b9350611baa8185602086016121a3565b611bb381612295565b840191505092915050565b6000611bcb60228361206d565b9150611bd6826122a6565b604082019050919050565b6000611bee602f8361206d565b9150611bf9826122f5565b604082019050919050565b6000611c11602d8361206d565b9150611c1c82612344565b604082019050919050565b6000611c34600b8361206d565b9150611c3f82612393565b602082019050919050565b6000611c5760188361206d565b9150611c62826123bc565b602082019050919050565b6000611c7a60188361206d565b9150611c85826123e5565b602082019050919050565b6000611c9d60128361206d565b9150611ca88261240e565b602082019050919050565b6000611cc060308361206d565b9150611ccb82612437565b604082019050919050565b6000611ce3601d8361206d565b9150611cee82612486565b602082019050919050565b6000611d0660168361206d565b9150611d11826124af565b602082019050919050565b6000611d29602f8361206d565b9150611d34826124d8565b604082019050919050565b606082016000820151611d556000850182611b67565b506020820151611d686020850182611d81565b506040820151611d7b6040850182611d81565b50505050565b611d8a81612163565b82525050565b611d9981612163565b82525050565b6000602082019050611db46000830184611acd565b92915050565b6000604082019050611dcf6000830185611acd565b611ddc6020830184611acd565b9392505050565b60006020820190508181036000830152611dfd8184611adc565b905092915050565b6000602082019050611e1a6000830184611b3a565b92915050565b6000602082019050611e356000830184611b49565b92915050565b6000602082019050611e506000830184611b58565b92915050565b6000602082019050611e6b6000830184611b76565b92915050565b60006020820190508181036000830152611e8b8184611b85565b905092915050565b60006020820190508181036000830152611eac81611bbe565b9050919050565b60006020820190508181036000830152611ecc81611be1565b9050919050565b60006020820190508181036000830152611eec81611c04565b9050919050565b60006020820190508181036000830152611f0c81611c27565b9050919050565b60006020820190508181036000830152611f2c81611c4a565b9050919050565b60006020820190508181036000830152611f4c81611c6d565b9050919050565b60006020820190508181036000830152611f6c81611c90565b9050919050565b60006020820190508181036000830152611f8c81611cb3565b9050919050565b60006020820190508181036000830152611fac81611cd6565b9050919050565b60006020820190508181036000830152611fcc81611cf9565b9050919050565b60006020820190508181036000830152611fec81611d1c565b9050919050565b60006060820190506120086000830184611d3f565b92915050565b60006020820190506120236000830184611d90565b92915050565b6000819050602082019050919050565b600081519050919050565b600081519050919050565b6000602082019050919050565b600082825260208201905092915050565b600082825260208201905092915050565b600061208982612163565b915061209483612163565b9250827fffffffffffffffffffffffffffffffffffffffffffffffffffffffffffffffff038211156120c9576120c8612208565b5b828201905092915050565b60006120df82612163565b91506120ea83612163565b9250828210156120fd576120fc612208565b5b828203905092915050565b600061211382612143565b9050919050565b60008115159050919050565b6000819050919050565b600081905061213e82612527565b919050565b600073ffffffffffffffffffffffffffffffffffffffff82169050919050565b6000819050919050565b60006121788261217f565b9050919050565b600061218a82612143565b9050919050565b600061219c82612130565b9050919050565b60005b838110156121c15780820151818401526020810190506121a6565b838111156121d0576000848401525b50505050565b600060028204905060018216806121ee57607f821691505b6020821081141561220257612201612266565b5b50919050565b7f4e487b7100000000000000000000000000000000000000000000000000000000600052601160045260246000fd5b7f4e487b7100000000000000000000000000000000000000000000000000000000600052602160045260246000fd5b7f4e487b7100000000000000000000000000000000000000000000000000000000600052602260045260246000fd5b6000601f19601f8301169050919050565b7f456e756d657261626c655365743a20696e646578206f7574206f6620626f756e60008201527f6473000000000000000000000000000000000000000000000000000000000000602082015250565b7f416363657373436f6e74726f6c3a2073656e646572206d75737420626520616e60008201527f2061646d696e20746f206772616e740000000000000000000000000000000000602082015250565b7f4572726f7220696e2073747564656e744c6973742e757064617465537475646560008201527f6e74416374697665436c61737300000000000000000000000000000000000000602082015250565b7f6e6f742073747564656e74000000000000000000000000000000000000000000600082015250565b7f41636164656d79436c6173733a206e6f74206163746976650000000000000000600082015250565b7f41636164656d79436c6173733a206f6e6c79206f776e65720000000000000000600082015250565b7f73747564656e74206e6f74206578697374730000000000000000000000000000600082015250565b7f416363657373436f6e74726f6c3a2073656e646572206d75737420626520616e60008201527f2061646d696e20746f207265766f6b6500000000000000000000000000000000602082015250565b7f4572726f7220696e2073747564656e744c6973742e616464436c617373000000600082015250565b7f73747564656e7420616c72656164792065786973747300000000000000000000600082015250565b7f416363657373436f6e74726f6c3a2063616e206f6e6c792072656e6f756e636560008201527f20726f6c657320666f722073656c660000000000000000000000000000000000602082015250565b6003811061253857612537612237565b5b50565b61254481612108565b811461254f57600080fd5b50565b61255b8161211a565b811461256657600080fd5b50565b61257281612126565b811461257d57600080fd5b50565b61258981612163565b811461259457600080fd5b5056fea26469706673582212209e794d00a64bf617ea59682e607655b8d8dc4f82bb98fb7e171998441619ef9a64736f6c63430008010033",
  "immutableReferences": {},
  "source": "// SPDX-License-Identifier: MIT\r\npragma solidity 0.8.1;\r\n\r\n//import \"https://github.com/OpenZeppelin/openzeppelin-contracts/blob/master/contracts/access/AccessControl.sol\";\r\n//import '@openzeppelin/contracts/access/AccessControl.sol';\r\nimport './oz-contracts/access/AccessControl.sol';\r\n\r\nimport './iAcademyClass.sol';\r\nimport './iAcademyStudents.sol';\r\n\r\n\r\ncontract AcademyClass is AccessControl {\r\n    \r\n    bool public active;    // If NOT active, can't add students\r\n    string public className;\r\n\r\n    iAcademyStudents public studentList;\r\n    mapping(address => StudentInClass) private studentInClassInfo;\r\n    address[] private studentAddressList;\r\n\r\n    constructor(address addressStudentList, string memory className_) {\r\n        _setupRole(DEFAULT_ADMIN_ROLE, msg.sender);\r\n        className = className_;\r\n        active = true;\r\n        studentList = iAcademyStudents(addressStudentList);\r\n    }\r\n    \r\n    event StudentAddedInClass(address indexed _studentAddress);\r\n    event StudentStatusChanged(address indexed _studentAddress, StudentStatus _status);\r\n\r\n    modifier onlyOwner() {\r\n        require(hasRole(DEFAULT_ADMIN_ROLE, msg.sender), \"AcademyClass: only owner\");\r\n        _;\r\n    }\r\n    \r\n    modifier onlyActive() {\r\n        require(active, \"AcademyClass: not active\");\r\n        _;\r\n    }\r\n\r\n    function subscribe () public returns (bool) {\r\n        _addStudent(msg.sender);\r\n        return true;\r\n    }\r\n    \r\n    function addStudent (address account) public onlyOwner returns (bool) {\r\n        _addStudent(account);\r\n        return true;\r\n    }    \r\n    \r\n    function _addStudent (address account) private onlyActive returns (uint256) {\r\n        require (!isStudent(account), \"student already exists\");\r\n        uint256 indexStudent = 0;\r\n\r\n        studentInClassInfo[account].status = StudentStatus.InProgress;\r\n        studentInClassInfo[account].start = block.timestamp;\r\n        studentAddressList.push(account);\r\n        \r\n        //In AcademyStudents?\r\n        if (!studentList.isStudent(account)) {\r\n            indexStudent = studentList.addStudent(account);\r\n        }\r\n        else {\r\n            //getStudent\r\n        }\r\n        \r\n        address classAddress = address(this);\r\n        require (studentList.addClass(account, classAddress), \"Error in studentList.addClass\");\r\n        require (studentList.updateStudentActiveClass(account, classAddress), \"Error in studentList.updateStudentActiveClass\");\r\n\r\n        emit StudentAddedInClass(account);\r\n        return indexStudent;\r\n    }\r\n\r\n    function courseComplete (address account) onlyOwner onlyActive public returns (bool) {\r\n        require (isStudent(account), \"student not exists\");\r\n        studentInClassInfo[account].status = StudentStatus.Completed;\r\n        studentInClassInfo[account].end = block.timestamp;\r\n        emit StudentStatusChanged (account, StudentStatus.Completed);\r\n        return true;\r\n    }\r\n    \r\n    function unsubscribe () public returns (bool) {\r\n        //require (account == msg.sender, \"only himself\");\r\n        _cancelStudent(msg.sender);\r\n        return true;\r\n    }    \r\n    \r\n    function cancelStudent (address account) onlyOwner public returns (bool) {\r\n        _cancelStudent(account);\r\n        return true;\r\n    }    \r\n\r\n    function _cancelStudent (address account) private onlyActive {\r\n        require (isStudent(account), \"student not exists\");\r\n        studentInClassInfo[account].status = StudentStatus.Canceled;\r\n        studentInClassInfo[account].end = block.timestamp;\r\n        emit StudentStatusChanged (account, StudentStatus.Canceled);\r\n    }\r\n    \r\n    function changeClassStatus () public onlyOwner returns (bool) {\r\n        active = !active;\r\n        return active;\r\n    }\r\n    \r\n    function isStudent (address account) public view returns (bool) {\r\n        //if (!compareStrings(studentInfo[account].name, \"\"))\r\n        if (studentInClassInfo[account].start > 0)\r\n            return true;\r\n        else\r\n            return false;\r\n    }\r\n\r\n    function getStudentByAddress (address account) public view returns (StudentInClass memory) {\r\n        require(isStudent(account), \"not student\");\r\n        return studentInClassInfo[account];\r\n    }\r\n\r\n    function listStudentsByAddress () public view returns (address[] memory) {\r\n        return studentAddressList;\r\n    }\r\n\r\n    function countStudents () public view returns (uint) {\r\n        return (studentAddressList.length);\r\n    }\r\n    \r\n    function compareStrings(string memory a, string memory b) private pure returns (bool) {\r\n        return (keccak256(abi.encodePacked((a))) == keccak256(abi.encodePacked((b))));\r\n    }\r\n\r\n}\r\n",
  "sourcePath": "C:\\ACADEMY\\GITHUB\\rsk-academy-dapp\\contracts\\AcademyClass.sol",
  "compiler": {
    "name": "solc",
    "version": "0.8.1+commit.df193b15.Emscripten.clang"
  },
  "schemaVersion": "3.3.3",
  "updatedAt": "2021-02-23T03:49:21.219Z",
  "devdoc": {
    "kind": "dev",
    "methods": {
      "getRoleAdmin(bytes32)": {
        "details": "Returns the admin role that controls `role`. See {grantRole} and {revokeRole}. To change a role's admin, use {_setRoleAdmin}."
      },
      "getRoleMember(bytes32,uint256)": {
        "details": "Returns one of the accounts that have `role`. `index` must be a value between 0 and {getRoleMemberCount}, non-inclusive. Role bearers are not sorted in any particular way, and their ordering may change at any point. WARNING: When using {getRoleMember} and {getRoleMemberCount}, make sure you perform all queries on the same block. See the following https://forum.openzeppelin.com/t/iterating-over-elements-on-enumerableset-in-openzeppelin-contracts/2296[forum post] for more information."
      },
      "getRoleMemberCount(bytes32)": {
        "details": "Returns the number of accounts that have `role`. Can be used together with {getRoleMember} to enumerate all bearers of a role."
      },
      "grantRole(bytes32,address)": {
        "details": "Grants `role` to `account`. If `account` had not been already granted `role`, emits a {RoleGranted} event. Requirements: - the caller must have ``role``'s admin role."
      },
      "hasRole(bytes32,address)": {
        "details": "Returns `true` if `account` has been granted `role`."
      },
      "renounceRole(bytes32,address)": {
        "details": "Revokes `role` from the calling account. Roles are often managed via {grantRole} and {revokeRole}: this function's purpose is to provide a mechanism for accounts to lose their privileges if they are compromised (such as when a trusted device is misplaced). If the calling account had been granted `role`, emits a {RoleRevoked} event. Requirements: - the caller must be `account`."
      },
      "revokeRole(bytes32,address)": {
        "details": "Revokes `role` from `account`. If `account` had been granted `role`, emits a {RoleRevoked} event. Requirements: - the caller must have ``role``'s admin role."
      }
    },
    "version": 1
  },
  "userdoc": {
    "kind": "user",
    "methods": {},
    "version": 1
  }
}