{
  "contractName": "AcademyClass",
  "abi": [
    {
      "inputs": [
        {
          "internalType": "address",
          "name": "addressStudentList",
          "type": "address"
        },
        {
          "internalType": "address",
          "name": "addressStudentQuiz",
          "type": "address"
        },
        {
          "internalType": "string",
          "name": "className_",
          "type": "string"
        }
      ],
      "stateMutability": "nonpayable",
      "type": "constructor"
    },
    {
      "anonymous": false,
      "inputs": [
        {
          "indexed": true,
          "internalType": "bytes32",
          "name": "role",
          "type": "bytes32"
        },
        {
          "indexed": true,
          "internalType": "bytes32",
          "name": "previousAdminRole",
          "type": "bytes32"
        },
        {
          "indexed": true,
          "internalType": "bytes32",
          "name": "newAdminRole",
          "type": "bytes32"
        }
      ],
      "name": "RoleAdminChanged",
      "type": "event"
    },
    {
      "anonymous": false,
      "inputs": [
        {
          "indexed": true,
          "internalType": "bytes32",
          "name": "role",
          "type": "bytes32"
        },
        {
          "indexed": true,
          "internalType": "address",
          "name": "account",
          "type": "address"
        },
        {
          "indexed": true,
          "internalType": "address",
          "name": "sender",
          "type": "address"
        }
      ],
      "name": "RoleGranted",
      "type": "event"
    },
    {
      "anonymous": false,
      "inputs": [
        {
          "indexed": true,
          "internalType": "bytes32",
          "name": "role",
          "type": "bytes32"
        },
        {
          "indexed": true,
          "internalType": "address",
          "name": "account",
          "type": "address"
        },
        {
          "indexed": true,
          "internalType": "address",
          "name": "sender",
          "type": "address"
        }
      ],
      "name": "RoleRevoked",
      "type": "event"
    },
    {
      "anonymous": false,
      "inputs": [
        {
          "indexed": true,
          "internalType": "address",
          "name": "_studentAddress",
          "type": "address"
        }
      ],
      "name": "StudentAddedInClass",
      "type": "event"
    },
    {
      "anonymous": false,
      "inputs": [
        {
          "indexed": true,
          "internalType": "address",
          "name": "_studentAddress",
          "type": "address"
        },
        {
          "indexed": false,
          "internalType": "enum StudentStatus",
          "name": "_status",
          "type": "uint8"
        }
      ],
      "name": "StudentStatusChanged",
      "type": "event"
    },
    {
      "inputs": [],
      "name": "DEFAULT_ADMIN_ROLE",
      "outputs": [
        {
          "internalType": "bytes32",
          "name": "",
          "type": "bytes32"
        }
      ],
      "stateMutability": "view",
      "type": "function"
    },
    {
      "inputs": [],
      "name": "active",
      "outputs": [
        {
          "internalType": "bool",
          "name": "",
          "type": "bool"
        }
      ],
      "stateMutability": "view",
      "type": "function"
    },
    {
      "inputs": [],
      "name": "className",
      "outputs": [
        {
          "internalType": "string",
          "name": "",
          "type": "string"
        }
      ],
      "stateMutability": "view",
      "type": "function"
    },
    {
      "inputs": [
        {
          "internalType": "bytes32",
          "name": "role",
          "type": "bytes32"
        }
      ],
      "name": "getRoleAdmin",
      "outputs": [
        {
          "internalType": "bytes32",
          "name": "",
          "type": "bytes32"
        }
      ],
      "stateMutability": "view",
      "type": "function"
    },
    {
      "inputs": [
        {
          "internalType": "bytes32",
          "name": "role",
          "type": "bytes32"
        },
        {
          "internalType": "uint256",
          "name": "index",
          "type": "uint256"
        }
      ],
      "name": "getRoleMember",
      "outputs": [
        {
          "internalType": "address",
          "name": "",
          "type": "address"
        }
      ],
      "stateMutability": "view",
      "type": "function"
    },
    {
      "inputs": [
        {
          "internalType": "bytes32",
          "name": "role",
          "type": "bytes32"
        }
      ],
      "name": "getRoleMemberCount",
      "outputs": [
        {
          "internalType": "uint256",
          "name": "",
          "type": "uint256"
        }
      ],
      "stateMutability": "view",
      "type": "function"
    },
    {
      "inputs": [
        {
          "internalType": "bytes32",
          "name": "role",
          "type": "bytes32"
        },
        {
          "internalType": "address",
          "name": "account",
          "type": "address"
        }
      ],
      "name": "grantRole",
      "outputs": [],
      "stateMutability": "nonpayable",
      "type": "function"
    },
    {
      "inputs": [
        {
          "internalType": "bytes32",
          "name": "role",
          "type": "bytes32"
        },
        {
          "internalType": "address",
          "name": "account",
          "type": "address"
        }
      ],
      "name": "hasRole",
      "outputs": [
        {
          "internalType": "bool",
          "name": "",
          "type": "bool"
        }
      ],
      "stateMutability": "view",
      "type": "function"
    },
    {
      "inputs": [
        {
          "internalType": "bytes32",
          "name": "role",
          "type": "bytes32"
        },
        {
          "internalType": "address",
          "name": "account",
          "type": "address"
        }
      ],
      "name": "renounceRole",
      "outputs": [],
      "stateMutability": "nonpayable",
      "type": "function"
    },
    {
      "inputs": [
        {
          "internalType": "bytes32",
          "name": "role",
          "type": "bytes32"
        },
        {
          "internalType": "address",
          "name": "account",
          "type": "address"
        }
      ],
      "name": "revokeRole",
      "outputs": [],
      "stateMutability": "nonpayable",
      "type": "function"
    },
    {
      "inputs": [],
      "name": "studentList",
      "outputs": [
        {
          "internalType": "contract iAcademyStudents",
          "name": "",
          "type": "address"
        }
      ],
      "stateMutability": "view",
      "type": "function"
    },
    {
      "inputs": [],
      "name": "studentQuiz",
      "outputs": [
        {
          "internalType": "contract iAcademyStudentQuiz",
          "name": "",
          "type": "address"
        }
      ],
      "stateMutability": "view",
      "type": "function"
    },
    {
      "inputs": [],
      "name": "subscribe",
      "outputs": [
        {
          "internalType": "bool",
          "name": "",
          "type": "bool"
        }
      ],
      "stateMutability": "nonpayable",
      "type": "function"
    },
    {
      "inputs": [
        {
          "internalType": "address",
          "name": "account",
          "type": "address"
        }
      ],
      "name": "addStudent",
      "outputs": [
        {
          "internalType": "bool",
          "name": "",
          "type": "bool"
        }
      ],
      "stateMutability": "nonpayable",
      "type": "function"
    },
    {
      "inputs": [
        {
          "internalType": "address",
          "name": "account",
          "type": "address"
        }
      ],
      "name": "courseComplete",
      "outputs": [
        {
          "internalType": "bool",
          "name": "",
          "type": "bool"
        }
      ],
      "stateMutability": "nonpayable",
      "type": "function"
    },
    {
      "inputs": [],
      "name": "unsubscribe",
      "outputs": [
        {
          "internalType": "bool",
          "name": "",
          "type": "bool"
        }
      ],
      "stateMutability": "nonpayable",
      "type": "function"
    },
    {
      "inputs": [
        {
          "internalType": "address",
          "name": "account",
          "type": "address"
        }
      ],
      "name": "cancelStudent",
      "outputs": [
        {
          "internalType": "bool",
          "name": "",
          "type": "bool"
        }
      ],
      "stateMutability": "nonpayable",
      "type": "function"
    },
    {
      "inputs": [
        {
          "internalType": "string",
          "name": "quiz",
          "type": "string"
        },
        {
          "internalType": "string",
          "name": "answer",
          "type": "string"
        },
        {
          "internalType": "uint8",
          "name": "total",
          "type": "uint8"
        },
        {
          "internalType": "uint8",
          "name": "grade",
          "type": "uint8"
        }
      ],
      "name": "addQuizAnswer",
      "outputs": [
        {
          "internalType": "uint256",
          "name": "",
          "type": "uint256"
        }
      ],
      "stateMutability": "nonpayable",
      "type": "function"
    },
    {
      "inputs": [],
      "name": "changeClassStatus",
      "outputs": [
        {
          "internalType": "bool",
          "name": "",
          "type": "bool"
        }
      ],
      "stateMutability": "nonpayable",
      "type": "function"
    },
    {
      "inputs": [
        {
          "internalType": "address",
          "name": "account",
          "type": "address"
        }
      ],
      "name": "isStudent",
      "outputs": [
        {
          "internalType": "bool",
          "name": "",
          "type": "bool"
        }
      ],
      "stateMutability": "view",
      "type": "function"
    },
    {
      "inputs": [
        {
          "internalType": "address",
          "name": "account",
          "type": "address"
        }
      ],
      "name": "getStudentByAddress",
      "outputs": [
        {
          "components": [
            {
              "internalType": "enum StudentStatus",
              "name": "status",
              "type": "uint8"
            },
            {
              "internalType": "uint256",
              "name": "start",
              "type": "uint256"
            },
            {
              "internalType": "uint256",
              "name": "end",
              "type": "uint256"
            }
          ],
          "internalType": "struct StudentInClass",
          "name": "",
          "type": "tuple"
        }
      ],
      "stateMutability": "view",
      "type": "function"
    },
    {
      "inputs": [],
      "name": "listStudentsByAddress",
      "outputs": [
        {
          "internalType": "address[]",
          "name": "",
          "type": "address[]"
        }
      ],
      "stateMutability": "view",
      "type": "function"
    },
    {
      "inputs": [],
      "name": "countStudents",
      "outputs": [
        {
          "internalType": "uint256",
          "name": "",
          "type": "uint256"
        }
      ],
      "stateMutability": "view",
      "type": "function"
    }
  ],
  "bytecode": "0x60806040523480156200001157600080fd5b5060405162003033380380620030338339818101604052810190620000379190620003d9565b6200004c6000801b336200010a60201b60201c565b806002908051906020019062000064929190620002a0565b5060018060006101000a81548160ff02191690831515021790555082600360006101000a81548173ffffffffffffffffffffffffffffffffffffffff021916908373ffffffffffffffffffffffffffffffffffffffff16021790555081600460006101000a81548173ffffffffffffffffffffffffffffffffffffffff021916908373ffffffffffffffffffffffffffffffffffffffff16021790555050505062000606565b6200011c82826200012060201b60201c565b5050565b6200014e81600080858152602001908152602001600020600001620001c360201b62000e821790919060201c565b15620001bf5762000164620001fb60201b60201c565b73ffffffffffffffffffffffffffffffffffffffff168173ffffffffffffffffffffffffffffffffffffffff16837f2f8788117e7eff1d82e926ec794901d17c78024a50270940304540a733656f0d60405160405180910390a45b5050565b6000620001f3836000018373ffffffffffffffffffffffffffffffffffffffff1660001b6200020360201b60201c565b905092915050565b600033905090565b60006200021783836200027d60201b60201c565b6200027257826000018290806001815401808255809150506001900390600052602060002001600090919091909150558260000180549050836001016000848152602001908152602001600020819055506001905062000277565b600090505b92915050565b600080836001016000848152602001908152602001600020541415905092915050565b828054620002ae9062000511565b90600052602060002090601f016020900481019282620002d257600085556200031e565b82601f10620002ed57805160ff19168380011785556200031e565b828001600101855582156200031e579182015b828111156200031d57825182559160200191906001019062000300565b5b5090506200032d919062000331565b5090565b5b808211156200034c57600081600090555060010162000332565b5090565b600062000367620003618462000471565b62000448565b9050828152602081018484840111156200038057600080fd5b6200038d848285620004db565b509392505050565b600081519050620003a681620005ec565b92915050565b600082601f830112620003be57600080fd5b8151620003d084826020860162000350565b91505092915050565b600080600060608486031215620003ef57600080fd5b6000620003ff8682870162000395565b9350506020620004128682870162000395565b925050604084015167ffffffffffffffff8111156200043057600080fd5b6200043e86828701620003ac565b9150509250925092565b60006200045462000467565b905062000462828262000547565b919050565b6000604051905090565b600067ffffffffffffffff8211156200048f576200048e620005ac565b5b6200049a82620005db565b9050602081019050919050565b6000620004b482620004bb565b9050919050565b600073ffffffffffffffffffffffffffffffffffffffff82169050919050565b60005b83811015620004fb578082015181840152602081019050620004de565b838111156200050b576000848401525b50505050565b600060028204905060018216806200052a57607f821691505b602082108114156200054157620005406200057d565b5b50919050565b6200055282620005db565b810181811067ffffffffffffffff82111715620005745762000573620005ac565b5b80604052505050565b7f4e487b7100000000000000000000000000000000000000000000000000000000600052602260045260246000fd5b7f4e487b7100000000000000000000000000000000000000000000000000000000600052604160045260246000fd5b6000601f19601f8301169050919050565b620005f781620004a7565b81146200060357600080fd5b50565b612a1d80620006166000396000f3fe608060405234801561001057600080fd5b506004361061014c5760003560e01c80639010d07c116100c3578063ca15c8731161007c578063ca15c873146103db578063cceabd331461040b578063d43e001a1461043b578063d547741f14610459578063fcae448414610475578063ff2e2795146104935761014c565b80639010d07c146102cd57806391d14854146102fd5780639aa8e7221461032d5780639f3da5cc1461035d578063a217fddf1461038d578063bd06ea19146103ab5761014c565b806336568abe1161011557806336568abe146101f75780634114458414610213578063477f5a6914610231578063733d09d21461024f57806382f7d3921461027f5780638f449a05146102af5761014c565b8062c51f8c1461015157806302fb0c5e1461016f578063035410f61461018d578063248a9ca3146101ab5780632f2ff15d146101db575b600080fd5b6101596104b1565b60405161016691906121b4565b60405180910390f35b61017761053f565b604051610184919061212d565b60405180910390f35b610195610552565b6040516101a2919061210b565b60405180910390f35b6101c560048036038101906101c09190611bf2565b6105e0565b6040516101d29190612148565b60405180910390f35b6101f560048036038101906101f09190611c1b565b6105ff565b005b610211600480360381019061020c9190611c1b565b610672565b005b61021b6106f5565b6040516102289190612163565b60405180910390f35b61023961071b565b6040516102469190612351565b60405180910390f35b61026960048036038101906102649190611ba0565b610728565b604051610276919061212d565b60405180910390f35b61029960048036038101906102949190611ba0565b61093d565b6040516102a6919061212d565b60405180910390f35b6102b761099c565b6040516102c4919061212d565b60405180910390f35b6102e760048036038101906102e29190611c57565b6109af565b6040516102f49190612066565b60405180910390f35b61031760048036038101906103129190611c1b565b6109e0565b604051610324919061212d565b60405180910390f35b61034760048036038101906103429190611ba0565b610a11565b604051610354919061212d565b60405180910390f35b61037760048036038101906103729190611ba0565b610a71565b6040516103849190612336565b60405180910390f35b610395610bad565b6040516103a29190612148565b60405180910390f35b6103c560048036038101906103c09190611ba0565b610bb4565b6040516103d2919061212d565b60405180910390f35b6103f560048036038101906103f09190611bf2565b610c15565b6040516104029190612351565b60405180910390f35b61042560048036038101906104209190611c93565b610c3b565b6040516104329190612351565b60405180910390f35b610443610d4a565b604051610450919061217e565b60405180910390f35b610473600480360381019061046e9190611c1b565b610d70565b005b61047d610de3565b60405161048a919061212d565b60405180910390f35b61049b610df5565b6040516104a8919061212d565b60405180910390f35b600280546104be906125af565b80601f01602080910402602001604051908101604052809291908181526020018280546104ea906125af565b80156105375780601f1061050c57610100808354040283529160200191610537565b820191906000526020600020905b81548152906001019060200180831161051a57829003601f168201915b505050505081565b600160009054906101000a900460ff1681565b606060068054806020026020016040519081016040528092919081815260200182805480156105d657602002820191906000526020600020905b8160009054906101000a900473ffffffffffffffffffffffffffffffffffffffff1673ffffffffffffffffffffffffffffffffffffffff168152602001906001019080831161058c575b5050505050905090565b6000806000838152602001908152602001600020600201549050919050565b61062560008084815260200190815260200160002060020154610620610eb2565b6109e0565b610664576040517f08c379a000000000000000000000000000000000000000000000000000000000815260040161065b906121f6565b60405180910390fd5b61066e8282610eba565b5050565b61067a610eb2565b73ffffffffffffffffffffffffffffffffffffffff168173ffffffffffffffffffffffffffffffffffffffff16146106e7576040517f08c379a00000000000000000000000000000000000000000000000000000000081526004016106de90612316565b60405180910390fd5b6106f18282610f4d565b5050565b600460009054906101000a900473ffffffffffffffffffffffffffffffffffffffff1681565b6000600680549050905090565b60006107376000801b336109e0565b610776576040517f08c379a000000000000000000000000000000000000000000000000000000000815260040161076d90612276565b60405180910390fd5b600160009054906101000a900460ff166107c5576040517f08c379a00000000000000000000000000000000000000000000000000000000081526004016107bc90612256565b60405180910390fd5b6107ce8261093d565b61080d576040517f08c379a000000000000000000000000000000000000000000000000000000000815260040161080490612296565b60405180910390fd5b6002600560008473ffffffffffffffffffffffffffffffffffffffff1673ffffffffffffffffffffffffffffffffffffffff16815260200190815260200160002060000160006101000a81548160ff02191690836002811115610899577f4e487b7100000000000000000000000000000000000000000000000000000000600052602160045260246000fd5b021790555042600560008473ffffffffffffffffffffffffffffffffffffffff1673ffffffffffffffffffffffffffffffffffffffff168152602001908152602001600020600201819055508173ffffffffffffffffffffffffffffffffffffffff167ffcac4ad276b3d596f594dd2e15d40999195593dfd3631982e5d8f03e9b62042b600260405161092c9190612199565b60405180910390a260019050919050565b600080600560008473ffffffffffffffffffffffffffffffffffffffff1673ffffffffffffffffffffffffffffffffffffffff1681526020019081526020016000206001015411156109925760019050610997565b600090505b919050565b60006109a733610fe0565b506001905090565b60006109d88260008086815260200190815260200160002060000161154990919063ffffffff16565b905092915050565b6000610a098260008086815260200190815260200160002060000161156390919063ffffffff16565b905092915050565b6000610a206000801b336109e0565b610a5f576040517f08c379a0000000000000000000000000000000000000000000000000000000008152600401610a5690612276565b60405180910390fd5b610a6882611593565b60019050919050565b610a79611a61565b610a828261093d565b610ac1576040517f08c379a0000000000000000000000000000000000000000000000000000000008152600401610ab890612236565b60405180910390fd5b600560008373ffffffffffffffffffffffffffffffffffffffff1673ffffffffffffffffffffffffffffffffffffffff1681526020019081526020016000206040518060600160405290816000820160009054906101000a900460ff166002811115610b56577f4e487b7100000000000000000000000000000000000000000000000000000000600052602160045260246000fd5b6002811115610b8e577f4e487b7100000000000000000000000000000000000000000000000000000000600052602160045260246000fd5b8152602001600182015481526020016002820154815250509050919050565b6000801b81565b6000610bc36000801b336109e0565b610c02576040517f08c379a0000000000000000000000000000000000000000000000000000000008152600401610bf990612276565b60405180910390fd5b610c0b82610fe0565b5060019050919050565b6000610c34600080848152602001908152602001600020600001611754565b9050919050565b6000610c463361093d565b610c85576040517f08c379a0000000000000000000000000000000000000000000000000000000008152600401610c7c90612296565b60405180910390fd5b6000600460009054906101000a900473ffffffffffffffffffffffffffffffffffffffff1673ffffffffffffffffffffffffffffffffffffffff1663ef58d59c33888888886040518663ffffffff1660e01b8152600401610cea9594939291906120aa565b602060405180830381600087803b158015610d0457600080fd5b505af1158015610d18573d6000803e3d6000fd5b505050506040513d601f19601f82011682018060405250810190610d3c9190611d26565b905080915050949350505050565b600360009054906101000a900473ffffffffffffffffffffffffffffffffffffffff1681565b610d9660008084815260200190815260200160002060020154610d91610eb2565b6109e0565b610dd5576040517f08c379a0000000000000000000000000000000000000000000000000000000008152600401610dcc906122b6565b60405180910390fd5b610ddf8282610f4d565b5050565b6000610dee33611593565b6001905090565b6000610e046000801b336109e0565b610e43576040517f08c379a0000000000000000000000000000000000000000000000000000000008152600401610e3a90612276565b60405180910390fd5b600160009054906101000a900460ff1615600160006101000a81548160ff021916908315150217905550600160009054906101000a900460ff16905090565b6000610eaa836000018373ffffffffffffffffffffffffffffffffffffffff1660001b611769565b905092915050565b600033905090565b610ee181600080858152602001908152602001600020600001610e8290919063ffffffff16565b15610f4957610eee610eb2565b73ffffffffffffffffffffffffffffffffffffffff168173ffffffffffffffffffffffffffffffffffffffff16837f2f8788117e7eff1d82e926ec794901d17c78024a50270940304540a733656f0d60405160405180910390a45b5050565b610f74816000808581526020019081526020016000206000016117d990919063ffffffff16565b15610fdc57610f81610eb2565b73ffffffffffffffffffffffffffffffffffffffff168173ffffffffffffffffffffffffffffffffffffffff16837ff6391f5c32d9c69d2a47ea670b442974b53935d1edc7fd64eb21e047a839171b60405160405180910390a45b5050565b6000600160009054906101000a900460ff16611031576040517f08c379a000000000000000000000000000000000000000000000000000000000815260040161102890612256565b60405180910390fd5b61103a8261093d565b1561107a576040517f08c379a0000000000000000000000000000000000000000000000000000000008152600401611071906122f6565b60405180910390fd5b60006001600560008573ffffffffffffffffffffffffffffffffffffffff1673ffffffffffffffffffffffffffffffffffffffff16815260200190815260200160002060000160006101000a81548160ff02191690836002811115611108577f4e487b7100000000000000000000000000000000000000000000000000000000600052602160045260246000fd5b021790555042600560008573ffffffffffffffffffffffffffffffffffffffff1673ffffffffffffffffffffffffffffffffffffffff168152602001908152602001600020600101819055506006839080600181540180825580915050600190039060005260206000200160009091909190916101000a81548173ffffffffffffffffffffffffffffffffffffffff021916908373ffffffffffffffffffffffffffffffffffffffff160217905550600360009054906101000a900473ffffffffffffffffffffffffffffffffffffffff1673ffffffffffffffffffffffffffffffffffffffff166382f7d392846040518263ffffffff1660e01b81526004016112129190612066565b60206040518083038186803b15801561122a57600080fd5b505afa15801561123e573d6000803e3d6000fd5b505050506040513d601f19601f820116820180604052508101906112629190611bc9565b61131a57600360009054906101000a900473ffffffffffffffffffffffffffffffffffffffff1673ffffffffffffffffffffffffffffffffffffffff1663bd06ea19846040518263ffffffff1660e01b81526004016112c19190612066565b602060405180830381600087803b1580156112db57600080fd5b505af11580156112ef573d6000803e3d6000fd5b505050506040513d601f19601f820116820180604052508101906113139190611d26565b905061131b565b5b6000309050600360009054906101000a900473ffffffffffffffffffffffffffffffffffffffff1673ffffffffffffffffffffffffffffffffffffffff16636cd3fedf85836040518363ffffffff1660e01b815260040161137d929190612081565b602060405180830381600087803b15801561139757600080fd5b505af11580156113ab573d6000803e3d6000fd5b505050506040513d601f19601f820116820180604052508101906113cf9190611bc9565b61140e576040517f08c379a0000000000000000000000000000000000000000000000000000000008152600401611405906122d6565b60405180910390fd5b600360009054906101000a900473ffffffffffffffffffffffffffffffffffffffff1673ffffffffffffffffffffffffffffffffffffffff16630c78a97485836040518363ffffffff1660e01b815260040161146b929190612081565b602060405180830381600087803b15801561148557600080fd5b505af1158015611499573d6000803e3d6000fd5b505050506040513d601f19601f820116820180604052508101906114bd9190611bc9565b6114fc576040517f08c379a00000000000000000000000000000000000000000000000000000000081526004016114f390612216565b60405180910390fd5b8373ffffffffffffffffffffffffffffffffffffffff167fc2cd73f6970f5e40dce13d5b14924b73bf1a89d678b30618a3135716213a2c6560405160405180910390a28192505050919050565b60006115588360000183611809565b60001c905092915050565b600061158b836000018373ffffffffffffffffffffffffffffffffffffffff1660001b6118a3565b905092915050565b600160009054906101000a900460ff166115e2576040517f08c379a00000000000000000000000000000000000000000000000000000000081526004016115d990612256565b60405180910390fd5b6115eb8161093d565b61162a576040517f08c379a000000000000000000000000000000000000000000000000000000000815260040161162190612296565b60405180910390fd5b6000600560008373ffffffffffffffffffffffffffffffffffffffff1673ffffffffffffffffffffffffffffffffffffffff16815260200190815260200160002060000160006101000a81548160ff021916908360028111156116b6577f4e487b7100000000000000000000000000000000000000000000000000000000600052602160045260246000fd5b021790555042600560008373ffffffffffffffffffffffffffffffffffffffff1673ffffffffffffffffffffffffffffffffffffffff168152602001908152602001600020600201819055508073ffffffffffffffffffffffffffffffffffffffff167ffcac4ad276b3d596f594dd2e15d40999195593dfd3631982e5d8f03e9b62042b60006040516117499190612199565b60405180910390a250565b6000611762826000016118c6565b9050919050565b600061177583836118a3565b6117ce5782600001829080600181540180825580915050600190039060005260206000200160009091909190915055826000018054905083600101600084815260200190815260200160002081905550600190506117d3565b600090505b92915050565b6000611801836000018373ffffffffffffffffffffffffffffffffffffffff1660001b6118d7565b905092915050565b600081836000018054905011611854576040517f08c379a000000000000000000000000000000000000000000000000000000000815260040161184b906121d6565b60405180910390fd5b826000018281548110611890577f4e487b7100000000000000000000000000000000000000000000000000000000600052603260045260246000fd5b9060005260206000200154905092915050565b600080836001016000848152602001908152602001600020541415905092915050565b600081600001805490509050919050565b60008083600101600084815260200190815260200160002054905060008114611a55576000600182611909919061246d565b9050600060018660000180549050611921919061246d565b90506000866000018281548110611961577f4e487b7100000000000000000000000000000000000000000000000000000000600052603260045260246000fd5b90600052602060002001549050808760000184815481106119ab577f4e487b7100000000000000000000000000000000000000000000000000000000600052603260045260246000fd5b90600052602060002001819055506001836119c69190612417565b8760010160008381526020019081526020016000208190555086600001805480611a19577f4e487b7100000000000000000000000000000000000000000000000000000000600052603160045260246000fd5b60019003818190600052602060002001600090559055866001016000878152602001908152602001600020600090556001945050505050611a5b565b60009150505b92915050565b604051806060016040528060006002811115611aa6577f4e487b7100000000000000000000000000000000000000000000000000000000600052602160045260246000fd5b815260200160008152602001600081525090565b6000611acd611ac884612391565b61236c565b905082815260208101848484011115611ae557600080fd5b611af084828561256d565b509392505050565b600081359050611b0781612974565b92915050565b600081519050611b1c8161298b565b92915050565b600081359050611b31816129a2565b92915050565b600082601f830112611b4857600080fd5b8135611b58848260208601611aba565b91505092915050565b600081359050611b70816129b9565b92915050565b600081519050611b85816129b9565b92915050565b600081359050611b9a816129d0565b92915050565b600060208284031215611bb257600080fd5b6000611bc084828501611af8565b91505092915050565b600060208284031215611bdb57600080fd5b6000611be984828501611b0d565b91505092915050565b600060208284031215611c0457600080fd5b6000611c1284828501611b22565b91505092915050565b60008060408385031215611c2e57600080fd5b6000611c3c85828601611b22565b9250506020611c4d85828601611af8565b9150509250929050565b60008060408385031215611c6a57600080fd5b6000611c7885828601611b22565b9250506020611c8985828601611b61565b9150509250929050565b60008060008060808587031215611ca957600080fd5b600085013567ffffffffffffffff811115611cc357600080fd5b611ccf87828801611b37565b945050602085013567ffffffffffffffff811115611cec57600080fd5b611cf887828801611b37565b9350506040611d0987828801611b8b565b9250506060611d1a87828801611b8b565b91505092959194509250565b600060208284031215611d3857600080fd5b6000611d4684828501611b76565b91505092915050565b6000611d5b8383611d67565b60208301905092915050565b611d70816124a1565b82525050565b611d7f816124a1565b82525050565b6000611d90826123d2565b611d9a81856123f5565b9350611da5836123c2565b8060005b83811015611dd6578151611dbd8882611d4f565b9750611dc8836123e8565b925050600181019050611da9565b5085935050505092915050565b611dec816124b3565b82525050565b611dfb816124bf565b82525050565b611e0a81612513565b82525050565b611e1981612537565b82525050565b611e288161255b565b82525050565b611e378161255b565b82525050565b6000611e48826123dd565b611e528185612406565b9350611e6281856020860161257c565b611e6b816126ce565b840191505092915050565b6000611e83602283612406565b9150611e8e826126df565b604082019050919050565b6000611ea6602f83612406565b9150611eb18261272e565b604082019050919050565b6000611ec9602d83612406565b9150611ed48261277d565b604082019050919050565b6000611eec600b83612406565b9150611ef7826127cc565b602082019050919050565b6000611f0f601883612406565b9150611f1a826127f5565b602082019050919050565b6000611f32601883612406565b9150611f3d8261281e565b602082019050919050565b6000611f55601283612406565b9150611f6082612847565b602082019050919050565b6000611f78603083612406565b9150611f8382612870565b604082019050919050565b6000611f9b601d83612406565b9150611fa6826128bf565b602082019050919050565b6000611fbe601683612406565b9150611fc9826128e8565b602082019050919050565b6000611fe1602f83612406565b9150611fec82612911565b604082019050919050565b60608201600082015161200d6000850182611e1f565b5060208201516120206020850182612039565b5060408201516120336040850182612039565b50505050565b612042816124fc565b82525050565b612051816124fc565b82525050565b61206081612506565b82525050565b600060208201905061207b6000830184611d76565b92915050565b60006040820190506120966000830185611d76565b6120a36020830184611d76565b9392505050565b600060a0820190506120bf6000830188611d76565b81810360208301526120d18187611e3d565b905081810360408301526120e58186611e3d565b90506120f46060830185612057565b6121016080830184612057565b9695505050505050565b600060208201905081810360008301526121258184611d85565b905092915050565b60006020820190506121426000830184611de3565b92915050565b600060208201905061215d6000830184611df2565b92915050565b60006020820190506121786000830184611e01565b92915050565b60006020820190506121936000830184611e10565b92915050565b60006020820190506121ae6000830184611e2e565b92915050565b600060208201905081810360008301526121ce8184611e3d565b905092915050565b600060208201905081810360008301526121ef81611e76565b9050919050565b6000602082019050818103600083015261220f81611e99565b9050919050565b6000602082019050818103600083015261222f81611ebc565b9050919050565b6000602082019050818103600083015261224f81611edf565b9050919050565b6000602082019050818103600083015261226f81611f02565b9050919050565b6000602082019050818103600083015261228f81611f25565b9050919050565b600060208201905081810360008301526122af81611f48565b9050919050565b600060208201905081810360008301526122cf81611f6b565b9050919050565b600060208201905081810360008301526122ef81611f8e565b9050919050565b6000602082019050818103600083015261230f81611fb1565b9050919050565b6000602082019050818103600083015261232f81611fd4565b9050919050565b600060608201905061234b6000830184611ff7565b92915050565b60006020820190506123666000830184612048565b92915050565b6000612376612387565b905061238282826125e1565b919050565b6000604051905090565b600067ffffffffffffffff8211156123ac576123ab61269f565b5b6123b5826126ce565b9050602081019050919050565b6000819050602082019050919050565b600081519050919050565b600081519050919050565b6000602082019050919050565b600082825260208201905092915050565b600082825260208201905092915050565b6000612422826124fc565b915061242d836124fc565b9250827fffffffffffffffffffffffffffffffffffffffffffffffffffffffffffffffff0382111561246257612461612612565b5b828201905092915050565b6000612478826124fc565b9150612483836124fc565b92508282101561249657612495612612565b5b828203905092915050565b60006124ac826124dc565b9050919050565b60008115159050919050565b6000819050919050565b60008190506124d782612960565b919050565b600073ffffffffffffffffffffffffffffffffffffffff82169050919050565b6000819050919050565b600060ff82169050919050565b600061251e82612525565b9050919050565b6000612530826124dc565b9050919050565b600061254282612549565b9050919050565b6000612554826124dc565b9050919050565b6000612566826124c9565b9050919050565b82818337600083830152505050565b60005b8381101561259a57808201518184015260208101905061257f565b838111156125a9576000848401525b50505050565b600060028204905060018216806125c757607f821691505b602082108114156125db576125da612670565b5b50919050565b6125ea826126ce565b810181811067ffffffffffffffff821117156126095761260861269f565b5b80604052505050565b7f4e487b7100000000000000000000000000000000000000000000000000000000600052601160045260246000fd5b7f4e487b7100000000000000000000000000000000000000000000000000000000600052602160045260246000fd5b7f4e487b7100000000000000000000000000000000000000000000000000000000600052602260045260246000fd5b7f4e487b7100000000000000000000000000000000000000000000000000000000600052604160045260246000fd5b6000601f19601f8301169050919050565b7f456e756d657261626c655365743a20696e646578206f7574206f6620626f756e60008201527f6473000000000000000000000000000000000000000000000000000000000000602082015250565b7f416363657373436f6e74726f6c3a2073656e646572206d75737420626520616e60008201527f2061646d696e20746f206772616e740000000000000000000000000000000000602082015250565b7f4572726f7220696e2073747564656e744c6973742e757064617465537475646560008201527f6e74416374697665436c61737300000000000000000000000000000000000000602082015250565b7f6e6f742073747564656e74000000000000000000000000000000000000000000600082015250565b7f41636164656d79436c6173733a206e6f74206163746976650000000000000000600082015250565b7f41636164656d79436c6173733a206f6e6c79206f776e65720000000000000000600082015250565b7f73747564656e74206e6f74206578697374730000000000000000000000000000600082015250565b7f416363657373436f6e74726f6c3a2073656e646572206d75737420626520616e60008201527f2061646d696e20746f207265766f6b6500000000000000000000000000000000602082015250565b7f4572726f7220696e2073747564656e744c6973742e616464436c617373000000600082015250565b7f73747564656e7420616c72656164792065786973747300000000000000000000600082015250565b7f416363657373436f6e74726f6c3a2063616e206f6e6c792072656e6f756e636560008201527f20726f6c657320666f722073656c660000000000000000000000000000000000602082015250565b6003811061297157612970612641565b5b50565b61297d816124a1565b811461298857600080fd5b50565b612994816124b3565b811461299f57600080fd5b50565b6129ab816124bf565b81146129b657600080fd5b50565b6129c2816124fc565b81146129cd57600080fd5b50565b6129d981612506565b81146129e457600080fd5b5056fea26469706673582212207da90d9d81fc296f5486c4a0fab573ea7c66c307aa7f4cb3472918f59141700564736f6c63430008010033",
  "immutableReferences": {},
  "source": "// SPDX-License-Identifier: MIT\r\npragma solidity 0.8.1;\r\n\r\n//import \"https://github.com/OpenZeppelin/openzeppelin-contracts/blob/master/contracts/access/AccessControl.sol\";\r\n//import '@openzeppelin/contracts/access/AccessControl.sol';\r\nimport './oz-contracts/access/AccessControl.sol';\r\n\r\nimport './iAcademyClass.sol';\r\nimport './iAcademyStudents.sol';\r\nimport './iAcademyStudentQuiz.sol';\r\n\r\n\r\ncontract AcademyClass is AccessControl {\r\n    \r\n    bool public active;    // If NOT active, can't add students\r\n    string public className;\r\n\r\n    iAcademyStudents public studentList;\r\n    iAcademyStudentQuiz public studentQuiz;\r\n    mapping(address => StudentInClass) private studentInClassInfo;\r\n    address[] private studentAddressList;\r\n\r\n    constructor(address addressStudentList, address addressStudentQuiz, string memory className_) {\r\n        _setupRole(DEFAULT_ADMIN_ROLE, msg.sender);\r\n        className = className_;\r\n        active = true;\r\n        studentList = iAcademyStudents(addressStudentList);\r\n        studentQuiz = iAcademyStudentQuiz(addressStudentQuiz);\r\n    }\r\n    \r\n    event StudentAddedInClass(address indexed _studentAddress);\r\n    event StudentStatusChanged(address indexed _studentAddress, StudentStatus _status);\r\n\r\n    modifier onlyOwner() {\r\n        require(hasRole(DEFAULT_ADMIN_ROLE, msg.sender), \"AcademyClass: only owner\");\r\n        _;\r\n    }\r\n    \r\n    modifier onlyActive() {\r\n        require(active, \"AcademyClass: not active\");\r\n        _;\r\n    }\r\n\r\n    function subscribe () public returns (bool) {\r\n        _addStudent(msg.sender);\r\n        return true;\r\n    }\r\n    \r\n    function addStudent (address account) public onlyOwner returns (bool) {\r\n        _addStudent(account);\r\n        return true;\r\n    }    \r\n    \r\n    function _addStudent (address account) private onlyActive returns (uint256) {\r\n        require (!isStudent(account), \"student already exists\");\r\n        uint256 indexStudent = 0;\r\n\r\n        studentInClassInfo[account].status = StudentStatus.InProgress;\r\n        studentInClassInfo[account].start = block.timestamp;\r\n        studentAddressList.push(account);\r\n        \r\n        //In AcademyStudents?\r\n        if (!studentList.isStudent(account)) {\r\n            indexStudent = studentList.addStudent(account);\r\n        }\r\n        else {\r\n            //getStudent\r\n        }\r\n        \r\n        address classAddress = address(this);\r\n        require (studentList.addClass(account, classAddress), \"Error in studentList.addClass\");\r\n        require (studentList.updateStudentActiveClass(account, classAddress), \"Error in studentList.updateStudentActiveClass\");\r\n\r\n        emit StudentAddedInClass(account);\r\n        return indexStudent;\r\n    }\r\n\r\n    function courseComplete (address account) onlyOwner onlyActive public returns (bool) {\r\n        require (isStudent(account), \"student not exists\");\r\n        studentInClassInfo[account].status = StudentStatus.Completed;\r\n        studentInClassInfo[account].end = block.timestamp;\r\n        emit StudentStatusChanged (account, StudentStatus.Completed);\r\n        return true;\r\n    }\r\n    \r\n    function unsubscribe () public returns (bool) {\r\n        //require (account == msg.sender, \"only himself\");\r\n        _cancelStudent(msg.sender);\r\n        return true;\r\n    }    \r\n    \r\n    function cancelStudent (address account) onlyOwner public returns (bool) {\r\n        _cancelStudent(account);\r\n        return true;\r\n    }    \r\n\r\n    function _cancelStudent (address account) private onlyActive {\r\n        require (isStudent(account), \"student not exists\");\r\n        studentInClassInfo[account].status = StudentStatus.Canceled;\r\n        studentInClassInfo[account].end = block.timestamp;\r\n        emit StudentStatusChanged (account, StudentStatus.Canceled);\r\n    }\r\n\r\n    function addQuizAnswer (string memory quiz, string memory answer, uint8 total, uint8 grade) public returns(uint256) {\r\n        require (isStudent(msg.sender), \"student not exists\");\r\n        uint256 index = studentQuiz.addStudentQuizAnswer(msg.sender, quiz, answer, total, grade);        \r\n        return index;\r\n    }\r\n\r\n    function changeClassStatus () public onlyOwner returns (bool) {\r\n        active = !active;\r\n        return active;\r\n    }\r\n    \r\n    function isStudent (address account) public view returns (bool) {\r\n        //if (!compareStrings(studentInfo[account].name, \"\"))\r\n        if (studentInClassInfo[account].start > 0)\r\n            return true;\r\n        else\r\n            return false;\r\n    }\r\n\r\n    function getStudentByAddress (address account) public view returns (StudentInClass memory) {\r\n        require(isStudent(account), \"not student\");\r\n        return studentInClassInfo[account];\r\n    }\r\n\r\n    function listStudentsByAddress () public view returns (address[] memory) {\r\n        return studentAddressList;\r\n    }\r\n\r\n    function countStudents () public view returns (uint) {\r\n        return (studentAddressList.length);\r\n    }\r\n    \r\n    function compareStrings(string memory a, string memory b) private pure returns (bool) {\r\n        return (keccak256(abi.encodePacked((a))) == keccak256(abi.encodePacked((b))));\r\n    }\r\n\r\n}\r\n",
  "sourcePath": "C:\\ACADEMY\\GITHUB\\rsk-academy-dapp\\contracts\\AcademyClass.sol",
  "compiler": {
    "name": "solc",
    "version": "0.8.1+commit.df193b15.Emscripten.clang"
  },
  "schemaVersion": "3.3.3",
  "updatedAt": "2021-03-06T18:33:59.169Z",
  "devdoc": {
    "kind": "dev",
    "methods": {
      "getRoleAdmin(bytes32)": {
        "details": "Returns the admin role that controls `role`. See {grantRole} and {revokeRole}. To change a role's admin, use {_setRoleAdmin}."
      },
      "getRoleMember(bytes32,uint256)": {
        "details": "Returns one of the accounts that have `role`. `index` must be a value between 0 and {getRoleMemberCount}, non-inclusive. Role bearers are not sorted in any particular way, and their ordering may change at any point. WARNING: When using {getRoleMember} and {getRoleMemberCount}, make sure you perform all queries on the same block. See the following https://forum.openzeppelin.com/t/iterating-over-elements-on-enumerableset-in-openzeppelin-contracts/2296[forum post] for more information."
      },
      "getRoleMemberCount(bytes32)": {
        "details": "Returns the number of accounts that have `role`. Can be used together with {getRoleMember} to enumerate all bearers of a role."
      },
      "grantRole(bytes32,address)": {
        "details": "Grants `role` to `account`. If `account` had not been already granted `role`, emits a {RoleGranted} event. Requirements: - the caller must have ``role``'s admin role."
      },
      "hasRole(bytes32,address)": {
        "details": "Returns `true` if `account` has been granted `role`."
      },
      "renounceRole(bytes32,address)": {
        "details": "Revokes `role` from the calling account. Roles are often managed via {grantRole} and {revokeRole}: this function's purpose is to provide a mechanism for accounts to lose their privileges if they are compromised (such as when a trusted device is misplaced). If the calling account had been granted `role`, emits a {RoleRevoked} event. Requirements: - the caller must be `account`."
      },
      "revokeRole(bytes32,address)": {
        "details": "Revokes `role` from `account`. If `account` had been granted `role`, emits a {RoleRevoked} event. Requirements: - the caller must have ``role``'s admin role."
      }
    },
    "version": 1
  },
  "userdoc": {
    "kind": "user",
    "methods": {},
    "version": 1
  }
}