{
  "contractName": "AcademyStudentQuiz",
  "abi": [
    {
      "inputs": [],
      "stateMutability": "nonpayable",
      "type": "constructor"
    },
    {
      "anonymous": false,
      "inputs": [
        {
          "indexed": true,
          "internalType": "bytes32",
          "name": "role",
          "type": "bytes32"
        },
        {
          "indexed": true,
          "internalType": "bytes32",
          "name": "previousAdminRole",
          "type": "bytes32"
        },
        {
          "indexed": true,
          "internalType": "bytes32",
          "name": "newAdminRole",
          "type": "bytes32"
        }
      ],
      "name": "RoleAdminChanged",
      "type": "event"
    },
    {
      "anonymous": false,
      "inputs": [
        {
          "indexed": true,
          "internalType": "bytes32",
          "name": "role",
          "type": "bytes32"
        },
        {
          "indexed": true,
          "internalType": "address",
          "name": "account",
          "type": "address"
        },
        {
          "indexed": true,
          "internalType": "address",
          "name": "sender",
          "type": "address"
        }
      ],
      "name": "RoleGranted",
      "type": "event"
    },
    {
      "anonymous": false,
      "inputs": [
        {
          "indexed": true,
          "internalType": "bytes32",
          "name": "role",
          "type": "bytes32"
        },
        {
          "indexed": true,
          "internalType": "address",
          "name": "account",
          "type": "address"
        },
        {
          "indexed": true,
          "internalType": "address",
          "name": "sender",
          "type": "address"
        }
      ],
      "name": "RoleRevoked",
      "type": "event"
    },
    {
      "anonymous": false,
      "inputs": [
        {
          "indexed": true,
          "internalType": "address",
          "name": "student",
          "type": "address"
        },
        {
          "indexed": true,
          "internalType": "string",
          "name": "quiz",
          "type": "string"
        },
        {
          "indexed": false,
          "internalType": "uint8",
          "name": "total",
          "type": "uint8"
        },
        {
          "indexed": false,
          "internalType": "uint8",
          "name": "grade",
          "type": "uint8"
        },
        {
          "indexed": false,
          "internalType": "uint8",
          "name": "attempt",
          "type": "uint8"
        }
      ],
      "name": "StudentGradeAdded",
      "type": "event"
    },
    {
      "anonymous": false,
      "inputs": [
        {
          "indexed": true,
          "internalType": "address",
          "name": "student",
          "type": "address"
        },
        {
          "indexed": false,
          "internalType": "string",
          "name": "quiz",
          "type": "string"
        }
      ],
      "name": "StudentGradeDeleted",
      "type": "event"
    },
    {
      "inputs": [],
      "name": "DEFAULT_ADMIN_ROLE",
      "outputs": [
        {
          "internalType": "bytes32",
          "name": "",
          "type": "bytes32"
        }
      ],
      "stateMutability": "view",
      "type": "function",
      "constant": true
    },
    {
      "inputs": [
        {
          "internalType": "bytes32",
          "name": "role",
          "type": "bytes32"
        }
      ],
      "name": "getRoleAdmin",
      "outputs": [
        {
          "internalType": "bytes32",
          "name": "",
          "type": "bytes32"
        }
      ],
      "stateMutability": "view",
      "type": "function",
      "constant": true
    },
    {
      "inputs": [
        {
          "internalType": "bytes32",
          "name": "role",
          "type": "bytes32"
        },
        {
          "internalType": "uint256",
          "name": "index",
          "type": "uint256"
        }
      ],
      "name": "getRoleMember",
      "outputs": [
        {
          "internalType": "address",
          "name": "",
          "type": "address"
        }
      ],
      "stateMutability": "view",
      "type": "function",
      "constant": true
    },
    {
      "inputs": [
        {
          "internalType": "bytes32",
          "name": "role",
          "type": "bytes32"
        }
      ],
      "name": "getRoleMemberCount",
      "outputs": [
        {
          "internalType": "uint256",
          "name": "",
          "type": "uint256"
        }
      ],
      "stateMutability": "view",
      "type": "function",
      "constant": true
    },
    {
      "inputs": [
        {
          "internalType": "bytes32",
          "name": "role",
          "type": "bytes32"
        },
        {
          "internalType": "address",
          "name": "account",
          "type": "address"
        }
      ],
      "name": "grantRole",
      "outputs": [],
      "stateMutability": "nonpayable",
      "type": "function"
    },
    {
      "inputs": [
        {
          "internalType": "bytes32",
          "name": "role",
          "type": "bytes32"
        },
        {
          "internalType": "address",
          "name": "account",
          "type": "address"
        }
      ],
      "name": "hasRole",
      "outputs": [
        {
          "internalType": "bool",
          "name": "",
          "type": "bool"
        }
      ],
      "stateMutability": "view",
      "type": "function",
      "constant": true
    },
    {
      "inputs": [
        {
          "internalType": "bytes32",
          "name": "role",
          "type": "bytes32"
        },
        {
          "internalType": "address",
          "name": "account",
          "type": "address"
        }
      ],
      "name": "renounceRole",
      "outputs": [],
      "stateMutability": "nonpayable",
      "type": "function"
    },
    {
      "inputs": [
        {
          "internalType": "bytes32",
          "name": "role",
          "type": "bytes32"
        },
        {
          "internalType": "address",
          "name": "account",
          "type": "address"
        }
      ],
      "name": "revokeRole",
      "outputs": [],
      "stateMutability": "nonpayable",
      "type": "function"
    },
    {
      "inputs": [
        {
          "internalType": "address",
          "name": "student",
          "type": "address"
        },
        {
          "internalType": "string",
          "name": "quiz",
          "type": "string"
        },
        {
          "internalType": "string",
          "name": "answer",
          "type": "string"
        },
        {
          "internalType": "uint8",
          "name": "total",
          "type": "uint8"
        },
        {
          "internalType": "uint8",
          "name": "grade",
          "type": "uint8"
        }
      ],
      "name": "addStudentQuizAnswer",
      "outputs": [
        {
          "internalType": "uint256",
          "name": "",
          "type": "uint256"
        }
      ],
      "stateMutability": "nonpayable",
      "type": "function"
    },
    {
      "inputs": [
        {
          "internalType": "address",
          "name": "student",
          "type": "address"
        },
        {
          "internalType": "string",
          "name": "quiz",
          "type": "string"
        }
      ],
      "name": "indexOf",
      "outputs": [
        {
          "internalType": "uint256",
          "name": "",
          "type": "uint256"
        }
      ],
      "stateMutability": "view",
      "type": "function",
      "constant": true
    },
    {
      "inputs": [
        {
          "internalType": "address",
          "name": "student",
          "type": "address"
        },
        {
          "internalType": "string",
          "name": "quiz",
          "type": "string"
        }
      ],
      "name": "exists",
      "outputs": [
        {
          "internalType": "bool",
          "name": "",
          "type": "bool"
        }
      ],
      "stateMutability": "view",
      "type": "function",
      "constant": true
    },
    {
      "inputs": [
        {
          "internalType": "address",
          "name": "student",
          "type": "address"
        },
        {
          "internalType": "string",
          "name": "quiz",
          "type": "string"
        }
      ],
      "name": "getStudentQuiz",
      "outputs": [
        {
          "components": [
            {
              "internalType": "address",
              "name": "student",
              "type": "address"
            },
            {
              "internalType": "uint8",
              "name": "total",
              "type": "uint8"
            },
            {
              "internalType": "uint8",
              "name": "grade",
              "type": "uint8"
            },
            {
              "internalType": "uint8",
              "name": "attempt",
              "type": "uint8"
            },
            {
              "internalType": "string",
              "name": "quiz",
              "type": "string"
            },
            {
              "internalType": "string",
              "name": "answer",
              "type": "string"
            }
          ],
          "internalType": "struct StudentQuizStruct",
          "name": "",
          "type": "tuple"
        }
      ],
      "stateMutability": "view",
      "type": "function",
      "constant": true
    },
    {
      "inputs": [
        {
          "internalType": "uint256",
          "name": "index",
          "type": "uint256"
        }
      ],
      "name": "getStudentQuiz",
      "outputs": [
        {
          "components": [
            {
              "internalType": "address",
              "name": "student",
              "type": "address"
            },
            {
              "internalType": "uint8",
              "name": "total",
              "type": "uint8"
            },
            {
              "internalType": "uint8",
              "name": "grade",
              "type": "uint8"
            },
            {
              "internalType": "uint8",
              "name": "attempt",
              "type": "uint8"
            },
            {
              "internalType": "string",
              "name": "quiz",
              "type": "string"
            },
            {
              "internalType": "string",
              "name": "answer",
              "type": "string"
            }
          ],
          "internalType": "struct StudentQuizStruct",
          "name": "",
          "type": "tuple"
        }
      ],
      "stateMutability": "view",
      "type": "function",
      "constant": true
    },
    {
      "inputs": [
        {
          "internalType": "string",
          "name": "quiz",
          "type": "string"
        }
      ],
      "name": "countStudentByQuiz",
      "outputs": [
        {
          "internalType": "uint256",
          "name": "",
          "type": "uint256"
        }
      ],
      "stateMutability": "view",
      "type": "function",
      "constant": true
    },
    {
      "inputs": [
        {
          "internalType": "address",
          "name": "student",
          "type": "address"
        }
      ],
      "name": "countQuizByStudent",
      "outputs": [
        {
          "internalType": "uint256",
          "name": "",
          "type": "uint256"
        }
      ],
      "stateMutability": "view",
      "type": "function",
      "constant": true
    },
    {
      "inputs": [
        {
          "internalType": "string",
          "name": "quiz",
          "type": "string"
        }
      ],
      "name": "listStudentByQuiz",
      "outputs": [
        {
          "internalType": "address[]",
          "name": "",
          "type": "address[]"
        }
      ],
      "stateMutability": "view",
      "type": "function",
      "constant": true
    },
    {
      "inputs": [
        {
          "internalType": "address",
          "name": "student",
          "type": "address"
        }
      ],
      "name": "listQuizByStudent",
      "outputs": [
        {
          "internalType": "string[]",
          "name": "",
          "type": "string[]"
        }
      ],
      "stateMutability": "view",
      "type": "function",
      "constant": true
    }
  ],
  "bytecode": "0x60806040523480156200001157600080fd5b50620000276000801b336200002d60201b60201c565b620001c3565b6200003f82826200004360201b60201c565b5050565b6200007181600080858152602001908152602001600020600001620000e660201b620015851790919060201c565b15620000e257620000876200011e60201b60201c565b73ffffffffffffffffffffffffffffffffffffffff168173ffffffffffffffffffffffffffffffffffffffff16837f2f8788117e7eff1d82e926ec794901d17c78024a50270940304540a733656f0d60405160405180910390a45b5050565b600062000116836000018373ffffffffffffffffffffffffffffffffffffffff1660001b6200012660201b60201c565b905092915050565b600033905090565b60006200013a8383620001a060201b60201c565b620001955782600001829080600181540180825580915050600190039060005260206000200160009091909190915055826000018054905083600101600084815260200190815260200160002081905550600190506200019a565b600090505b92915050565b600080836001016000848152602001908152602001600020541415905092915050565b6129e580620001d36000396000f3fe608060405234801561001057600080fd5b506004361061010b5760003560e01c806379faec48116100a2578063a217fddf11610071578063a217fddf14610328578063bf1add7f14610346578063ca15c87314610376578063d547741f146103a6578063ef58d59c146103c25761010b565b806379faec48146102685780639010d07c1461029857806391d14854146102c857806394ebd20c146102f85761010b565b8063366586cc116100de578063366586cc146101a85780635487933f146101d85780635c2c739014610208578063775a4cb0146102385761010b565b8063248a9ca3146101105780632ab62198146101405780632f2ff15d1461017057806336568abe1461018c575b600080fd5b61012a60048036038101906101259190611d6b565b6103f2565b6040516101379190612281565b60405180910390f35b61015a60048036038101906101559190611c70565b610411565b60405161016791906123be565b60405180910390f35b61018a60048036038101906101859190611d94565b610477565b005b6101a660048036038101906101a19190611d94565b6104ea565b005b6101c260048036038101906101bd9190611c47565b61056d565b6040516101cf9190612244565b60405180910390f35b6101f260048036038101906101ed9190611c70565b610685565b6040516101ff919061239c565b60405180910390f35b610222600480360381019061021d9190611e4d565b61096f565b60405161022f919061239c565b60405180910390f35b610252600480360381019061024d9190611c70565b610c01565b60405161025f9190612266565b60405180910390f35b610282600480360381019061027d9190611e0c565b610c7a565b60405161028f91906123be565b60405180910390f35b6102b260048036038101906102ad9190611dd0565b610ca5565b6040516102bf9190612207565b60405180910390f35b6102e260048036038101906102dd9190611d94565b610cd6565b6040516102ef9190612266565b60405180910390f35b610312600480360381019061030d9190611c47565b610d07565b60405161031f91906123be565b60405180910390f35b610330610d53565b60405161033d9190612281565b60405180910390f35b610360600480360381019061035b9190611e0c565b610d5a565b60405161036d9190612222565b60405180910390f35b610390600480360381019061038b9190611d6b565b610e06565b60405161039d91906123be565b60405180910390f35b6103c060048036038101906103bb9190611d94565b610e2c565b005b6103dc60048036038101906103d79190611cc4565b610e9f565b6040516103e991906123be565b60405180910390f35b6000806000838152602001908152602001600020600201549050919050565b6000600260008473ffffffffffffffffffffffffffffffffffffffff1673ffffffffffffffffffffffffffffffffffffffff1681526020019081526020016000208260405161046091906121f0565b908152602001604051809103902054905092915050565b61049d600080848152602001908152602001600020600201546104986115b5565b610cd6565b6104dc576040517f08c379a00000000000000000000000000000000000000000000000000000000081526004016104d3906122bc565b60405180910390fd5b6104e682826115bd565b5050565b6104f26115b5565b73ffffffffffffffffffffffffffffffffffffffff168173ffffffffffffffffffffffffffffffffffffffff161461055f576040517f08c379a00000000000000000000000000000000000000000000000000000000081526004016105569061237c565b60405180910390fd5b6105698282611650565b5050565b6060600360008373ffffffffffffffffffffffffffffffffffffffff1673ffffffffffffffffffffffffffffffffffffffff168152602001908152602001600020805480602002602001604051908101604052809291908181526020016000905b8282101561067a5783829060005260206000200180546105ed90612672565b80601f016020809104026020016040519081016040528092919081815260200182805461061990612672565b80156106665780601f1061063b57610100808354040283529160200191610666565b820191906000526020600020905b81548152906001019060200180831161064957829003601f168201915b5050505050815260200190600101906105ce565b505050509050919050565b61068d611a93565b6106978383610c01565b6106d6576040517f08c379a00000000000000000000000000000000000000000000000000000000081526004016106cd9061235c565b60405180910390fd5b60006001600260008673ffffffffffffffffffffffffffffffffffffffff1673ffffffffffffffffffffffffffffffffffffffff1681526020019081526020016000208460405161072791906121f0565b908152602001604051809103902054610740919061259d565b90506001818154811061077c577f4e487b7100000000000000000000000000000000000000000000000000000000600052603260045260246000fd5b90600052602060002090600302016040518060c00160405290816000820160009054906101000a900473ffffffffffffffffffffffffffffffffffffffff1673ffffffffffffffffffffffffffffffffffffffff1673ffffffffffffffffffffffffffffffffffffffff1681526020016000820160149054906101000a900460ff1660ff1660ff1681526020016000820160159054906101000a900460ff1660ff1660ff1681526020016000820160169054906101000a900460ff1660ff1660ff16815260200160018201805461085290612672565b80601f016020809104026020016040519081016040528092919081815260200182805461087e90612672565b80156108cb5780601f106108a0576101008083540402835291602001916108cb565b820191906000526020600020905b8154815290600101906020018083116108ae57829003601f168201915b505050505081526020016002820180546108e490612672565b80601f016020809104026020016040519081016040528092919081815260200182805461091090612672565b801561095d5780601f106109325761010080835404028352916020019161095d565b820191906000526020600020905b81548152906001019060200180831161094057829003601f168201915b50505050508152505091505092915050565b610977611a93565b60008211801561098c57506001805490508211155b6109cb576040517f08c379a00000000000000000000000000000000000000000000000000000000081526004016109c2906122fc565b60405180910390fd5b600180836109d9919061259d565b81548110610a10577f4e487b7100000000000000000000000000000000000000000000000000000000600052603260045260246000fd5b90600052602060002090600302016040518060c00160405290816000820160009054906101000a900473ffffffffffffffffffffffffffffffffffffffff1673ffffffffffffffffffffffffffffffffffffffff1673ffffffffffffffffffffffffffffffffffffffff1681526020016000820160149054906101000a900460ff1660ff1660ff1681526020016000820160159054906101000a900460ff1660ff1660ff1681526020016000820160169054906101000a900460ff1660ff1660ff168152602001600182018054610ae690612672565b80601f0160208091040260200160405190810160405280929190818152602001828054610b1290612672565b8015610b5f5780601f10610b3457610100808354040283529160200191610b5f565b820191906000526020600020905b815481529060010190602001808311610b4257829003601f168201915b50505050508152602001600282018054610b7890612672565b80601f0160208091040260200160405190810160405280929190818152602001828054610ba490612672565b8015610bf15780601f10610bc657610100808354040283529160200191610bf1565b820191906000526020600020905b815481529060010190602001808311610bd457829003601f168201915b5050505050815250509050919050565b600080600260008573ffffffffffffffffffffffffffffffffffffffff1673ffffffffffffffffffffffffffffffffffffffff16815260200190815260200160002083604051610c5191906121f0565b9081526020016040518091039020541415610c6f5760009050610c74565b600190505b92915050565b6000600482604051610c8c91906121f0565b9081526020016040518091039020805490509050919050565b6000610cce826000808681526020019081526020016000206000016116e390919063ffffffff16565b905092915050565b6000610cff826000808681526020019081526020016000206000016116fd90919063ffffffff16565b905092915050565b6000600360008373ffffffffffffffffffffffffffffffffffffffff1673ffffffffffffffffffffffffffffffffffffffff168152602001908152602001600020805490509050919050565b6000801b81565b6060600482604051610d6c91906121f0565b9081526020016040518091039020805480602002602001604051908101604052809291908181526020018280548015610dfa57602002820191906000526020600020905b8160009054906101000a900473ffffffffffffffffffffffffffffffffffffffff1673ffffffffffffffffffffffffffffffffffffffff1681526020019060010190808311610db0575b50505050509050919050565b6000610e2560008084815260200190815260200160002060000161172d565b9050919050565b610e5260008084815260200190815260200160002060020154610e4d6115b5565b610cd6565b610e91576040517f08c379a0000000000000000000000000000000000000000000000000000000008152600401610e889061233c565b60405180910390fd5b610e9b8282611650565b5050565b6000610eae6000801b33610cd6565b610eed576040517f08c379a0000000000000000000000000000000000000000000000000000000008152600401610ee49061231c565b60405180910390fd5b610f068560405180602001604052806000815250611742565b15610f46576040517f08c379a0000000000000000000000000000000000000000000000000000000008152600401610f3d906122dc565b60405180910390fd5b6000600260008873ffffffffffffffffffffffffffffffffffffffff1673ffffffffffffffffffffffffffffffffffffffff16815260200190815260200160002086604051610f9591906121f0565b90815260200160405180910390205490506000808214156112b55760019050610fbc611a93565b88816000019073ffffffffffffffffffffffffffffffffffffffff16908173ffffffffffffffffffffffffffffffffffffffff1681525050878160800181905250868160a001819052506001816060019060ff16908160ff168152505085816020019060ff16908160ff168152505084816040019060ff16908160ff1681525050600181908060018154018082558091505060019003906000526020600020906003020160009091909190915060008201518160000160006101000a81548173ffffffffffffffffffffffffffffffffffffffff021916908373ffffffffffffffffffffffffffffffffffffffff16021790555060208201518160000160146101000a81548160ff021916908360ff16021790555060408201518160000160156101000a81548160ff021916908360ff16021790555060608201518160000160166101000a81548160ff021916908360ff160217905550608082015181600101908051906020019061112f929190611ae8565b5060a082015181600201908051906020019061114c929190611ae8565b505050600180549050925082600260008b73ffffffffffffffffffffffffffffffffffffffff1673ffffffffffffffffffffffffffffffffffffffff168152602001908152602001600020896040516111a591906121f0565b908152602001604051809103902081905550600360008a73ffffffffffffffffffffffffffffffffffffffff1673ffffffffffffffffffffffffffffffffffffffff1681526020019081526020016000208890806001815401808255809150506001900390600052602060002001600090919091909150908051906020019061122f929190611ae8565b5060048860405161124091906121f0565b9081526020016040518091039020899080600181540180825580915050600190039060005260206000200160009091909190916101000a81548173ffffffffffffffffffffffffffffffffffffffff021916908373ffffffffffffffffffffffffffffffffffffffff1602179055505061150f565b6001826112c2919061259d565b915085600183815481106112ff577f4e487b7100000000000000000000000000000000000000000000000000000000600052603260045260246000fd5b90600052602060002090600302016002019080519060200190611323929190611ae8565b50846001838154811061135f577f4e487b7100000000000000000000000000000000000000000000000000000000600052603260045260246000fd5b906000526020600020906003020160000160146101000a81548160ff021916908360ff16021790555083600183815481106113c3577f4e487b7100000000000000000000000000000000000000000000000000000000600052603260045260246000fd5b906000526020600020906003020160000160156101000a81548160ff021916908360ff1602179055506001808381548110611427577f4e487b7100000000000000000000000000000000000000000000000000000000600052603260045260246000fd5b906000526020600020906003020160000160169054906101000a900460ff166114509190612566565b6001838154811061148a577f4e487b7100000000000000000000000000000000000000000000000000000000600052603260045260246000fd5b906000526020600020906003020160000160166101000a81548160ff021916908360ff160217905550600182815481106114ed577f4e487b7100000000000000000000000000000000000000000000000000000000600052603260045260246000fd5b906000526020600020906003020160000160169054906101000a900460ff1690505b8660405161151d91906121f0565b60405180910390208873ffffffffffffffffffffffffffffffffffffffff167f2347cfcbc0b0b972d739d0aa4b2db2d97c137def689b4e0126546e00f2ccb2df87878560405161156f939291906123d9565b60405180910390a3819250505095945050505050565b60006115ad836000018373ffffffffffffffffffffffffffffffffffffffff1660001b61179b565b905092915050565b600033905090565b6115e48160008085815260200190815260200160002060000161158590919063ffffffff16565b1561164c576115f16115b5565b73ffffffffffffffffffffffffffffffffffffffff168173ffffffffffffffffffffffffffffffffffffffff16837f2f8788117e7eff1d82e926ec794901d17c78024a50270940304540a733656f0d60405160405180910390a45b5050565b6116778160008085815260200190815260200160002060000161180b90919063ffffffff16565b156116df576116846115b5565b73ffffffffffffffffffffffffffffffffffffffff168173ffffffffffffffffffffffffffffffffffffffff16837ff6391f5c32d9c69d2a47ea670b442974b53935d1edc7fd64eb21e047a839171b60405160405180910390a45b5050565b60006116f2836000018361183b565b60001c905092915050565b6000611725836000018373ffffffffffffffffffffffffffffffffffffffff1660001b6118d5565b905092915050565b600061173b826000016118f8565b9050919050565b60008160405160200161175591906121f0565b604051602081830303815290604052805190602001208360405160200161177c91906121f0565b6040516020818303038152906040528051906020012014905092915050565b60006117a783836118d5565b611800578260000182908060018154018082558091505060019003906000526020600020016000909190919091505582600001805490508360010160008481526020019081526020016000208190555060019050611805565b600090505b92915050565b6000611833836000018373ffffffffffffffffffffffffffffffffffffffff1660001b611909565b905092915050565b600081836000018054905011611886576040517f08c379a000000000000000000000000000000000000000000000000000000000815260040161187d9061229c565b60405180910390fd5b8260000182815481106118c2577f4e487b7100000000000000000000000000000000000000000000000000000000600052603260045260246000fd5b9060005260206000200154905092915050565b600080836001016000848152602001908152602001600020541415905092915050565b600081600001805490509050919050565b60008083600101600084815260200190815260200160002054905060008114611a8757600060018261193b919061259d565b9050600060018660000180549050611953919061259d565b90506000866000018281548110611993577f4e487b7100000000000000000000000000000000000000000000000000000000600052603260045260246000fd5b90600052602060002001549050808760000184815481106119dd577f4e487b7100000000000000000000000000000000000000000000000000000000600052603260045260246000fd5b90600052602060002001819055506001836119f89190612510565b8760010160008381526020019081526020016000208190555086600001805480611a4b577f4e487b7100000000000000000000000000000000000000000000000000000000600052603160045260246000fd5b60019003818190600052602060002001600090559055866001016000878152602001908152602001600020600090556001945050505050611a8d565b60009150505b92915050565b6040518060c00160405280600073ffffffffffffffffffffffffffffffffffffffff168152602001600060ff168152602001600060ff168152602001600060ff16815260200160608152602001606081525090565b828054611af490612672565b90600052602060002090601f016020900481019282611b165760008555611b5d565b82601f10611b2f57805160ff1916838001178555611b5d565b82800160010185558215611b5d579182015b82811115611b5c578251825591602001919060010190611b41565b5b509050611b6a9190611b6e565b5090565b5b80821115611b87576000816000905550600101611b6f565b5090565b6000611b9e611b9984612435565b612410565b905082815260208101848484011115611bb657600080fd5b611bc1848285612630565b509392505050565b600081359050611bd881612953565b92915050565b600081359050611bed8161296a565b92915050565b600082601f830112611c0457600080fd5b8135611c14848260208601611b8b565b91505092915050565b600081359050611c2c81612981565b92915050565b600081359050611c4181612998565b92915050565b600060208284031215611c5957600080fd5b6000611c6784828501611bc9565b91505092915050565b60008060408385031215611c8357600080fd5b6000611c9185828601611bc9565b925050602083013567ffffffffffffffff811115611cae57600080fd5b611cba85828601611bf3565b9150509250929050565b600080600080600060a08688031215611cdc57600080fd5b6000611cea88828901611bc9565b955050602086013567ffffffffffffffff811115611d0757600080fd5b611d1388828901611bf3565b945050604086013567ffffffffffffffff811115611d3057600080fd5b611d3c88828901611bf3565b9350506060611d4d88828901611c32565b9250506080611d5e88828901611c32565b9150509295509295909350565b600060208284031215611d7d57600080fd5b6000611d8b84828501611bde565b91505092915050565b60008060408385031215611da757600080fd5b6000611db585828601611bde565b9250506020611dc685828601611bc9565b9150509250929050565b60008060408385031215611de357600080fd5b6000611df185828601611bde565b9250506020611e0285828601611c1d565b9150509250929050565b600060208284031215611e1e57600080fd5b600082013567ffffffffffffffff811115611e3857600080fd5b611e4484828501611bf3565b91505092915050565b600060208284031215611e5f57600080fd5b6000611e6d84828501611c1d565b91505092915050565b6000611e828383611ea2565b60208301905092915050565b6000611e9a8383611fb1565b905092915050565b611eab816125d1565b82525050565b611eba816125d1565b82525050565b6000611ecb82612486565b611ed581856124c1565b9350611ee083612466565b8060005b83811015611f11578151611ef88882611e76565b9750611f03836124a7565b925050600181019050611ee4565b5085935050505092915050565b6000611f2982612491565b611f3381856124d2565b935083602082028501611f4585612476565b8060005b85811015611f815784840389528151611f628582611e8e565b9450611f6d836124b4565b925060208a01995050600181019050611f49565b50829750879550505050505092915050565b611f9c816125e3565b82525050565b611fab816125ef565b82525050565b6000611fbc8261249c565b611fc681856124e3565b9350611fd681856020860161263f565b611fdf81612762565b840191505092915050565b6000611ff58261249c565b611fff8185612505565b935061200f81856020860161263f565b80840191505092915050565b60006120286022836124f4565b915061203382612773565b604082019050919050565b600061204b602f836124f4565b9150612056826127c2565b604082019050919050565b600061206e6012836124f4565b915061207982612811565b602082019050919050565b6000612091600c836124f4565b915061209c8261283a565b602082019050919050565b60006120b46017836124f4565b91506120bf82612863565b602082019050919050565b60006120d76030836124f4565b91506120e28261288c565b604082019050919050565b60006120fa600a836124f4565b9150612105826128db565b602082019050919050565b600061211d602f836124f4565b915061212882612904565b604082019050919050565b600060c08301600083015161214b6000860182611ea2565b50602083015161215e60208601826121d2565b50604083015161217160408601826121d2565b50606083015161218460608601826121d2565b506080830151848203608086015261219c8282611fb1565b91505060a083015184820360a08601526121b68282611fb1565b9150508091505092915050565b6121cc81612619565b82525050565b6121db81612623565b82525050565b6121ea81612623565b82525050565b60006121fc8284611fea565b915081905092915050565b600060208201905061221c6000830184611eb1565b92915050565b6000602082019050818103600083015261223c8184611ec0565b905092915050565b6000602082019050818103600083015261225e8184611f1e565b905092915050565b600060208201905061227b6000830184611f93565b92915050565b60006020820190506122966000830184611fa2565b92915050565b600060208201905081810360008301526122b58161201b565b9050919050565b600060208201905081810360008301526122d58161203e565b9050919050565b600060208201905081810360008301526122f581612061565b9050919050565b6000602082019050818103600083015261231581612084565b9050919050565b60006020820190508181036000830152612335816120a7565b9050919050565b60006020820190508181036000830152612355816120ca565b9050919050565b60006020820190508181036000830152612375816120ed565b9050919050565b6000602082019050818103600083015261239581612110565b9050919050565b600060208201905081810360008301526123b68184612133565b905092915050565b60006020820190506123d360008301846121c3565b92915050565b60006060820190506123ee60008301866121e1565b6123fb60208301856121e1565b61240860408301846121e1565b949350505050565b600061241a61242b565b905061242682826126a4565b919050565b6000604051905090565b600067ffffffffffffffff8211156124505761244f612733565b5b61245982612762565b9050602081019050919050565b6000819050602082019050919050565b6000819050602082019050919050565b600081519050919050565b600081519050919050565b600081519050919050565b6000602082019050919050565b6000602082019050919050565b600082825260208201905092915050565b600082825260208201905092915050565b600082825260208201905092915050565b600082825260208201905092915050565b600081905092915050565b600061251b82612619565b915061252683612619565b9250827fffffffffffffffffffffffffffffffffffffffffffffffffffffffffffffffff0382111561255b5761255a6126d5565b5b828201905092915050565b600061257182612623565b915061257c83612623565b92508260ff03821115612592576125916126d5565b5b828201905092915050565b60006125a882612619565b91506125b383612619565b9250828210156125c6576125c56126d5565b5b828203905092915050565b60006125dc826125f9565b9050919050565b60008115159050919050565b6000819050919050565b600073ffffffffffffffffffffffffffffffffffffffff82169050919050565b6000819050919050565b600060ff82169050919050565b82818337600083830152505050565b60005b8381101561265d578082015181840152602081019050612642565b8381111561266c576000848401525b50505050565b6000600282049050600182168061268a57607f821691505b6020821081141561269e5761269d612704565b5b50919050565b6126ad82612762565b810181811067ffffffffffffffff821117156126cc576126cb612733565b5b80604052505050565b7f4e487b7100000000000000000000000000000000000000000000000000000000600052601160045260246000fd5b7f4e487b7100000000000000000000000000000000000000000000000000000000600052602260045260246000fd5b7f4e487b7100000000000000000000000000000000000000000000000000000000600052604160045260246000fd5b6000601f19601f8301169050919050565b7f456e756d657261626c655365743a20696e646578206f7574206f6620626f756e60008201527f6473000000000000000000000000000000000000000000000000000000000000602082015250565b7f416363657373436f6e74726f6c3a2073656e646572206d75737420626520616e60008201527f2061646d696e20746f206772616e740000000000000000000000000000000000602082015250565b7f7175697a3a20696e76616c6964207175697a0000000000000000000000000000600082015250565b7f6f7574206f662072616e67650000000000000000000000000000000000000000600082015250565b7f53747564656e745175697a3a206f6e6c79206f776e6572000000000000000000600082015250565b7f416363657373436f6e74726f6c3a2073656e646572206d75737420626520616e60008201527f2061646d696e20746f207265766f6b6500000000000000000000000000000000602082015250565b7f6e6f742065786973747300000000000000000000000000000000000000000000600082015250565b7f416363657373436f6e74726f6c3a2063616e206f6e6c792072656e6f756e636560008201527f20726f6c657320666f722073656c660000000000000000000000000000000000602082015250565b61295c816125d1565b811461296757600080fd5b50565b612973816125ef565b811461297e57600080fd5b50565b61298a81612619565b811461299557600080fd5b50565b6129a181612623565b81146129ac57600080fd5b5056fea2646970667358221220a3d0821d94c9f41a7dd8dcc054a1adbf8cd108650db3fdca7d3a1e3e9fde695d64736f6c63430008010033",
  "immutableReferences": {},
  "source": "// SPDX-License-Identifier: MIT\r\npragma solidity 0.8.1;\r\n\r\n//import \"https://github.com/OpenZeppelin/openzeppelin-contracts/blob/master/contracts/access/AccessControl.sol\";\r\n//import '@openzeppelin/contracts/access/AccessControl.sol';\r\nimport './oz-contracts/access/AccessControl.sol';\r\n\r\nimport './iAcademyStudentQuiz.sol';\r\n\r\n// Off-contract: must be a subscribed student\r\n// A quiz isn't linked to a class, it must be implemented\r\n\r\ncontract AcademyStudentQuiz is AccessControl {\r\n\r\n    StudentQuizStruct[] private studentQuizInfo; \r\n    \r\n    //Last attempt quizzes from Student\r\n    mapping(address => mapping(string => uint256)) private studentQuizIndex;\r\n    \r\n    //What quizzes a student did?\r\n    mapping(address => string[]) private studentQuizList;\r\n\r\n    //Who did a quiz?\r\n    mapping(string => address[]) private quizStudentList;\r\n\r\n\r\n    constructor() {\r\n        _setupRole(DEFAULT_ADMIN_ROLE, msg.sender);\r\n    }\r\n\r\n    event StudentGradeAdded(address indexed student, string indexed quiz, uint8 total, uint8 grade, uint8 attempt);\r\n    event StudentGradeDeleted(address indexed student, string quiz);\r\n\r\n    modifier onlyOwner() {\r\n        require(hasRole(DEFAULT_ADMIN_ROLE, msg.sender), \"StudentQuiz: only owner\");\r\n        _;\r\n    }\r\n\r\n    function addStudentQuizAnswer (address student, string memory quiz, string memory answer, uint8 total, uint8 grade) public onlyOwner returns(uint256) {\r\n\r\n        require (!compareStrings(quiz, \"\"), \"quiz: invalid quiz\");\r\n        uint256 index = studentQuizIndex[student][quiz];\r\n        uint8 lastAttempt = 0;\r\n        \r\n        if (index == 0) {\r\n            //Create\r\n            lastAttempt = 1;\r\n            StudentQuizStruct memory q;\r\n            q.student = student;\r\n            q.quiz = quiz;\r\n            q.answer = answer;\r\n            q.attempt = 1;\r\n            q.total = total;\r\n            q.grade = grade;\r\n            studentQuizInfo.push(q);\r\n            index = studentQuizInfo.length;\r\n            studentQuizIndex[student][quiz] = index;\r\n            \r\n            //What quizzes a student did?\r\n            studentQuizList[student].push(quiz);\r\n            //Who did a quiz?\r\n            quizStudentList[quiz].push(student);\r\n        }\r\n        else {\r\n            index = index - 1;\r\n            studentQuizInfo[index].answer = answer;\r\n            studentQuizInfo[index].total = total;\r\n            studentQuizInfo[index].grade = grade;\r\n            studentQuizInfo[index].attempt = studentQuizInfo[index].attempt + 1;\r\n            lastAttempt = studentQuizInfo[index].attempt;\r\n        }\r\n\r\n        emit StudentGradeAdded(student, quiz, total, grade, lastAttempt);\r\n        return index;\r\n    }\r\n\r\n    function indexOf(address student, string memory quiz) public view returns (uint256) {\r\n        return studentQuizIndex[student][quiz];\r\n    }\r\n    \r\n    function exists(address student, string memory quiz) public view returns (bool) {\r\n        if (studentQuizIndex[student][quiz] == 0)\r\n            return false;\r\n        else\r\n            return true;\r\n    }\r\n\r\n    function getStudentQuiz (address student, string memory quiz) public view returns (StudentQuizStruct memory) {\r\n        require (exists(student, quiz), \"not exists\");\r\n        \r\n        uint256 index = studentQuizIndex[student][quiz]-1;\r\n        return studentQuizInfo[index];\r\n    }\r\n    \r\n    function getStudentQuiz (uint256 index) public view returns (StudentQuizStruct memory) {\r\n        require ((index > 0 ) && (index <= studentQuizInfo.length), \"out of range\");\r\n        return studentQuizInfo[index-1];\r\n    }\r\n\r\n    function countStudentByQuiz (string memory quiz) public view returns (uint256) {\r\n        return quizStudentList[quiz].length;\r\n    }\r\n    \r\n    function countQuizByStudent (address student) public view returns (uint256) {\r\n        return studentQuizList[student].length;\r\n    }    \r\n     \r\n    function listStudentByQuiz (string memory quiz) public view returns (address[] memory) {\r\n        return quizStudentList[quiz];\r\n    }\r\n    \r\n    function listQuizByStudent (address student) public view returns (string[] memory) {\r\n        return studentQuizList[student];\r\n    }    \r\n    \r\n    function compareStrings(string memory a, string memory b) private pure returns (bool) {\r\n        return (keccak256(abi.encodePacked((a))) == keccak256(abi.encodePacked((b))));\r\n    }   \r\n}\r\n",
  "sourcePath": "C:/ACADEMY/GITHUB/rsk-academy-dapp/contracts/AcademyStudentQuiz.sol",
  "compiler": {
    "name": "solc",
    "version": "0.8.1+commit.df193b15.Emscripten.clang"
  },
  "schemaVersion": "3.3.4",
  "updatedAt": "2021-03-18T02:30:56.244Z",
  "networkType": "ethereum",
  "devdoc": {
    "kind": "dev",
    "methods": {
      "getRoleAdmin(bytes32)": {
        "details": "Returns the admin role that controls `role`. See {grantRole} and {revokeRole}. To change a role's admin, use {_setRoleAdmin}."
      },
      "getRoleMember(bytes32,uint256)": {
        "details": "Returns one of the accounts that have `role`. `index` must be a value between 0 and {getRoleMemberCount}, non-inclusive. Role bearers are not sorted in any particular way, and their ordering may change at any point. WARNING: When using {getRoleMember} and {getRoleMemberCount}, make sure you perform all queries on the same block. See the following https://forum.openzeppelin.com/t/iterating-over-elements-on-enumerableset-in-openzeppelin-contracts/2296[forum post] for more information."
      },
      "getRoleMemberCount(bytes32)": {
        "details": "Returns the number of accounts that have `role`. Can be used together with {getRoleMember} to enumerate all bearers of a role."
      },
      "grantRole(bytes32,address)": {
        "details": "Grants `role` to `account`. If `account` had not been already granted `role`, emits a {RoleGranted} event. Requirements: - the caller must have ``role``'s admin role."
      },
      "hasRole(bytes32,address)": {
        "details": "Returns `true` if `account` has been granted `role`."
      },
      "renounceRole(bytes32,address)": {
        "details": "Revokes `role` from the calling account. Roles are often managed via {grantRole} and {revokeRole}: this function's purpose is to provide a mechanism for accounts to lose their privileges if they are compromised (such as when a trusted device is misplaced). If the calling account had been granted `role`, emits a {RoleRevoked} event. Requirements: - the caller must be `account`."
      },
      "revokeRole(bytes32,address)": {
        "details": "Revokes `role` from `account`. If `account` had been granted `role`, emits a {RoleRevoked} event. Requirements: - the caller must have ``role``'s admin role."
      }
    },
    "version": 1
  },
  "userdoc": {
    "kind": "user",
    "methods": {},
    "version": 1
  }
}