{
  "contractName": "AcademyClassList",
  "abi": [
    {
      "inputs": [],
      "stateMutability": "nonpayable",
      "type": "constructor"
    },
    {
      "anonymous": false,
      "inputs": [
        {
          "indexed": true,
          "internalType": "address",
          "name": "classAddress",
          "type": "address"
        },
        {
          "indexed": false,
          "internalType": "string",
          "name": "className",
          "type": "string"
        }
      ],
      "name": "AcademyClassCreated",
      "type": "event"
    },
    {
      "anonymous": false,
      "inputs": [
        {
          "indexed": true,
          "internalType": "bytes32",
          "name": "role",
          "type": "bytes32"
        },
        {
          "indexed": true,
          "internalType": "bytes32",
          "name": "previousAdminRole",
          "type": "bytes32"
        },
        {
          "indexed": true,
          "internalType": "bytes32",
          "name": "newAdminRole",
          "type": "bytes32"
        }
      ],
      "name": "RoleAdminChanged",
      "type": "event"
    },
    {
      "anonymous": false,
      "inputs": [
        {
          "indexed": true,
          "internalType": "bytes32",
          "name": "role",
          "type": "bytes32"
        },
        {
          "indexed": true,
          "internalType": "address",
          "name": "account",
          "type": "address"
        },
        {
          "indexed": true,
          "internalType": "address",
          "name": "sender",
          "type": "address"
        }
      ],
      "name": "RoleGranted",
      "type": "event"
    },
    {
      "anonymous": false,
      "inputs": [
        {
          "indexed": true,
          "internalType": "bytes32",
          "name": "role",
          "type": "bytes32"
        },
        {
          "indexed": true,
          "internalType": "address",
          "name": "account",
          "type": "address"
        },
        {
          "indexed": true,
          "internalType": "address",
          "name": "sender",
          "type": "address"
        }
      ],
      "name": "RoleRevoked",
      "type": "event"
    },
    {
      "inputs": [],
      "name": "DEFAULT_ADMIN_ROLE",
      "outputs": [
        {
          "internalType": "bytes32",
          "name": "",
          "type": "bytes32"
        }
      ],
      "stateMutability": "view",
      "type": "function"
    },
    {
      "inputs": [],
      "name": "active",
      "outputs": [
        {
          "internalType": "bool",
          "name": "",
          "type": "bool"
        }
      ],
      "stateMutability": "view",
      "type": "function"
    },
    {
      "inputs": [
        {
          "internalType": "bytes32",
          "name": "role",
          "type": "bytes32"
        }
      ],
      "name": "getRoleAdmin",
      "outputs": [
        {
          "internalType": "bytes32",
          "name": "",
          "type": "bytes32"
        }
      ],
      "stateMutability": "view",
      "type": "function"
    },
    {
      "inputs": [
        {
          "internalType": "bytes32",
          "name": "role",
          "type": "bytes32"
        },
        {
          "internalType": "uint256",
          "name": "index",
          "type": "uint256"
        }
      ],
      "name": "getRoleMember",
      "outputs": [
        {
          "internalType": "address",
          "name": "",
          "type": "address"
        }
      ],
      "stateMutability": "view",
      "type": "function"
    },
    {
      "inputs": [
        {
          "internalType": "bytes32",
          "name": "role",
          "type": "bytes32"
        }
      ],
      "name": "getRoleMemberCount",
      "outputs": [
        {
          "internalType": "uint256",
          "name": "",
          "type": "uint256"
        }
      ],
      "stateMutability": "view",
      "type": "function"
    },
    {
      "inputs": [
        {
          "internalType": "bytes32",
          "name": "role",
          "type": "bytes32"
        },
        {
          "internalType": "address",
          "name": "account",
          "type": "address"
        }
      ],
      "name": "grantRole",
      "outputs": [],
      "stateMutability": "nonpayable",
      "type": "function"
    },
    {
      "inputs": [
        {
          "internalType": "bytes32",
          "name": "role",
          "type": "bytes32"
        },
        {
          "internalType": "address",
          "name": "account",
          "type": "address"
        }
      ],
      "name": "hasRole",
      "outputs": [
        {
          "internalType": "bool",
          "name": "",
          "type": "bool"
        }
      ],
      "stateMutability": "view",
      "type": "function"
    },
    {
      "inputs": [
        {
          "internalType": "bytes32",
          "name": "role",
          "type": "bytes32"
        },
        {
          "internalType": "address",
          "name": "account",
          "type": "address"
        }
      ],
      "name": "renounceRole",
      "outputs": [],
      "stateMutability": "nonpayable",
      "type": "function"
    },
    {
      "inputs": [
        {
          "internalType": "bytes32",
          "name": "role",
          "type": "bytes32"
        },
        {
          "internalType": "address",
          "name": "account",
          "type": "address"
        }
      ],
      "name": "revokeRole",
      "outputs": [],
      "stateMutability": "nonpayable",
      "type": "function"
    },
    {
      "inputs": [
        {
          "internalType": "address",
          "name": "addressStudentList",
          "type": "address"
        },
        {
          "internalType": "string",
          "name": "className",
          "type": "string"
        }
      ],
      "name": "createAcademyClass",
      "outputs": [
        {
          "internalType": "address",
          "name": "",
          "type": "address"
        }
      ],
      "stateMutability": "nonpayable",
      "type": "function"
    },
    {
      "inputs": [
        {
          "internalType": "address",
          "name": "classAddress",
          "type": "address"
        }
      ],
      "name": "changeActiveClass",
      "outputs": [
        {
          "internalType": "bool",
          "name": "",
          "type": "bool"
        }
      ],
      "stateMutability": "nonpayable",
      "type": "function"
    },
    {
      "inputs": [
        {
          "internalType": "address",
          "name": "account",
          "type": "address"
        },
        {
          "internalType": "address",
          "name": "classAddress",
          "type": "address"
        }
      ],
      "name": "addClassOwner",
      "outputs": [],
      "stateMutability": "nonpayable",
      "type": "function"
    },
    {
      "inputs": [
        {
          "internalType": "address",
          "name": "account",
          "type": "address"
        },
        {
          "internalType": "address",
          "name": "classAddress",
          "type": "address"
        }
      ],
      "name": "delClassOwner",
      "outputs": [],
      "stateMutability": "nonpayable",
      "type": "function"
    },
    {
      "inputs": [],
      "name": "changeActive",
      "outputs": [
        {
          "internalType": "bool",
          "name": "",
          "type": "bool"
        }
      ],
      "stateMutability": "nonpayable",
      "type": "function"
    },
    {
      "inputs": [
        {
          "internalType": "address",
          "name": "classAddress",
          "type": "address"
        }
      ],
      "name": "isAcademyClass",
      "outputs": [
        {
          "internalType": "bool",
          "name": "",
          "type": "bool"
        }
      ],
      "stateMutability": "view",
      "type": "function"
    },
    {
      "inputs": [
        {
          "internalType": "address",
          "name": "classAddress",
          "type": "address"
        }
      ],
      "name": "getAcademyClass",
      "outputs": [
        {
          "components": [
            {
              "internalType": "address",
              "name": "classAddress",
              "type": "address"
            },
            {
              "internalType": "bool",
              "name": "active",
              "type": "bool"
            },
            {
              "internalType": "string",
              "name": "name",
              "type": "string"
            }
          ],
          "internalType": "struct ClassStruct",
          "name": "",
          "type": "tuple"
        }
      ],
      "stateMutability": "view",
      "type": "function"
    },
    {
      "inputs": [],
      "name": "countAcademyClasses",
      "outputs": [
        {
          "internalType": "uint256",
          "name": "",
          "type": "uint256"
        }
      ],
      "stateMutability": "view",
      "type": "function"
    },
    {
      "inputs": [],
      "name": "listAcademyClasses",
      "outputs": [
        {
          "components": [
            {
              "internalType": "address",
              "name": "classAddress",
              "type": "address"
            },
            {
              "internalType": "bool",
              "name": "active",
              "type": "bool"
            },
            {
              "internalType": "string",
              "name": "name",
              "type": "string"
            }
          ],
          "internalType": "struct ClassStruct[]",
          "name": "",
          "type": "tuple[]"
        }
      ],
      "stateMutability": "view",
      "type": "function"
    }
  ],
  "bytecode": "0x60806040523480156200001157600080fd5b50620000276000801b336200004760201b60201c565b60018060006101000a81548160ff021916908315150217905550620001dd565b6200005982826200005d60201b60201c565b5050565b6200008b816000808581526020019081526020016000206000016200010060201b6200129c1790919060201c565b15620000fc57620000a16200013860201b60201c565b73ffffffffffffffffffffffffffffffffffffffff168173ffffffffffffffffffffffffffffffffffffffff16837f2f8788117e7eff1d82e926ec794901d17c78024a50270940304540a733656f0d60405160405180910390a45b5050565b600062000130836000018373ffffffffffffffffffffffffffffffffffffffff1660001b6200014060201b60201c565b905092915050565b600033905090565b6000620001548383620001ba60201b60201c565b620001af578260000182908060018154018082558091505060019003906000526020600020016000909190919091505582600001805490508360010160008481526020019081526020016000208190555060019050620001b4565b600090505b92915050565b600080836001016000848152602001908152602001600020541415905092915050565b61512a80620001ed6000396000f3fe60806040523480156200001157600080fd5b5060043610620001305760003560e01c806391d1485411620000b1578063b4ac0dfc116200007b578063b4ac0dfc1462000375578063ca15c8731462000397578063d547741f14620003cd578063d9a5350814620003ed578063fc7519f9146200040f5762000130565b806391d1485414620002c55780639e48626f14620002fb578063a1357dc0146200031d578063a217fddf14620003535762000130565b806336568abe11620000ff57806336568abe14620001cd5780633b3a61ba14620001ed57806374db2a6014620002235780638fe182d114620002595780639010d07c146200028f5762000130565b806302fb0c5e14620001355780631d2fe0a71462000157578063248a9ca314620001775780632f2ff15d14620001ad575b600080fd5b6200013f6200042f565b6040516200014e919062001e8f565b60405180910390f35b6200017560048036038101906200016f919062001969565b62000442565b005b6200019560048036038101906200018f919062001a30565b62000563565b604051620001a4919062001eac565b60405180910390f35b620001cb6004803603810190620001c5919062001a5c565b62000582565b005b620001eb6004803603810190620001e5919062001a5c565b620005fe565b005b6200020b60048036038101906200020591906200193d565b62000688565b6040516200021a919062002008565b60405180910390f35b6200024160048036038101906200023b9190620019aa565b6200084b565b60405162000250919062001e1a565b60405180910390f35b6200027760048036038101906200027191906200193d565b62000b69565b60405162000286919062001e8f565b60405180910390f35b620002ad6004803603810190620002a7919062001a9d565b62000e01565b604051620002bc919062001e1a565b60405180910390f35b620002e36004803603810190620002dd919062001a5c565b62000e34565b604051620002f2919062001e8f565b60405180910390f35b6200030562000e67565b60405162000314919062001e6b565b60405180910390f35b6200033b60048036038101906200033591906200193d565b62000fd3565b6040516200034a919062001e8f565b60405180910390f35b6200035d62001031565b6040516200036c919062001eac565b60405180910390f35b6200037f62001038565b6040516200038e919062001e8f565b60405180910390f35b620003b56004803603810190620003af919062001a30565b620010ca565b604051620003c491906200202c565b60405180910390f35b620003eb6004803603810190620003e5919062001a5c565b620010f2565b005b620003f76200116e565b6040516200040691906200202c565b60405180910390f35b6200042d600480360381019062000427919062001969565b6200117b565b005b600160009054906101000a900460ff1681565b620004516000801b3362000e34565b62000493576040517f08c379a00000000000000000000000000000000000000000000000000000000081526004016200048a9062001fa2565b60405180910390fd5b600160009054906101000a900460ff16620004e5576040517f08c379a0000000000000000000000000000000000000000000000000000000008152600401620004dc9062001fc4565b60405180910390fd5b60008190508073ffffffffffffffffffffffffffffffffffffffff1663d547741f6000801b856040518363ffffffff1660e01b81526004016200052a92919062001ec9565b600060405180830381600087803b1580156200054557600080fd5b505af11580156200055a573d6000803e3d6000fd5b50505050505050565b6000806000838152602001908152602001600020600201549050919050565b620005ac60008084815260200190815260200160002060020154620005a6620012ce565b62000e34565b620005ee576040517f08c379a0000000000000000000000000000000000000000000000000000000008152600401620005e59062001f3c565b60405180910390fd5b620005fa8282620012d6565b5050565b62000608620012ce565b73ffffffffffffffffffffffffffffffffffffffff168173ffffffffffffffffffffffffffffffffffffffff161462000678576040517f08c379a00000000000000000000000000000000000000000000000000000000081526004016200066f9062001fe6565b60405180910390fd5b6200068482826200136e565b5050565b6200069262001778565b60006001600360008573ffffffffffffffffffffffffffffffffffffffff1673ffffffffffffffffffffffffffffffffffffffff16815260200190815260200160002054620006e291906200216b565b9050600281815481106200071f577f4e487b7100000000000000000000000000000000000000000000000000000000600052603260045260246000fd5b90600052602060002090600202016040518060600160405290816000820160009054906101000a900473ffffffffffffffffffffffffffffffffffffffff1673ffffffffffffffffffffffffffffffffffffffff1673ffffffffffffffffffffffffffffffffffffffff1681526020016000820160149054906101000a900460ff16151515158152602001600182018054620007bb906200223f565b80601f0160208091040260200160405190810160405280929190818152602001828054620007e9906200223f565b80156200083a5780601f106200080e576101008083540402835291602001916200083a565b820191906000526020600020905b8154815290600101906020018083116200081c57829003601f168201915b505050505081525050915050919050565b60006200085c6000801b3362000e34565b6200089e576040517f08c379a0000000000000000000000000000000000000000000000000000000008152600401620008959062001fa2565b60405180910390fd5b600160009054906101000a900460ff16620008f0576040517f08c379a0000000000000000000000000000000000000000000000000000000008152600401620008e79062001fc4565b60405180910390fd5b600083836040516200090290620017b1565b6200090f92919062001e37565b604051809103906000f0801580156200092c573d6000803e3d6000fd5b50905060008190506200093e62001778565b81816000019073ffffffffffffffffffffffffffffffffffffffff16908173ffffffffffffffffffffffffffffffffffffffff16815250506001816020019015159081151581525050848160400181905250600281908060018154018082558091505060019003906000526020600020906002020160009091909190915060008201518160000160006101000a81548173ffffffffffffffffffffffffffffffffffffffff021916908373ffffffffffffffffffffffffffffffffffffffff16021790555060208201518160000160146101000a81548160ff021916908315150217905550604082015181600101908051906020019062000a41929190620017bf565b5050506000600280549050905080600360008573ffffffffffffffffffffffffffffffffffffffff1673ffffffffffffffffffffffffffffffffffffffff1681526020019081526020016000208190555060008790508073ffffffffffffffffffffffffffffffffffffffff16632f2ff15d6000801b866040518363ffffffff1660e01b815260040162000ad792919062001ec9565b600060405180830381600087803b15801562000af257600080fd5b505af115801562000b07573d6000803e3d6000fd5b505050508373ffffffffffffffffffffffffffffffffffffffff167f19593ab970a97e30b1488866dc5490452380f3bffb1be271efb0577b1ad734968860405162000b53919062001ef6565b60405180910390a2839550505050505092915050565b600062000b7a6000801b3362000e34565b62000bbc576040517f08c379a000000000000000000000000000000000000000000000000000000000815260040162000bb39062001fa2565b60405180910390fd5b600160009054906101000a900460ff1662000c0e576040517f08c379a000000000000000000000000000000000000000000000000000000000815260040162000c059062001fc4565b60405180910390fd5b62000c198262000fd3565b1562000c5c576040517f08c379a000000000000000000000000000000000000000000000000000000000815260040162000c539062001f5e565b60405180910390fd5b60006001600360008573ffffffffffffffffffffffffffffffffffffffff1673ffffffffffffffffffffffffffffffffffffffff1681526020019081526020016000205462000cac91906200216b565b90506002818154811062000ce9577f4e487b7100000000000000000000000000000000000000000000000000000000600052603260045260246000fd5b906000526020600020906002020160000160149054906101000a900460ff16156002828154811062000d44577f4e487b7100000000000000000000000000000000000000000000000000000000600052603260045260246000fd5b906000526020600020906002020160000160146101000a81548160ff02191690831515021790555060008390508073ffffffffffffffffffffffffffffffffffffffff1663ff2e27956040518163ffffffff1660e01b8152600401602060405180830381600087803b15801562000dba57600080fd5b505af115801562000dcf573d6000803e3d6000fd5b505050506040513d601f19601f8201168201806040525081019062000df5919062001a04565b50600192505050919050565b600062000e2c826000808681526020019081526020016000206000016200140690919063ffffffff16565b905092915050565b600062000e5f826000808681526020019081526020016000206000016200142290919063ffffffff16565b905092915050565b60606002805480602002602001604051908101604052809291908181526020016000905b8282101562000fca57838290600052602060002090600202016040518060600160405290816000820160009054906101000a900473ffffffffffffffffffffffffffffffffffffffff1673ffffffffffffffffffffffffffffffffffffffff1673ffffffffffffffffffffffffffffffffffffffff1681526020016000820160149054906101000a900460ff1615151515815260200160018201805462000f32906200223f565b80601f016020809104026020016040519081016040528092919081815260200182805462000f60906200223f565b801562000fb15780601f1062000f855761010080835404028352916020019162000fb1565b820191906000526020600020905b81548152906001019060200180831162000f9357829003601f168201915b5050505050815250508152602001906001019062000e8b565b50505050905090565b600080600360008473ffffffffffffffffffffffffffffffffffffffff1673ffffffffffffffffffffffffffffffffffffffff1681526020019081526020016000205414156200102757600090506200102c565b600190505b919050565b6000801b81565b6000620010496000801b3362000e34565b6200108b576040517f08c379a0000000000000000000000000000000000000000000000000000000008152600401620010829062001fa2565b60405180910390fd5b600160009054906101000a900460ff1615600160006101000a81548160ff021916908315150217905550600160009054906101000a900460ff16905090565b6000620010eb60008084815260200190815260200160002060000162001454565b9050919050565b6200111c6000808481526020019081526020016000206002015462001116620012ce565b62000e34565b6200115e576040517f08c379a0000000000000000000000000000000000000000000000000000000008152600401620011559062001f80565b60405180910390fd5b6200116a82826200136e565b5050565b6000600280549050905090565b6200118a6000801b3362000e34565b620011cc576040517f08c379a0000000000000000000000000000000000000000000000000000000008152600401620011c39062001fa2565b60405180910390fd5b600160009054906101000a900460ff166200121e576040517f08c379a0000000000000000000000000000000000000000000000000000000008152600401620012159062001fc4565b60405180910390fd5b60008190508073ffffffffffffffffffffffffffffffffffffffff16632f2ff15d6000801b856040518363ffffffff1660e01b81526004016200126392919062001ec9565b600060405180830381600087803b1580156200127e57600080fd5b505af115801562001293573d6000803e3d6000fd5b50505050505050565b6000620012c6836000018373ffffffffffffffffffffffffffffffffffffffff1660001b6200146b565b905092915050565b600033905090565b620012ff816000808581526020019081526020016000206000016200129c90919063ffffffff16565b156200136a576200130f620012ce565b73ffffffffffffffffffffffffffffffffffffffff168173ffffffffffffffffffffffffffffffffffffffff16837f2f8788117e7eff1d82e926ec794901d17c78024a50270940304540a733656f0d60405160405180910390a45b5050565b6200139781600080858152602001908152602001600020600001620014df90919063ffffffff16565b156200140257620013a7620012ce565b73ffffffffffffffffffffffffffffffffffffffff168173ffffffffffffffffffffffffffffffffffffffff16837ff6391f5c32d9c69d2a47ea670b442974b53935d1edc7fd64eb21e047a839171b60405160405180910390a45b5050565b600062001417836000018362001511565b60001c905092915050565b60006200144c836000018373ffffffffffffffffffffffffffffffffffffffff1660001b620015af565b905092915050565b60006200146482600001620015d2565b9050919050565b6000620014798383620015af565b620014d4578260000182908060018154018082558091505060019003906000526020600020016000909190919091505582600001805490508360010160008481526020019081526020016000208190555060019050620014d9565b600090505b92915050565b600062001509836000018373ffffffffffffffffffffffffffffffffffffffff1660001b620015e3565b905092915050565b6000818360000180549050116200155f576040517f08c379a0000000000000000000000000000000000000000000000000000000008152600401620015569062001f1a565b60405180910390fd5b8260000182815481106200159c577f4e487b7100000000000000000000000000000000000000000000000000000000600052603260045260246000fd5b9060005260206000200154905092915050565b600080836001016000848152602001908152602001600020541415905092915050565b600081600001805490509050919050565b600080836001016000848152602001908152602001600020549050600081146200176c5760006001826200161891906200216b565b90506000600186600001805490506200163291906200216b565b9050600086600001828154811062001673577f4e487b7100000000000000000000000000000000000000000000000000000000600052603260045260246000fd5b9060005260206000200154905080876000018481548110620016be577f4e487b7100000000000000000000000000000000000000000000000000000000600052603260045260246000fd5b9060005260206000200181905550600183620016db91906200210e565b87600101600083815260200190815260200160002081905550866000018054806200172f577f4e487b7100000000000000000000000000000000000000000000000000000000600052603160045260246000fd5b6001900381819060005260206000200160009055905586600101600087815260200190815260200160002060009055600194505050505062001772565b60009150505b92915050565b6040518060600160405280600073ffffffffffffffffffffffffffffffffffffffff168152602001600015158152602001606081525090565b612b8c806200256983390190565b828054620017cd906200223f565b90600052602060002090601f016020900481019282620017f157600085556200183d565b82601f106200180c57805160ff19168380011785556200183d565b828001600101855582156200183d579182015b828111156200183c5782518255916020019190600101906200181f565b5b5090506200184c919062001850565b5090565b5b808211156200186b57600081600090555060010162001851565b5090565b600062001886620018808462002072565b62002049565b9050828152602081018484840111156200189f57600080fd5b620018ac848285620021fa565b509392505050565b600081359050620018c58162002500565b92915050565b600081519050620018dc816200251a565b92915050565b600081359050620018f38162002534565b92915050565b600082601f8301126200190b57600080fd5b81356200191d8482602086016200186f565b91505092915050565b60008135905062001937816200254e565b92915050565b6000602082840312156200195057600080fd5b60006200196084828501620018b4565b91505092915050565b600080604083850312156200197d57600080fd5b60006200198d85828601620018b4565b9250506020620019a085828601620018b4565b9150509250929050565b60008060408385031215620019be57600080fd5b6000620019ce85828601620018b4565b925050602083013567ffffffffffffffff811115620019ec57600080fd5b620019fa85828601620018f9565b9150509250929050565b60006020828403121562001a1757600080fd5b600062001a2784828501620018cb565b91505092915050565b60006020828403121562001a4357600080fd5b600062001a5384828501620018e2565b91505092915050565b6000806040838503121562001a7057600080fd5b600062001a8085828601620018e2565b925050602062001a9385828601620018b4565b9150509250929050565b6000806040838503121562001ab157600080fd5b600062001ac185828601620018e2565b925050602062001ad48582860162001926565b9150509250929050565b600062001aec838362001d5d565b905092915050565b62001aff81620021a6565b82525050565b62001b1081620021a6565b82525050565b600062001b2382620020b8565b62001b2f8185620020db565b93508360208202850162001b4385620020a8565b8060005b8581101562001b85578484038952815162001b63858262001ade565b945062001b7083620020ce565b925060208a0199505060018101905062001b47565b50829750879550505050505092915050565b62001ba281620021ba565b82525050565b62001bb381620021ba565b82525050565b62001bc481620021c6565b82525050565b600062001bd782620020c3565b62001be38185620020ec565b935062001bf581856020860162002209565b62001c008162002338565b840191505092915050565b600062001c1882620020c3565b62001c248185620020fd565b935062001c3681856020860162002209565b62001c418162002338565b840191505092915050565b600062001c5b602283620020fd565b915062001c688262002349565b604082019050919050565b600062001c82602f83620020fd565b915062001c8f8262002398565b604082019050919050565b600062001ca9601083620020fd565b915062001cb682620023e7565b602082019050919050565b600062001cd0603083620020fd565b915062001cdd8262002410565b604082019050919050565b600062001cf7601c83620020fd565b915062001d04826200245f565b602082019050919050565b600062001d1e601c83620020fd565b915062001d2b8262002488565b602082019050919050565b600062001d45602f83620020fd565b915062001d5282620024b1565b604082019050919050565b600060608301600083015162001d77600086018262001af4565b50602083015162001d8c602086018262001b97565b506040830151848203604086015262001da6828262001bca565b9150508091505092915050565b600060608301600083015162001dcd600086018262001af4565b50602083015162001de2602086018262001b97565b506040830151848203604086015262001dfc828262001bca565b9150508091505092915050565b62001e1481620021f0565b82525050565b600060208201905062001e31600083018462001b05565b92915050565b600060408201905062001e4e600083018562001b05565b818103602083015262001e62818462001c0b565b90509392505050565b6000602082019050818103600083015262001e87818462001b16565b905092915050565b600060208201905062001ea6600083018462001ba8565b92915050565b600060208201905062001ec3600083018462001bb9565b92915050565b600060408201905062001ee0600083018562001bb9565b62001eef602083018462001b05565b9392505050565b6000602082019050818103600083015262001f12818462001c0b565b905092915050565b6000602082019050818103600083015262001f358162001c4c565b9050919050565b6000602082019050818103600083015262001f578162001c73565b9050919050565b6000602082019050818103600083015262001f798162001c9a565b9050919050565b6000602082019050818103600083015262001f9b8162001cc1565b9050919050565b6000602082019050818103600083015262001fbd8162001ce8565b9050919050565b6000602082019050818103600083015262001fdf8162001d0f565b9050919050565b60006020820190508181036000830152620020018162001d36565b9050919050565b6000602082019050818103600083015262002024818462001db3565b905092915050565b600060208201905062002043600083018462001e09565b92915050565b60006200205562002068565b905062002063828262002275565b919050565b6000604051905090565b600067ffffffffffffffff82111562002090576200208f62002309565b5b6200209b8262002338565b9050602081019050919050565b6000819050602082019050919050565b600081519050919050565b600081519050919050565b6000602082019050919050565b600082825260208201905092915050565b600082825260208201905092915050565b600082825260208201905092915050565b60006200211b82620021f0565b91506200212883620021f0565b9250827fffffffffffffffffffffffffffffffffffffffffffffffffffffffffffffffff0382111562002160576200215f620022ab565b5b828201905092915050565b60006200217882620021f0565b91506200218583620021f0565b9250828210156200219b576200219a620022ab565b5b828203905092915050565b6000620021b382620021d0565b9050919050565b60008115159050919050565b6000819050919050565b600073ffffffffffffffffffffffffffffffffffffffff82169050919050565b6000819050919050565b82818337600083830152505050565b60005b83811015620022295780820151818401526020810190506200220c565b8381111562002239576000848401525b50505050565b600060028204905060018216806200225857607f821691505b602082108114156200226f576200226e620022da565b5b50919050565b620022808262002338565b810181811067ffffffffffffffff82111715620022a257620022a162002309565b5b80604052505050565b7f4e487b7100000000000000000000000000000000000000000000000000000000600052601160045260246000fd5b7f4e487b7100000000000000000000000000000000000000000000000000000000600052602260045260246000fd5b7f4e487b7100000000000000000000000000000000000000000000000000000000600052604160045260246000fd5b6000601f19601f8301169050919050565b7f456e756d657261626c655365743a20696e646578206f7574206f6620626f756e60008201527f6473000000000000000000000000000000000000000000000000000000000000602082015250565b7f416363657373436f6e74726f6c3a2073656e646572206d75737420626520616e60008201527f2061646d696e20746f206772616e740000000000000000000000000000000000602082015250565b7f636c617373206e6f742065786973747300000000000000000000000000000000600082015250565b7f416363657373436f6e74726f6c3a2073656e646572206d75737420626520616e60008201527f2061646d696e20746f207265766f6b6500000000000000000000000000000000602082015250565b7f41636164656d79436c6173734c6973743a206f6e6c79206f776e657200000000600082015250565b7f41636164656d79436c6173734c6973743a206e6f742061637469766500000000600082015250565b7f416363657373436f6e74726f6c3a2063616e206f6e6c792072656e6f756e636560008201527f20726f6c657320666f722073656c660000000000000000000000000000000000602082015250565b6200250b81620021a6565b81146200251757600080fd5b50565b6200252581620021ba565b81146200253157600080fd5b50565b6200253f81620021c6565b81146200254b57600080fd5b50565b6200255981620021f0565b81146200256557600080fd5b5056fe60806040523480156200001157600080fd5b5060405162002b8c38038062002b8c833981810160405281019062000037919062000397565b6200004c6000801b33620000c860201b60201c565b8060029080519060200190620000649291906200025e565b5060018060006101000a81548160ff02191690831515021790555081600360006101000a81548173ffffffffffffffffffffffffffffffffffffffff021916908373ffffffffffffffffffffffffffffffffffffffff1602179055505050620005af565b620000da8282620000de60201b60201c565b5050565b6200010c816000808581526020019081526020016000206000016200018160201b62000ce91790919060201c565b156200017d5762000122620001b960201b60201c565b73ffffffffffffffffffffffffffffffffffffffff168173ffffffffffffffffffffffffffffffffffffffff16837f2f8788117e7eff1d82e926ec794901d17c78024a50270940304540a733656f0d60405160405180910390a45b5050565b6000620001b1836000018373ffffffffffffffffffffffffffffffffffffffff1660001b620001c160201b60201c565b905092915050565b600033905090565b6000620001d583836200023b60201b60201c565b6200023057826000018290806001815401808255809150506001900390600052602060002001600090919091909150558260000180549050836001016000848152602001908152602001600020819055506001905062000235565b600090505b92915050565b600080836001016000848152602001908152602001600020541415905092915050565b8280546200026c90620004ba565b90600052602060002090601f016020900481019282620002905760008555620002dc565b82601f10620002ab57805160ff1916838001178555620002dc565b82800160010185558215620002dc579182015b82811115620002db578251825591602001919060010190620002be565b5b509050620002eb9190620002ef565b5090565b5b808211156200030a576000816000905550600101620002f0565b5090565b6000620003256200031f846200041a565b620003f1565b9050828152602081018484840111156200033e57600080fd5b6200034b84828562000484565b509392505050565b600081519050620003648162000595565b92915050565b600082601f8301126200037c57600080fd5b81516200038e8482602086016200030e565b91505092915050565b60008060408385031215620003ab57600080fd5b6000620003bb8582860162000353565b925050602083015167ffffffffffffffff811115620003d957600080fd5b620003e7858286016200036a565b9150509250929050565b6000620003fd62000410565b90506200040b8282620004f0565b919050565b6000604051905090565b600067ffffffffffffffff82111562000438576200043762000555565b5b620004438262000584565b9050602081019050919050565b60006200045d8262000464565b9050919050565b600073ffffffffffffffffffffffffffffffffffffffff82169050919050565b60005b83811015620004a457808201518184015260208101905062000487565b83811115620004b4576000848401525b50505050565b60006002820490506001821680620004d357607f821691505b60208210811415620004ea57620004e962000526565b5b50919050565b620004fb8262000584565b810181811067ffffffffffffffff821117156200051d576200051c62000555565b5b80604052505050565b7f4e487b7100000000000000000000000000000000000000000000000000000000600052602260045260246000fd5b7f4e487b7100000000000000000000000000000000000000000000000000000000600052604160045260246000fd5b6000601f19601f8301169050919050565b620005a08162000450565b8114620005ac57600080fd5b50565b6125cd80620005bf6000396000f3fe608060405234801561001057600080fd5b50600436106101365760003560e01c80639010d07c116100b8578063bd06ea191161007c578063bd06ea1914610377578063ca15c873146103a7578063d43e001a146103d7578063d547741f146103f5578063fcae448414610411578063ff2e27951461042f57610136565b80639010d07c1461029957806391d14854146102c95780639aa8e722146102f95780639f3da5cc14610329578063a217fddf1461035957610136565b806336568abe116100ff57806336568abe146101e1578063477f5a69146101fd578063733d09d21461021b57806382f7d3921461024b5780638f449a051461027b57610136565b8062c51f8c1461013b57806302fb0c5e14610159578063035410f614610177578063248a9ca3146101955780632f2ff15d146101c5575b600080fd5b61014361044d565b6040516101509190611e71565b60405180910390f35b6101616104db565b60405161016e9190611e05565b60405180910390f35b61017f6104ee565b60405161018c9190611de3565b60405180910390f35b6101af60048036038101906101aa91906119dc565b61057c565b6040516101bc9190611e20565b60405180910390f35b6101df60048036038101906101da9190611a05565b61059b565b005b6101fb60048036038101906101f69190611a05565b61060e565b005b610205610691565b604051610212919061200e565b60405180910390f35b6102356004803603810190610230919061198a565b61069e565b6040516102429190611e05565b60405180910390f35b6102656004803603810190610260919061198a565b6108b3565b6040516102729190611e05565b60405180910390f35b610283610912565b6040516102909190611e05565b60405180910390f35b6102b360048036038101906102ae9190611a41565b610925565b6040516102c09190611d9f565b60405180910390f35b6102e360048036038101906102de9190611a05565b610956565b6040516102f09190611e05565b60405180910390f35b610313600480360381019061030e919061198a565b610987565b6040516103209190611e05565b60405180910390f35b610343600480360381019061033e919061198a565b6109e7565b6040516103509190611ff3565b60405180910390f35b610361610b23565b60405161036e9190611e20565b60405180910390f35b610391600480360381019061038c919061198a565b610b2a565b60405161039e9190611e05565b60405180910390f35b6103c160048036038101906103bc91906119dc565b610b8b565b6040516103ce919061200e565b60405180910390f35b6103df610bb1565b6040516103ec9190611e3b565b60405180910390f35b61040f600480360381019061040a9190611a05565b610bd7565b005b610419610c4a565b6040516104269190611e05565b60405180910390f35b610437610c5c565b6040516104449190611e05565b60405180910390f35b6002805461045a906121d6565b80601f0160208091040260200160405190810160405280929190818152602001828054610486906121d6565b80156104d35780601f106104a8576101008083540402835291602001916104d3565b820191906000526020600020905b8154815290600101906020018083116104b657829003601f168201915b505050505081565b600160009054906101000a900460ff1681565b6060600580548060200260200160405190810160405280929190818152602001828054801561057257602002820191906000526020600020905b8160009054906101000a900473ffffffffffffffffffffffffffffffffffffffff1673ffffffffffffffffffffffffffffffffffffffff1681526020019060010190808311610528575b5050505050905090565b6000806000838152602001908152602001600020600201549050919050565b6105c1600080848152602001908152602001600020600201546105bc610d19565b610956565b610600576040517f08c379a00000000000000000000000000000000000000000000000000000000081526004016105f790611eb3565b60405180910390fd5b61060a8282610d21565b5050565b610616610d19565b73ffffffffffffffffffffffffffffffffffffffff168173ffffffffffffffffffffffffffffffffffffffff1614610683576040517f08c379a000000000000000000000000000000000000000000000000000000000815260040161067a90611fd3565b60405180910390fd5b61068d8282610db4565b5050565b6000600580549050905090565b60006106ad6000801b33610956565b6106ec576040517f08c379a00000000000000000000000000000000000000000000000000000000081526004016106e390611f33565b60405180910390fd5b600160009054906101000a900460ff1661073b576040517f08c379a000000000000000000000000000000000000000000000000000000000815260040161073290611f13565b60405180910390fd5b610744826108b3565b610783576040517f08c379a000000000000000000000000000000000000000000000000000000000815260040161077a90611f53565b60405180910390fd5b6002600460008473ffffffffffffffffffffffffffffffffffffffff1673ffffffffffffffffffffffffffffffffffffffff16815260200190815260200160002060000160006101000a81548160ff0219169083600281111561080f577f4e487b7100000000000000000000000000000000000000000000000000000000600052602160045260246000fd5b021790555042600460008473ffffffffffffffffffffffffffffffffffffffff1673ffffffffffffffffffffffffffffffffffffffff168152602001908152602001600020600201819055508173ffffffffffffffffffffffffffffffffffffffff167ffcac4ad276b3d596f594dd2e15d40999195593dfd3631982e5d8f03e9b62042b60026040516108a29190611e56565b60405180910390a260019050919050565b600080600460008473ffffffffffffffffffffffffffffffffffffffff1673ffffffffffffffffffffffffffffffffffffffff168152602001908152602001600020600101541115610908576001905061090d565b600090505b919050565b600061091d33610e47565b506001905090565b600061094e826000808681526020019081526020016000206000016113b090919063ffffffff16565b905092915050565b600061097f826000808681526020019081526020016000206000016113ca90919063ffffffff16565b905092915050565b60006109966000801b33610956565b6109d5576040517f08c379a00000000000000000000000000000000000000000000000000000000081526004016109cc90611f33565b60405180910390fd5b6109de826113fa565b60019050919050565b6109ef6118c8565b6109f8826108b3565b610a37576040517f08c379a0000000000000000000000000000000000000000000000000000000008152600401610a2e90611ef3565b60405180910390fd5b600460008373ffffffffffffffffffffffffffffffffffffffff1673ffffffffffffffffffffffffffffffffffffffff1681526020019081526020016000206040518060600160405290816000820160009054906101000a900460ff166002811115610acc577f4e487b7100000000000000000000000000000000000000000000000000000000600052602160045260246000fd5b6002811115610b04577f4e487b7100000000000000000000000000000000000000000000000000000000600052602160045260246000fd5b8152602001600182015481526020016002820154815250509050919050565b6000801b81565b6000610b396000801b33610956565b610b78576040517f08c379a0000000000000000000000000000000000000000000000000000000008152600401610b6f90611f33565b60405180910390fd5b610b8182610e47565b5060019050919050565b6000610baa6000808481526020019081526020016000206000016115bb565b9050919050565b600360009054906101000a900473ffffffffffffffffffffffffffffffffffffffff1681565b610bfd60008084815260200190815260200160002060020154610bf8610d19565b610956565b610c3c576040517f08c379a0000000000000000000000000000000000000000000000000000000008152600401610c3390611f73565b60405180910390fd5b610c468282610db4565b5050565b6000610c55336113fa565b6001905090565b6000610c6b6000801b33610956565b610caa576040517f08c379a0000000000000000000000000000000000000000000000000000000008152600401610ca190611f33565b60405180910390fd5b600160009054906101000a900460ff1615600160006101000a81548160ff021916908315150217905550600160009054906101000a900460ff16905090565b6000610d11836000018373ffffffffffffffffffffffffffffffffffffffff1660001b6115d0565b905092915050565b600033905090565b610d4881600080858152602001908152602001600020600001610ce990919063ffffffff16565b15610db057610d55610d19565b73ffffffffffffffffffffffffffffffffffffffff168173ffffffffffffffffffffffffffffffffffffffff16837f2f8788117e7eff1d82e926ec794901d17c78024a50270940304540a733656f0d60405160405180910390a45b5050565b610ddb8160008085815260200190815260200160002060000161164090919063ffffffff16565b15610e4357610de8610d19565b73ffffffffffffffffffffffffffffffffffffffff168173ffffffffffffffffffffffffffffffffffffffff16837ff6391f5c32d9c69d2a47ea670b442974b53935d1edc7fd64eb21e047a839171b60405160405180910390a45b5050565b6000600160009054906101000a900460ff16610e98576040517f08c379a0000000000000000000000000000000000000000000000000000000008152600401610e8f90611f13565b60405180910390fd5b610ea1826108b3565b15610ee1576040517f08c379a0000000000000000000000000000000000000000000000000000000008152600401610ed890611fb3565b60405180910390fd5b60006001600460008573ffffffffffffffffffffffffffffffffffffffff1673ffffffffffffffffffffffffffffffffffffffff16815260200190815260200160002060000160006101000a81548160ff02191690836002811115610f6f577f4e487b7100000000000000000000000000000000000000000000000000000000600052602160045260246000fd5b021790555042600460008573ffffffffffffffffffffffffffffffffffffffff1673ffffffffffffffffffffffffffffffffffffffff168152602001908152602001600020600101819055506005839080600181540180825580915050600190039060005260206000200160009091909190916101000a81548173ffffffffffffffffffffffffffffffffffffffff021916908373ffffffffffffffffffffffffffffffffffffffff160217905550600360009054906101000a900473ffffffffffffffffffffffffffffffffffffffff1673ffffffffffffffffffffffffffffffffffffffff166382f7d392846040518263ffffffff1660e01b81526004016110799190611d9f565b60206040518083038186803b15801561109157600080fd5b505afa1580156110a5573d6000803e3d6000fd5b505050506040513d601f19601f820116820180604052508101906110c991906119b3565b61118157600360009054906101000a900473ffffffffffffffffffffffffffffffffffffffff1673ffffffffffffffffffffffffffffffffffffffff1663bd06ea19846040518263ffffffff1660e01b81526004016111289190611d9f565b602060405180830381600087803b15801561114257600080fd5b505af1158015611156573d6000803e3d6000fd5b505050506040513d601f19601f8201168201806040525081019061117a9190611a7d565b9050611182565b5b6000309050600360009054906101000a900473ffffffffffffffffffffffffffffffffffffffff1673ffffffffffffffffffffffffffffffffffffffff16636cd3fedf85836040518363ffffffff1660e01b81526004016111e4929190611dba565b602060405180830381600087803b1580156111fe57600080fd5b505af1158015611212573d6000803e3d6000fd5b505050506040513d601f19601f8201168201806040525081019061123691906119b3565b611275576040517f08c379a000000000000000000000000000000000000000000000000000000000815260040161126c90611f93565b60405180910390fd5b600360009054906101000a900473ffffffffffffffffffffffffffffffffffffffff1673ffffffffffffffffffffffffffffffffffffffff16630c78a97485836040518363ffffffff1660e01b81526004016112d2929190611dba565b602060405180830381600087803b1580156112ec57600080fd5b505af1158015611300573d6000803e3d6000fd5b505050506040513d601f19601f8201168201806040525081019061132491906119b3565b611363576040517f08c379a000000000000000000000000000000000000000000000000000000000815260040161135a90611ed3565b60405180910390fd5b8373ffffffffffffffffffffffffffffffffffffffff167fc2cd73f6970f5e40dce13d5b14924b73bf1a89d678b30618a3135716213a2c6560405160405180910390a28192505050919050565b60006113bf8360000183611670565b60001c905092915050565b60006113f2836000018373ffffffffffffffffffffffffffffffffffffffff1660001b61170a565b905092915050565b600160009054906101000a900460ff16611449576040517f08c379a000000000000000000000000000000000000000000000000000000000815260040161144090611f13565b60405180910390fd5b611452816108b3565b611491576040517f08c379a000000000000000000000000000000000000000000000000000000000815260040161148890611f53565b60405180910390fd5b6000600460008373ffffffffffffffffffffffffffffffffffffffff1673ffffffffffffffffffffffffffffffffffffffff16815260200190815260200160002060000160006101000a81548160ff0219169083600281111561151d577f4e487b7100000000000000000000000000000000000000000000000000000000600052602160045260246000fd5b021790555042600460008373ffffffffffffffffffffffffffffffffffffffff1673ffffffffffffffffffffffffffffffffffffffff168152602001908152602001600020600201819055508073ffffffffffffffffffffffffffffffffffffffff167ffcac4ad276b3d596f594dd2e15d40999195593dfd3631982e5d8f03e9b62042b60006040516115b09190611e56565b60405180910390a250565b60006115c98260000161172d565b9050919050565b60006115dc838361170a565b61163557826000018290806001815401808255809150506001900390600052602060002001600090919091909150558260000180549050836001016000848152602001908152602001600020819055506001905061163a565b600090505b92915050565b6000611668836000018373ffffffffffffffffffffffffffffffffffffffff1660001b61173e565b905092915050565b6000818360000180549050116116bb576040517f08c379a00000000000000000000000000000000000000000000000000000000081526004016116b290611e93565b60405180910390fd5b8260000182815481106116f7577f4e487b7100000000000000000000000000000000000000000000000000000000600052603260045260246000fd5b9060005260206000200154905092915050565b600080836001016000848152602001908152602001600020541415905092915050565b600081600001805490509050919050565b600080836001016000848152602001908152602001600020549050600081146118bc57600060018261177091906120d4565b905060006001866000018054905061178891906120d4565b905060008660000182815481106117c8577f4e487b7100000000000000000000000000000000000000000000000000000000600052603260045260246000fd5b9060005260206000200154905080876000018481548110611812577f4e487b7100000000000000000000000000000000000000000000000000000000600052603260045260246000fd5b906000526020600020018190555060018361182d919061207e565b8760010160008381526020019081526020016000208190555086600001805480611880577f4e487b7100000000000000000000000000000000000000000000000000000000600052603160045260246000fd5b600190038181906000526020600020016000905590558660010160008781526020019081526020016000206000905560019450505050506118c2565b60009150505b92915050565b60405180606001604052806000600281111561190d577f4e487b7100000000000000000000000000000000000000000000000000000000600052602160045260246000fd5b815260200160008152602001600081525090565b6000813590506119308161253b565b92915050565b60008151905061194581612552565b92915050565b60008135905061195a81612569565b92915050565b60008135905061196f81612580565b92915050565b60008151905061198481612580565b92915050565b60006020828403121561199c57600080fd5b60006119aa84828501611921565b91505092915050565b6000602082840312156119c557600080fd5b60006119d384828501611936565b91505092915050565b6000602082840312156119ee57600080fd5b60006119fc8482850161194b565b91505092915050565b60008060408385031215611a1857600080fd5b6000611a268582860161194b565b9250506020611a3785828601611921565b9150509250929050565b60008060408385031215611a5457600080fd5b6000611a628582860161194b565b9250506020611a7385828601611960565b9150509250929050565b600060208284031215611a8f57600080fd5b6000611a9d84828501611975565b91505092915050565b6000611ab28383611abe565b60208301905092915050565b611ac781612108565b82525050565b611ad681612108565b82525050565b6000611ae782612039565b611af1818561205c565b9350611afc83612029565b8060005b83811015611b2d578151611b148882611aa6565b9750611b1f8361204f565b925050600181019050611b00565b5085935050505092915050565b611b438161211a565b82525050565b611b5281612126565b82525050565b611b618161216d565b82525050565b611b7081612191565b82525050565b611b7f81612191565b82525050565b6000611b9082612044565b611b9a818561206d565b9350611baa8185602086016121a3565b611bb381612295565b840191505092915050565b6000611bcb60228361206d565b9150611bd6826122a6565b604082019050919050565b6000611bee602f8361206d565b9150611bf9826122f5565b604082019050919050565b6000611c11602d8361206d565b9150611c1c82612344565b604082019050919050565b6000611c34600b8361206d565b9150611c3f82612393565b602082019050919050565b6000611c5760188361206d565b9150611c62826123bc565b602082019050919050565b6000611c7a60188361206d565b9150611c85826123e5565b602082019050919050565b6000611c9d60128361206d565b9150611ca88261240e565b602082019050919050565b6000611cc060308361206d565b9150611ccb82612437565b604082019050919050565b6000611ce3601d8361206d565b9150611cee82612486565b602082019050919050565b6000611d0660168361206d565b9150611d11826124af565b602082019050919050565b6000611d29602f8361206d565b9150611d34826124d8565b604082019050919050565b606082016000820151611d556000850182611b67565b506020820151611d686020850182611d81565b506040820151611d7b6040850182611d81565b50505050565b611d8a81612163565b82525050565b611d9981612163565b82525050565b6000602082019050611db46000830184611acd565b92915050565b6000604082019050611dcf6000830185611acd565b611ddc6020830184611acd565b9392505050565b60006020820190508181036000830152611dfd8184611adc565b905092915050565b6000602082019050611e1a6000830184611b3a565b92915050565b6000602082019050611e356000830184611b49565b92915050565b6000602082019050611e506000830184611b58565b92915050565b6000602082019050611e6b6000830184611b76565b92915050565b60006020820190508181036000830152611e8b8184611b85565b905092915050565b60006020820190508181036000830152611eac81611bbe565b9050919050565b60006020820190508181036000830152611ecc81611be1565b9050919050565b60006020820190508181036000830152611eec81611c04565b9050919050565b60006020820190508181036000830152611f0c81611c27565b9050919050565b60006020820190508181036000830152611f2c81611c4a565b9050919050565b60006020820190508181036000830152611f4c81611c6d565b9050919050565b60006020820190508181036000830152611f6c81611c90565b9050919050565b60006020820190508181036000830152611f8c81611cb3565b9050919050565b60006020820190508181036000830152611fac81611cd6565b9050919050565b60006020820190508181036000830152611fcc81611cf9565b9050919050565b60006020820190508181036000830152611fec81611d1c565b9050919050565b60006060820190506120086000830184611d3f565b92915050565b60006020820190506120236000830184611d90565b92915050565b6000819050602082019050919050565b600081519050919050565b600081519050919050565b6000602082019050919050565b600082825260208201905092915050565b600082825260208201905092915050565b600061208982612163565b915061209483612163565b9250827fffffffffffffffffffffffffffffffffffffffffffffffffffffffffffffffff038211156120c9576120c8612208565b5b828201905092915050565b60006120df82612163565b91506120ea83612163565b9250828210156120fd576120fc612208565b5b828203905092915050565b600061211382612143565b9050919050565b60008115159050919050565b6000819050919050565b600081905061213e82612527565b919050565b600073ffffffffffffffffffffffffffffffffffffffff82169050919050565b6000819050919050565b60006121788261217f565b9050919050565b600061218a82612143565b9050919050565b600061219c82612130565b9050919050565b60005b838110156121c15780820151818401526020810190506121a6565b838111156121d0576000848401525b50505050565b600060028204905060018216806121ee57607f821691505b6020821081141561220257612201612266565b5b50919050565b7f4e487b7100000000000000000000000000000000000000000000000000000000600052601160045260246000fd5b7f4e487b7100000000000000000000000000000000000000000000000000000000600052602160045260246000fd5b7f4e487b7100000000000000000000000000000000000000000000000000000000600052602260045260246000fd5b6000601f19601f8301169050919050565b7f456e756d657261626c655365743a20696e646578206f7574206f6620626f756e60008201527f6473000000000000000000000000000000000000000000000000000000000000602082015250565b7f416363657373436f6e74726f6c3a2073656e646572206d75737420626520616e60008201527f2061646d696e20746f206772616e740000000000000000000000000000000000602082015250565b7f4572726f7220696e2073747564656e744c6973742e757064617465537475646560008201527f6e74416374697665436c61737300000000000000000000000000000000000000602082015250565b7f6e6f742073747564656e74000000000000000000000000000000000000000000600082015250565b7f41636164656d79436c6173733a206e6f74206163746976650000000000000000600082015250565b7f41636164656d79436c6173733a206f6e6c79206f776e65720000000000000000600082015250565b7f73747564656e74206e6f74206578697374730000000000000000000000000000600082015250565b7f416363657373436f6e74726f6c3a2073656e646572206d75737420626520616e60008201527f2061646d696e20746f207265766f6b6500000000000000000000000000000000602082015250565b7f4572726f7220696e2073747564656e744c6973742e616464436c617373000000600082015250565b7f73747564656e7420616c72656164792065786973747300000000000000000000600082015250565b7f416363657373436f6e74726f6c3a2063616e206f6e6c792072656e6f756e636560008201527f20726f6c657320666f722073656c660000000000000000000000000000000000602082015250565b6003811061253857612537612237565b5b50565b61254481612108565b811461254f57600080fd5b50565b61255b8161211a565b811461256657600080fd5b50565b61257281612126565b811461257d57600080fd5b50565b61258981612163565b811461259457600080fd5b5056fea26469706673582212209e794d00a64bf617ea59682e607655b8d8dc4f82bb98fb7e171998441619ef9a64736f6c63430008010033a264697066735822122013e311b1c11d0fc8b9f7da34b517cb2efba38f7dfd9b009a7ddccecd60dcf8f164736f6c63430008010033",
  "immutableReferences": {},
  "source": "// SPDX-License-Identifier: MIT\r\npragma solidity 0.8.1;\r\n\r\n//import \"https://github.com/OpenZeppelin/openzeppelin-contracts/blob/master/contracts/access/AccessControl.sol\";\r\n//import '@openzeppelin/contracts/access/AccessControl.sol';\r\nimport './oz-contracts/access/AccessControl.sol';\r\n\r\nimport './AcademyClass.sol';\r\nimport './iAcademyClassList.sol';\r\nimport './iAcademyStudents.sol';\r\n\r\n\r\ncontract AcademyClassList is AccessControl {\r\n    //Factory for AcademyClass\r\n\r\n    bool public active;\r\n    //mapping(address => ClassStruct) private classInfo;\r\n    //address[] private classAddressIndex;\r\n    ClassStruct[] private classInfo;\r\n    mapping(address => uint256) private classAddressIndex;\r\n\r\n    constructor() {\r\n        _setupRole(DEFAULT_ADMIN_ROLE, msg.sender);\r\n        active = true;\r\n    }\r\n\r\n    event AcademyClassCreated(address indexed classAddress, string className);\r\n\r\n    modifier onlyOwner() {\r\n        require(hasRole(DEFAULT_ADMIN_ROLE, msg.sender), \"AcademyClassList: only owner\");\r\n        _;\r\n    }\r\n    \r\n    modifier onlyActive() {\r\n        require(active, \"AcademyClassList: not active\");\r\n        _;\r\n    } \r\n\r\n    function createAcademyClass(address addressStudentList, string memory className) public onlyOwner onlyActive returns (address) {\r\n        //className = \"Devs 2021-01\";\r\n        //Can repeat className? YES\r\n        \r\n        AcademyClass ac = new AcademyClass(addressStudentList, className);\r\n        address classAddress = address(ac);\r\n        \r\n        ClassStruct memory c;\r\n        c.classAddress = classAddress;\r\n        c.active = true;\r\n        c.name = className;\r\n        classInfo.push(c);\r\n        uint256 index = classInfo.length;    //Attention: real location is index-1!\r\n        classAddressIndex[classAddress] = index;\r\n\r\n        iAcademyStudents studentList = iAcademyStudents(addressStudentList);\r\n        studentList.grantRole(DEFAULT_ADMIN_ROLE, classAddress);\r\n\r\n        emit AcademyClassCreated (classAddress, className);\r\n        return classAddress;\r\n    }\r\n    \r\n    function changeActiveClass(address classAddress) public onlyOwner onlyActive returns(bool) {\r\n        require (!isAcademyClass(classAddress), \"class not exists\");\r\n\r\n        uint256 index = classAddressIndex[classAddress]-1;\r\n        classInfo[index].active = !classInfo[index].active;\r\n\r\n        AcademyClass c = AcademyClass(classAddress);\r\n        c.changeClassStatus();\r\n        return true;\r\n    }\r\n\r\n    function addClassOwner(address account, address classAddress) public onlyOwner onlyActive {\r\n        AcademyClass c = AcademyClass(classAddress);\r\n        c.grantRole(DEFAULT_ADMIN_ROLE, account);\r\n    }\r\n    \r\n    function delClassOwner(address account, address classAddress) public onlyOwner onlyActive {\r\n        AcademyClass c = AcademyClass(classAddress);\r\n        c.revokeRole(DEFAULT_ADMIN_ROLE, account);\r\n    }    \r\n    \r\n    function changeActive() public onlyOwner returns(bool) {\r\n        active = !active;\r\n        return active;\r\n    }\r\n\r\n    function isAcademyClass(address classAddress) public view returns (bool) {\r\n        if (classAddressIndex[classAddress] == 0)\r\n            return false;\r\n        else\r\n            return true;\r\n    }\r\n\r\n    function getAcademyClass(address classAddress) public view returns (ClassStruct memory) {\r\n        uint256 index = classAddressIndex[classAddress]-1;\r\n        return classInfo[index];\r\n    }    \r\n    \r\n    function countAcademyClasses() public view returns(uint) {\r\n        return (classInfo.length);\r\n    }\r\n    \r\n    function listAcademyClasses() public view returns(ClassStruct[] memory) {\r\n        return classInfo;\r\n    } \r\n\r\n}\r\n\r\n\r\n",
  "sourcePath": "C:/ACADEMY/GITHUB/rsk-academy-dapp/contracts/AcademyClassList.sol",
  "compiler": {
    "name": "solc",
    "version": "0.8.1+commit.df193b15.Emscripten.clang"
  },
  "schemaVersion": "3.3.3",
  "updatedAt": "2021-02-23T02:58:18.490Z",
  "networkType": "ethereum",
  "devdoc": {
    "kind": "dev",
    "methods": {
      "getRoleAdmin(bytes32)": {
        "details": "Returns the admin role that controls `role`. See {grantRole} and {revokeRole}. To change a role's admin, use {_setRoleAdmin}."
      },
      "getRoleMember(bytes32,uint256)": {
        "details": "Returns one of the accounts that have `role`. `index` must be a value between 0 and {getRoleMemberCount}, non-inclusive. Role bearers are not sorted in any particular way, and their ordering may change at any point. WARNING: When using {getRoleMember} and {getRoleMemberCount}, make sure you perform all queries on the same block. See the following https://forum.openzeppelin.com/t/iterating-over-elements-on-enumerableset-in-openzeppelin-contracts/2296[forum post] for more information."
      },
      "getRoleMemberCount(bytes32)": {
        "details": "Returns the number of accounts that have `role`. Can be used together with {getRoleMember} to enumerate all bearers of a role."
      },
      "grantRole(bytes32,address)": {
        "details": "Grants `role` to `account`. If `account` had not been already granted `role`, emits a {RoleGranted} event. Requirements: - the caller must have ``role``'s admin role."
      },
      "hasRole(bytes32,address)": {
        "details": "Returns `true` if `account` has been granted `role`."
      },
      "renounceRole(bytes32,address)": {
        "details": "Revokes `role` from the calling account. Roles are often managed via {grantRole} and {revokeRole}: this function's purpose is to provide a mechanism for accounts to lose their privileges if they are compromised (such as when a trusted device is misplaced). If the calling account had been granted `role`, emits a {RoleRevoked} event. Requirements: - the caller must be `account`."
      },
      "revokeRole(bytes32,address)": {
        "details": "Revokes `role` from `account`. If `account` had been granted `role`, emits a {RoleRevoked} event. Requirements: - the caller must have ``role``'s admin role."
      }
    },
    "version": 1
  },
  "userdoc": {
    "kind": "user",
    "methods": {},
    "version": 1
  }
}