{
  "contractName": "AcademyClassList",
  "abi": [
    {
      "inputs": [],
      "stateMutability": "nonpayable",
      "type": "constructor"
    },
    {
      "anonymous": false,
      "inputs": [
        {
          "indexed": true,
          "internalType": "address",
          "name": "classAddress",
          "type": "address"
        },
        {
          "indexed": false,
          "internalType": "string",
          "name": "className",
          "type": "string"
        }
      ],
      "name": "AcademyClassCreated",
      "type": "event"
    },
    {
      "anonymous": false,
      "inputs": [
        {
          "indexed": true,
          "internalType": "bytes32",
          "name": "role",
          "type": "bytes32"
        },
        {
          "indexed": true,
          "internalType": "bytes32",
          "name": "previousAdminRole",
          "type": "bytes32"
        },
        {
          "indexed": true,
          "internalType": "bytes32",
          "name": "newAdminRole",
          "type": "bytes32"
        }
      ],
      "name": "RoleAdminChanged",
      "type": "event"
    },
    {
      "anonymous": false,
      "inputs": [
        {
          "indexed": true,
          "internalType": "bytes32",
          "name": "role",
          "type": "bytes32"
        },
        {
          "indexed": true,
          "internalType": "address",
          "name": "account",
          "type": "address"
        },
        {
          "indexed": true,
          "internalType": "address",
          "name": "sender",
          "type": "address"
        }
      ],
      "name": "RoleGranted",
      "type": "event"
    },
    {
      "anonymous": false,
      "inputs": [
        {
          "indexed": true,
          "internalType": "bytes32",
          "name": "role",
          "type": "bytes32"
        },
        {
          "indexed": true,
          "internalType": "address",
          "name": "account",
          "type": "address"
        },
        {
          "indexed": true,
          "internalType": "address",
          "name": "sender",
          "type": "address"
        }
      ],
      "name": "RoleRevoked",
      "type": "event"
    },
    {
      "inputs": [],
      "name": "DEFAULT_ADMIN_ROLE",
      "outputs": [
        {
          "internalType": "bytes32",
          "name": "",
          "type": "bytes32"
        }
      ],
      "stateMutability": "view",
      "type": "function"
    },
    {
      "inputs": [],
      "name": "active",
      "outputs": [
        {
          "internalType": "bool",
          "name": "",
          "type": "bool"
        }
      ],
      "stateMutability": "view",
      "type": "function"
    },
    {
      "inputs": [
        {
          "internalType": "bytes32",
          "name": "role",
          "type": "bytes32"
        }
      ],
      "name": "getRoleAdmin",
      "outputs": [
        {
          "internalType": "bytes32",
          "name": "",
          "type": "bytes32"
        }
      ],
      "stateMutability": "view",
      "type": "function"
    },
    {
      "inputs": [
        {
          "internalType": "bytes32",
          "name": "role",
          "type": "bytes32"
        },
        {
          "internalType": "uint256",
          "name": "index",
          "type": "uint256"
        }
      ],
      "name": "getRoleMember",
      "outputs": [
        {
          "internalType": "address",
          "name": "",
          "type": "address"
        }
      ],
      "stateMutability": "view",
      "type": "function"
    },
    {
      "inputs": [
        {
          "internalType": "bytes32",
          "name": "role",
          "type": "bytes32"
        }
      ],
      "name": "getRoleMemberCount",
      "outputs": [
        {
          "internalType": "uint256",
          "name": "",
          "type": "uint256"
        }
      ],
      "stateMutability": "view",
      "type": "function"
    },
    {
      "inputs": [
        {
          "internalType": "bytes32",
          "name": "role",
          "type": "bytes32"
        },
        {
          "internalType": "address",
          "name": "account",
          "type": "address"
        }
      ],
      "name": "grantRole",
      "outputs": [],
      "stateMutability": "nonpayable",
      "type": "function"
    },
    {
      "inputs": [
        {
          "internalType": "bytes32",
          "name": "role",
          "type": "bytes32"
        },
        {
          "internalType": "address",
          "name": "account",
          "type": "address"
        }
      ],
      "name": "hasRole",
      "outputs": [
        {
          "internalType": "bool",
          "name": "",
          "type": "bool"
        }
      ],
      "stateMutability": "view",
      "type": "function"
    },
    {
      "inputs": [
        {
          "internalType": "bytes32",
          "name": "role",
          "type": "bytes32"
        },
        {
          "internalType": "address",
          "name": "account",
          "type": "address"
        }
      ],
      "name": "renounceRole",
      "outputs": [],
      "stateMutability": "nonpayable",
      "type": "function"
    },
    {
      "inputs": [
        {
          "internalType": "bytes32",
          "name": "role",
          "type": "bytes32"
        },
        {
          "internalType": "address",
          "name": "account",
          "type": "address"
        }
      ],
      "name": "revokeRole",
      "outputs": [],
      "stateMutability": "nonpayable",
      "type": "function"
    },
    {
      "inputs": [
        {
          "internalType": "address",
          "name": "addressStudentList",
          "type": "address"
        },
        {
          "internalType": "address",
          "name": "addressStudentQuiz",
          "type": "address"
        },
        {
          "internalType": "string",
          "name": "className",
          "type": "string"
        }
      ],
      "name": "createAcademyClass",
      "outputs": [
        {
          "internalType": "address",
          "name": "",
          "type": "address"
        }
      ],
      "stateMutability": "nonpayable",
      "type": "function"
    },
    {
      "inputs": [
        {
          "internalType": "address",
          "name": "classAddress",
          "type": "address"
        }
      ],
      "name": "changeActiveClass",
      "outputs": [
        {
          "internalType": "bool",
          "name": "",
          "type": "bool"
        }
      ],
      "stateMutability": "nonpayable",
      "type": "function"
    },
    {
      "inputs": [
        {
          "internalType": "address",
          "name": "account",
          "type": "address"
        },
        {
          "internalType": "address",
          "name": "classAddress",
          "type": "address"
        }
      ],
      "name": "addClassOwner",
      "outputs": [],
      "stateMutability": "nonpayable",
      "type": "function"
    },
    {
      "inputs": [
        {
          "internalType": "address",
          "name": "account",
          "type": "address"
        },
        {
          "internalType": "address",
          "name": "classAddress",
          "type": "address"
        }
      ],
      "name": "delClassOwner",
      "outputs": [],
      "stateMutability": "nonpayable",
      "type": "function"
    },
    {
      "inputs": [],
      "name": "changeActive",
      "outputs": [
        {
          "internalType": "bool",
          "name": "",
          "type": "bool"
        }
      ],
      "stateMutability": "nonpayable",
      "type": "function"
    },
    {
      "inputs": [
        {
          "internalType": "address",
          "name": "classAddress",
          "type": "address"
        }
      ],
      "name": "isAcademyClass",
      "outputs": [
        {
          "internalType": "bool",
          "name": "",
          "type": "bool"
        }
      ],
      "stateMutability": "view",
      "type": "function"
    },
    {
      "inputs": [
        {
          "internalType": "address",
          "name": "classAddress",
          "type": "address"
        }
      ],
      "name": "getAcademyClass",
      "outputs": [
        {
          "components": [
            {
              "internalType": "address",
              "name": "classAddress",
              "type": "address"
            },
            {
              "internalType": "bool",
              "name": "active",
              "type": "bool"
            },
            {
              "internalType": "string",
              "name": "name",
              "type": "string"
            }
          ],
          "internalType": "struct ClassStruct",
          "name": "",
          "type": "tuple"
        }
      ],
      "stateMutability": "view",
      "type": "function"
    },
    {
      "inputs": [],
      "name": "countAcademyClasses",
      "outputs": [
        {
          "internalType": "uint256",
          "name": "",
          "type": "uint256"
        }
      ],
      "stateMutability": "view",
      "type": "function"
    },
    {
      "inputs": [],
      "name": "listAcademyClasses",
      "outputs": [
        {
          "components": [
            {
              "internalType": "address",
              "name": "classAddress",
              "type": "address"
            },
            {
              "internalType": "bool",
              "name": "active",
              "type": "bool"
            },
            {
              "internalType": "string",
              "name": "name",
              "type": "string"
            }
          ],
          "internalType": "struct ClassStruct[]",
          "name": "",
          "type": "tuple[]"
        }
      ],
      "stateMutability": "view",
      "type": "function"
    }
  ],
  "bytecode": "0x60806040523480156200001157600080fd5b50620000276000801b336200004760201b60201c565b60018060006101000a81548160ff021916908315150217905550620001dd565b6200005982826200005d60201b60201c565b5050565b6200008b816000808581526020019081526020016000206000016200010060201b620013191790919060201c565b15620000fc57620000a16200013860201b60201c565b73ffffffffffffffffffffffffffffffffffffffff168173ffffffffffffffffffffffffffffffffffffffff16837f2f8788117e7eff1d82e926ec794901d17c78024a50270940304540a733656f0d60405160405180910390a45b5050565b600062000130836000018373ffffffffffffffffffffffffffffffffffffffff1660001b6200014060201b60201c565b905092915050565b600033905090565b6000620001548383620001ba60201b60201c565b620001af578260000182908060018154018082558091505060019003906000526020600020016000909190919091505582600001805490508360010160008481526020019081526020016000208190555060019050620001b4565b600090505b92915050565b600080836001016000848152602001908152602001600020541415905092915050565b61567380620001ed6000396000f3fe60806040523480156200001157600080fd5b5060043610620001305760003560e01c80639e48626f11620000b1578063ca15c873116200007b578063ca15c8731462000361578063d547741f1462000397578063d9a5350814620003b7578063e92c8f1b14620003d9578063fc7519f9146200040f5762000130565b80639e48626f14620002c5578063a1357dc014620002e7578063a217fddf146200031d578063b4ac0dfc146200033f5762000130565b806336568abe11620000ff57806336568abe14620001cd5780633b3a61ba14620001ed5780638fe182d114620002235780639010d07c146200025957806391d14854146200028f5762000130565b806302fb0c5e14620001355780631d2fe0a71462000157578063248a9ca314620001775780632f2ff15d14620001ad575b600080fd5b6200013f6200042f565b6040516200014e919062001f31565b60405180910390f35b6200017560048036038101906200016f9190620019e6565b62000442565b005b6200019560048036038101906200018f919062001ac2565b62000563565b604051620001a4919062001f4e565b60405180910390f35b620001cb6004803603810190620001c5919062001aee565b62000582565b005b620001eb6004803603810190620001e5919062001aee565b620005fe565b005b6200020b6004803603810190620002059190620019ba565b62000688565b6040516200021a9190620020aa565b60405180910390f35b6200024160048036038101906200023b9190620019ba565b6200084b565b60405162000250919062001f31565b60405180910390f35b62000277600480360381019062000271919062001b2f565b62000ae3565b60405162000286919062001eac565b60405180910390f35b620002ad6004803603810190620002a7919062001aee565b62000b16565b604051620002bc919062001f31565b60405180910390f35b620002cf62000b49565b604051620002de919062001f0d565b60405180910390f35b620003056004803603810190620002ff9190620019ba565b62000cb5565b60405162000314919062001f31565b60405180910390f35b6200032762000d13565b60405162000336919062001f4e565b60405180910390f35b6200034962000d1a565b60405162000358919062001f31565b60405180910390f35b6200037f600480360381019062000379919062001ac2565b62000dac565b6040516200038e9190620020ce565b60405180910390f35b620003b56004803603810190620003af919062001aee565b62000dd4565b005b620003c162000e50565b604051620003d09190620020ce565b60405180910390f35b620003f76004803603810190620003f1919062001a27565b62000e5d565b60405162000406919062001eac565b60405180910390f35b6200042d6004803603810190620004279190620019e6565b620011f8565b005b600160009054906101000a900460ff1681565b620004516000801b3362000b16565b62000493576040517f08c379a00000000000000000000000000000000000000000000000000000000081526004016200048a9062002044565b60405180910390fd5b600160009054906101000a900460ff16620004e5576040517f08c379a0000000000000000000000000000000000000000000000000000000008152600401620004dc9062002066565b60405180910390fd5b60008190508073ffffffffffffffffffffffffffffffffffffffff1663d547741f6000801b856040518363ffffffff1660e01b81526004016200052a92919062001f6b565b600060405180830381600087803b1580156200054557600080fd5b505af11580156200055a573d6000803e3d6000fd5b50505050505050565b6000806000838152602001908152602001600020600201549050919050565b620005ac60008084815260200190815260200160002060020154620005a66200134b565b62000b16565b620005ee576040517f08c379a0000000000000000000000000000000000000000000000000000000008152600401620005e59062001fde565b60405180910390fd5b620005fa828262001353565b5050565b620006086200134b565b73ffffffffffffffffffffffffffffffffffffffff168173ffffffffffffffffffffffffffffffffffffffff161462000678576040517f08c379a00000000000000000000000000000000000000000000000000000000081526004016200066f9062002088565b60405180910390fd5b620006848282620013eb565b5050565b62000692620017f5565b60006001600360008573ffffffffffffffffffffffffffffffffffffffff1673ffffffffffffffffffffffffffffffffffffffff16815260200190815260200160002054620006e291906200220d565b9050600281815481106200071f577f4e487b7100000000000000000000000000000000000000000000000000000000600052603260045260246000fd5b90600052602060002090600202016040518060600160405290816000820160009054906101000a900473ffffffffffffffffffffffffffffffffffffffff1673ffffffffffffffffffffffffffffffffffffffff1673ffffffffffffffffffffffffffffffffffffffff1681526020016000820160149054906101000a900460ff16151515158152602001600182018054620007bb90620022e1565b80601f0160208091040260200160405190810160405280929190818152602001828054620007e990620022e1565b80156200083a5780601f106200080e576101008083540402835291602001916200083a565b820191906000526020600020905b8154815290600101906020018083116200081c57829003601f168201915b505050505081525050915050919050565b60006200085c6000801b3362000b16565b6200089e576040517f08c379a0000000000000000000000000000000000000000000000000000000008152600401620008959062002044565b60405180910390fd5b600160009054906101000a900460ff16620008f0576040517f08c379a0000000000000000000000000000000000000000000000000000000008152600401620008e79062002066565b60405180910390fd5b620008fb8262000cb5565b156200093e576040517f08c379a0000000000000000000000000000000000000000000000000000000008152600401620009359062002000565b60405180910390fd5b60006001600360008573ffffffffffffffffffffffffffffffffffffffff1673ffffffffffffffffffffffffffffffffffffffff168152602001908152602001600020546200098e91906200220d565b905060028181548110620009cb577f4e487b7100000000000000000000000000000000000000000000000000000000600052603260045260246000fd5b906000526020600020906002020160000160149054906101000a900460ff16156002828154811062000a26577f4e487b7100000000000000000000000000000000000000000000000000000000600052603260045260246000fd5b906000526020600020906002020160000160146101000a81548160ff02191690831515021790555060008390508073ffffffffffffffffffffffffffffffffffffffff1663ff2e27956040518163ffffffff1660e01b8152600401602060405180830381600087803b15801562000a9c57600080fd5b505af115801562000ab1573d6000803e3d6000fd5b505050506040513d601f19601f8201168201806040525081019062000ad7919062001a96565b50600192505050919050565b600062000b0e826000808681526020019081526020016000206000016200148390919063ffffffff16565b905092915050565b600062000b41826000808681526020019081526020016000206000016200149f90919063ffffffff16565b905092915050565b60606002805480602002602001604051908101604052809291908181526020016000905b8282101562000cac57838290600052602060002090600202016040518060600160405290816000820160009054906101000a900473ffffffffffffffffffffffffffffffffffffffff1673ffffffffffffffffffffffffffffffffffffffff1673ffffffffffffffffffffffffffffffffffffffff1681526020016000820160149054906101000a900460ff1615151515815260200160018201805462000c1490620022e1565b80601f016020809104026020016040519081016040528092919081815260200182805462000c4290620022e1565b801562000c935780601f1062000c675761010080835404028352916020019162000c93565b820191906000526020600020905b81548152906001019060200180831162000c7557829003601f168201915b5050505050815250508152602001906001019062000b6d565b50505050905090565b600080600360008473ffffffffffffffffffffffffffffffffffffffff1673ffffffffffffffffffffffffffffffffffffffff16815260200190815260200160002054141562000d09576000905062000d0e565b600190505b919050565b6000801b81565b600062000d2b6000801b3362000b16565b62000d6d576040517f08c379a000000000000000000000000000000000000000000000000000000000815260040162000d649062002044565b60405180910390fd5b600160009054906101000a900460ff1615600160006101000a81548160ff021916908315150217905550600160009054906101000a900460ff16905090565b600062000dcd600080848152602001908152602001600020600001620014d1565b9050919050565b62000dfe6000808481526020019081526020016000206002015462000df86200134b565b62000b16565b62000e40576040517f08c379a000000000000000000000000000000000000000000000000000000000815260040162000e379062002022565b60405180910390fd5b62000e4c8282620013eb565b5050565b6000600280549050905090565b600062000e6e6000801b3362000b16565b62000eb0576040517f08c379a000000000000000000000000000000000000000000000000000000000815260040162000ea79062002044565b60405180910390fd5b600160009054906101000a900460ff1662000f02576040517f08c379a000000000000000000000000000000000000000000000000000000000815260040162000ef99062002066565b60405180910390fd5b600084848460405162000f15906200182e565b62000f239392919062001ec9565b604051809103906000f08015801562000f40573d6000803e3d6000fd5b509050600081905062000f52620017f5565b81816000019073ffffffffffffffffffffffffffffffffffffffff16908173ffffffffffffffffffffffffffffffffffffffff16815250506001816020019015159081151581525050848160400181905250600281908060018154018082558091505060019003906000526020600020906002020160009091909190915060008201518160000160006101000a81548173ffffffffffffffffffffffffffffffffffffffff021916908373ffffffffffffffffffffffffffffffffffffffff16021790555060208201518160000160146101000a81548160ff0219169083151502179055506040820151816001019080519060200190620010559291906200183c565b5050506000600280549050905080600360008573ffffffffffffffffffffffffffffffffffffffff1673ffffffffffffffffffffffffffffffffffffffff1681526020019081526020016000208190555060008890508073ffffffffffffffffffffffffffffffffffffffff16632f2ff15d6000801b866040518363ffffffff1660e01b8152600401620010eb92919062001f6b565b600060405180830381600087803b1580156200110657600080fd5b505af11580156200111b573d6000803e3d6000fd5b5050505060008890508073ffffffffffffffffffffffffffffffffffffffff16632f2ff15d6000801b876040518363ffffffff1660e01b81526004016200116492919062001f6b565b600060405180830381600087803b1580156200117f57600080fd5b505af115801562001194573d6000803e3d6000fd5b505050508473ffffffffffffffffffffffffffffffffffffffff167f19593ab970a97e30b1488866dc5490452380f3bffb1be271efb0577b1ad7349689604051620011e0919062001f98565b60405180910390a28496505050505050509392505050565b620012076000801b3362000b16565b62001249576040517f08c379a0000000000000000000000000000000000000000000000000000000008152600401620012409062002044565b60405180910390fd5b600160009054906101000a900460ff166200129b576040517f08c379a0000000000000000000000000000000000000000000000000000000008152600401620012929062002066565b60405180910390fd5b60008190508073ffffffffffffffffffffffffffffffffffffffff16632f2ff15d6000801b856040518363ffffffff1660e01b8152600401620012e092919062001f6b565b600060405180830381600087803b158015620012fb57600080fd5b505af115801562001310573d6000803e3d6000fd5b50505050505050565b600062001343836000018373ffffffffffffffffffffffffffffffffffffffff1660001b620014e8565b905092915050565b600033905090565b6200137c816000808581526020019081526020016000206000016200131990919063ffffffff16565b15620013e7576200138c6200134b565b73ffffffffffffffffffffffffffffffffffffffff168173ffffffffffffffffffffffffffffffffffffffff16837f2f8788117e7eff1d82e926ec794901d17c78024a50270940304540a733656f0d60405160405180910390a45b5050565b62001414816000808581526020019081526020016000206000016200155c90919063ffffffff16565b156200147f57620014246200134b565b73ffffffffffffffffffffffffffffffffffffffff168173ffffffffffffffffffffffffffffffffffffffff16837ff6391f5c32d9c69d2a47ea670b442974b53935d1edc7fd64eb21e047a839171b60405160405180910390a45b5050565b60006200149483600001836200158e565b60001c905092915050565b6000620014c9836000018373ffffffffffffffffffffffffffffffffffffffff1660001b6200162c565b905092915050565b6000620014e1826000016200164f565b9050919050565b6000620014f683836200162c565b6200155157826000018290806001815401808255809150506001900390600052602060002001600090919091909150558260000180549050836001016000848152602001908152602001600020819055506001905062001556565b600090505b92915050565b600062001586836000018373ffffffffffffffffffffffffffffffffffffffff1660001b62001660565b905092915050565b600081836000018054905011620015dc576040517f08c379a0000000000000000000000000000000000000000000000000000000008152600401620015d39062001fbc565b60405180910390fd5b82600001828154811062001619577f4e487b7100000000000000000000000000000000000000000000000000000000600052603260045260246000fd5b9060005260206000200154905092915050565b600080836001016000848152602001908152602001600020541415905092915050565b600081600001805490509050919050565b60008083600101600084815260200190815260200160002054905060008114620017e95760006001826200169591906200220d565b9050600060018660000180549050620016af91906200220d565b90506000866000018281548110620016f0577f4e487b7100000000000000000000000000000000000000000000000000000000600052603260045260246000fd5b90600052602060002001549050808760000184815481106200173b577f4e487b7100000000000000000000000000000000000000000000000000000000600052603260045260246000fd5b9060005260206000200181905550600183620017589190620021b0565b8760010160008381526020019081526020016000208190555086600001805480620017ac577f4e487b7100000000000000000000000000000000000000000000000000000000600052603160045260246000fd5b60019003818190600052602060002001600090559055866001016000878152602001908152602001600020600090556001945050505050620017ef565b60009150505b92915050565b6040518060600160405280600073ffffffffffffffffffffffffffffffffffffffff168152602001600015158152602001606081525090565b613033806200260b83390190565b8280546200184a90620022e1565b90600052602060002090601f0160209004810192826200186e5760008555620018ba565b82601f106200188957805160ff1916838001178555620018ba565b82800160010185558215620018ba579182015b82811115620018b95782518255916020019190600101906200189c565b5b509050620018c99190620018cd565b5090565b5b80821115620018e8576000816000905550600101620018ce565b5090565b600062001903620018fd8462002114565b620020eb565b9050828152602081018484840111156200191c57600080fd5b620019298482856200229c565b509392505050565b6000813590506200194281620025a2565b92915050565b6000815190506200195981620025bc565b92915050565b6000813590506200197081620025d6565b92915050565b600082601f8301126200198857600080fd5b81356200199a848260208601620018ec565b91505092915050565b600081359050620019b481620025f0565b92915050565b600060208284031215620019cd57600080fd5b6000620019dd8482850162001931565b91505092915050565b60008060408385031215620019fa57600080fd5b600062001a0a8582860162001931565b925050602062001a1d8582860162001931565b9150509250929050565b60008060006060848603121562001a3d57600080fd5b600062001a4d8682870162001931565b935050602062001a608682870162001931565b925050604084013567ffffffffffffffff81111562001a7e57600080fd5b62001a8c8682870162001976565b9150509250925092565b60006020828403121562001aa957600080fd5b600062001ab98482850162001948565b91505092915050565b60006020828403121562001ad557600080fd5b600062001ae5848285016200195f565b91505092915050565b6000806040838503121562001b0257600080fd5b600062001b12858286016200195f565b925050602062001b258582860162001931565b9150509250929050565b6000806040838503121562001b4357600080fd5b600062001b53858286016200195f565b925050602062001b6685828601620019a3565b9150509250929050565b600062001b7e838362001def565b905092915050565b62001b918162002248565b82525050565b62001ba28162002248565b82525050565b600062001bb5826200215a565b62001bc181856200217d565b93508360208202850162001bd5856200214a565b8060005b8581101562001c17578484038952815162001bf5858262001b70565b945062001c028362002170565b925060208a0199505060018101905062001bd9565b50829750879550505050505092915050565b62001c34816200225c565b82525050565b62001c45816200225c565b82525050565b62001c568162002268565b82525050565b600062001c698262002165565b62001c7581856200218e565b935062001c87818560208601620022ab565b62001c9281620023da565b840191505092915050565b600062001caa8262002165565b62001cb681856200219f565b935062001cc8818560208601620022ab565b62001cd381620023da565b840191505092915050565b600062001ced6022836200219f565b915062001cfa82620023eb565b604082019050919050565b600062001d14602f836200219f565b915062001d21826200243a565b604082019050919050565b600062001d3b6010836200219f565b915062001d488262002489565b602082019050919050565b600062001d626030836200219f565b915062001d6f82620024b2565b604082019050919050565b600062001d89601c836200219f565b915062001d968262002501565b602082019050919050565b600062001db0601c836200219f565b915062001dbd826200252a565b602082019050919050565b600062001dd7602f836200219f565b915062001de48262002553565b604082019050919050565b600060608301600083015162001e09600086018262001b86565b50602083015162001e1e602086018262001c29565b506040830151848203604086015262001e38828262001c5c565b9150508091505092915050565b600060608301600083015162001e5f600086018262001b86565b50602083015162001e74602086018262001c29565b506040830151848203604086015262001e8e828262001c5c565b9150508091505092915050565b62001ea68162002292565b82525050565b600060208201905062001ec3600083018462001b97565b92915050565b600060608201905062001ee0600083018662001b97565b62001eef602083018562001b97565b818103604083015262001f03818462001c9d565b9050949350505050565b6000602082019050818103600083015262001f29818462001ba8565b905092915050565b600060208201905062001f48600083018462001c3a565b92915050565b600060208201905062001f65600083018462001c4b565b92915050565b600060408201905062001f82600083018562001c4b565b62001f91602083018462001b97565b9392505050565b6000602082019050818103600083015262001fb4818462001c9d565b905092915050565b6000602082019050818103600083015262001fd78162001cde565b9050919050565b6000602082019050818103600083015262001ff98162001d05565b9050919050565b600060208201905081810360008301526200201b8162001d2c565b9050919050565b600060208201905081810360008301526200203d8162001d53565b9050919050565b600060208201905081810360008301526200205f8162001d7a565b9050919050565b60006020820190508181036000830152620020818162001da1565b9050919050565b60006020820190508181036000830152620020a38162001dc8565b9050919050565b60006020820190508181036000830152620020c6818462001e45565b905092915050565b6000602082019050620020e5600083018462001e9b565b92915050565b6000620020f76200210a565b905062002105828262002317565b919050565b6000604051905090565b600067ffffffffffffffff821115620021325762002131620023ab565b5b6200213d82620023da565b9050602081019050919050565b6000819050602082019050919050565b600081519050919050565b600081519050919050565b6000602082019050919050565b600082825260208201905092915050565b600082825260208201905092915050565b600082825260208201905092915050565b6000620021bd8262002292565b9150620021ca8362002292565b9250827fffffffffffffffffffffffffffffffffffffffffffffffffffffffffffffffff038211156200220257620022016200234d565b5b828201905092915050565b60006200221a8262002292565b9150620022278362002292565b9250828210156200223d576200223c6200234d565b5b828203905092915050565b6000620022558262002272565b9050919050565b60008115159050919050565b6000819050919050565b600073ffffffffffffffffffffffffffffffffffffffff82169050919050565b6000819050919050565b82818337600083830152505050565b60005b83811015620022cb578082015181840152602081019050620022ae565b83811115620022db576000848401525b50505050565b60006002820490506001821680620022fa57607f821691505b602082108114156200231157620023106200237c565b5b50919050565b6200232282620023da565b810181811067ffffffffffffffff82111715620023445762002343620023ab565b5b80604052505050565b7f4e487b7100000000000000000000000000000000000000000000000000000000600052601160045260246000fd5b7f4e487b7100000000000000000000000000000000000000000000000000000000600052602260045260246000fd5b7f4e487b7100000000000000000000000000000000000000000000000000000000600052604160045260246000fd5b6000601f19601f8301169050919050565b7f456e756d657261626c655365743a20696e646578206f7574206f6620626f756e60008201527f6473000000000000000000000000000000000000000000000000000000000000602082015250565b7f416363657373436f6e74726f6c3a2073656e646572206d75737420626520616e60008201527f2061646d696e20746f206772616e740000000000000000000000000000000000602082015250565b7f636c617373206e6f742065786973747300000000000000000000000000000000600082015250565b7f416363657373436f6e74726f6c3a2073656e646572206d75737420626520616e60008201527f2061646d696e20746f207265766f6b6500000000000000000000000000000000602082015250565b7f41636164656d79436c6173734c6973743a206f6e6c79206f776e657200000000600082015250565b7f41636164656d79436c6173734c6973743a206e6f742061637469766500000000600082015250565b7f416363657373436f6e74726f6c3a2063616e206f6e6c792072656e6f756e636560008201527f20726f6c657320666f722073656c660000000000000000000000000000000000602082015250565b620025ad8162002248565b8114620025b957600080fd5b50565b620025c7816200225c565b8114620025d357600080fd5b50565b620025e18162002268565b8114620025ed57600080fd5b50565b620025fb8162002292565b81146200260757600080fd5b5056fe60806040523480156200001157600080fd5b5060405162003033380380620030338339818101604052810190620000379190620003d9565b6200004c6000801b336200010a60201b60201c565b806002908051906020019062000064929190620002a0565b5060018060006101000a81548160ff02191690831515021790555082600360006101000a81548173ffffffffffffffffffffffffffffffffffffffff021916908373ffffffffffffffffffffffffffffffffffffffff16021790555081600460006101000a81548173ffffffffffffffffffffffffffffffffffffffff021916908373ffffffffffffffffffffffffffffffffffffffff16021790555050505062000606565b6200011c82826200012060201b60201c565b5050565b6200014e81600080858152602001908152602001600020600001620001c360201b62000e821790919060201c565b15620001bf5762000164620001fb60201b60201c565b73ffffffffffffffffffffffffffffffffffffffff168173ffffffffffffffffffffffffffffffffffffffff16837f2f8788117e7eff1d82e926ec794901d17c78024a50270940304540a733656f0d60405160405180910390a45b5050565b6000620001f3836000018373ffffffffffffffffffffffffffffffffffffffff1660001b6200020360201b60201c565b905092915050565b600033905090565b60006200021783836200027d60201b60201c565b6200027257826000018290806001815401808255809150506001900390600052602060002001600090919091909150558260000180549050836001016000848152602001908152602001600020819055506001905062000277565b600090505b92915050565b600080836001016000848152602001908152602001600020541415905092915050565b828054620002ae9062000511565b90600052602060002090601f016020900481019282620002d257600085556200031e565b82601f10620002ed57805160ff19168380011785556200031e565b828001600101855582156200031e579182015b828111156200031d57825182559160200191906001019062000300565b5b5090506200032d919062000331565b5090565b5b808211156200034c57600081600090555060010162000332565b5090565b600062000367620003618462000471565b62000448565b9050828152602081018484840111156200038057600080fd5b6200038d848285620004db565b509392505050565b600081519050620003a681620005ec565b92915050565b600082601f830112620003be57600080fd5b8151620003d084826020860162000350565b91505092915050565b600080600060608486031215620003ef57600080fd5b6000620003ff8682870162000395565b9350506020620004128682870162000395565b925050604084015167ffffffffffffffff8111156200043057600080fd5b6200043e86828701620003ac565b9150509250925092565b60006200045462000467565b905062000462828262000547565b919050565b6000604051905090565b600067ffffffffffffffff8211156200048f576200048e620005ac565b5b6200049a82620005db565b9050602081019050919050565b6000620004b482620004bb565b9050919050565b600073ffffffffffffffffffffffffffffffffffffffff82169050919050565b60005b83811015620004fb578082015181840152602081019050620004de565b838111156200050b576000848401525b50505050565b600060028204905060018216806200052a57607f821691505b602082108114156200054157620005406200057d565b5b50919050565b6200055282620005db565b810181811067ffffffffffffffff82111715620005745762000573620005ac565b5b80604052505050565b7f4e487b7100000000000000000000000000000000000000000000000000000000600052602260045260246000fd5b7f4e487b7100000000000000000000000000000000000000000000000000000000600052604160045260246000fd5b6000601f19601f8301169050919050565b620005f781620004a7565b81146200060357600080fd5b50565b612a1d80620006166000396000f3fe608060405234801561001057600080fd5b506004361061014c5760003560e01c80639010d07c116100c3578063ca15c8731161007c578063ca15c873146103db578063cceabd331461040b578063d43e001a1461043b578063d547741f14610459578063fcae448414610475578063ff2e2795146104935761014c565b80639010d07c146102cd57806391d14854146102fd5780639aa8e7221461032d5780639f3da5cc1461035d578063a217fddf1461038d578063bd06ea19146103ab5761014c565b806336568abe1161011557806336568abe146101f75780634114458414610213578063477f5a6914610231578063733d09d21461024f57806382f7d3921461027f5780638f449a05146102af5761014c565b8062c51f8c1461015157806302fb0c5e1461016f578063035410f61461018d578063248a9ca3146101ab5780632f2ff15d146101db575b600080fd5b6101596104b1565b60405161016691906121b4565b60405180910390f35b61017761053f565b604051610184919061212d565b60405180910390f35b610195610552565b6040516101a2919061210b565b60405180910390f35b6101c560048036038101906101c09190611bf2565b6105e0565b6040516101d29190612148565b60405180910390f35b6101f560048036038101906101f09190611c1b565b6105ff565b005b610211600480360381019061020c9190611c1b565b610672565b005b61021b6106f5565b6040516102289190612163565b60405180910390f35b61023961071b565b6040516102469190612351565b60405180910390f35b61026960048036038101906102649190611ba0565b610728565b604051610276919061212d565b60405180910390f35b61029960048036038101906102949190611ba0565b61093d565b6040516102a6919061212d565b60405180910390f35b6102b761099c565b6040516102c4919061212d565b60405180910390f35b6102e760048036038101906102e29190611c57565b6109af565b6040516102f49190612066565b60405180910390f35b61031760048036038101906103129190611c1b565b6109e0565b604051610324919061212d565b60405180910390f35b61034760048036038101906103429190611ba0565b610a11565b604051610354919061212d565b60405180910390f35b61037760048036038101906103729190611ba0565b610a71565b6040516103849190612336565b60405180910390f35b610395610bad565b6040516103a29190612148565b60405180910390f35b6103c560048036038101906103c09190611ba0565b610bb4565b6040516103d2919061212d565b60405180910390f35b6103f560048036038101906103f09190611bf2565b610c15565b6040516104029190612351565b60405180910390f35b61042560048036038101906104209190611c93565b610c3b565b6040516104329190612351565b60405180910390f35b610443610d4a565b604051610450919061217e565b60405180910390f35b610473600480360381019061046e9190611c1b565b610d70565b005b61047d610de3565b60405161048a919061212d565b60405180910390f35b61049b610df5565b6040516104a8919061212d565b60405180910390f35b600280546104be906125af565b80601f01602080910402602001604051908101604052809291908181526020018280546104ea906125af565b80156105375780601f1061050c57610100808354040283529160200191610537565b820191906000526020600020905b81548152906001019060200180831161051a57829003601f168201915b505050505081565b600160009054906101000a900460ff1681565b606060068054806020026020016040519081016040528092919081815260200182805480156105d657602002820191906000526020600020905b8160009054906101000a900473ffffffffffffffffffffffffffffffffffffffff1673ffffffffffffffffffffffffffffffffffffffff168152602001906001019080831161058c575b5050505050905090565b6000806000838152602001908152602001600020600201549050919050565b61062560008084815260200190815260200160002060020154610620610eb2565b6109e0565b610664576040517f08c379a000000000000000000000000000000000000000000000000000000000815260040161065b906121f6565b60405180910390fd5b61066e8282610eba565b5050565b61067a610eb2565b73ffffffffffffffffffffffffffffffffffffffff168173ffffffffffffffffffffffffffffffffffffffff16146106e7576040517f08c379a00000000000000000000000000000000000000000000000000000000081526004016106de90612316565b60405180910390fd5b6106f18282610f4d565b5050565b600460009054906101000a900473ffffffffffffffffffffffffffffffffffffffff1681565b6000600680549050905090565b60006107376000801b336109e0565b610776576040517f08c379a000000000000000000000000000000000000000000000000000000000815260040161076d90612276565b60405180910390fd5b600160009054906101000a900460ff166107c5576040517f08c379a00000000000000000000000000000000000000000000000000000000081526004016107bc90612256565b60405180910390fd5b6107ce8261093d565b61080d576040517f08c379a000000000000000000000000000000000000000000000000000000000815260040161080490612296565b60405180910390fd5b6002600560008473ffffffffffffffffffffffffffffffffffffffff1673ffffffffffffffffffffffffffffffffffffffff16815260200190815260200160002060000160006101000a81548160ff02191690836002811115610899577f4e487b7100000000000000000000000000000000000000000000000000000000600052602160045260246000fd5b021790555042600560008473ffffffffffffffffffffffffffffffffffffffff1673ffffffffffffffffffffffffffffffffffffffff168152602001908152602001600020600201819055508173ffffffffffffffffffffffffffffffffffffffff167ffcac4ad276b3d596f594dd2e15d40999195593dfd3631982e5d8f03e9b62042b600260405161092c9190612199565b60405180910390a260019050919050565b600080600560008473ffffffffffffffffffffffffffffffffffffffff1673ffffffffffffffffffffffffffffffffffffffff1681526020019081526020016000206001015411156109925760019050610997565b600090505b919050565b60006109a733610fe0565b506001905090565b60006109d88260008086815260200190815260200160002060000161154990919063ffffffff16565b905092915050565b6000610a098260008086815260200190815260200160002060000161156390919063ffffffff16565b905092915050565b6000610a206000801b336109e0565b610a5f576040517f08c379a0000000000000000000000000000000000000000000000000000000008152600401610a5690612276565b60405180910390fd5b610a6882611593565b60019050919050565b610a79611a61565b610a828261093d565b610ac1576040517f08c379a0000000000000000000000000000000000000000000000000000000008152600401610ab890612236565b60405180910390fd5b600560008373ffffffffffffffffffffffffffffffffffffffff1673ffffffffffffffffffffffffffffffffffffffff1681526020019081526020016000206040518060600160405290816000820160009054906101000a900460ff166002811115610b56577f4e487b7100000000000000000000000000000000000000000000000000000000600052602160045260246000fd5b6002811115610b8e577f4e487b7100000000000000000000000000000000000000000000000000000000600052602160045260246000fd5b8152602001600182015481526020016002820154815250509050919050565b6000801b81565b6000610bc36000801b336109e0565b610c02576040517f08c379a0000000000000000000000000000000000000000000000000000000008152600401610bf990612276565b60405180910390fd5b610c0b82610fe0565b5060019050919050565b6000610c34600080848152602001908152602001600020600001611754565b9050919050565b6000610c463361093d565b610c85576040517f08c379a0000000000000000000000000000000000000000000000000000000008152600401610c7c90612296565b60405180910390fd5b6000600460009054906101000a900473ffffffffffffffffffffffffffffffffffffffff1673ffffffffffffffffffffffffffffffffffffffff1663ef58d59c33888888886040518663ffffffff1660e01b8152600401610cea9594939291906120aa565b602060405180830381600087803b158015610d0457600080fd5b505af1158015610d18573d6000803e3d6000fd5b505050506040513d601f19601f82011682018060405250810190610d3c9190611d26565b905080915050949350505050565b600360009054906101000a900473ffffffffffffffffffffffffffffffffffffffff1681565b610d9660008084815260200190815260200160002060020154610d91610eb2565b6109e0565b610dd5576040517f08c379a0000000000000000000000000000000000000000000000000000000008152600401610dcc906122b6565b60405180910390fd5b610ddf8282610f4d565b5050565b6000610dee33611593565b6001905090565b6000610e046000801b336109e0565b610e43576040517f08c379a0000000000000000000000000000000000000000000000000000000008152600401610e3a90612276565b60405180910390fd5b600160009054906101000a900460ff1615600160006101000a81548160ff021916908315150217905550600160009054906101000a900460ff16905090565b6000610eaa836000018373ffffffffffffffffffffffffffffffffffffffff1660001b611769565b905092915050565b600033905090565b610ee181600080858152602001908152602001600020600001610e8290919063ffffffff16565b15610f4957610eee610eb2565b73ffffffffffffffffffffffffffffffffffffffff168173ffffffffffffffffffffffffffffffffffffffff16837f2f8788117e7eff1d82e926ec794901d17c78024a50270940304540a733656f0d60405160405180910390a45b5050565b610f74816000808581526020019081526020016000206000016117d990919063ffffffff16565b15610fdc57610f81610eb2565b73ffffffffffffffffffffffffffffffffffffffff168173ffffffffffffffffffffffffffffffffffffffff16837ff6391f5c32d9c69d2a47ea670b442974b53935d1edc7fd64eb21e047a839171b60405160405180910390a45b5050565b6000600160009054906101000a900460ff16611031576040517f08c379a000000000000000000000000000000000000000000000000000000000815260040161102890612256565b60405180910390fd5b61103a8261093d565b1561107a576040517f08c379a0000000000000000000000000000000000000000000000000000000008152600401611071906122f6565b60405180910390fd5b60006001600560008573ffffffffffffffffffffffffffffffffffffffff1673ffffffffffffffffffffffffffffffffffffffff16815260200190815260200160002060000160006101000a81548160ff02191690836002811115611108577f4e487b7100000000000000000000000000000000000000000000000000000000600052602160045260246000fd5b021790555042600560008573ffffffffffffffffffffffffffffffffffffffff1673ffffffffffffffffffffffffffffffffffffffff168152602001908152602001600020600101819055506006839080600181540180825580915050600190039060005260206000200160009091909190916101000a81548173ffffffffffffffffffffffffffffffffffffffff021916908373ffffffffffffffffffffffffffffffffffffffff160217905550600360009054906101000a900473ffffffffffffffffffffffffffffffffffffffff1673ffffffffffffffffffffffffffffffffffffffff166382f7d392846040518263ffffffff1660e01b81526004016112129190612066565b60206040518083038186803b15801561122a57600080fd5b505afa15801561123e573d6000803e3d6000fd5b505050506040513d601f19601f820116820180604052508101906112629190611bc9565b61131a57600360009054906101000a900473ffffffffffffffffffffffffffffffffffffffff1673ffffffffffffffffffffffffffffffffffffffff1663bd06ea19846040518263ffffffff1660e01b81526004016112c19190612066565b602060405180830381600087803b1580156112db57600080fd5b505af11580156112ef573d6000803e3d6000fd5b505050506040513d601f19601f820116820180604052508101906113139190611d26565b905061131b565b5b6000309050600360009054906101000a900473ffffffffffffffffffffffffffffffffffffffff1673ffffffffffffffffffffffffffffffffffffffff16636cd3fedf85836040518363ffffffff1660e01b815260040161137d929190612081565b602060405180830381600087803b15801561139757600080fd5b505af11580156113ab573d6000803e3d6000fd5b505050506040513d601f19601f820116820180604052508101906113cf9190611bc9565b61140e576040517f08c379a0000000000000000000000000000000000000000000000000000000008152600401611405906122d6565b60405180910390fd5b600360009054906101000a900473ffffffffffffffffffffffffffffffffffffffff1673ffffffffffffffffffffffffffffffffffffffff16630c78a97485836040518363ffffffff1660e01b815260040161146b929190612081565b602060405180830381600087803b15801561148557600080fd5b505af1158015611499573d6000803e3d6000fd5b505050506040513d601f19601f820116820180604052508101906114bd9190611bc9565b6114fc576040517f08c379a00000000000000000000000000000000000000000000000000000000081526004016114f390612216565b60405180910390fd5b8373ffffffffffffffffffffffffffffffffffffffff167fc2cd73f6970f5e40dce13d5b14924b73bf1a89d678b30618a3135716213a2c6560405160405180910390a28192505050919050565b60006115588360000183611809565b60001c905092915050565b600061158b836000018373ffffffffffffffffffffffffffffffffffffffff1660001b6118a3565b905092915050565b600160009054906101000a900460ff166115e2576040517f08c379a00000000000000000000000000000000000000000000000000000000081526004016115d990612256565b60405180910390fd5b6115eb8161093d565b61162a576040517f08c379a000000000000000000000000000000000000000000000000000000000815260040161162190612296565b60405180910390fd5b6000600560008373ffffffffffffffffffffffffffffffffffffffff1673ffffffffffffffffffffffffffffffffffffffff16815260200190815260200160002060000160006101000a81548160ff021916908360028111156116b6577f4e487b7100000000000000000000000000000000000000000000000000000000600052602160045260246000fd5b021790555042600560008373ffffffffffffffffffffffffffffffffffffffff1673ffffffffffffffffffffffffffffffffffffffff168152602001908152602001600020600201819055508073ffffffffffffffffffffffffffffffffffffffff167ffcac4ad276b3d596f594dd2e15d40999195593dfd3631982e5d8f03e9b62042b60006040516117499190612199565b60405180910390a250565b6000611762826000016118c6565b9050919050565b600061177583836118a3565b6117ce5782600001829080600181540180825580915050600190039060005260206000200160009091909190915055826000018054905083600101600084815260200190815260200160002081905550600190506117d3565b600090505b92915050565b6000611801836000018373ffffffffffffffffffffffffffffffffffffffff1660001b6118d7565b905092915050565b600081836000018054905011611854576040517f08c379a000000000000000000000000000000000000000000000000000000000815260040161184b906121d6565b60405180910390fd5b826000018281548110611890577f4e487b7100000000000000000000000000000000000000000000000000000000600052603260045260246000fd5b9060005260206000200154905092915050565b600080836001016000848152602001908152602001600020541415905092915050565b600081600001805490509050919050565b60008083600101600084815260200190815260200160002054905060008114611a55576000600182611909919061246d565b9050600060018660000180549050611921919061246d565b90506000866000018281548110611961577f4e487b7100000000000000000000000000000000000000000000000000000000600052603260045260246000fd5b90600052602060002001549050808760000184815481106119ab577f4e487b7100000000000000000000000000000000000000000000000000000000600052603260045260246000fd5b90600052602060002001819055506001836119c69190612417565b8760010160008381526020019081526020016000208190555086600001805480611a19577f4e487b7100000000000000000000000000000000000000000000000000000000600052603160045260246000fd5b60019003818190600052602060002001600090559055866001016000878152602001908152602001600020600090556001945050505050611a5b565b60009150505b92915050565b604051806060016040528060006002811115611aa6577f4e487b7100000000000000000000000000000000000000000000000000000000600052602160045260246000fd5b815260200160008152602001600081525090565b6000611acd611ac884612391565b61236c565b905082815260208101848484011115611ae557600080fd5b611af084828561256d565b509392505050565b600081359050611b0781612974565b92915050565b600081519050611b1c8161298b565b92915050565b600081359050611b31816129a2565b92915050565b600082601f830112611b4857600080fd5b8135611b58848260208601611aba565b91505092915050565b600081359050611b70816129b9565b92915050565b600081519050611b85816129b9565b92915050565b600081359050611b9a816129d0565b92915050565b600060208284031215611bb257600080fd5b6000611bc084828501611af8565b91505092915050565b600060208284031215611bdb57600080fd5b6000611be984828501611b0d565b91505092915050565b600060208284031215611c0457600080fd5b6000611c1284828501611b22565b91505092915050565b60008060408385031215611c2e57600080fd5b6000611c3c85828601611b22565b9250506020611c4d85828601611af8565b9150509250929050565b60008060408385031215611c6a57600080fd5b6000611c7885828601611b22565b9250506020611c8985828601611b61565b9150509250929050565b60008060008060808587031215611ca957600080fd5b600085013567ffffffffffffffff811115611cc357600080fd5b611ccf87828801611b37565b945050602085013567ffffffffffffffff811115611cec57600080fd5b611cf887828801611b37565b9350506040611d0987828801611b8b565b9250506060611d1a87828801611b8b565b91505092959194509250565b600060208284031215611d3857600080fd5b6000611d4684828501611b76565b91505092915050565b6000611d5b8383611d67565b60208301905092915050565b611d70816124a1565b82525050565b611d7f816124a1565b82525050565b6000611d90826123d2565b611d9a81856123f5565b9350611da5836123c2565b8060005b83811015611dd6578151611dbd8882611d4f565b9750611dc8836123e8565b925050600181019050611da9565b5085935050505092915050565b611dec816124b3565b82525050565b611dfb816124bf565b82525050565b611e0a81612513565b82525050565b611e1981612537565b82525050565b611e288161255b565b82525050565b611e378161255b565b82525050565b6000611e48826123dd565b611e528185612406565b9350611e6281856020860161257c565b611e6b816126ce565b840191505092915050565b6000611e83602283612406565b9150611e8e826126df565b604082019050919050565b6000611ea6602f83612406565b9150611eb18261272e565b604082019050919050565b6000611ec9602d83612406565b9150611ed48261277d565b604082019050919050565b6000611eec600b83612406565b9150611ef7826127cc565b602082019050919050565b6000611f0f601883612406565b9150611f1a826127f5565b602082019050919050565b6000611f32601883612406565b9150611f3d8261281e565b602082019050919050565b6000611f55601283612406565b9150611f6082612847565b602082019050919050565b6000611f78603083612406565b9150611f8382612870565b604082019050919050565b6000611f9b601d83612406565b9150611fa6826128bf565b602082019050919050565b6000611fbe601683612406565b9150611fc9826128e8565b602082019050919050565b6000611fe1602f83612406565b9150611fec82612911565b604082019050919050565b60608201600082015161200d6000850182611e1f565b5060208201516120206020850182612039565b5060408201516120336040850182612039565b50505050565b612042816124fc565b82525050565b612051816124fc565b82525050565b61206081612506565b82525050565b600060208201905061207b6000830184611d76565b92915050565b60006040820190506120966000830185611d76565b6120a36020830184611d76565b9392505050565b600060a0820190506120bf6000830188611d76565b81810360208301526120d18187611e3d565b905081810360408301526120e58186611e3d565b90506120f46060830185612057565b6121016080830184612057565b9695505050505050565b600060208201905081810360008301526121258184611d85565b905092915050565b60006020820190506121426000830184611de3565b92915050565b600060208201905061215d6000830184611df2565b92915050565b60006020820190506121786000830184611e01565b92915050565b60006020820190506121936000830184611e10565b92915050565b60006020820190506121ae6000830184611e2e565b92915050565b600060208201905081810360008301526121ce8184611e3d565b905092915050565b600060208201905081810360008301526121ef81611e76565b9050919050565b6000602082019050818103600083015261220f81611e99565b9050919050565b6000602082019050818103600083015261222f81611ebc565b9050919050565b6000602082019050818103600083015261224f81611edf565b9050919050565b6000602082019050818103600083015261226f81611f02565b9050919050565b6000602082019050818103600083015261228f81611f25565b9050919050565b600060208201905081810360008301526122af81611f48565b9050919050565b600060208201905081810360008301526122cf81611f6b565b9050919050565b600060208201905081810360008301526122ef81611f8e565b9050919050565b6000602082019050818103600083015261230f81611fb1565b9050919050565b6000602082019050818103600083015261232f81611fd4565b9050919050565b600060608201905061234b6000830184611ff7565b92915050565b60006020820190506123666000830184612048565b92915050565b6000612376612387565b905061238282826125e1565b919050565b6000604051905090565b600067ffffffffffffffff8211156123ac576123ab61269f565b5b6123b5826126ce565b9050602081019050919050565b6000819050602082019050919050565b600081519050919050565b600081519050919050565b6000602082019050919050565b600082825260208201905092915050565b600082825260208201905092915050565b6000612422826124fc565b915061242d836124fc565b9250827fffffffffffffffffffffffffffffffffffffffffffffffffffffffffffffffff0382111561246257612461612612565b5b828201905092915050565b6000612478826124fc565b9150612483836124fc565b92508282101561249657612495612612565b5b828203905092915050565b60006124ac826124dc565b9050919050565b60008115159050919050565b6000819050919050565b60008190506124d782612960565b919050565b600073ffffffffffffffffffffffffffffffffffffffff82169050919050565b6000819050919050565b600060ff82169050919050565b600061251e82612525565b9050919050565b6000612530826124dc565b9050919050565b600061254282612549565b9050919050565b6000612554826124dc565b9050919050565b6000612566826124c9565b9050919050565b82818337600083830152505050565b60005b8381101561259a57808201518184015260208101905061257f565b838111156125a9576000848401525b50505050565b600060028204905060018216806125c757607f821691505b602082108114156125db576125da612670565b5b50919050565b6125ea826126ce565b810181811067ffffffffffffffff821117156126095761260861269f565b5b80604052505050565b7f4e487b7100000000000000000000000000000000000000000000000000000000600052601160045260246000fd5b7f4e487b7100000000000000000000000000000000000000000000000000000000600052602160045260246000fd5b7f4e487b7100000000000000000000000000000000000000000000000000000000600052602260045260246000fd5b7f4e487b7100000000000000000000000000000000000000000000000000000000600052604160045260246000fd5b6000601f19601f8301169050919050565b7f456e756d657261626c655365743a20696e646578206f7574206f6620626f756e60008201527f6473000000000000000000000000000000000000000000000000000000000000602082015250565b7f416363657373436f6e74726f6c3a2073656e646572206d75737420626520616e60008201527f2061646d696e20746f206772616e740000000000000000000000000000000000602082015250565b7f4572726f7220696e2073747564656e744c6973742e757064617465537475646560008201527f6e74416374697665436c61737300000000000000000000000000000000000000602082015250565b7f6e6f742073747564656e74000000000000000000000000000000000000000000600082015250565b7f41636164656d79436c6173733a206e6f74206163746976650000000000000000600082015250565b7f41636164656d79436c6173733a206f6e6c79206f776e65720000000000000000600082015250565b7f73747564656e74206e6f74206578697374730000000000000000000000000000600082015250565b7f416363657373436f6e74726f6c3a2073656e646572206d75737420626520616e60008201527f2061646d696e20746f207265766f6b6500000000000000000000000000000000602082015250565b7f4572726f7220696e2073747564656e744c6973742e616464436c617373000000600082015250565b7f73747564656e7420616c72656164792065786973747300000000000000000000600082015250565b7f416363657373436f6e74726f6c3a2063616e206f6e6c792072656e6f756e636560008201527f20726f6c657320666f722073656c660000000000000000000000000000000000602082015250565b6003811061297157612970612641565b5b50565b61297d816124a1565b811461298857600080fd5b50565b612994816124b3565b811461299f57600080fd5b50565b6129ab816124bf565b81146129b657600080fd5b50565b6129c2816124fc565b81146129cd57600080fd5b50565b6129d981612506565b81146129e457600080fd5b5056fea26469706673582212207da90d9d81fc296f5486c4a0fab573ea7c66c307aa7f4cb3472918f59141700564736f6c63430008010033a264697066735822122081ffab035f634dfe3f2b4249c1f4c51abc4dcfffdf3adcd69e3043ae226c871064736f6c63430008010033",
  "immutableReferences": {},
  "source": "// SPDX-License-Identifier: MIT\r\npragma solidity 0.8.1;\r\n\r\n//import \"https://github.com/OpenZeppelin/openzeppelin-contracts/blob/master/contracts/access/AccessControl.sol\";\r\n//import '@openzeppelin/contracts/access/AccessControl.sol';\r\nimport './oz-contracts/access/AccessControl.sol';\r\n\r\nimport './AcademyClass.sol';\r\nimport './iAcademyClassList.sol';\r\nimport './iAcademyStudents.sol';\r\nimport './iAcademyStudentQuiz.sol';\r\n\r\n\r\ncontract AcademyClassList is AccessControl {\r\n    //Factory for AcademyClass\r\n\r\n    bool public active;\r\n    //mapping(address => ClassStruct) private classInfo;\r\n    //address[] private classAddressIndex;\r\n    ClassStruct[] private classInfo;\r\n    mapping(address => uint256) private classAddressIndex;\r\n\r\n    constructor() {\r\n        _setupRole(DEFAULT_ADMIN_ROLE, msg.sender);\r\n        active = true;\r\n    }\r\n\r\n    event AcademyClassCreated(address indexed classAddress, string className);\r\n\r\n    modifier onlyOwner() {\r\n        require(hasRole(DEFAULT_ADMIN_ROLE, msg.sender), \"AcademyClassList: only owner\");\r\n        _;\r\n    }\r\n    \r\n    modifier onlyActive() {\r\n        require(active, \"AcademyClassList: not active\");\r\n        _;\r\n    } \r\n\r\n    function createAcademyClass(address addressStudentList, address addressStudentQuiz, string memory className) public onlyOwner onlyActive returns (address) {\r\n        //className = \"Devs 2021-01\";\r\n        //Can repeat className? YES\r\n        \r\n        AcademyClass ac = new AcademyClass(addressStudentList, addressStudentQuiz, className);\r\n        address classAddress = address(ac);\r\n        \r\n        ClassStruct memory c;\r\n        c.classAddress = classAddress;\r\n        c.active = true;\r\n        c.name = className;\r\n        classInfo.push(c);\r\n        uint256 index = classInfo.length;    //Attention: real location is index-1!\r\n        classAddressIndex[classAddress] = index;\r\n\r\n        iAcademyStudents studentList = iAcademyStudents(addressStudentList);\r\n        studentList.grantRole(DEFAULT_ADMIN_ROLE, classAddress);\r\n\r\n        iAcademyStudentQuiz studentQuiz = iAcademyStudentQuiz(addressStudentQuiz);\r\n        studentQuiz.grantRole(DEFAULT_ADMIN_ROLE, classAddress);\r\n\r\n        emit AcademyClassCreated (classAddress, className);\r\n        return classAddress;\r\n    }\r\n    \r\n    function changeActiveClass(address classAddress) public onlyOwner onlyActive returns(bool) {\r\n        require (!isAcademyClass(classAddress), \"class not exists\");\r\n\r\n        uint256 index = classAddressIndex[classAddress]-1;\r\n        classInfo[index].active = !classInfo[index].active;\r\n\r\n        AcademyClass c = AcademyClass(classAddress);\r\n        c.changeClassStatus();\r\n        return true;\r\n    }\r\n\r\n    function addClassOwner(address account, address classAddress) public onlyOwner onlyActive {\r\n        AcademyClass c = AcademyClass(classAddress);\r\n        c.grantRole(DEFAULT_ADMIN_ROLE, account);\r\n    }\r\n    \r\n    function delClassOwner(address account, address classAddress) public onlyOwner onlyActive {\r\n        AcademyClass c = AcademyClass(classAddress);\r\n        c.revokeRole(DEFAULT_ADMIN_ROLE, account);\r\n    }    \r\n    \r\n    function changeActive() public onlyOwner returns(bool) {\r\n        active = !active;\r\n        return active;\r\n    }\r\n\r\n    function isAcademyClass(address classAddress) public view returns (bool) {\r\n        if (classAddressIndex[classAddress] == 0)\r\n            return false;\r\n        else\r\n            return true;\r\n    }\r\n\r\n    function getAcademyClass(address classAddress) public view returns (ClassStruct memory) {\r\n        uint256 index = classAddressIndex[classAddress]-1;\r\n        return classInfo[index];\r\n    }    \r\n    \r\n    function countAcademyClasses() public view returns(uint) {\r\n        return (classInfo.length);\r\n    }\r\n    \r\n    function listAcademyClasses() public view returns(ClassStruct[] memory) {\r\n        return classInfo;\r\n    } \r\n\r\n}\r\n\r\n\r\n",
  "sourcePath": "C:/ACADEMY/GITHUB/rsk-academy-dapp/contracts/AcademyClassList.sol",
  "compiler": {
    "name": "solc",
    "version": "0.8.1+commit.df193b15.Emscripten.clang"
  },
  "schemaVersion": "3.3.3",
  "updatedAt": "2021-03-06T16:52:40.236Z",
  "devdoc": {
    "kind": "dev",
    "methods": {
      "getRoleAdmin(bytes32)": {
        "details": "Returns the admin role that controls `role`. See {grantRole} and {revokeRole}. To change a role's admin, use {_setRoleAdmin}."
      },
      "getRoleMember(bytes32,uint256)": {
        "details": "Returns one of the accounts that have `role`. `index` must be a value between 0 and {getRoleMemberCount}, non-inclusive. Role bearers are not sorted in any particular way, and their ordering may change at any point. WARNING: When using {getRoleMember} and {getRoleMemberCount}, make sure you perform all queries on the same block. See the following https://forum.openzeppelin.com/t/iterating-over-elements-on-enumerableset-in-openzeppelin-contracts/2296[forum post] for more information."
      },
      "getRoleMemberCount(bytes32)": {
        "details": "Returns the number of accounts that have `role`. Can be used together with {getRoleMember} to enumerate all bearers of a role."
      },
      "grantRole(bytes32,address)": {
        "details": "Grants `role` to `account`. If `account` had not been already granted `role`, emits a {RoleGranted} event. Requirements: - the caller must have ``role``'s admin role."
      },
      "hasRole(bytes32,address)": {
        "details": "Returns `true` if `account` has been granted `role`."
      },
      "renounceRole(bytes32,address)": {
        "details": "Revokes `role` from the calling account. Roles are often managed via {grantRole} and {revokeRole}: this function's purpose is to provide a mechanism for accounts to lose their privileges if they are compromised (such as when a trusted device is misplaced). If the calling account had been granted `role`, emits a {RoleRevoked} event. Requirements: - the caller must be `account`."
      },
      "revokeRole(bytes32,address)": {
        "details": "Revokes `role` from `account`. If `account` had been granted `role`, emits a {RoleRevoked} event. Requirements: - the caller must have ``role``'s admin role."
      }
    },
    "version": 1
  },
  "userdoc": {
    "kind": "user",
    "methods": {},
    "version": 1
  }
}