{
  "contractName": "AcademyClassList",
  "abi": [
    {
      "inputs": [],
      "stateMutability": "nonpayable",
      "type": "constructor"
    },
    {
      "anonymous": false,
      "inputs": [
        {
          "indexed": true,
          "internalType": "address",
          "name": "classAddress",
          "type": "address"
        },
        {
          "indexed": false,
          "internalType": "string",
          "name": "className",
          "type": "string"
        }
      ],
      "name": "AcademyClassCreated",
      "type": "event"
    },
    {
      "anonymous": false,
      "inputs": [
        {
          "indexed": true,
          "internalType": "bytes32",
          "name": "role",
          "type": "bytes32"
        },
        {
          "indexed": true,
          "internalType": "bytes32",
          "name": "previousAdminRole",
          "type": "bytes32"
        },
        {
          "indexed": true,
          "internalType": "bytes32",
          "name": "newAdminRole",
          "type": "bytes32"
        }
      ],
      "name": "RoleAdminChanged",
      "type": "event"
    },
    {
      "anonymous": false,
      "inputs": [
        {
          "indexed": true,
          "internalType": "bytes32",
          "name": "role",
          "type": "bytes32"
        },
        {
          "indexed": true,
          "internalType": "address",
          "name": "account",
          "type": "address"
        },
        {
          "indexed": true,
          "internalType": "address",
          "name": "sender",
          "type": "address"
        }
      ],
      "name": "RoleGranted",
      "type": "event"
    },
    {
      "anonymous": false,
      "inputs": [
        {
          "indexed": true,
          "internalType": "bytes32",
          "name": "role",
          "type": "bytes32"
        },
        {
          "indexed": true,
          "internalType": "address",
          "name": "account",
          "type": "address"
        },
        {
          "indexed": true,
          "internalType": "address",
          "name": "sender",
          "type": "address"
        }
      ],
      "name": "RoleRevoked",
      "type": "event"
    },
    {
      "inputs": [],
      "name": "DEFAULT_ADMIN_ROLE",
      "outputs": [
        {
          "internalType": "bytes32",
          "name": "",
          "type": "bytes32"
        }
      ],
      "stateMutability": "view",
      "type": "function",
      "constant": true
    },
    {
      "inputs": [],
      "name": "active",
      "outputs": [
        {
          "internalType": "bool",
          "name": "",
          "type": "bool"
        }
      ],
      "stateMutability": "view",
      "type": "function",
      "constant": true
    },
    {
      "inputs": [
        {
          "internalType": "bytes32",
          "name": "role",
          "type": "bytes32"
        }
      ],
      "name": "getRoleAdmin",
      "outputs": [
        {
          "internalType": "bytes32",
          "name": "",
          "type": "bytes32"
        }
      ],
      "stateMutability": "view",
      "type": "function",
      "constant": true
    },
    {
      "inputs": [
        {
          "internalType": "bytes32",
          "name": "role",
          "type": "bytes32"
        },
        {
          "internalType": "uint256",
          "name": "index",
          "type": "uint256"
        }
      ],
      "name": "getRoleMember",
      "outputs": [
        {
          "internalType": "address",
          "name": "",
          "type": "address"
        }
      ],
      "stateMutability": "view",
      "type": "function",
      "constant": true
    },
    {
      "inputs": [
        {
          "internalType": "bytes32",
          "name": "role",
          "type": "bytes32"
        }
      ],
      "name": "getRoleMemberCount",
      "outputs": [
        {
          "internalType": "uint256",
          "name": "",
          "type": "uint256"
        }
      ],
      "stateMutability": "view",
      "type": "function",
      "constant": true
    },
    {
      "inputs": [
        {
          "internalType": "bytes32",
          "name": "role",
          "type": "bytes32"
        },
        {
          "internalType": "address",
          "name": "account",
          "type": "address"
        }
      ],
      "name": "grantRole",
      "outputs": [],
      "stateMutability": "nonpayable",
      "type": "function"
    },
    {
      "inputs": [
        {
          "internalType": "bytes32",
          "name": "role",
          "type": "bytes32"
        },
        {
          "internalType": "address",
          "name": "account",
          "type": "address"
        }
      ],
      "name": "hasRole",
      "outputs": [
        {
          "internalType": "bool",
          "name": "",
          "type": "bool"
        }
      ],
      "stateMutability": "view",
      "type": "function",
      "constant": true
    },
    {
      "inputs": [
        {
          "internalType": "bytes32",
          "name": "role",
          "type": "bytes32"
        },
        {
          "internalType": "address",
          "name": "account",
          "type": "address"
        }
      ],
      "name": "renounceRole",
      "outputs": [],
      "stateMutability": "nonpayable",
      "type": "function"
    },
    {
      "inputs": [
        {
          "internalType": "bytes32",
          "name": "role",
          "type": "bytes32"
        },
        {
          "internalType": "address",
          "name": "account",
          "type": "address"
        }
      ],
      "name": "revokeRole",
      "outputs": [],
      "stateMutability": "nonpayable",
      "type": "function"
    },
    {
      "inputs": [
        {
          "internalType": "address",
          "name": "addressStudentList",
          "type": "address"
        },
        {
          "internalType": "address",
          "name": "addressStudentQuiz",
          "type": "address"
        },
        {
          "internalType": "string",
          "name": "className",
          "type": "string"
        }
      ],
      "name": "createAcademyClass",
      "outputs": [
        {
          "internalType": "address",
          "name": "",
          "type": "address"
        }
      ],
      "stateMutability": "nonpayable",
      "type": "function"
    },
    {
      "inputs": [
        {
          "internalType": "address",
          "name": "classAddress",
          "type": "address"
        }
      ],
      "name": "changeActiveClass",
      "outputs": [
        {
          "internalType": "bool",
          "name": "",
          "type": "bool"
        }
      ],
      "stateMutability": "nonpayable",
      "type": "function"
    },
    {
      "inputs": [
        {
          "internalType": "address",
          "name": "account",
          "type": "address"
        },
        {
          "internalType": "address",
          "name": "classAddress",
          "type": "address"
        }
      ],
      "name": "addClassOwner",
      "outputs": [],
      "stateMutability": "nonpayable",
      "type": "function"
    },
    {
      "inputs": [
        {
          "internalType": "address",
          "name": "account",
          "type": "address"
        },
        {
          "internalType": "address",
          "name": "classAddress",
          "type": "address"
        }
      ],
      "name": "delClassOwner",
      "outputs": [],
      "stateMutability": "nonpayable",
      "type": "function"
    },
    {
      "inputs": [],
      "name": "changeActive",
      "outputs": [
        {
          "internalType": "bool",
          "name": "",
          "type": "bool"
        }
      ],
      "stateMutability": "nonpayable",
      "type": "function"
    },
    {
      "inputs": [
        {
          "internalType": "address",
          "name": "classAddress",
          "type": "address"
        }
      ],
      "name": "isAcademyClass",
      "outputs": [
        {
          "internalType": "bool",
          "name": "",
          "type": "bool"
        }
      ],
      "stateMutability": "view",
      "type": "function",
      "constant": true
    },
    {
      "inputs": [
        {
          "internalType": "address",
          "name": "classAddress",
          "type": "address"
        }
      ],
      "name": "getAcademyClass",
      "outputs": [
        {
          "components": [
            {
              "internalType": "address",
              "name": "classAddress",
              "type": "address"
            },
            {
              "internalType": "bool",
              "name": "active",
              "type": "bool"
            },
            {
              "internalType": "string",
              "name": "name",
              "type": "string"
            }
          ],
          "internalType": "struct ClassStruct",
          "name": "",
          "type": "tuple"
        }
      ],
      "stateMutability": "view",
      "type": "function",
      "constant": true
    },
    {
      "inputs": [],
      "name": "countAcademyClasses",
      "outputs": [
        {
          "internalType": "uint256",
          "name": "",
          "type": "uint256"
        }
      ],
      "stateMutability": "view",
      "type": "function",
      "constant": true
    },
    {
      "inputs": [],
      "name": "listAcademyClasses",
      "outputs": [
        {
          "components": [
            {
              "internalType": "address",
              "name": "classAddress",
              "type": "address"
            },
            {
              "internalType": "bool",
              "name": "active",
              "type": "bool"
            },
            {
              "internalType": "string",
              "name": "name",
              "type": "string"
            }
          ],
          "internalType": "struct ClassStruct[]",
          "name": "",
          "type": "tuple[]"
        }
      ],
      "stateMutability": "view",
      "type": "function",
      "constant": true
    }
  ],
  "bytecode": "0x60806040523480156200001157600080fd5b50620000276000801b336200004760201b60201c565b60018060006101000a81548160ff021916908315150217905550620001dd565b6200005982826200005d60201b60201c565b5050565b6200008b816000808581526020019081526020016000206000016200010060201b620013191790919060201c565b15620000fc57620000a16200013860201b60201c565b73ffffffffffffffffffffffffffffffffffffffff168173ffffffffffffffffffffffffffffffffffffffff16837f2f8788117e7eff1d82e926ec794901d17c78024a50270940304540a733656f0d60405160405180910390a45b5050565b600062000130836000018373ffffffffffffffffffffffffffffffffffffffff1660001b6200014060201b60201c565b905092915050565b600033905090565b6000620001548383620001ba60201b60201c565b620001af578260000182908060018154018082558091505060019003906000526020600020016000909190919091505582600001805490508360010160008481526020019081526020016000208190555060019050620001b4565b600090505b92915050565b600080836001016000848152602001908152602001600020541415905092915050565b61589080620001ed6000396000f3fe60806040523480156200001157600080fd5b5060043610620001305760003560e01c80639e48626f11620000b1578063ca15c873116200007b578063ca15c8731462000361578063d547741f1462000397578063d9a5350814620003b7578063e92c8f1b14620003d9578063fc7519f9146200040f5762000130565b80639e48626f14620002c5578063a1357dc014620002e7578063a217fddf146200031d578063b4ac0dfc146200033f5762000130565b806336568abe11620000ff57806336568abe14620001cd5780633b3a61ba14620001ed5780638fe182d114620002235780639010d07c146200025957806391d14854146200028f5762000130565b806302fb0c5e14620001355780631d2fe0a71462000157578063248a9ca314620001775780632f2ff15d14620001ad575b600080fd5b6200013f6200042f565b6040516200014e919062001f31565b60405180910390f35b6200017560048036038101906200016f9190620019e6565b62000442565b005b6200019560048036038101906200018f919062001ac2565b62000563565b604051620001a4919062001f4e565b60405180910390f35b620001cb6004803603810190620001c5919062001aee565b62000582565b005b620001eb6004803603810190620001e5919062001aee565b620005fe565b005b6200020b6004803603810190620002059190620019ba565b62000688565b6040516200021a9190620020aa565b60405180910390f35b6200024160048036038101906200023b9190620019ba565b6200084b565b60405162000250919062001f31565b60405180910390f35b62000277600480360381019062000271919062001b2f565b62000ae3565b60405162000286919062001eac565b60405180910390f35b620002ad6004803603810190620002a7919062001aee565b62000b16565b604051620002bc919062001f31565b60405180910390f35b620002cf62000b49565b604051620002de919062001f0d565b60405180910390f35b620003056004803603810190620002ff9190620019ba565b62000cb5565b60405162000314919062001f31565b60405180910390f35b6200032762000d13565b60405162000336919062001f4e565b60405180910390f35b6200034962000d1a565b60405162000358919062001f31565b60405180910390f35b6200037f600480360381019062000379919062001ac2565b62000dac565b6040516200038e9190620020ce565b60405180910390f35b620003b56004803603810190620003af919062001aee565b62000dd4565b005b620003c162000e50565b604051620003d09190620020ce565b60405180910390f35b620003f76004803603810190620003f1919062001a27565b62000e5d565b60405162000406919062001eac565b60405180910390f35b6200042d6004803603810190620004279190620019e6565b620011f8565b005b600160009054906101000a900460ff1681565b620004516000801b3362000b16565b62000493576040517f08c379a00000000000000000000000000000000000000000000000000000000081526004016200048a9062002044565b60405180910390fd5b600160009054906101000a900460ff16620004e5576040517f08c379a0000000000000000000000000000000000000000000000000000000008152600401620004dc9062002066565b60405180910390fd5b60008190508073ffffffffffffffffffffffffffffffffffffffff1663d547741f6000801b856040518363ffffffff1660e01b81526004016200052a92919062001f6b565b600060405180830381600087803b1580156200054557600080fd5b505af11580156200055a573d6000803e3d6000fd5b50505050505050565b6000806000838152602001908152602001600020600201549050919050565b620005ac60008084815260200190815260200160002060020154620005a66200134b565b62000b16565b620005ee576040517f08c379a0000000000000000000000000000000000000000000000000000000008152600401620005e59062001fde565b60405180910390fd5b620005fa828262001353565b5050565b620006086200134b565b73ffffffffffffffffffffffffffffffffffffffff168173ffffffffffffffffffffffffffffffffffffffff161462000678576040517f08c379a00000000000000000000000000000000000000000000000000000000081526004016200066f9062002088565b60405180910390fd5b620006848282620013eb565b5050565b62000692620017f5565b60006001600360008573ffffffffffffffffffffffffffffffffffffffff1673ffffffffffffffffffffffffffffffffffffffff16815260200190815260200160002054620006e291906200220d565b9050600281815481106200071f577f4e487b7100000000000000000000000000000000000000000000000000000000600052603260045260246000fd5b90600052602060002090600202016040518060600160405290816000820160009054906101000a900473ffffffffffffffffffffffffffffffffffffffff1673ffffffffffffffffffffffffffffffffffffffff1673ffffffffffffffffffffffffffffffffffffffff1681526020016000820160149054906101000a900460ff16151515158152602001600182018054620007bb90620022e1565b80601f0160208091040260200160405190810160405280929190818152602001828054620007e990620022e1565b80156200083a5780601f106200080e576101008083540402835291602001916200083a565b820191906000526020600020905b8154815290600101906020018083116200081c57829003601f168201915b505050505081525050915050919050565b60006200085c6000801b3362000b16565b6200089e576040517f08c379a0000000000000000000000000000000000000000000000000000000008152600401620008959062002044565b60405180910390fd5b600160009054906101000a900460ff16620008f0576040517f08c379a0000000000000000000000000000000000000000000000000000000008152600401620008e79062002066565b60405180910390fd5b620008fb8262000cb5565b156200093e576040517f08c379a0000000000000000000000000000000000000000000000000000000008152600401620009359062002000565b60405180910390fd5b60006001600360008573ffffffffffffffffffffffffffffffffffffffff1673ffffffffffffffffffffffffffffffffffffffff168152602001908152602001600020546200098e91906200220d565b905060028181548110620009cb577f4e487b7100000000000000000000000000000000000000000000000000000000600052603260045260246000fd5b906000526020600020906002020160000160149054906101000a900460ff16156002828154811062000a26577f4e487b7100000000000000000000000000000000000000000000000000000000600052603260045260246000fd5b906000526020600020906002020160000160146101000a81548160ff02191690831515021790555060008390508073ffffffffffffffffffffffffffffffffffffffff1663ff2e27956040518163ffffffff1660e01b8152600401602060405180830381600087803b15801562000a9c57600080fd5b505af115801562000ab1573d6000803e3d6000fd5b505050506040513d601f19601f8201168201806040525081019062000ad7919062001a96565b50600192505050919050565b600062000b0e826000808681526020019081526020016000206000016200148390919063ffffffff16565b905092915050565b600062000b41826000808681526020019081526020016000206000016200149f90919063ffffffff16565b905092915050565b60606002805480602002602001604051908101604052809291908181526020016000905b8282101562000cac57838290600052602060002090600202016040518060600160405290816000820160009054906101000a900473ffffffffffffffffffffffffffffffffffffffff1673ffffffffffffffffffffffffffffffffffffffff1673ffffffffffffffffffffffffffffffffffffffff1681526020016000820160149054906101000a900460ff1615151515815260200160018201805462000c1490620022e1565b80601f016020809104026020016040519081016040528092919081815260200182805462000c4290620022e1565b801562000c935780601f1062000c675761010080835404028352916020019162000c93565b820191906000526020600020905b81548152906001019060200180831162000c7557829003601f168201915b5050505050815250508152602001906001019062000b6d565b50505050905090565b600080600360008473ffffffffffffffffffffffffffffffffffffffff1673ffffffffffffffffffffffffffffffffffffffff16815260200190815260200160002054141562000d09576000905062000d0e565b600190505b919050565b6000801b81565b600062000d2b6000801b3362000b16565b62000d6d576040517f08c379a000000000000000000000000000000000000000000000000000000000815260040162000d649062002044565b60405180910390fd5b600160009054906101000a900460ff1615600160006101000a81548160ff021916908315150217905550600160009054906101000a900460ff16905090565b600062000dcd600080848152602001908152602001600020600001620014d1565b9050919050565b62000dfe6000808481526020019081526020016000206002015462000df86200134b565b62000b16565b62000e40576040517f08c379a000000000000000000000000000000000000000000000000000000000815260040162000e379062002022565b60405180910390fd5b62000e4c8282620013eb565b5050565b6000600280549050905090565b600062000e6e6000801b3362000b16565b62000eb0576040517f08c379a000000000000000000000000000000000000000000000000000000000815260040162000ea79062002044565b60405180910390fd5b600160009054906101000a900460ff1662000f02576040517f08c379a000000000000000000000000000000000000000000000000000000000815260040162000ef99062002066565b60405180910390fd5b600084848460405162000f15906200182e565b62000f239392919062001ec9565b604051809103906000f08015801562000f40573d6000803e3d6000fd5b509050600081905062000f52620017f5565b81816000019073ffffffffffffffffffffffffffffffffffffffff16908173ffffffffffffffffffffffffffffffffffffffff16815250506001816020019015159081151581525050848160400181905250600281908060018154018082558091505060019003906000526020600020906002020160009091909190915060008201518160000160006101000a81548173ffffffffffffffffffffffffffffffffffffffff021916908373ffffffffffffffffffffffffffffffffffffffff16021790555060208201518160000160146101000a81548160ff0219169083151502179055506040820151816001019080519060200190620010559291906200183c565b5050506000600280549050905080600360008573ffffffffffffffffffffffffffffffffffffffff1673ffffffffffffffffffffffffffffffffffffffff1681526020019081526020016000208190555060008890508073ffffffffffffffffffffffffffffffffffffffff16632f2ff15d6000801b866040518363ffffffff1660e01b8152600401620010eb92919062001f6b565b600060405180830381600087803b1580156200110657600080fd5b505af11580156200111b573d6000803e3d6000fd5b5050505060008890508073ffffffffffffffffffffffffffffffffffffffff16632f2ff15d6000801b876040518363ffffffff1660e01b81526004016200116492919062001f6b565b600060405180830381600087803b1580156200117f57600080fd5b505af115801562001194573d6000803e3d6000fd5b505050508473ffffffffffffffffffffffffffffffffffffffff167f19593ab970a97e30b1488866dc5490452380f3bffb1be271efb0577b1ad7349689604051620011e0919062001f98565b60405180910390a28496505050505050509392505050565b620012076000801b3362000b16565b62001249576040517f08c379a0000000000000000000000000000000000000000000000000000000008152600401620012409062002044565b60405180910390fd5b600160009054906101000a900460ff166200129b576040517f08c379a0000000000000000000000000000000000000000000000000000000008152600401620012929062002066565b60405180910390fd5b60008190508073ffffffffffffffffffffffffffffffffffffffff16632f2ff15d6000801b856040518363ffffffff1660e01b8152600401620012e092919062001f6b565b600060405180830381600087803b158015620012fb57600080fd5b505af115801562001310573d6000803e3d6000fd5b50505050505050565b600062001343836000018373ffffffffffffffffffffffffffffffffffffffff1660001b620014e8565b905092915050565b600033905090565b6200137c816000808581526020019081526020016000206000016200131990919063ffffffff16565b15620013e7576200138c6200134b565b73ffffffffffffffffffffffffffffffffffffffff168173ffffffffffffffffffffffffffffffffffffffff16837f2f8788117e7eff1d82e926ec794901d17c78024a50270940304540a733656f0d60405160405180910390a45b5050565b62001414816000808581526020019081526020016000206000016200155c90919063ffffffff16565b156200147f57620014246200134b565b73ffffffffffffffffffffffffffffffffffffffff168173ffffffffffffffffffffffffffffffffffffffff16837ff6391f5c32d9c69d2a47ea670b442974b53935d1edc7fd64eb21e047a839171b60405160405180910390a45b5050565b60006200149483600001836200158e565b60001c905092915050565b6000620014c9836000018373ffffffffffffffffffffffffffffffffffffffff1660001b6200162c565b905092915050565b6000620014e1826000016200164f565b9050919050565b6000620014f683836200162c565b6200155157826000018290806001815401808255809150506001900390600052602060002001600090919091909150558260000180549050836001016000848152602001908152602001600020819055506001905062001556565b600090505b92915050565b600062001586836000018373ffffffffffffffffffffffffffffffffffffffff1660001b62001660565b905092915050565b600081836000018054905011620015dc576040517f08c379a0000000000000000000000000000000000000000000000000000000008152600401620015d39062001fbc565b60405180910390fd5b82600001828154811062001619577f4e487b7100000000000000000000000000000000000000000000000000000000600052603260045260246000fd5b9060005260206000200154905092915050565b600080836001016000848152602001908152602001600020541415905092915050565b600081600001805490509050919050565b60008083600101600084815260200190815260200160002054905060008114620017e95760006001826200169591906200220d565b9050600060018660000180549050620016af91906200220d565b90506000866000018281548110620016f0577f4e487b7100000000000000000000000000000000000000000000000000000000600052603260045260246000fd5b90600052602060002001549050808760000184815481106200173b577f4e487b7100000000000000000000000000000000000000000000000000000000600052603260045260246000fd5b9060005260206000200181905550600183620017589190620021b0565b8760010160008381526020019081526020016000208190555086600001805480620017ac577f4e487b7100000000000000000000000000000000000000000000000000000000600052603160045260246000fd5b60019003818190600052602060002001600090559055866001016000878152602001908152602001600020600090556001945050505050620017ef565b60009150505b92915050565b6040518060600160405280600073ffffffffffffffffffffffffffffffffffffffff168152602001600015158152602001606081525090565b613250806200260b83390190565b8280546200184a90620022e1565b90600052602060002090601f0160209004810192826200186e5760008555620018ba565b82601f106200188957805160ff1916838001178555620018ba565b82800160010185558215620018ba579182015b82811115620018b95782518255916020019190600101906200189c565b5b509050620018c99190620018cd565b5090565b5b80821115620018e8576000816000905550600101620018ce565b5090565b600062001903620018fd8462002114565b620020eb565b9050828152602081018484840111156200191c57600080fd5b620019298482856200229c565b509392505050565b6000813590506200194281620025a2565b92915050565b6000815190506200195981620025bc565b92915050565b6000813590506200197081620025d6565b92915050565b600082601f8301126200198857600080fd5b81356200199a848260208601620018ec565b91505092915050565b600081359050620019b481620025f0565b92915050565b600060208284031215620019cd57600080fd5b6000620019dd8482850162001931565b91505092915050565b60008060408385031215620019fa57600080fd5b600062001a0a8582860162001931565b925050602062001a1d8582860162001931565b9150509250929050565b60008060006060848603121562001a3d57600080fd5b600062001a4d8682870162001931565b935050602062001a608682870162001931565b925050604084013567ffffffffffffffff81111562001a7e57600080fd5b62001a8c8682870162001976565b9150509250925092565b60006020828403121562001aa957600080fd5b600062001ab98482850162001948565b91505092915050565b60006020828403121562001ad557600080fd5b600062001ae5848285016200195f565b91505092915050565b6000806040838503121562001b0257600080fd5b600062001b12858286016200195f565b925050602062001b258582860162001931565b9150509250929050565b6000806040838503121562001b4357600080fd5b600062001b53858286016200195f565b925050602062001b6685828601620019a3565b9150509250929050565b600062001b7e838362001def565b905092915050565b62001b918162002248565b82525050565b62001ba28162002248565b82525050565b600062001bb5826200215a565b62001bc181856200217d565b93508360208202850162001bd5856200214a565b8060005b8581101562001c17578484038952815162001bf5858262001b70565b945062001c028362002170565b925060208a0199505060018101905062001bd9565b50829750879550505050505092915050565b62001c34816200225c565b82525050565b62001c45816200225c565b82525050565b62001c568162002268565b82525050565b600062001c698262002165565b62001c7581856200218e565b935062001c87818560208601620022ab565b62001c9281620023da565b840191505092915050565b600062001caa8262002165565b62001cb681856200219f565b935062001cc8818560208601620022ab565b62001cd381620023da565b840191505092915050565b600062001ced6022836200219f565b915062001cfa82620023eb565b604082019050919050565b600062001d14602f836200219f565b915062001d21826200243a565b604082019050919050565b600062001d3b6010836200219f565b915062001d488262002489565b602082019050919050565b600062001d626030836200219f565b915062001d6f82620024b2565b604082019050919050565b600062001d89601c836200219f565b915062001d968262002501565b602082019050919050565b600062001db0601c836200219f565b915062001dbd826200252a565b602082019050919050565b600062001dd7602f836200219f565b915062001de48262002553565b604082019050919050565b600060608301600083015162001e09600086018262001b86565b50602083015162001e1e602086018262001c29565b506040830151848203604086015262001e38828262001c5c565b9150508091505092915050565b600060608301600083015162001e5f600086018262001b86565b50602083015162001e74602086018262001c29565b506040830151848203604086015262001e8e828262001c5c565b9150508091505092915050565b62001ea68162002292565b82525050565b600060208201905062001ec3600083018462001b97565b92915050565b600060608201905062001ee0600083018662001b97565b62001eef602083018562001b97565b818103604083015262001f03818462001c9d565b9050949350505050565b6000602082019050818103600083015262001f29818462001ba8565b905092915050565b600060208201905062001f48600083018462001c3a565b92915050565b600060208201905062001f65600083018462001c4b565b92915050565b600060408201905062001f82600083018562001c4b565b62001f91602083018462001b97565b9392505050565b6000602082019050818103600083015262001fb4818462001c9d565b905092915050565b6000602082019050818103600083015262001fd78162001cde565b9050919050565b6000602082019050818103600083015262001ff98162001d05565b9050919050565b600060208201905081810360008301526200201b8162001d2c565b9050919050565b600060208201905081810360008301526200203d8162001d53565b9050919050565b600060208201905081810360008301526200205f8162001d7a565b9050919050565b60006020820190508181036000830152620020818162001da1565b9050919050565b60006020820190508181036000830152620020a38162001dc8565b9050919050565b60006020820190508181036000830152620020c6818462001e45565b905092915050565b6000602082019050620020e5600083018462001e9b565b92915050565b6000620020f76200210a565b905062002105828262002317565b919050565b6000604051905090565b600067ffffffffffffffff821115620021325762002131620023ab565b5b6200213d82620023da565b9050602081019050919050565b6000819050602082019050919050565b600081519050919050565b600081519050919050565b6000602082019050919050565b600082825260208201905092915050565b600082825260208201905092915050565b600082825260208201905092915050565b6000620021bd8262002292565b9150620021ca8362002292565b9250827fffffffffffffffffffffffffffffffffffffffffffffffffffffffffffffffff038211156200220257620022016200234d565b5b828201905092915050565b60006200221a8262002292565b9150620022278362002292565b9250828210156200223d576200223c6200234d565b5b828203905092915050565b6000620022558262002272565b9050919050565b60008115159050919050565b6000819050919050565b600073ffffffffffffffffffffffffffffffffffffffff82169050919050565b6000819050919050565b82818337600083830152505050565b60005b83811015620022cb578082015181840152602081019050620022ae565b83811115620022db576000848401525b50505050565b60006002820490506001821680620022fa57607f821691505b602082108114156200231157620023106200237c565b5b50919050565b6200232282620023da565b810181811067ffffffffffffffff82111715620023445762002343620023ab565b5b80604052505050565b7f4e487b7100000000000000000000000000000000000000000000000000000000600052601160045260246000fd5b7f4e487b7100000000000000000000000000000000000000000000000000000000600052602260045260246000fd5b7f4e487b7100000000000000000000000000000000000000000000000000000000600052604160045260246000fd5b6000601f19601f8301169050919050565b7f456e756d657261626c655365743a20696e646578206f7574206f6620626f756e60008201527f6473000000000000000000000000000000000000000000000000000000000000602082015250565b7f416363657373436f6e74726f6c3a2073656e646572206d75737420626520616e60008201527f2061646d696e20746f206772616e740000000000000000000000000000000000602082015250565b7f636c617373206e6f742065786973747300000000000000000000000000000000600082015250565b7f416363657373436f6e74726f6c3a2073656e646572206d75737420626520616e60008201527f2061646d696e20746f207265766f6b6500000000000000000000000000000000602082015250565b7f41636164656d79436c6173734c6973743a206f6e6c79206f776e657200000000600082015250565b7f41636164656d79436c6173734c6973743a206e6f742061637469766500000000600082015250565b7f416363657373436f6e74726f6c3a2063616e206f6e6c792072656e6f756e636560008201527f20726f6c657320666f722073656c660000000000000000000000000000000000602082015250565b620025ad8162002248565b8114620025b957600080fd5b50565b620025c7816200225c565b8114620025d357600080fd5b50565b620025e18162002268565b8114620025ed57600080fd5b50565b620025fb8162002292565b81146200260757600080fd5b5056fe60806040523480156200001157600080fd5b5060405162003250380380620032508339818101604052810190620000379190620003f3565b6200004c6000801b336200012460201b60201c565b806002908051906020019062000064929190620002ba565b5060018060006101000a81548160ff02191690831515021790555060018060016101000a81548160ff02191690831515021790555082600360006101000a81548173ffffffffffffffffffffffffffffffffffffffff021916908373ffffffffffffffffffffffffffffffffffffffff16021790555081600460006101000a81548173ffffffffffffffffffffffffffffffffffffffff021916908373ffffffffffffffffffffffffffffffffffffffff16021790555050505062000620565b6200013682826200013a60201b60201c565b5050565b6200016881600080858152602001908152602001600020600001620001dd60201b620010681790919060201c565b15620001d9576200017e6200021560201b60201c565b73ffffffffffffffffffffffffffffffffffffffff168173ffffffffffffffffffffffffffffffffffffffff16837f2f8788117e7eff1d82e926ec794901d17c78024a50270940304540a733656f0d60405160405180910390a45b5050565b60006200020d836000018373ffffffffffffffffffffffffffffffffffffffff1660001b6200021d60201b60201c565b905092915050565b600033905090565b60006200023183836200029760201b60201c565b6200028c57826000018290806001815401808255809150506001900390600052602060002001600090919091909150558260000180549050836001016000848152602001908152602001600020819055506001905062000291565b600090505b92915050565b600080836001016000848152602001908152602001600020541415905092915050565b828054620002c8906200052b565b90600052602060002090601f016020900481019282620002ec576000855562000338565b82601f106200030757805160ff191683800117855562000338565b8280016001018555821562000338579182015b82811115620003375782518255916020019190600101906200031a565b5b5090506200034791906200034b565b5090565b5b80821115620003665760008160009055506001016200034c565b5090565b6000620003816200037b846200048b565b62000462565b9050828152602081018484840111156200039a57600080fd5b620003a7848285620004f5565b509392505050565b600081519050620003c08162000606565b92915050565b600082601f830112620003d857600080fd5b8151620003ea8482602086016200036a565b91505092915050565b6000806000606084860312156200040957600080fd5b60006200041986828701620003af565b93505060206200042c86828701620003af565b925050604084015167ffffffffffffffff8111156200044a57600080fd5b6200045886828701620003c6565b9150509250925092565b60006200046e62000481565b90506200047c828262000561565b919050565b6000604051905090565b600067ffffffffffffffff821115620004a957620004a8620005c6565b5b620004b482620005f5565b9050602081019050919050565b6000620004ce82620004d5565b9050919050565b600073ffffffffffffffffffffffffffffffffffffffff82169050919050565b60005b8381101562000515578082015181840152602081019050620004f8565b8381111562000525576000848401525b50505050565b600060028204905060018216806200054457607f821691505b602082108114156200055b576200055a62000597565b5b50919050565b6200056c82620005f5565b810181811067ffffffffffffffff821117156200058e576200058d620005c6565b5b80604052505050565b7f4e487b7100000000000000000000000000000000000000000000000000000000600052602260045260246000fd5b7f4e487b7100000000000000000000000000000000000000000000000000000000600052604160045260246000fd5b6000601f19601f8301169050919050565b6200061181620004c1565b81146200061d57600080fd5b50565b612c2080620006306000396000f3fe608060405234801561001057600080fd5b50600436106101725760003560e01c80639010d07c116100de578063ca15c87311610097578063d547741f11610071578063d547741f1461049d578063fcae4484146104b9578063fcfff16f146104d7578063ff2e2795146104f557610172565b8063ca15c8731461041f578063cceabd331461044f578063d43e001a1461047f57610172565b80639010d07c1461031157806391d14854146103415780639aa8e722146103715780639f3da5cc146103a1578063a217fddf146103d1578063bd06ea19146103ef57610172565b80633ca9d3e9116101305780633ca9d3e9146102395780634114458414610257578063477f5a6914610275578063733d09d21461029357806382f7d392146102c35780638f449a05146102f357610172565b8062c51f8c1461017757806302fb0c5e14610195578063035410f6146101b3578063248a9ca3146101d15780632f2ff15d1461020157806336568abe1461021d575b600080fd5b61017f610513565b60405161018c919061236e565b60405180910390f35b61019d6105a1565b6040516101aa91906122e7565b60405180910390f35b6101bb6105b4565b6040516101c891906122c5565b60405180910390f35b6101eb60048036038101906101e69190611d89565b610642565b6040516101f89190612302565b60405180910390f35b61021b60048036038101906102169190611db2565b610661565b005b61023760048036038101906102329190611db2565b6106d4565b005b610241610757565b60405161024e91906122e7565b60405180910390f35b61025f6107df565b60405161026c919061231d565b60405180910390f35b61027d610805565b60405161028a919061252b565b60405180910390f35b6102ad60048036038101906102a89190611d37565b610812565b6040516102ba91906122e7565b60405180910390f35b6102dd60048036038101906102d89190611d37565b610a27565b6040516102ea91906122e7565b60405180910390f35b6102fb610a86565b60405161030891906122e7565b60405180910390f35b61032b60048036038101906103269190611dee565b610ae6565b6040516103389190612220565b60405180910390f35b61035b60048036038101906103569190611db2565b610b17565b60405161036891906122e7565b60405180910390f35b61038b60048036038101906103869190611d37565b610b48565b60405161039891906122e7565b60405180910390f35b6103bb60048036038101906103b69190611d37565b610ba8565b6040516103c89190612510565b60405180910390f35b6103d9610ce4565b6040516103e69190612302565b60405180910390f35b61040960048036038101906104049190611d37565b610ceb565b60405161041691906122e7565b60405180910390f35b61043960048036038101906104349190611d89565b610d9b565b604051610446919061252b565b60405180910390f35b61046960048036038101906104649190611e2a565b610dc1565b604051610476919061252b565b60405180910390f35b610487610f1f565b6040516104949190612338565b60405180910390f35b6104b760048036038101906104b29190611db2565b610f45565b005b6104c1610fb8565b6040516104ce91906122e7565b60405180910390f35b6104df610fca565b6040516104ec91906122e7565b60405180910390f35b6104fd610fdb565b60405161050a91906122e7565b60405180910390f35b6002805461052090612789565b80601f016020809104026020016040519081016040528092919081815260200182805461054c90612789565b80156105995780601f1061056e57610100808354040283529160200191610599565b820191906000526020600020905b81548152906001019060200180831161057c57829003601f168201915b505050505081565b600160009054906101000a900460ff1681565b6060600680548060200260200160405190810160405280929190818152602001828054801561063857602002820191906000526020600020905b8160009054906101000a900473ffffffffffffffffffffffffffffffffffffffff1673ffffffffffffffffffffffffffffffffffffffff16815260200190600101908083116105ee575b5050505050905090565b6000806000838152602001908152602001600020600201549050919050565b61068760008084815260200190815260200160002060020154610682611098565b610b17565b6106c6576040517f08c379a00000000000000000000000000000000000000000000000000000000081526004016106bd906123b0565b60405180910390fd5b6106d082826110a0565b5050565b6106dc611098565b73ffffffffffffffffffffffffffffffffffffffff168173ffffffffffffffffffffffffffffffffffffffff1614610749576040517f08c379a0000000000000000000000000000000000000000000000000000000008152600401610740906124f0565b60405180910390fd5b6107538282611133565b5050565b60006107666000801b33610b17565b6107a5576040517f08c379a000000000000000000000000000000000000000000000000000000000815260040161079c90612430565b60405180910390fd5b60018054906101000a900460ff16156001806101000a81548160ff02191690831515021790555060018054906101000a900460ff16905090565b600460009054906101000a900473ffffffffffffffffffffffffffffffffffffffff1681565b6000600680549050905090565b60006108216000801b33610b17565b610860576040517f08c379a000000000000000000000000000000000000000000000000000000000815260040161085790612430565b60405180910390fd5b600160009054906101000a900460ff166108af576040517f08c379a00000000000000000000000000000000000000000000000000000000081526004016108a690612410565b60405180910390fd5b6108b882610a27565b6108f7576040517f08c379a00000000000000000000000000000000000000000000000000000000081526004016108ee90612450565b60405180910390fd5b6002600560008473ffffffffffffffffffffffffffffffffffffffff1673ffffffffffffffffffffffffffffffffffffffff16815260200190815260200160002060000160006101000a81548160ff02191690836002811115610983577f4e487b7100000000000000000000000000000000000000000000000000000000600052602160045260246000fd5b021790555042600560008473ffffffffffffffffffffffffffffffffffffffff1673ffffffffffffffffffffffffffffffffffffffff168152602001908152602001600020600201819055508173ffffffffffffffffffffffffffffffffffffffff167ffcac4ad276b3d596f594dd2e15d40999195593dfd3631982e5d8f03e9b62042b6002604051610a169190612353565b60405180910390a260019050919050565b600080600560008473ffffffffffffffffffffffffffffffffffffffff1673ffffffffffffffffffffffffffffffffffffffff168152602001908152602001600020600101541115610a7c5760019050610a81565b600090505b919050565b600060018054906101000a900460ff16610ad5576040517f08c379a0000000000000000000000000000000000000000000000000000000008152600401610acc90612490565b60405180910390fd5b610ade336111c6565b506001905090565b6000610b0f826000808681526020019081526020016000206000016116e090919063ffffffff16565b905092915050565b6000610b40826000808681526020019081526020016000206000016116fa90919063ffffffff16565b905092915050565b6000610b576000801b33610b17565b610b96576040517f08c379a0000000000000000000000000000000000000000000000000000000008152600401610b8d90612430565b60405180910390fd5b610b9f8261172a565b60019050919050565b610bb0611bf8565b610bb982610a27565b610bf8576040517f08c379a0000000000000000000000000000000000000000000000000000000008152600401610bef906123f0565b60405180910390fd5b600560008373ffffffffffffffffffffffffffffffffffffffff1673ffffffffffffffffffffffffffffffffffffffff1681526020019081526020016000206040518060600160405290816000820160009054906101000a900460ff166002811115610c8d577f4e487b7100000000000000000000000000000000000000000000000000000000600052602160045260246000fd5b6002811115610cc5577f4e487b7100000000000000000000000000000000000000000000000000000000600052602160045260246000fd5b8152602001600182015481526020016002820154815250509050919050565b6000801b81565b6000610cfa6000801b33610b17565b610d39576040517f08c379a0000000000000000000000000000000000000000000000000000000008152600401610d3090612430565b60405180910390fd5b600160009054906101000a900460ff16610d88576040517f08c379a0000000000000000000000000000000000000000000000000000000008152600401610d7f90612410565b60405180910390fd5b610d91826111c6565b5060019050919050565b6000610dba6000808481526020019081526020016000206000016118eb565b9050919050565b6000600160009054906101000a900460ff16610e12576040517f08c379a0000000000000000000000000000000000000000000000000000000008152600401610e0990612410565b60405180910390fd5b610e1b33610a27565b610e5a576040517f08c379a0000000000000000000000000000000000000000000000000000000008152600401610e5190612450565b60405180910390fd5b6000600460009054906101000a900473ffffffffffffffffffffffffffffffffffffffff1673ffffffffffffffffffffffffffffffffffffffff1663ef58d59c33888888886040518663ffffffff1660e01b8152600401610ebf959493929190612264565b602060405180830381600087803b158015610ed957600080fd5b505af1158015610eed573d6000803e3d6000fd5b505050506040513d601f19601f82011682018060405250810190610f119190611ebd565b905080915050949350505050565b600360009054906101000a900473ffffffffffffffffffffffffffffffffffffffff1681565b610f6b60008084815260200190815260200160002060020154610f66611098565b610b17565b610faa576040517f08c379a0000000000000000000000000000000000000000000000000000000008152600401610fa190612470565b60405180910390fd5b610fb48282611133565b5050565b6000610fc33361172a565b6001905090565b60018054906101000a900460ff1681565b6000610fea6000801b33610b17565b611029576040517f08c379a000000000000000000000000000000000000000000000000000000000815260040161102090612430565b60405180910390fd5b600160009054906101000a900460ff1615600160006101000a81548160ff021916908315150217905550600160009054906101000a900460ff16905090565b6000611090836000018373ffffffffffffffffffffffffffffffffffffffff1660001b611900565b905092915050565b600033905090565b6110c78160008085815260200190815260200160002060000161106890919063ffffffff16565b1561112f576110d4611098565b73ffffffffffffffffffffffffffffffffffffffff168173ffffffffffffffffffffffffffffffffffffffff16837f2f8788117e7eff1d82e926ec794901d17c78024a50270940304540a733656f0d60405160405180910390a45b5050565b61115a8160008085815260200190815260200160002060000161197090919063ffffffff16565b156111c257611167611098565b73ffffffffffffffffffffffffffffffffffffffff168173ffffffffffffffffffffffffffffffffffffffff16837ff6391f5c32d9c69d2a47ea670b442974b53935d1edc7fd64eb21e047a839171b60405160405180910390a45b5050565b60006111d182610a27565b15611211576040517f08c379a0000000000000000000000000000000000000000000000000000000008152600401611208906124d0565b60405180910390fd5b60006001600560008573ffffffffffffffffffffffffffffffffffffffff1673ffffffffffffffffffffffffffffffffffffffff16815260200190815260200160002060000160006101000a81548160ff0219169083600281111561129f577f4e487b7100000000000000000000000000000000000000000000000000000000600052602160045260246000fd5b021790555042600560008573ffffffffffffffffffffffffffffffffffffffff1673ffffffffffffffffffffffffffffffffffffffff168152602001908152602001600020600101819055506006839080600181540180825580915050600190039060005260206000200160009091909190916101000a81548173ffffffffffffffffffffffffffffffffffffffff021916908373ffffffffffffffffffffffffffffffffffffffff160217905550600360009054906101000a900473ffffffffffffffffffffffffffffffffffffffff1673ffffffffffffffffffffffffffffffffffffffff166382f7d392846040518263ffffffff1660e01b81526004016113a99190612220565b60206040518083038186803b1580156113c157600080fd5b505afa1580156113d5573d6000803e3d6000fd5b505050506040513d601f19601f820116820180604052508101906113f99190611d60565b6114b157600360009054906101000a900473ffffffffffffffffffffffffffffffffffffffff1673ffffffffffffffffffffffffffffffffffffffff1663bd06ea19846040518263ffffffff1660e01b81526004016114589190612220565b602060405180830381600087803b15801561147257600080fd5b505af1158015611486573d6000803e3d6000fd5b505050506040513d601f19601f820116820180604052508101906114aa9190611ebd565b90506114b2565b5b6000309050600360009054906101000a900473ffffffffffffffffffffffffffffffffffffffff1673ffffffffffffffffffffffffffffffffffffffff16636cd3fedf85836040518363ffffffff1660e01b815260040161151492919061223b565b602060405180830381600087803b15801561152e57600080fd5b505af1158015611542573d6000803e3d6000fd5b505050506040513d601f19601f820116820180604052508101906115669190611d60565b6115a5576040517f08c379a000000000000000000000000000000000000000000000000000000000815260040161159c906124b0565b60405180910390fd5b600360009054906101000a900473ffffffffffffffffffffffffffffffffffffffff1673ffffffffffffffffffffffffffffffffffffffff16630c78a97485836040518363ffffffff1660e01b815260040161160292919061223b565b602060405180830381600087803b15801561161c57600080fd5b505af1158015611630573d6000803e3d6000fd5b505050506040513d601f19601f820116820180604052508101906116549190611d60565b611693576040517f08c379a000000000000000000000000000000000000000000000000000000000815260040161168a906123d0565b60405180910390fd5b8373ffffffffffffffffffffffffffffffffffffffff167fc2cd73f6970f5e40dce13d5b14924b73bf1a89d678b30618a3135716213a2c6560405160405180910390a28192505050919050565b60006116ef83600001836119a0565b60001c905092915050565b6000611722836000018373ffffffffffffffffffffffffffffffffffffffff1660001b611a3a565b905092915050565b600160009054906101000a900460ff16611779576040517f08c379a000000000000000000000000000000000000000000000000000000000815260040161177090612410565b60405180910390fd5b61178281610a27565b6117c1576040517f08c379a00000000000000000000000000000000000000000000000000000000081526004016117b890612450565b60405180910390fd5b6000600560008373ffffffffffffffffffffffffffffffffffffffff1673ffffffffffffffffffffffffffffffffffffffff16815260200190815260200160002060000160006101000a81548160ff0219169083600281111561184d577f4e487b7100000000000000000000000000000000000000000000000000000000600052602160045260246000fd5b021790555042600560008373ffffffffffffffffffffffffffffffffffffffff1673ffffffffffffffffffffffffffffffffffffffff168152602001908152602001600020600201819055508073ffffffffffffffffffffffffffffffffffffffff167ffcac4ad276b3d596f594dd2e15d40999195593dfd3631982e5d8f03e9b62042b60006040516118e09190612353565b60405180910390a250565b60006118f982600001611a5d565b9050919050565b600061190c8383611a3a565b61196557826000018290806001815401808255809150506001900390600052602060002001600090919091909150558260000180549050836001016000848152602001908152602001600020819055506001905061196a565b600090505b92915050565b6000611998836000018373ffffffffffffffffffffffffffffffffffffffff1660001b611a6e565b905092915050565b6000818360000180549050116119eb576040517f08c379a00000000000000000000000000000000000000000000000000000000081526004016119e290612390565b60405180910390fd5b826000018281548110611a27577f4e487b7100000000000000000000000000000000000000000000000000000000600052603260045260246000fd5b9060005260206000200154905092915050565b600080836001016000848152602001908152602001600020541415905092915050565b600081600001805490509050919050565b60008083600101600084815260200190815260200160002054905060008114611bec576000600182611aa09190612647565b9050600060018660000180549050611ab89190612647565b90506000866000018281548110611af8577f4e487b7100000000000000000000000000000000000000000000000000000000600052603260045260246000fd5b9060005260206000200154905080876000018481548110611b42577f4e487b7100000000000000000000000000000000000000000000000000000000600052603260045260246000fd5b9060005260206000200181905550600183611b5d91906125f1565b8760010160008381526020019081526020016000208190555086600001805480611bb0577f4e487b7100000000000000000000000000000000000000000000000000000000600052603160045260246000fd5b60019003818190600052602060002001600090559055866001016000878152602001908152602001600020600090556001945050505050611bf2565b60009150505b92915050565b604051806060016040528060006002811115611c3d577f4e487b7100000000000000000000000000000000000000000000000000000000600052602160045260246000fd5b815260200160008152602001600081525090565b6000611c64611c5f8461256b565b612546565b905082815260208101848484011115611c7c57600080fd5b611c87848285612747565b509392505050565b600081359050611c9e81612b77565b92915050565b600081519050611cb381612b8e565b92915050565b600081359050611cc881612ba5565b92915050565b600082601f830112611cdf57600080fd5b8135611cef848260208601611c51565b91505092915050565b600081359050611d0781612bbc565b92915050565b600081519050611d1c81612bbc565b92915050565b600081359050611d3181612bd3565b92915050565b600060208284031215611d4957600080fd5b6000611d5784828501611c8f565b91505092915050565b600060208284031215611d7257600080fd5b6000611d8084828501611ca4565b91505092915050565b600060208284031215611d9b57600080fd5b6000611da984828501611cb9565b91505092915050565b60008060408385031215611dc557600080fd5b6000611dd385828601611cb9565b9250506020611de485828601611c8f565b9150509250929050565b60008060408385031215611e0157600080fd5b6000611e0f85828601611cb9565b9250506020611e2085828601611cf8565b9150509250929050565b60008060008060808587031215611e4057600080fd5b600085013567ffffffffffffffff811115611e5a57600080fd5b611e6687828801611cce565b945050602085013567ffffffffffffffff811115611e8357600080fd5b611e8f87828801611cce565b9350506040611ea087828801611d22565b9250506060611eb187828801611d22565b91505092959194509250565b600060208284031215611ecf57600080fd5b6000611edd84828501611d0d565b91505092915050565b6000611ef28383611efe565b60208301905092915050565b611f078161267b565b82525050565b611f168161267b565b82525050565b6000611f27826125ac565b611f3181856125cf565b9350611f3c8361259c565b8060005b83811015611f6d578151611f548882611ee6565b9750611f5f836125c2565b925050600181019050611f40565b5085935050505092915050565b611f838161268d565b82525050565b611f9281612699565b82525050565b611fa1816126ed565b82525050565b611fb081612711565b82525050565b611fbf81612735565b82525050565b611fce81612735565b82525050565b6000611fdf826125b7565b611fe981856125e0565b9350611ff9818560208601612756565b612002816128a8565b840191505092915050565b600061201a6022836125e0565b9150612025826128b9565b604082019050919050565b600061203d602f836125e0565b915061204882612908565b604082019050919050565b6000612060602d836125e0565b915061206b82612957565b604082019050919050565b6000612083600b836125e0565b915061208e826129a6565b602082019050919050565b60006120a66018836125e0565b91506120b1826129cf565b602082019050919050565b60006120c96018836125e0565b91506120d4826129f8565b602082019050919050565b60006120ec6012836125e0565b91506120f782612a21565b602082019050919050565b600061210f6030836125e0565b915061211a82612a4a565b604082019050919050565b60006121326016836125e0565b915061213d82612a99565b602082019050919050565b6000612155601d836125e0565b915061216082612ac2565b602082019050919050565b60006121786016836125e0565b915061218382612aeb565b602082019050919050565b600061219b602f836125e0565b91506121a682612b14565b604082019050919050565b6060820160008201516121c76000850182611fb6565b5060208201516121da60208501826121f3565b5060408201516121ed60408501826121f3565b50505050565b6121fc816126d6565b82525050565b61220b816126d6565b82525050565b61221a816126e0565b82525050565b60006020820190506122356000830184611f0d565b92915050565b60006040820190506122506000830185611f0d565b61225d6020830184611f0d565b9392505050565b600060a0820190506122796000830188611f0d565b818103602083015261228b8187611fd4565b9050818103604083015261229f8186611fd4565b90506122ae6060830185612211565b6122bb6080830184612211565b9695505050505050565b600060208201905081810360008301526122df8184611f1c565b905092915050565b60006020820190506122fc6000830184611f7a565b92915050565b60006020820190506123176000830184611f89565b92915050565b60006020820190506123326000830184611f98565b92915050565b600060208201905061234d6000830184611fa7565b92915050565b60006020820190506123686000830184611fc5565b92915050565b600060208201905081810360008301526123888184611fd4565b905092915050565b600060208201905081810360008301526123a98161200d565b9050919050565b600060208201905081810360008301526123c981612030565b9050919050565b600060208201905081810360008301526123e981612053565b9050919050565b6000602082019050818103600083015261240981612076565b9050919050565b6000602082019050818103600083015261242981612099565b9050919050565b60006020820190508181036000830152612449816120bc565b9050919050565b60006020820190508181036000830152612469816120df565b9050919050565b6000602082019050818103600083015261248981612102565b9050919050565b600060208201905081810360008301526124a981612125565b9050919050565b600060208201905081810360008301526124c981612148565b9050919050565b600060208201905081810360008301526124e98161216b565b9050919050565b600060208201905081810360008301526125098161218e565b9050919050565b600060608201905061252560008301846121b1565b92915050565b60006020820190506125406000830184612202565b92915050565b6000612550612561565b905061255c82826127bb565b919050565b6000604051905090565b600067ffffffffffffffff82111561258657612585612879565b5b61258f826128a8565b9050602081019050919050565b6000819050602082019050919050565b600081519050919050565b600081519050919050565b6000602082019050919050565b600082825260208201905092915050565b600082825260208201905092915050565b60006125fc826126d6565b9150612607836126d6565b9250827fffffffffffffffffffffffffffffffffffffffffffffffffffffffffffffffff0382111561263c5761263b6127ec565b5b828201905092915050565b6000612652826126d6565b915061265d836126d6565b9250828210156126705761266f6127ec565b5b828203905092915050565b6000612686826126b6565b9050919050565b60008115159050919050565b6000819050919050565b60008190506126b182612b63565b919050565b600073ffffffffffffffffffffffffffffffffffffffff82169050919050565b6000819050919050565b600060ff82169050919050565b60006126f8826126ff565b9050919050565b600061270a826126b6565b9050919050565b600061271c82612723565b9050919050565b600061272e826126b6565b9050919050565b6000612740826126a3565b9050919050565b82818337600083830152505050565b60005b83811015612774578082015181840152602081019050612759565b83811115612783576000848401525b50505050565b600060028204905060018216806127a157607f821691505b602082108114156127b5576127b461284a565b5b50919050565b6127c4826128a8565b810181811067ffffffffffffffff821117156127e3576127e2612879565b5b80604052505050565b7f4e487b7100000000000000000000000000000000000000000000000000000000600052601160045260246000fd5b7f4e487b7100000000000000000000000000000000000000000000000000000000600052602160045260246000fd5b7f4e487b7100000000000000000000000000000000000000000000000000000000600052602260045260246000fd5b7f4e487b7100000000000000000000000000000000000000000000000000000000600052604160045260246000fd5b6000601f19601f8301169050919050565b7f456e756d657261626c655365743a20696e646578206f7574206f6620626f756e60008201527f6473000000000000000000000000000000000000000000000000000000000000602082015250565b7f416363657373436f6e74726f6c3a2073656e646572206d75737420626520616e60008201527f2061646d696e20746f206772616e740000000000000000000000000000000000602082015250565b7f4572726f7220696e2073747564656e744c6973742e757064617465537475646560008201527f6e74416374697665436c61737300000000000000000000000000000000000000602082015250565b7f6e6f742073747564656e74000000000000000000000000000000000000000000600082015250565b7f41636164656d79436c6173733a206e6f74206163746976650000000000000000600082015250565b7f41636164656d79436c6173733a206f6e6c79206f776e65720000000000000000600082015250565b7f73747564656e74206e6f74206578697374730000000000000000000000000000600082015250565b7f416363657373436f6e74726f6c3a2073656e646572206d75737420626520616e60008201527f2061646d696e20746f207265766f6b6500000000000000000000000000000000602082015250565b7f41636164656d79436c6173733a206e6f74206f70656e00000000000000000000600082015250565b7f4572726f7220696e2073747564656e744c6973742e616464436c617373000000600082015250565b7f73747564656e7420616c72656164792065786973747300000000000000000000600082015250565b7f416363657373436f6e74726f6c3a2063616e206f6e6c792072656e6f756e636560008201527f20726f6c657320666f722073656c660000000000000000000000000000000000602082015250565b60038110612b7457612b7361281b565b5b50565b612b808161267b565b8114612b8b57600080fd5b50565b612b978161268d565b8114612ba257600080fd5b50565b612bae81612699565b8114612bb957600080fd5b50565b612bc5816126d6565b8114612bd057600080fd5b50565b612bdc816126e0565b8114612be757600080fd5b5056fea2646970667358221220a9b92d97bc55279ad6be0d6d76405f8c37353a5816ea6bb269e247af092fd61864736f6c63430008010033a26469706673582212207178d8584f886baa711feeac16be7726d66fe5ad48c480691e7f16cab074e37e64736f6c63430008010033",
  "immutableReferences": {},
  "source": "// SPDX-License-Identifier: MIT\r\npragma solidity 0.8.1;\r\n\r\n//import \"https://github.com/OpenZeppelin/openzeppelin-contracts/blob/master/contracts/access/AccessControl.sol\";\r\n//import '@openzeppelin/contracts/access/AccessControl.sol';\r\nimport './oz-contracts/access/AccessControl.sol';\r\n\r\nimport './AcademyClass.sol';\r\nimport './iAcademyClassList.sol';\r\nimport './iAcademyStudents.sol';\r\nimport './iAcademyStudentQuiz.sol';\r\n\r\n\r\ncontract AcademyClassList is AccessControl {\r\n    //Factory for AcademyClass\r\n\r\n    bool public active;\r\n    //mapping(address => ClassStruct) private classInfo;\r\n    //address[] private classAddressIndex;\r\n    ClassStruct[] private classInfo;\r\n    mapping(address => uint256) private classAddressIndex;\r\n\r\n    constructor() {\r\n        _setupRole(DEFAULT_ADMIN_ROLE, msg.sender);\r\n        active = true;\r\n    }\r\n\r\n    event AcademyClassCreated(address indexed classAddress, string className);\r\n\r\n    modifier onlyOwner() {\r\n        require(hasRole(DEFAULT_ADMIN_ROLE, msg.sender), \"AcademyClassList: only owner\");\r\n        _;\r\n    }\r\n    \r\n    modifier onlyActive() {\r\n        require(active, \"AcademyClassList: not active\");\r\n        _;\r\n    } \r\n\r\n    function createAcademyClass(address addressStudentList, address addressStudentQuiz, string memory className) public onlyOwner onlyActive returns (address) {\r\n        //className = \"Devs 2021-01\";\r\n        //Can repeat className? YES\r\n        \r\n        AcademyClass ac = new AcademyClass(addressStudentList, addressStudentQuiz, className);\r\n        address classAddress = address(ac);\r\n        \r\n        ClassStruct memory c;\r\n        c.classAddress = classAddress;\r\n        c.active = true;\r\n        c.name = className;\r\n        classInfo.push(c);\r\n        uint256 index = classInfo.length;    //Attention: real location is index-1!\r\n        classAddressIndex[classAddress] = index;\r\n\r\n        iAcademyStudents studentList = iAcademyStudents(addressStudentList);\r\n        studentList.grantRole(DEFAULT_ADMIN_ROLE, classAddress);\r\n\r\n        iAcademyStudentQuiz studentQuiz = iAcademyStudentQuiz(addressStudentQuiz);\r\n        studentQuiz.grantRole(DEFAULT_ADMIN_ROLE, classAddress);\r\n\r\n        emit AcademyClassCreated (classAddress, className);\r\n        return classAddress;\r\n    }\r\n    \r\n    function changeActiveClass(address classAddress) public onlyOwner onlyActive returns(bool) {\r\n        require (!isAcademyClass(classAddress), \"class not exists\");\r\n\r\n        uint256 index = classAddressIndex[classAddress]-1;\r\n        classInfo[index].active = !classInfo[index].active;\r\n\r\n        AcademyClass c = AcademyClass(classAddress);\r\n        c.changeClassStatus();\r\n        return true;\r\n    }\r\n\r\n    function addClassOwner(address account, address classAddress) public onlyOwner onlyActive {\r\n        AcademyClass c = AcademyClass(classAddress);\r\n        c.grantRole(DEFAULT_ADMIN_ROLE, account);\r\n    }\r\n    \r\n    function delClassOwner(address account, address classAddress) public onlyOwner onlyActive {\r\n        AcademyClass c = AcademyClass(classAddress);\r\n        c.revokeRole(DEFAULT_ADMIN_ROLE, account);\r\n    }    \r\n    \r\n    function changeActive() public onlyOwner returns(bool) {\r\n        active = !active;\r\n        return active;\r\n    }\r\n\r\n    function isAcademyClass(address classAddress) public view returns (bool) {\r\n        if (classAddressIndex[classAddress] == 0)\r\n            return false;\r\n        else\r\n            return true;\r\n    }\r\n\r\n    function getAcademyClass(address classAddress) public view returns (ClassStruct memory) {\r\n        uint256 index = classAddressIndex[classAddress]-1;\r\n        return classInfo[index];\r\n    }    \r\n    \r\n    function countAcademyClasses() public view returns(uint) {\r\n        return (classInfo.length);\r\n    }\r\n    \r\n    function listAcademyClasses() public view returns(ClassStruct[] memory) {\r\n        return classInfo;\r\n    } \r\n\r\n}\r\n\r\n\r\n",
  "sourcePath": "C:/ACADEMY/GITHUB/rsk-academy-dapp/contracts/AcademyClassList.sol",
  "compiler": {
    "name": "solc",
    "version": "0.8.1+commit.df193b15.Emscripten.clang"
  },
  "schemaVersion": "3.3.4",
  "updatedAt": "2021-03-18T02:30:56.169Z",
  "networkType": "ethereum",
  "devdoc": {
    "kind": "dev",
    "methods": {
      "getRoleAdmin(bytes32)": {
        "details": "Returns the admin role that controls `role`. See {grantRole} and {revokeRole}. To change a role's admin, use {_setRoleAdmin}."
      },
      "getRoleMember(bytes32,uint256)": {
        "details": "Returns one of the accounts that have `role`. `index` must be a value between 0 and {getRoleMemberCount}, non-inclusive. Role bearers are not sorted in any particular way, and their ordering may change at any point. WARNING: When using {getRoleMember} and {getRoleMemberCount}, make sure you perform all queries on the same block. See the following https://forum.openzeppelin.com/t/iterating-over-elements-on-enumerableset-in-openzeppelin-contracts/2296[forum post] for more information."
      },
      "getRoleMemberCount(bytes32)": {
        "details": "Returns the number of accounts that have `role`. Can be used together with {getRoleMember} to enumerate all bearers of a role."
      },
      "grantRole(bytes32,address)": {
        "details": "Grants `role` to `account`. If `account` had not been already granted `role`, emits a {RoleGranted} event. Requirements: - the caller must have ``role``'s admin role."
      },
      "hasRole(bytes32,address)": {
        "details": "Returns `true` if `account` has been granted `role`."
      },
      "renounceRole(bytes32,address)": {
        "details": "Revokes `role` from the calling account. Roles are often managed via {grantRole} and {revokeRole}: this function's purpose is to provide a mechanism for accounts to lose their privileges if they are compromised (such as when a trusted device is misplaced). If the calling account had been granted `role`, emits a {RoleRevoked} event. Requirements: - the caller must be `account`."
      },
      "revokeRole(bytes32,address)": {
        "details": "Revokes `role` from `account`. If `account` had been granted `role`, emits a {RoleRevoked} event. Requirements: - the caller must have ``role``'s admin role."
      }
    },
    "version": 1
  },
  "userdoc": {
    "kind": "user",
    "methods": {},
    "version": 1
  }
}