{
  "contractName": "AcademyWallet",
  "abi": [
    {
      "inputs": [],
      "stateMutability": "nonpayable",
      "type": "constructor"
    },
    {
      "inputs": [],
      "name": "owner",
      "outputs": [
        {
          "internalType": "address",
          "name": "",
          "type": "address"
        }
      ],
      "stateMutability": "view",
      "type": "function"
    },
    {
      "stateMutability": "payable",
      "type": "receive"
    },
    {
      "inputs": [],
      "name": "deposit",
      "outputs": [
        {
          "internalType": "bool",
          "name": "",
          "type": "bool"
        }
      ],
      "stateMutability": "payable",
      "type": "function"
    },
    {
      "inputs": [],
      "name": "withdraw",
      "outputs": [
        {
          "internalType": "bool",
          "name": "",
          "type": "bool"
        }
      ],
      "stateMutability": "nonpayable",
      "type": "function"
    },
    {
      "inputs": [
        {
          "internalType": "address",
          "name": "account",
          "type": "address"
        }
      ],
      "name": "balanceOf",
      "outputs": [
        {
          "internalType": "uint256",
          "name": "",
          "type": "uint256"
        }
      ],
      "stateMutability": "view",
      "type": "function"
    },
    {
      "inputs": [],
      "name": "thisBalance",
      "outputs": [
        {
          "internalType": "uint256",
          "name": "",
          "type": "uint256"
        }
      ],
      "stateMutability": "view",
      "type": "function"
    }
  ],
  "bytecode": "0x608060405234801561001057600080fd5b5033600160006101000a81548173ffffffffffffffffffffffffffffffffffffffff021916908373ffffffffffffffffffffffffffffffffffffffff16021790555061039c806100616000396000f3fe60806040526004361061004e5760003560e01c806327f3a72a146100a65780633ccfd60b146100d157806370a08231146100fe5780638da5cb5b14610163578063d0e30db0146101a4576100a1565b366100a157346000803373ffffffffffffffffffffffffffffffffffffffff1673ffffffffffffffffffffffffffffffffffffffff16815260200190815260200160002060008282540192505081905550005b600080fd5b3480156100b257600080fd5b506100bb6101c4565b6040518082815260200191505060405180910390f35b3480156100dd57600080fd5b506100e66101cc565b60405180821515815260200191505060405180910390f35b34801561010a57600080fd5b5061014d6004803603602081101561012157600080fd5b81019080803573ffffffffffffffffffffffffffffffffffffffff1690602001909291905050506102a3565b6040518082815260200191505060405180910390f35b34801561016f57600080fd5b506101786102eb565b604051808273ffffffffffffffffffffffffffffffffffffffff16815260200191505060405180910390f35b6101ac610311565b60405180821515815260200191505060405180910390f35b600047905090565b6000806000803373ffffffffffffffffffffffffffffffffffffffff1673ffffffffffffffffffffffffffffffffffffffff16815260200190815260200160002054905060008060003373ffffffffffffffffffffffffffffffffffffffff1673ffffffffffffffffffffffffffffffffffffffff168152602001908152602001600020819055503373ffffffffffffffffffffffffffffffffffffffff166108fc829081150290604051600060405180830381858888f1935050505015801561029a573d6000803e3d6000fd5b50600191505090565b60008060008373ffffffffffffffffffffffffffffffffffffffff1673ffffffffffffffffffffffffffffffffffffffff168152602001908152602001600020549050919050565b600160009054906101000a900473ffffffffffffffffffffffffffffffffffffffff1681565b6000346000803373ffffffffffffffffffffffffffffffffffffffff1673ffffffffffffffffffffffffffffffffffffffff16815260200190815260200160002060008282540192505081905550600190509056fea264697066735822122067952956041d4924dddd221deb84604d2420c142796c4b6a06bdc6d4ce9012bc64736f6c63430007050033",
  "immutableReferences": {},
  "source": "pragma solidity 0.7.5;\r\n\r\ncontract AcademyWallet {\r\n\r\n    mapping(address => uint256) private _balances;\r\n    address public owner;\r\n    \r\n    constructor() {\r\n        owner = msg.sender;\r\n    }\r\n\r\n    receive() external payable  {\r\n        _balances[msg.sender] += msg.value;\r\n    }\r\n\r\n    function deposit() payable public returns (bool) {\r\n        _balances[msg.sender] += msg.value;\r\n        return true;\r\n    }\r\n\r\n    function withdraw() public returns (bool) {\r\n        uint256 withdrawAmount = _balances[msg.sender];\r\n        _balances[msg.sender] = 0;\r\n        msg.sender.transfer(withdrawAmount);\r\n        return true;\r\n    }\r\n\r\n    function balanceOf(address account) public view returns (uint256) {\r\n        return _balances[account];\r\n    }\r\n    \r\n    function thisBalance() public view returns (uint256) {\r\n        return address(this).balance;\r\n    }\r\n    \r\n}\r\n",
  "sourcePath": "C:/ACADEMY/DAPP/academy-wallet/contracts/AcademyWallet.sol",
  "compiler": {
    "name": "solc",
    "version": "0.7.5+commit.eb77ed08.Emscripten.clang"
  },
  "schemaVersion": "3.3.3",
  "updatedAt": "2021-01-25T01:52:27.717Z",
  "devdoc": {
    "kind": "dev",
    "methods": {},
    "version": 1
  },
  "userdoc": {
    "kind": "user",
    "methods": {},
    "version": 1
  }
}