{
  "contractName": "AcademyProjectList",
  "abi": [
    {
      "inputs": [],
      "stateMutability": "nonpayable",
      "type": "constructor"
    },
    {
      "anonymous": false,
      "inputs": [
        {
          "indexed": false,
          "internalType": "string",
          "name": "name",
          "type": "string"
        },
        {
          "indexed": false,
          "internalType": "string",
          "name": "description",
          "type": "string"
        }
      ],
      "name": "ProjectAdded",
      "type": "event"
    },
    {
      "anonymous": false,
      "inputs": [
        {
          "indexed": false,
          "internalType": "string",
          "name": "name",
          "type": "string"
        }
      ],
      "name": "ProjectDeleted",
      "type": "event"
    },
    {
      "anonymous": false,
      "inputs": [
        {
          "indexed": false,
          "internalType": "string",
          "name": "name",
          "type": "string"
        },
        {
          "indexed": false,
          "internalType": "string",
          "name": "description",
          "type": "string"
        },
        {
          "indexed": true,
          "internalType": "address",
          "name": "master",
          "type": "address"
        },
        {
          "indexed": false,
          "internalType": "bool",
          "name": "active",
          "type": "bool"
        }
      ],
      "name": "ProjectUpdated",
      "type": "event"
    },
    {
      "anonymous": false,
      "inputs": [
        {
          "indexed": true,
          "internalType": "bytes32",
          "name": "role",
          "type": "bytes32"
        },
        {
          "indexed": true,
          "internalType": "bytes32",
          "name": "previousAdminRole",
          "type": "bytes32"
        },
        {
          "indexed": true,
          "internalType": "bytes32",
          "name": "newAdminRole",
          "type": "bytes32"
        }
      ],
      "name": "RoleAdminChanged",
      "type": "event"
    },
    {
      "anonymous": false,
      "inputs": [
        {
          "indexed": true,
          "internalType": "bytes32",
          "name": "role",
          "type": "bytes32"
        },
        {
          "indexed": true,
          "internalType": "address",
          "name": "account",
          "type": "address"
        },
        {
          "indexed": true,
          "internalType": "address",
          "name": "sender",
          "type": "address"
        }
      ],
      "name": "RoleGranted",
      "type": "event"
    },
    {
      "anonymous": false,
      "inputs": [
        {
          "indexed": true,
          "internalType": "bytes32",
          "name": "role",
          "type": "bytes32"
        },
        {
          "indexed": true,
          "internalType": "address",
          "name": "account",
          "type": "address"
        },
        {
          "indexed": true,
          "internalType": "address",
          "name": "sender",
          "type": "address"
        }
      ],
      "name": "RoleRevoked",
      "type": "event"
    },
    {
      "inputs": [],
      "name": "DEFAULT_ADMIN_ROLE",
      "outputs": [
        {
          "internalType": "bytes32",
          "name": "",
          "type": "bytes32"
        }
      ],
      "stateMutability": "view",
      "type": "function"
    },
    {
      "inputs": [
        {
          "internalType": "bytes32",
          "name": "role",
          "type": "bytes32"
        }
      ],
      "name": "getRoleAdmin",
      "outputs": [
        {
          "internalType": "bytes32",
          "name": "",
          "type": "bytes32"
        }
      ],
      "stateMutability": "view",
      "type": "function"
    },
    {
      "inputs": [
        {
          "internalType": "bytes32",
          "name": "role",
          "type": "bytes32"
        },
        {
          "internalType": "uint256",
          "name": "index",
          "type": "uint256"
        }
      ],
      "name": "getRoleMember",
      "outputs": [
        {
          "internalType": "address",
          "name": "",
          "type": "address"
        }
      ],
      "stateMutability": "view",
      "type": "function"
    },
    {
      "inputs": [
        {
          "internalType": "bytes32",
          "name": "role",
          "type": "bytes32"
        }
      ],
      "name": "getRoleMemberCount",
      "outputs": [
        {
          "internalType": "uint256",
          "name": "",
          "type": "uint256"
        }
      ],
      "stateMutability": "view",
      "type": "function"
    },
    {
      "inputs": [
        {
          "internalType": "bytes32",
          "name": "role",
          "type": "bytes32"
        },
        {
          "internalType": "address",
          "name": "account",
          "type": "address"
        }
      ],
      "name": "grantRole",
      "outputs": [],
      "stateMutability": "nonpayable",
      "type": "function"
    },
    {
      "inputs": [
        {
          "internalType": "bytes32",
          "name": "role",
          "type": "bytes32"
        },
        {
          "internalType": "address",
          "name": "account",
          "type": "address"
        }
      ],
      "name": "hasRole",
      "outputs": [
        {
          "internalType": "bool",
          "name": "",
          "type": "bool"
        }
      ],
      "stateMutability": "view",
      "type": "function"
    },
    {
      "inputs": [
        {
          "internalType": "bytes32",
          "name": "role",
          "type": "bytes32"
        },
        {
          "internalType": "address",
          "name": "account",
          "type": "address"
        }
      ],
      "name": "renounceRole",
      "outputs": [],
      "stateMutability": "nonpayable",
      "type": "function"
    },
    {
      "inputs": [
        {
          "internalType": "bytes32",
          "name": "role",
          "type": "bytes32"
        },
        {
          "internalType": "address",
          "name": "account",
          "type": "address"
        }
      ],
      "name": "revokeRole",
      "outputs": [],
      "stateMutability": "nonpayable",
      "type": "function"
    },
    {
      "inputs": [
        {
          "internalType": "string",
          "name": "name",
          "type": "string"
        },
        {
          "internalType": "string",
          "name": "description",
          "type": "string"
        }
      ],
      "name": "addProject",
      "outputs": [
        {
          "internalType": "uint256",
          "name": "",
          "type": "uint256"
        }
      ],
      "stateMutability": "nonpayable",
      "type": "function"
    },
    {
      "inputs": [
        {
          "internalType": "string",
          "name": "name",
          "type": "string"
        }
      ],
      "name": "delProject",
      "outputs": [
        {
          "internalType": "bool",
          "name": "",
          "type": "bool"
        }
      ],
      "stateMutability": "nonpayable",
      "type": "function"
    },
    {
      "inputs": [
        {
          "internalType": "string",
          "name": "name",
          "type": "string"
        },
        {
          "internalType": "bool",
          "name": "activeProject",
          "type": "bool"
        },
        {
          "internalType": "address",
          "name": "master",
          "type": "address"
        },
        {
          "internalType": "string",
          "name": "description",
          "type": "string"
        },
        {
          "internalType": "string",
          "name": "ABI",
          "type": "string"
        }
      ],
      "name": "updateProjectByName",
      "outputs": [
        {
          "internalType": "bool",
          "name": "",
          "type": "bool"
        }
      ],
      "stateMutability": "nonpayable",
      "type": "function"
    },
    {
      "inputs": [],
      "name": "changeActive",
      "outputs": [
        {
          "internalType": "bool",
          "name": "",
          "type": "bool"
        }
      ],
      "stateMutability": "nonpayable",
      "type": "function"
    },
    {
      "inputs": [
        {
          "internalType": "string",
          "name": "name",
          "type": "string"
        }
      ],
      "name": "exists",
      "outputs": [
        {
          "internalType": "bool",
          "name": "",
          "type": "bool"
        }
      ],
      "stateMutability": "view",
      "type": "function"
    },
    {
      "inputs": [
        {
          "internalType": "string",
          "name": "name",
          "type": "string"
        }
      ],
      "name": "isActive",
      "outputs": [
        {
          "internalType": "bool",
          "name": "",
          "type": "bool"
        }
      ],
      "stateMutability": "view",
      "type": "function"
    },
    {
      "inputs": [
        {
          "internalType": "string",
          "name": "name",
          "type": "string"
        }
      ],
      "name": "getProjectByName",
      "outputs": [
        {
          "components": [
            {
              "internalType": "bool",
              "name": "active",
              "type": "bool"
            },
            {
              "internalType": "address",
              "name": "master",
              "type": "address"
            },
            {
              "internalType": "string",
              "name": "name",
              "type": "string"
            },
            {
              "internalType": "string",
              "name": "description",
              "type": "string"
            },
            {
              "internalType": "string",
              "name": "ABI",
              "type": "string"
            }
          ],
          "internalType": "struct ProjectStruct",
          "name": "",
          "type": "tuple"
        }
      ],
      "stateMutability": "view",
      "type": "function"
    },
    {
      "inputs": [
        {
          "internalType": "string",
          "name": "name",
          "type": "string"
        }
      ],
      "name": "getMasterAddressByName",
      "outputs": [
        {
          "internalType": "address",
          "name": "",
          "type": "address"
        }
      ],
      "stateMutability": "view",
      "type": "function"
    },
    {
      "inputs": [
        {
          "internalType": "uint256",
          "name": "index",
          "type": "uint256"
        }
      ],
      "name": "getProjectByIndex",
      "outputs": [
        {
          "components": [
            {
              "internalType": "bool",
              "name": "active",
              "type": "bool"
            },
            {
              "internalType": "address",
              "name": "master",
              "type": "address"
            },
            {
              "internalType": "string",
              "name": "name",
              "type": "string"
            },
            {
              "internalType": "string",
              "name": "description",
              "type": "string"
            },
            {
              "internalType": "string",
              "name": "ABI",
              "type": "string"
            }
          ],
          "internalType": "struct ProjectStruct",
          "name": "",
          "type": "tuple"
        }
      ],
      "stateMutability": "view",
      "type": "function"
    },
    {
      "inputs": [
        {
          "internalType": "string",
          "name": "name",
          "type": "string"
        }
      ],
      "name": "getIndexByName",
      "outputs": [
        {
          "internalType": "uint256",
          "name": "",
          "type": "uint256"
        }
      ],
      "stateMutability": "view",
      "type": "function"
    },
    {
      "inputs": [],
      "name": "countProjects",
      "outputs": [
        {
          "internalType": "uint256",
          "name": "",
          "type": "uint256"
        }
      ],
      "stateMutability": "view",
      "type": "function"
    },
    {
      "inputs": [],
      "name": "listProjects",
      "outputs": [
        {
          "components": [
            {
              "internalType": "bool",
              "name": "active",
              "type": "bool"
            },
            {
              "internalType": "address",
              "name": "master",
              "type": "address"
            },
            {
              "internalType": "string",
              "name": "name",
              "type": "string"
            },
            {
              "internalType": "string",
              "name": "description",
              "type": "string"
            },
            {
              "internalType": "string",
              "name": "ABI",
              "type": "string"
            }
          ],
          "internalType": "struct ProjectStruct[]",
          "name": "",
          "type": "tuple[]"
        }
      ],
      "stateMutability": "view",
      "type": "function"
    }
  ],
  "bytecode": "0x60806040523480156200001157600080fd5b50620000276000801b336200026460201b60201c565b60018060006101000a81548160ff021916908315150217905550620000a16040518060400160405280600481526020017f4e616d650000000000000000000000000000000000000000000000000000000081525060405180606001604052806024815260200162003b13602491396200027a60201b60201c565b506200011e6040518060400160405280600881526020017f5069672042616e6b0000000000000000000000000000000000000000000000008152506040518060400160405280602081526020017f736d61727420636f6e747261637420746f20736176652065636f6e6f6d6965738152506200027a60201b60201c565b506200019b6040518060400160405280600581526020017f546f6b656e0000000000000000000000000000000000000000000000000000008152506040518060400160405280601481526020017f4d696e7461626c6520746f6b656e2045524332300000000000000000000000008152506200027a60201b60201c565b50620001fc6040518060400160405280600b81526020017f50686f746f20416c62756d00000000000000000000000000000000000000000081525060405180606001604052806034815260200162003adf603491396200027a60201b60201c565b506200025d6040518060400160405280600481526020017f43525544000000000000000000000000000000000000000000000000000000008152506040518060600160405280602d815260200162003b37602d91396200027a60201b60201c565b5062000aa3565b620002768282620004fa60201b60201c565b5050565b6000620002916000801b336200059d60201b60201c565b620002d3576040517f08c379a0000000000000000000000000000000000000000000000000000000008152600401620002ca906200093a565b60405180910390fd5b600160009054906101000a900460ff1662000325576040517f08c379a00000000000000000000000000000000000000000000000000000000081526004016200031c906200095c565b60405180910390fd5b6200033683620005d560201b60201c565b1562000365576003836040516200034e9190620008e6565b9081526020016040518091039020549050620004f4565b6200036f62000729565b8381604001819052508281606001819052506001816000019015159081151581525050600281908060018154018082558091505060019003906000526020600020906004020160009091909190915060008201518160000160006101000a81548160ff02191690831515021790555060208201518160000160016101000a81548173ffffffffffffffffffffffffffffffffffffffff021916908373ffffffffffffffffffffffffffffffffffffffff16021790555060408201518160010190805190602001906200044392919062000770565b5060608201518160020190805190602001906200046292919062000770565b5060808201518160030190805190602001906200048192919062000770565b5050506000600280549050905080600386604051620004a19190620008e6565b9081526020016040518091039020819055507feb5d6000a362475be9d9b16beddc148b7004850daf2e69325a403d613567769e8585604051620004e6929190620008ff565b60405180910390a180925050505b92915050565b62000528816000808581526020019081526020016000206000016200061460201b62001b6b1790919060201c565b1562000599576200053e6200064c60201b60201c565b73ffffffffffffffffffffffffffffffffffffffff168173ffffffffffffffffffffffffffffffffffffffff16837f2f8788117e7eff1d82e926ec794901d17c78024a50270940304540a733656f0d60405160405180910390a45b5050565b6000620005cd826000808681526020019081526020016000206000016200065460201b62001b9b1790919060201c565b905092915050565b600080600383604051620005ea9190620008e6565b90815260200160405180910390205414156200060a57600090506200060f565b600190505b919050565b600062000644836000018373ffffffffffffffffffffffffffffffffffffffff1660001b6200068c60201b60201c565b905092915050565b600033905090565b600062000684836000018373ffffffffffffffffffffffffffffffffffffffff1660001b6200070660201b60201c565b905092915050565b6000620006a083836200070660201b60201c565b620006fb57826000018290806001815401808255809150506001900390600052602060002001600090919091909150558260000180549050836001016000848152602001908152602001600020819055506001905062000700565b600090505b92915050565b600080836001016000848152602001908152602001600020541415905092915050565b6040518060a00160405280600015158152602001600073ffffffffffffffffffffffffffffffffffffffff1681526020016060815260200160608152602001606081525090565b8280546200077e90620009db565b90600052602060002090601f016020900481019282620007a25760008555620007ee565b82601f10620007bd57805160ff1916838001178555620007ee565b82800160010185558215620007ee579182015b82811115620007ed578251825591602001919060010190620007d0565b5b509050620007fd919062000801565b5090565b5b808211156200081c57600081600090555060010162000802565b5090565b60006200082d826200097e565b62000839818562000989565b93506200084b818560208601620009a5565b620008568162000a40565b840191505092915050565b60006200086e826200097e565b6200087a81856200099a565b93506200088c818560208601620009a5565b80840191505092915050565b6000620008a7601e8362000989565b9150620008b48262000a51565b602082019050919050565b6000620008ce601e8362000989565b9150620008db8262000a7a565b602082019050919050565b6000620008f4828462000861565b915081905092915050565b600060408201905081810360008301526200091b818562000820565b9050818103602083015262000931818462000820565b90509392505050565b60006020820190508181036000830152620009558162000898565b9050919050565b600060208201905081810360008301526200097781620008bf565b9050919050565b600081519050919050565b600082825260208201905092915050565b600081905092915050565b60005b83811015620009c5578082015181840152602081019050620009a8565b83811115620009d5576000848401525b50505050565b60006002820490506001821680620009f457607f821691505b6020821081141562000a0b5762000a0a62000a11565b5b50919050565b7f4e487b7100000000000000000000000000000000000000000000000000000000600052602260045260246000fd5b6000601f19601f8301169050919050565b7f41636164656d7950726f6a6563744c6973743a206f6e6c79206f776e65720000600082015250565b7f41636164656d7950726f6a6563744c6973743a206e6f74206163746976650000600082015250565b61302c8062000ab36000396000f3fe608060405234801561001057600080fd5b506004361061012c5760003560e01c8063980c308d116100ad578063c8902a2111610071578063c8902a21146103a3578063ca15c873146103d3578063d547741f14610403578063d7ce91311461041f578063ecff58df1461044f5761012c565b8063980c308d146102d7578063a217fddf14610307578063b1d1b10514610325578063b4ac0dfc14610355578063c0af8582146103735761012c565b80634b77f269116100f45780634b77f269146101f95780634c962f40146102295780634f491152146102475780639010d07c1461027757806391d14854146102a75761012c565b8063248a9ca314610131578063261a323e146101615780632b7e328a146101915780632f2ff15d146101c157806336568abe146101dd575b600080fd5b61014b60048036038101906101469190612293565b61046d565b60405161015891906128de565b60405180910390f35b61017b60048036038101906101769190612334565b61048c565b60405161018891906128c3565b60405180910390f35b6101ab60048036038101906101a691906124a0565b6104c7565b6040516101b89190612a97565b60405180910390f35b6101db60048036038101906101d691906122bc565b6107b0565b005b6101f760048036038101906101f291906122bc565b610823565b005b610213600480360381019061020e9190612334565b6108a6565b6040516102209190612a97565b60405180910390f35b610231610ba7565b60405161023e91906128a1565b60405180910390f35b610261600480360381019061025c9190612334565b610e2d565b60405161026e9190612886565b60405180910390f35b610291600480360381019061028c91906122f8565b610f1a565b60405161029e9190612886565b60405180910390f35b6102c160048036038101906102bc91906122bc565b610f4b565b6040516102ce91906128c3565b60405180910390f35b6102f160048036038101906102ec9190612434565b610f7c565b6040516102fe9190612ab9565b60405180910390f35b61030f6111d6565b60405161031c91906128de565b60405180910390f35b61033f600480360381019061033a9190612375565b6111dd565b60405161034c91906128c3565b60405180910390f35b61035d6114dc565b60405161036a91906128c3565b60405180910390f35b61038d60048036038101906103889190612334565b611569565b60405161039a9190612ab9565b60405180910390f35b6103bd60048036038101906103b89190612334565b611591565b6040516103ca91906128c3565b60405180910390f35b6103ed60048036038101906103e89190612293565b61161d565b6040516103fa9190612ab9565b60405180910390f35b61041d600480360381019061041891906122bc565b611643565b005b61043960048036038101906104349190612334565b6116b6565b60405161044691906128c3565b60405180910390f35b610457611b5e565b6040516104649190612ab9565b60405180910390f35b6000806000838152602001908152602001600020600201549050919050565b60008060038360405161049f919061286f565b90815260200160405180910390205414156104bd57600090506104c2565b600190505b919050565b6104cf612020565b6000821180156104e457506002805490508211155b610523576040517f08c379a000000000000000000000000000000000000000000000000000000000815260040161051a906129d7565b60405180910390fd5b60026001836105329190612bf1565b81548110610569577f4e487b7100000000000000000000000000000000000000000000000000000000600052603260045260246000fd5b90600052602060002090600402016040518060a00160405290816000820160009054906101000a900460ff161515151581526020016000820160019054906101000a900473ffffffffffffffffffffffffffffffffffffffff1673ffffffffffffffffffffffffffffffffffffffff1673ffffffffffffffffffffffffffffffffffffffff16815260200160018201805461060390612cb9565b80601f016020809104026020016040519081016040528092919081815260200182805461062f90612cb9565b801561067c5780601f106106515761010080835404028352916020019161067c565b820191906000526020600020905b81548152906001019060200180831161065f57829003601f168201915b5050505050815260200160028201805461069590612cb9565b80601f01602080910402602001604051908101604052809291908181526020018280546106c190612cb9565b801561070e5780601f106106e35761010080835404028352916020019161070e565b820191906000526020600020905b8154815290600101906020018083116106f157829003601f168201915b5050505050815260200160038201805461072790612cb9565b80601f016020809104026020016040519081016040528092919081815260200182805461075390612cb9565b80156107a05780601f10610775576101008083540402835291602001916107a0565b820191906000526020600020905b81548152906001019060200180831161078357829003601f168201915b5050505050815250509050919050565b6107d6600080848152602001908152602001600020600201546107d1611bcb565b610f4b565b610815576040517f08c379a000000000000000000000000000000000000000000000000000000000815260040161080c906129b7565b60405180910390fd5b61081f8282611bd3565b5050565b61082b611bcb565b73ffffffffffffffffffffffffffffffffffffffff168173ffffffffffffffffffffffffffffffffffffffff1614610898576040517f08c379a000000000000000000000000000000000000000000000000000000000815260040161088f90612a77565b60405180910390fd5b6108a28282611c66565b5050565b6108ae612020565b6108b78261048c565b6108f6576040517f08c379a00000000000000000000000000000000000000000000000000000000081526004016108ed90612a37565b60405180910390fd5b6000600160038460405161090a919061286f565b9081526020016040518091039020546109239190612bf1565b90506002818154811061095f577f4e487b7100000000000000000000000000000000000000000000000000000000600052603260045260246000fd5b90600052602060002090600402016040518060a00160405290816000820160009054906101000a900460ff161515151581526020016000820160019054906101000a900473ffffffffffffffffffffffffffffffffffffffff1673ffffffffffffffffffffffffffffffffffffffff1673ffffffffffffffffffffffffffffffffffffffff1681526020016001820180546109f990612cb9565b80601f0160208091040260200160405190810160405280929190818152602001828054610a2590612cb9565b8015610a725780601f10610a4757610100808354040283529160200191610a72565b820191906000526020600020905b815481529060010190602001808311610a5557829003601f168201915b50505050508152602001600282018054610a8b90612cb9565b80601f0160208091040260200160405190810160405280929190818152602001828054610ab790612cb9565b8015610b045780601f10610ad957610100808354040283529160200191610b04565b820191906000526020600020905b815481529060010190602001808311610ae757829003601f168201915b50505050508152602001600382018054610b1d90612cb9565b80601f0160208091040260200160405190810160405280929190818152602001828054610b4990612cb9565b8015610b965780601f10610b6b57610100808354040283529160200191610b96565b820191906000526020600020905b815481529060010190602001808311610b7957829003601f168201915b505050505081525050915050919050565b60606002805480602002602001604051908101604052809291908181526020016000905b82821015610e2457838290600052602060002090600402016040518060a00160405290816000820160009054906101000a900460ff161515151581526020016000820160019054906101000a900473ffffffffffffffffffffffffffffffffffffffff1673ffffffffffffffffffffffffffffffffffffffff1673ffffffffffffffffffffffffffffffffffffffff168152602001600182018054610c6f90612cb9565b80601f0160208091040260200160405190810160405280929190818152602001828054610c9b90612cb9565b8015610ce85780601f10610cbd57610100808354040283529160200191610ce8565b820191906000526020600020905b815481529060010190602001808311610ccb57829003601f168201915b50505050508152602001600282018054610d0190612cb9565b80601f0160208091040260200160405190810160405280929190818152602001828054610d2d90612cb9565b8015610d7a5780601f10610d4f57610100808354040283529160200191610d7a565b820191906000526020600020905b815481529060010190602001808311610d5d57829003601f168201915b50505050508152602001600382018054610d9390612cb9565b80601f0160208091040260200160405190810160405280929190818152602001828054610dbf90612cb9565b8015610e0c5780601f10610de157610100808354040283529160200191610e0c565b820191906000526020600020905b815481529060010190602001808311610def57829003601f168201915b50505050508152505081526020019060010190610bcb565b50505050905090565b6000610e388261048c565b610e77576040517f08c379a0000000000000000000000000000000000000000000000000000000008152600401610e6e90612a37565b60405180910390fd5b60006001600384604051610e8b919061286f565b908152602001604051809103902054610ea49190612bf1565b905060028181548110610ee0577f4e487b7100000000000000000000000000000000000000000000000000000000600052603260045260246000fd5b906000526020600020906004020160000160019054906101000a900473ffffffffffffffffffffffffffffffffffffffff16915050919050565b6000610f4382600080868152602001908152602001600020600001611cf990919063ffffffff16565b905092915050565b6000610f7482600080868152602001908152602001600020600001611b9b90919063ffffffff16565b905092915050565b6000610f8b6000801b33610f4b565b610fca576040517f08c379a0000000000000000000000000000000000000000000000000000000008152600401610fc1906129f7565b60405180910390fd5b600160009054906101000a900460ff16611019576040517f08c379a000000000000000000000000000000000000000000000000000000000815260040161101090612a57565b60405180910390fd5b6110228361048c565b1561104d57600383604051611037919061286f565b90815260200160405180910390205490506111d0565b611055612020565b8381604001819052508281606001819052506001816000019015159081151581525050600281908060018154018082558091505060019003906000526020600020906004020160009091909190915060008201518160000160006101000a81548160ff02191690831515021790555060208201518160000160016101000a81548173ffffffffffffffffffffffffffffffffffffffff021916908373ffffffffffffffffffffffffffffffffffffffff1602179055506040820151816001019080519060200190611127929190612067565b506060820151816002019080519060200190611144929190612067565b506080820151816003019080519060200190611161929190612067565b505050600060028054905090508060038660405161117f919061286f565b9081526020016040518091039020819055507feb5d6000a362475be9d9b16beddc148b7004850daf2e69325a403d613567769e85856040516111c292919061291b565b60405180910390a180925050505b92915050565b6000801b81565b60006111ec6000801b33610f4b565b61122b576040517f08c379a0000000000000000000000000000000000000000000000000000000008152600401611222906129f7565b60405180910390fd5b600160009054906101000a900460ff1661127a576040517f08c379a000000000000000000000000000000000000000000000000000000000815260040161127190612a57565b60405180910390fd5b6112838661048c565b61129057600090506114d3565b600060016003886040516112a4919061286f565b9081526020016040518091039020546112bd9190612bf1565b905085600282815481106112fa577f4e487b7100000000000000000000000000000000000000000000000000000000600052603260045260246000fd5b906000526020600020906004020160000160006101000a81548160ff021916908315150217905550846002828154811061135d577f4e487b7100000000000000000000000000000000000000000000000000000000600052603260045260246000fd5b906000526020600020906004020160000160016101000a81548173ffffffffffffffffffffffffffffffffffffffff021916908373ffffffffffffffffffffffffffffffffffffffff16021790555083600282815481106113e7577f4e487b7100000000000000000000000000000000000000000000000000000000600052603260045260246000fd5b9060005260206000209060040201600201908051906020019061140b929190612067565b508260028281548110611447577f4e487b7100000000000000000000000000000000000000000000000000000000600052603260045260246000fd5b9060005260206000209060040201600301908051906020019061146b929190612067565b508473ffffffffffffffffffffffffffffffffffffffff167f7db9e37783b4fafc957eea3210d357bd899d88da3c4af21a9a29bebcac042ebb8886600160009054906101000a900460ff166040516114c593929190612952565b60405180910390a260019150505b95945050505050565b60006114eb6000801b33610f4b565b61152a576040517f08c379a0000000000000000000000000000000000000000000000000000000008152600401611521906129f7565b60405180910390fd5b600160009054906101000a900460ff1615600160006101000a81548160ff021916908315150217905550600160009054906101000a900460ff16905090565b600060038260405161157b919061286f565b9081526020016040518091039020549050919050565b6000600260016003846040516115a7919061286f565b9081526020016040518091039020546115c09190612bf1565b815481106115f7577f4e487b7100000000000000000000000000000000000000000000000000000000600052603260045260246000fd5b906000526020600020906004020160000160009054906101000a900460ff169050919050565b600061163c600080848152602001908152602001600020600001611d13565b9050919050565b61166960008084815260200190815260200160002060020154611664611bcb565b610f4b565b6116a8576040517f08c379a000000000000000000000000000000000000000000000000000000000815260040161169f90612a17565b60405180910390fd5b6116b28282611c66565b5050565b60006116c56000801b33610f4b565b611704576040517f08c379a00000000000000000000000000000000000000000000000000000000081526004016116fb906129f7565b60405180910390fd5b600160009054906101000a900460ff16611753576040517f08c379a000000000000000000000000000000000000000000000000000000000815260040161174a90612a57565b60405180910390fd5b61175c8261048c565b6117695760009050611b59565b6000600160038460405161177d919061286f565b9081526020016040518091039020546117969190612bf1565b9050600060016002805490506117ac9190612bf1565b90506000600282815481106117ea577f4e487b7100000000000000000000000000000000000000000000000000000000600052603260045260246000fd5b9060005260206000209060040201600101805461180690612cb9565b80601f016020809104026020016040519081016040528092919081815260200182805461183290612cb9565b801561187f5780601f106118545761010080835404028352916020019161187f565b820191906000526020600020905b81548152906001019060200180831161186257829003601f168201915b50505050509050600282815481106118c0577f4e487b7100000000000000000000000000000000000000000000000000000000600052603260045260246000fd5b906000526020600020906004020160028481548110611908577f4e487b7100000000000000000000000000000000000000000000000000000000600052603260045260246000fd5b90600052602060002090600402016000820160009054906101000a900460ff168160000160006101000a81548160ff0219169083151502179055506000820160019054906101000a900473ffffffffffffffffffffffffffffffffffffffff168160000160016101000a81548173ffffffffffffffffffffffffffffffffffffffff021916908373ffffffffffffffffffffffffffffffffffffffff16021790555060018201816001019080546119be90612cb9565b6119c99291906120ed565b5060028201816002019080546119de90612cb9565b6119e99291906120ed565b5060038201816003019080546119fe90612cb9565b611a099291906120ed565b50905050600183611a1a9190612b9b565b600382604051611a2a919061286f565b908152602001604051809103902081905550600385604051611a4c919061286f565b9081526020016040518091039020600090556002805480611a96577f4e487b7100000000000000000000000000000000000000000000000000000000600052603160045260246000fd5b6001900381819060005260206000209060040201600080820160006101000a81549060ff02191690556000820160016101000a81549073ffffffffffffffffffffffffffffffffffffffff0219169055600182016000611af6919061217a565b600282016000611b06919061217a565b600382016000611b16919061217a565b505090557fff0a52f1426ab03161133396bf3b3a194ea51f4603fb09e8af8abf1817e6eec985604051611b4991906128f9565b60405180910390a1600193505050505b919050565b6000600280549050905090565b6000611b93836000018373ffffffffffffffffffffffffffffffffffffffff1660001b611d28565b905092915050565b6000611bc3836000018373ffffffffffffffffffffffffffffffffffffffff1660001b611d98565b905092915050565b600033905090565b611bfa81600080858152602001908152602001600020600001611b6b90919063ffffffff16565b15611c6257611c07611bcb565b73ffffffffffffffffffffffffffffffffffffffff168173ffffffffffffffffffffffffffffffffffffffff16837f2f8788117e7eff1d82e926ec794901d17c78024a50270940304540a733656f0d60405160405180910390a45b5050565b611c8d81600080858152602001908152602001600020600001611dbb90919063ffffffff16565b15611cf557611c9a611bcb565b73ffffffffffffffffffffffffffffffffffffffff168173ffffffffffffffffffffffffffffffffffffffff16837ff6391f5c32d9c69d2a47ea670b442974b53935d1edc7fd64eb21e047a839171b60405160405180910390a45b5050565b6000611d088360000183611deb565b60001c905092915050565b6000611d2182600001611e85565b9050919050565b6000611d348383611d98565b611d8d578260000182908060018154018082558091505060019003906000526020600020016000909190919091505582600001805490508360010160008481526020019081526020016000208190555060019050611d92565b600090505b92915050565b600080836001016000848152602001908152602001600020541415905092915050565b6000611de3836000018373ffffffffffffffffffffffffffffffffffffffff1660001b611e96565b905092915050565b600081836000018054905011611e36576040517f08c379a0000000000000000000000000000000000000000000000000000000008152600401611e2d90612997565b60405180910390fd5b826000018281548110611e72577f4e487b7100000000000000000000000000000000000000000000000000000000600052603260045260246000fd5b9060005260206000200154905092915050565b600081600001805490509050919050565b60008083600101600084815260200190815260200160002054905060008114612014576000600182611ec89190612bf1565b9050600060018660000180549050611ee09190612bf1565b90506000866000018281548110611f20577f4e487b7100000000000000000000000000000000000000000000000000000000600052603260045260246000fd5b9060005260206000200154905080876000018481548110611f6a577f4e487b7100000000000000000000000000000000000000000000000000000000600052603260045260246000fd5b9060005260206000200181905550600183611f859190612b9b565b8760010160008381526020019081526020016000208190555086600001805480611fd8577f4e487b7100000000000000000000000000000000000000000000000000000000600052603160045260246000fd5b6001900381819060005260206000200160009055905586600101600087815260200190815260200160002060009055600194505050505061201a565b60009150505b92915050565b6040518060a00160405280600015158152602001600073ffffffffffffffffffffffffffffffffffffffff1681526020016060815260200160608152602001606081525090565b82805461207390612cb9565b90600052602060002090601f01602090048101928261209557600085556120dc565b82601f106120ae57805160ff19168380011785556120dc565b828001600101855582156120dc579182015b828111156120db5782518255916020019190600101906120c0565b5b5090506120e991906121ba565b5090565b8280546120f990612cb9565b90600052602060002090601f01602090048101928261211b5760008555612169565b82601f1061212c5780548555612169565b8280016001018555821561216957600052602060002091601f016020900482015b8281111561216857825482559160010191906001019061214d565b5b50905061217691906121ba565b5090565b50805461218690612cb9565b6000825580601f1061219857506121b7565b601f0160209004906000526020600020908101906121b691906121ba565b5b50565b5b808211156121d35760008160009055506001016121bb565b5090565b60006121ea6121e584612af9565b612ad4565b90508281526020810184848401111561220257600080fd5b61220d848285612c77565b509392505050565b60008135905061222481612f9a565b92915050565b60008135905061223981612fb1565b92915050565b60008135905061224e81612fc8565b92915050565b600082601f83011261226557600080fd5b81356122758482602086016121d7565b91505092915050565b60008135905061228d81612fdf565b92915050565b6000602082840312156122a557600080fd5b60006122b38482850161223f565b91505092915050565b600080604083850312156122cf57600080fd5b60006122dd8582860161223f565b92505060206122ee85828601612215565b9150509250929050565b6000806040838503121561230b57600080fd5b60006123198582860161223f565b925050602061232a8582860161227e565b9150509250929050565b60006020828403121561234657600080fd5b600082013567ffffffffffffffff81111561236057600080fd5b61236c84828501612254565b91505092915050565b600080600080600060a0868803121561238d57600080fd5b600086013567ffffffffffffffff8111156123a757600080fd5b6123b388828901612254565b95505060206123c48882890161222a565b94505060406123d588828901612215565b935050606086013567ffffffffffffffff8111156123f257600080fd5b6123fe88828901612254565b925050608086013567ffffffffffffffff81111561241b57600080fd5b61242788828901612254565b9150509295509295909350565b6000806040838503121561244757600080fd5b600083013567ffffffffffffffff81111561246157600080fd5b61246d85828601612254565b925050602083013567ffffffffffffffff81111561248a57600080fd5b61249685828601612254565b9150509250929050565b6000602082840312156124b257600080fd5b60006124c08482850161227e565b91505092915050565b60006124d58383612758565b905092915050565b6124e681612c25565b82525050565b6124f581612c25565b82525050565b600061250682612b3a565b6125108185612b5d565b93508360208202850161252285612b2a565b8060005b8581101561255e578484038952815161253f85826124c9565b945061254a83612b50565b925060208a01995050600181019050612526565b50829750879550505050505092915050565b61257981612c37565b82525050565b61258881612c37565b82525050565b61259781612c43565b82525050565b60006125a882612b45565b6125b28185612b6e565b93506125c2818560208601612c86565b6125cb81612da9565b840191505092915050565b60006125e182612b45565b6125eb8185612b7f565b93506125fb818560208601612c86565b61260481612da9565b840191505092915050565b600061261a82612b45565b6126248185612b90565b9350612634818560208601612c86565b80840191505092915050565b600061264d602283612b7f565b915061265882612dba565b604082019050919050565b6000612670602f83612b7f565b915061267b82612e09565b604082019050919050565b6000612693600c83612b7f565b915061269e82612e58565b602082019050919050565b60006126b6601e83612b7f565b91506126c182612e81565b602082019050919050565b60006126d9603083612b7f565b91506126e482612eaa565b604082019050919050565b60006126fc600a83612b7f565b915061270782612ef9565b602082019050919050565b600061271f601e83612b7f565b915061272a82612f22565b602082019050919050565b6000612742602f83612b7f565b915061274d82612f4b565b604082019050919050565b600060a0830160008301516127706000860182612570565b50602083015161278360208601826124dd565b506040830151848203604086015261279b828261259d565b915050606083015184820360608601526127b5828261259d565b915050608083015184820360808601526127cf828261259d565b9150508091505092915050565b600060a0830160008301516127f46000860182612570565b50602083015161280760208601826124dd565b506040830151848203604086015261281f828261259d565b91505060608301518482036060860152612839828261259d565b91505060808301518482036080860152612853828261259d565b9150508091505092915050565b61286981612c6d565b82525050565b600061287b828461260f565b915081905092915050565b600060208201905061289b60008301846124ec565b92915050565b600060208201905081810360008301526128bb81846124fb565b905092915050565b60006020820190506128d8600083018461257f565b92915050565b60006020820190506128f3600083018461258e565b92915050565b6000602082019050818103600083015261291381846125d6565b905092915050565b6000604082019050818103600083015261293581856125d6565b9050818103602083015261294981846125d6565b90509392505050565b6000606082019050818103600083015261296c81866125d6565b9050818103602083015261298081856125d6565b905061298f604083018461257f565b949350505050565b600060208201905081810360008301526129b081612640565b9050919050565b600060208201905081810360008301526129d081612663565b9050919050565b600060208201905081810360008301526129f081612686565b9050919050565b60006020820190508181036000830152612a10816126a9565b9050919050565b60006020820190508181036000830152612a30816126cc565b9050919050565b60006020820190508181036000830152612a50816126ef565b9050919050565b60006020820190508181036000830152612a7081612712565b9050919050565b60006020820190508181036000830152612a9081612735565b9050919050565b60006020820190508181036000830152612ab181846127dc565b905092915050565b6000602082019050612ace6000830184612860565b92915050565b6000612ade612aef565b9050612aea8282612ceb565b919050565b6000604051905090565b600067ffffffffffffffff821115612b1457612b13612d7a565b5b612b1d82612da9565b9050602081019050919050565b6000819050602082019050919050565b600081519050919050565b600081519050919050565b6000602082019050919050565b600082825260208201905092915050565b600082825260208201905092915050565b600082825260208201905092915050565b600081905092915050565b6000612ba682612c6d565b9150612bb183612c6d565b9250827fffffffffffffffffffffffffffffffffffffffffffffffffffffffffffffffff03821115612be657612be5612d1c565b5b828201905092915050565b6000612bfc82612c6d565b9150612c0783612c6d565b925082821015612c1a57612c19612d1c565b5b828203905092915050565b6000612c3082612c4d565b9050919050565b60008115159050919050565b6000819050919050565b600073ffffffffffffffffffffffffffffffffffffffff82169050919050565b6000819050919050565b82818337600083830152505050565b60005b83811015612ca4578082015181840152602081019050612c89565b83811115612cb3576000848401525b50505050565b60006002820490506001821680612cd157607f821691505b60208210811415612ce557612ce4612d4b565b5b50919050565b612cf482612da9565b810181811067ffffffffffffffff82111715612d1357612d12612d7a565b5b80604052505050565b7f4e487b7100000000000000000000000000000000000000000000000000000000600052601160045260246000fd5b7f4e487b7100000000000000000000000000000000000000000000000000000000600052602260045260246000fd5b7f4e487b7100000000000000000000000000000000000000000000000000000000600052604160045260246000fd5b6000601f19601f8301169050919050565b7f456e756d657261626c655365743a20696e646578206f7574206f6620626f756e60008201527f6473000000000000000000000000000000000000000000000000000000000000602082015250565b7f416363657373436f6e74726f6c3a2073656e646572206d75737420626520616e60008201527f2061646d696e20746f206772616e740000000000000000000000000000000000602082015250565b7f6f7574206f662072616e67650000000000000000000000000000000000000000600082015250565b7f41636164656d7950726f6a6563744c6973743a206f6e6c79206f776e65720000600082015250565b7f416363657373436f6e74726f6c3a2073656e646572206d75737420626520616e60008201527f2061646d696e20746f207265766f6b6500000000000000000000000000000000602082015250565b7f6e6f742065786973747300000000000000000000000000000000000000000000600082015250565b7f41636164656d7950726f6a6563744c6973743a206e6f74206163746976650000600082015250565b7f416363657373436f6e74726f6c3a2063616e206f6e6c792072656e6f756e636560008201527f20726f6c657320666f722073656c660000000000000000000000000000000000602082015250565b612fa381612c25565b8114612fae57600080fd5b50565b612fba81612c37565b8114612fc557600080fd5b50565b612fd181612c43565b8114612fdc57600080fd5b50565b612fe881612c6d565b8114612ff357600080fd5b5056fea26469706673582212207ccb133a66678880266eb7f7794cf4c4a0a7bb5672c414df622070f9d7e1559e64736f6c6343000801003350686f746f732073746f72656420696e204950465320616e642068617368657320696e206120736d61727420636f6e7472616374596f7572206e616d652073746f72656420696e206120736d61727420636f6e74726163744120626173696320646174616261736520746f204372656174652052656164205570646174652044656c657465",
  "immutableReferences": {},
  "source": "// SPDX-License-Identifier: MIT\r\npragma solidity 0.8.1;\r\n\r\n//import \"https://github.com/OpenZeppelin/openzeppelin-contracts/blob/master/contracts/access/AccessControl.sol\";\r\n//import '@openzeppelin/contracts/access/AccessControl.sol';\r\nimport './oz-contracts/access/AccessControl.sol';\r\n\r\nimport './iAcademyProjectList.sol';\r\n\r\n  \r\ncontract AcademyProjectList is AccessControl {\r\n\r\n    bool active;\r\n\r\n    ProjectStruct[] private projectInfo;    \r\n    //Project name is the index, can't be changed after created.\r\n    mapping(string => uint256) private projectIndexName;\r\n    //mapping(string => ProjectStruct) public projects;\r\n    \r\n    constructor() {\r\n        _setupRole(DEFAULT_ADMIN_ROLE, msg.sender);\r\n        active = true;\r\n        addProject(\"Name\",\"Your name stored in a smart contract\");\r\n        addProject(\"Pig Bank\",\"smart contract to save economies\");\r\n        addProject(\"Token\",\"Mintable token ERC20\");\r\n        addProject(\"Photo Album\",\"Photos stored in IPFS and hashes in a smart contract\");\r\n        addProject(\"CRUD\",\"A basic database to Create Read Update Delete\");\r\n    } \r\n    \r\n    event ProjectAdded(string name, string description);\r\n    event ProjectUpdated(string name, string description, address indexed master, bool active);\r\n    event ProjectDeleted(string name);\r\n    \r\n    modifier onlyOwner() {\r\n        require(hasRole(DEFAULT_ADMIN_ROLE, msg.sender), \"AcademyProjectList: only owner\");\r\n        _;\r\n    }\r\n    \r\n    modifier onlyActive() {\r\n        require(active, \"AcademyProjectList: not active\");\r\n        _;\r\n    }    \r\n\r\n    function addProject (string memory name, string memory description) public onlyOwner onlyActive returns(uint256) {\r\n        if (exists(name))\r\n            return projectIndexName[name];\r\n            \r\n        ProjectStruct memory p;\r\n        p.name = name;\r\n        p.description = description;\r\n        p.active = true;\r\n        \r\n        projectInfo.push(p);\r\n        uint256 index = projectInfo.length;\r\n        projectIndexName[name] = index;\r\n        emit ProjectAdded(name, description);\r\n        return index;\r\n    }\r\n    \r\n    function delProject (string memory name) public onlyOwner onlyActive returns (bool) {\r\n        if (!exists(name))\r\n            return false;\r\n\r\n        uint256 indexToDelete = projectIndexName[name]-1;\r\n        uint256 indexToMove = projectInfo.length-1;\r\n        string memory keyToMove = projectInfo[indexToMove].name;\r\n        \r\n        projectInfo[indexToDelete] = projectInfo[indexToMove];\r\n        projectIndexName[keyToMove] = indexToDelete+1;\r\n\r\n        delete projectIndexName[name];\r\n        projectInfo.pop();\r\n\r\n        emit ProjectDeleted(name);\r\n        return true;\r\n    }\r\n    \r\n    function updateProjectByName (string memory name, bool activeProject, address master,         \r\n            string memory description, string memory ABI\r\n        ) public onlyOwner onlyActive returns (bool) {\r\n        if (!exists(name))\r\n            return false;\r\n        \r\n        uint256 index = projectIndexName[name]-1;\r\n        projectInfo[index].active = activeProject;\r\n        projectInfo[index].master = master;\r\n        projectInfo[index].description = description;\r\n        projectInfo[index].ABI = ABI;\r\n        emit ProjectUpdated(name, description, master, active);\r\n        return true;\r\n    }\r\n    \r\n    function changeActive () public onlyOwner returns (bool) {\r\n        active = !active;\r\n        return active;\r\n    }\r\n    \r\n    function exists(string memory name) public view returns (bool) {\r\n        if (projectIndexName[name] == 0)\r\n            return false;\r\n        else\r\n            return true;\r\n    }\r\n    \r\n    function isActive(string memory name) public view returns (bool) {\r\n        return projectInfo[projectIndexName[name]-1].active;\r\n    }\r\n    \r\n    function getProjectByName (string memory name) public view returns (ProjectStruct memory) {\r\n        require (exists(name), \"not exists\");\r\n        uint256 index = projectIndexName[name]-1;\r\n        return projectInfo[index];\r\n    }\r\n    \r\n    function getMasterAddressByName (string memory name) public view returns (address) {\r\n        require (exists(name), \"not exists\");\r\n        uint256 index = projectIndexName[name]-1;\r\n        return projectInfo[index].master;\r\n    }    \r\n\r\n    function getProjectByIndex (uint256 index) public view returns (ProjectStruct memory) {\r\n        require ((index > 0 ) && (index <= projectInfo.length), \"out of range\");\r\n        return projectInfo[index-1];\r\n    }\r\n    \r\n    function getIndexByName (string memory name) public view returns (uint256) {\r\n        return projectIndexName[name];\r\n    }    \r\n \r\n    function countProjects () public view returns (uint256) {\r\n        return projectInfo.length;\r\n    }\r\n     \r\n    function listProjects () public view returns (ProjectStruct[] memory) {\r\n        return projectInfo;\r\n    }\r\n    \r\n    function compareStrings(string memory a, string memory b) private pure returns (bool) {\r\n        return (keccak256(abi.encodePacked((a))) == keccak256(abi.encodePacked((b))));\r\n    }\r\n    \r\n}\r\n",
  "sourcePath": "C:/ACADEMY/GITHUB/rsk-academy-dapp/contracts/AcademyProjectList.sol",
  "compiler": {
    "name": "solc",
    "version": "0.8.1+commit.df193b15.Emscripten.clang"
  },
  "schemaVersion": "3.3.3",
  "updatedAt": "2021-03-06T16:52:40.249Z",
  "devdoc": {
    "kind": "dev",
    "methods": {
      "getRoleAdmin(bytes32)": {
        "details": "Returns the admin role that controls `role`. See {grantRole} and {revokeRole}. To change a role's admin, use {_setRoleAdmin}."
      },
      "getRoleMember(bytes32,uint256)": {
        "details": "Returns one of the accounts that have `role`. `index` must be a value between 0 and {getRoleMemberCount}, non-inclusive. Role bearers are not sorted in any particular way, and their ordering may change at any point. WARNING: When using {getRoleMember} and {getRoleMemberCount}, make sure you perform all queries on the same block. See the following https://forum.openzeppelin.com/t/iterating-over-elements-on-enumerableset-in-openzeppelin-contracts/2296[forum post] for more information."
      },
      "getRoleMemberCount(bytes32)": {
        "details": "Returns the number of accounts that have `role`. Can be used together with {getRoleMember} to enumerate all bearers of a role."
      },
      "grantRole(bytes32,address)": {
        "details": "Grants `role` to `account`. If `account` had not been already granted `role`, emits a {RoleGranted} event. Requirements: - the caller must have ``role``'s admin role."
      },
      "hasRole(bytes32,address)": {
        "details": "Returns `true` if `account` has been granted `role`."
      },
      "renounceRole(bytes32,address)": {
        "details": "Revokes `role` from the calling account. Roles are often managed via {grantRole} and {revokeRole}: this function's purpose is to provide a mechanism for accounts to lose their privileges if they are compromised (such as when a trusted device is misplaced). If the calling account had been granted `role`, emits a {RoleRevoked} event. Requirements: - the caller must be `account`."
      },
      "revokeRole(bytes32,address)": {
        "details": "Revokes `role` from `account`. If `account` had been granted `role`, emits a {RoleRevoked} event. Requirements: - the caller must have ``role``'s admin role."
      }
    },
    "version": 1
  },
  "userdoc": {
    "kind": "user",
    "methods": {},
    "version": 1
  }
}