{
  "contractName": "MasterName",
  "abi": [
    {
      "inputs": [
        {
          "internalType": "address",
          "name": "addressStudentList",
          "type": "address"
        }
      ],
      "stateMutability": "nonpayable",
      "type": "constructor"
    },
    {
      "anonymous": false,
      "inputs": [
        {
          "indexed": true,
          "internalType": "address",
          "name": "owner",
          "type": "address"
        },
        {
          "indexed": true,
          "internalType": "address",
          "name": "scName",
          "type": "address"
        },
        {
          "indexed": false,
          "internalType": "string",
          "name": "name",
          "type": "string"
        }
      ],
      "name": "NameAdded",
      "type": "event"
    },
    {
      "anonymous": false,
      "inputs": [
        {
          "indexed": true,
          "internalType": "address",
          "name": "owner",
          "type": "address"
        },
        {
          "indexed": true,
          "internalType": "address",
          "name": "scName",
          "type": "address"
        }
      ],
      "name": "NameDeleted",
      "type": "event"
    },
    {
      "anonymous": false,
      "inputs": [
        {
          "indexed": true,
          "internalType": "bytes32",
          "name": "role",
          "type": "bytes32"
        },
        {
          "indexed": true,
          "internalType": "bytes32",
          "name": "previousAdminRole",
          "type": "bytes32"
        },
        {
          "indexed": true,
          "internalType": "bytes32",
          "name": "newAdminRole",
          "type": "bytes32"
        }
      ],
      "name": "RoleAdminChanged",
      "type": "event"
    },
    {
      "anonymous": false,
      "inputs": [
        {
          "indexed": true,
          "internalType": "bytes32",
          "name": "role",
          "type": "bytes32"
        },
        {
          "indexed": true,
          "internalType": "address",
          "name": "account",
          "type": "address"
        },
        {
          "indexed": true,
          "internalType": "address",
          "name": "sender",
          "type": "address"
        }
      ],
      "name": "RoleGranted",
      "type": "event"
    },
    {
      "anonymous": false,
      "inputs": [
        {
          "indexed": true,
          "internalType": "bytes32",
          "name": "role",
          "type": "bytes32"
        },
        {
          "indexed": true,
          "internalType": "address",
          "name": "account",
          "type": "address"
        },
        {
          "indexed": true,
          "internalType": "address",
          "name": "sender",
          "type": "address"
        }
      ],
      "name": "RoleRevoked",
      "type": "event"
    },
    {
      "inputs": [],
      "name": "DEFAULT_ADMIN_ROLE",
      "outputs": [
        {
          "internalType": "bytes32",
          "name": "",
          "type": "bytes32"
        }
      ],
      "stateMutability": "view",
      "type": "function",
      "constant": true
    },
    {
      "inputs": [
        {
          "internalType": "bytes32",
          "name": "role",
          "type": "bytes32"
        }
      ],
      "name": "getRoleAdmin",
      "outputs": [
        {
          "internalType": "bytes32",
          "name": "",
          "type": "bytes32"
        }
      ],
      "stateMutability": "view",
      "type": "function",
      "constant": true
    },
    {
      "inputs": [
        {
          "internalType": "bytes32",
          "name": "role",
          "type": "bytes32"
        },
        {
          "internalType": "uint256",
          "name": "index",
          "type": "uint256"
        }
      ],
      "name": "getRoleMember",
      "outputs": [
        {
          "internalType": "address",
          "name": "",
          "type": "address"
        }
      ],
      "stateMutability": "view",
      "type": "function",
      "constant": true
    },
    {
      "inputs": [
        {
          "internalType": "bytes32",
          "name": "role",
          "type": "bytes32"
        }
      ],
      "name": "getRoleMemberCount",
      "outputs": [
        {
          "internalType": "uint256",
          "name": "",
          "type": "uint256"
        }
      ],
      "stateMutability": "view",
      "type": "function",
      "constant": true
    },
    {
      "inputs": [
        {
          "internalType": "bytes32",
          "name": "role",
          "type": "bytes32"
        },
        {
          "internalType": "address",
          "name": "account",
          "type": "address"
        }
      ],
      "name": "grantRole",
      "outputs": [],
      "stateMutability": "nonpayable",
      "type": "function"
    },
    {
      "inputs": [
        {
          "internalType": "bytes32",
          "name": "role",
          "type": "bytes32"
        },
        {
          "internalType": "address",
          "name": "account",
          "type": "address"
        }
      ],
      "name": "hasRole",
      "outputs": [
        {
          "internalType": "bool",
          "name": "",
          "type": "bool"
        }
      ],
      "stateMutability": "view",
      "type": "function",
      "constant": true
    },
    {
      "inputs": [
        {
          "internalType": "bytes32",
          "name": "role",
          "type": "bytes32"
        },
        {
          "internalType": "address",
          "name": "account",
          "type": "address"
        }
      ],
      "name": "renounceRole",
      "outputs": [],
      "stateMutability": "nonpayable",
      "type": "function"
    },
    {
      "inputs": [
        {
          "internalType": "bytes32",
          "name": "role",
          "type": "bytes32"
        },
        {
          "internalType": "address",
          "name": "account",
          "type": "address"
        }
      ],
      "name": "revokeRole",
      "outputs": [],
      "stateMutability": "nonpayable",
      "type": "function"
    },
    {
      "inputs": [],
      "name": "studentList",
      "outputs": [
        {
          "internalType": "contract iAcademyStudents",
          "name": "",
          "type": "address"
        }
      ],
      "stateMutability": "view",
      "type": "function",
      "constant": true
    },
    {
      "inputs": [
        {
          "internalType": "address",
          "name": "scNameAddress",
          "type": "address"
        },
        {
          "internalType": "string",
          "name": "name",
          "type": "string"
        }
      ],
      "name": "addName",
      "outputs": [
        {
          "internalType": "bool",
          "name": "",
          "type": "bool"
        }
      ],
      "stateMutability": "nonpayable",
      "type": "function"
    },
    {
      "inputs": [
        {
          "internalType": "address",
          "name": "scOwner",
          "type": "address"
        },
        {
          "internalType": "address",
          "name": "scNameAddress",
          "type": "address"
        },
        {
          "internalType": "string",
          "name": "name",
          "type": "string"
        }
      ],
      "name": "addNameBySC",
      "outputs": [
        {
          "internalType": "bool",
          "name": "",
          "type": "bool"
        }
      ],
      "stateMutability": "nonpayable",
      "type": "function"
    },
    {
      "inputs": [],
      "name": "deleteName",
      "outputs": [
        {
          "internalType": "bool",
          "name": "",
          "type": "bool"
        }
      ],
      "stateMutability": "nonpayable",
      "type": "function"
    },
    {
      "inputs": [
        {
          "internalType": "address",
          "name": "scOwner",
          "type": "address"
        }
      ],
      "name": "deleteNameBySC",
      "outputs": [
        {
          "internalType": "bool",
          "name": "",
          "type": "bool"
        }
      ],
      "stateMutability": "nonpayable",
      "type": "function"
    },
    {
      "inputs": [
        {
          "internalType": "address",
          "name": "addressStudentList",
          "type": "address"
        }
      ],
      "name": "updateStudentList",
      "outputs": [
        {
          "internalType": "bool",
          "name": "",
          "type": "bool"
        }
      ],
      "stateMutability": "nonpayable",
      "type": "function"
    },
    {
      "inputs": [
        {
          "internalType": "address",
          "name": "account",
          "type": "address"
        }
      ],
      "name": "existsOwner",
      "outputs": [
        {
          "internalType": "bool",
          "name": "",
          "type": "bool"
        }
      ],
      "stateMutability": "view",
      "type": "function",
      "constant": true
    },
    {
      "inputs": [
        {
          "internalType": "address",
          "name": "scAddress",
          "type": "address"
        }
      ],
      "name": "existsScName",
      "outputs": [
        {
          "internalType": "bool",
          "name": "",
          "type": "bool"
        }
      ],
      "stateMutability": "view",
      "type": "function",
      "constant": true
    },
    {
      "inputs": [
        {
          "internalType": "address",
          "name": "scNameAddress",
          "type": "address"
        },
        {
          "internalType": "string",
          "name": "name",
          "type": "string"
        }
      ],
      "name": "checkName",
      "outputs": [
        {
          "internalType": "bool",
          "name": "",
          "type": "bool"
        }
      ],
      "stateMutability": "view",
      "type": "function",
      "constant": true
    },
    {
      "inputs": [],
      "name": "listNameInfo",
      "outputs": [
        {
          "components": [
            {
              "internalType": "address",
              "name": "owner",
              "type": "address"
            },
            {
              "internalType": "address",
              "name": "scName",
              "type": "address"
            },
            {
              "internalType": "string",
              "name": "name",
              "type": "string"
            }
          ],
          "internalType": "struct NameStruct[]",
          "name": "",
          "type": "tuple[]"
        }
      ],
      "stateMutability": "view",
      "type": "function",
      "constant": true
    },
    {
      "inputs": [],
      "name": "countNames",
      "outputs": [
        {
          "internalType": "uint256",
          "name": "",
          "type": "uint256"
        }
      ],
      "stateMutability": "view",
      "type": "function",
      "constant": true
    },
    {
      "inputs": [
        {
          "internalType": "address",
          "name": "scNameAddress",
          "type": "address"
        }
      ],
      "name": "getOwnerSc",
      "outputs": [
        {
          "internalType": "address",
          "name": "",
          "type": "address"
        }
      ],
      "stateMutability": "view",
      "type": "function",
      "constant": true
    },
    {
      "inputs": [
        {
          "internalType": "address",
          "name": "scNameAddress",
          "type": "address"
        }
      ],
      "name": "getName",
      "outputs": [
        {
          "internalType": "string",
          "name": "",
          "type": "string"
        }
      ],
      "stateMutability": "view",
      "type": "function",
      "constant": true
    },
    {
      "inputs": [
        {
          "internalType": "address",
          "name": "account",
          "type": "address"
        }
      ],
      "name": "getNameInfoByOwner",
      "outputs": [
        {
          "components": [
            {
              "internalType": "address",
              "name": "owner",
              "type": "address"
            },
            {
              "internalType": "address",
              "name": "scName",
              "type": "address"
            },
            {
              "internalType": "string",
              "name": "name",
              "type": "string"
            }
          ],
          "internalType": "struct NameStruct",
          "name": "",
          "type": "tuple"
        }
      ],
      "stateMutability": "view",
      "type": "function",
      "constant": true
    },
    {
      "inputs": [
        {
          "internalType": "address",
          "name": "scNameAddress",
          "type": "address"
        }
      ],
      "name": "getNameInfoByNameSC",
      "outputs": [
        {
          "components": [
            {
              "internalType": "address",
              "name": "owner",
              "type": "address"
            },
            {
              "internalType": "address",
              "name": "scName",
              "type": "address"
            },
            {
              "internalType": "string",
              "name": "name",
              "type": "string"
            }
          ],
          "internalType": "struct NameStruct",
          "name": "",
          "type": "tuple"
        }
      ],
      "stateMutability": "view",
      "type": "function",
      "constant": true
    },
    {
      "inputs": [
        {
          "internalType": "uint256",
          "name": "index",
          "type": "uint256"
        }
      ],
      "name": "getNameInfoByIndex",
      "outputs": [
        {
          "components": [
            {
              "internalType": "address",
              "name": "owner",
              "type": "address"
            },
            {
              "internalType": "address",
              "name": "scName",
              "type": "address"
            },
            {
              "internalType": "string",
              "name": "name",
              "type": "string"
            }
          ],
          "internalType": "struct NameStruct",
          "name": "",
          "type": "tuple"
        }
      ],
      "stateMutability": "view",
      "type": "function",
      "constant": true
    }
  ],
  "bytecode": "0x60806040523480156200001157600080fd5b5060405162003bdd38038062003bdd833981810160405281019062000037919062000241565b6200004c6000801b336200009460201b60201c565b80600160006101000a81548173ffffffffffffffffffffffffffffffffffffffff021916908373ffffffffffffffffffffffffffffffffffffffff16021790555050620002bb565b620000a68282620000aa60201b60201c565b5050565b620000d8816000808581526020019081526020016000206000016200014d60201b620012ab1790919060201c565b156200014957620000ee6200018560201b60201c565b73ffffffffffffffffffffffffffffffffffffffff168173ffffffffffffffffffffffffffffffffffffffff16837f2f8788117e7eff1d82e926ec794901d17c78024a50270940304540a733656f0d60405160405180910390a45b5050565b60006200017d836000018373ffffffffffffffffffffffffffffffffffffffff1660001b6200018d60201b60201c565b905092915050565b600033905090565b6000620001a183836200020760201b60201c565b620001fc57826000018290806001815401808255809150506001900390600052602060002001600090919091909150558260000180549050836001016000848152602001908152602001600020819055506001905062000201565b600090505b92915050565b600080836001016000848152602001908152602001600020541415905092915050565b6000815190506200023b81620002a1565b92915050565b6000602082840312156200025457600080fd5b600062000264848285016200022a565b91505092915050565b60006200027a8262000281565b9050919050565b600073ffffffffffffffffffffffffffffffffffffffff82169050919050565b620002ac816200026d565b8114620002b857600080fd5b50565b61391280620002cb6000396000f3fe608060405234801561001057600080fd5b50600436106101585760003560e01c80639010d07c116100c3578063ca15c8731161007c578063ca15c8731461044d578063d0aab3fd1461047d578063d43e001a146104ad578063d547741f146104cb578063d5f22ec2146104e7578063e8330ac71461051757610158565b80639010d07c1461035157806391d148541461038157806394603d60146103b1578063a217fddf146103e1578063ad36e0c9146103ff578063bf16fd451461041d57610158565b806336568abe1161011557806336568abe14610257578063556a1d21146102735780635fd4b08a146102a35780636738acf7146102d35780638edb4a43146102f15780638f1b82931461032157610158565b80630d17da9e1461015d5780631f1508ee1461018d578063248a9ca3146101bd5780632f2ff15d146101ed5780633209207e1461020957806333e1323314610227575b600080fd5b61017760048036038101906101729190612a75565b610547565b60405161018491906132db565b60405180910390f35b6101a760048036038101906101a29190612a75565b610726565b6040516101b49190613128565b60405180910390f35b6101d760048036038101906101d29190612bab565b610782565b6040516101e49190613143565b60405180910390f35b61020760048036038101906102029190612bd4565b6107a1565b005b610211610814565b60405161021e9190613128565b60405180910390f35b610241600480360381019061023c9190612cce565b610827565b60405161024e91906132db565b60405180910390f35b610271600480360381019061026c9190612bd4565b6109d3565b005b61028d60048036038101906102889190612a75565b610a56565b60405161029a91906132db565b60405180910390f35b6102bd60048036038101906102b89190612a75565b610c35565b6040516102ca9190613179565b60405180910390f35b6102db610cc7565b6040516102e89190613106565b60405180910390f35b61030b60048036038101906103069190612a75565b610e64565b6040516103189190613128565b60405180910390f35b61033b60048036038101906103369190612a75565b610efc565b6040516103489190613128565b60405180910390f35b61036b60048036038101906103669190612c10565b610f58565b60405161037891906130bb565b60405180910390f35b61039b60048036038101906103969190612bd4565b610f89565b6040516103a89190613128565b60405180910390f35b6103cb60048036038101906103c69190612a75565b610fba565b6040516103d891906130bb565b60405180910390f35b6103e9611046565b6040516103f69190613143565b60405180910390f35b61040761104d565b60405161041491906132fd565b60405180910390f35b61043760048036038101906104329190612a75565b61105a565b6040516104449190613128565b60405180910390f35b61046760048036038101906104629190612bab565b6110bb565b60405161047491906132fd565b60405180910390f35b61049760048036038101906104929190612b2e565b6110e1565b6040516104a49190613128565b60405180910390f35b6104b56110f9565b6040516104c2919061315e565b60405180910390f35b6104e560048036038101906104e09190612bd4565b61111f565b005b61050160048036038101906104fc9190612ac7565b611192565b60405161050e9190613128565b60405180910390f35b610531600480360381019061052c9190612b2e565b6111f7565b60405161053e9190613128565b60405180910390f35b61054f612634565b6002600460008473ffffffffffffffffffffffffffffffffffffffff1673ffffffffffffffffffffffffffffffffffffffff16815260200190815260200160002054815481106105c8577f4e487b7100000000000000000000000000000000000000000000000000000000600052603260045260246000fd5b90600052602060002090600302016040518060600160405290816000820160009054906101000a900473ffffffffffffffffffffffffffffffffffffffff1673ffffffffffffffffffffffffffffffffffffffff1673ffffffffffffffffffffffffffffffffffffffff1681526020016001820160009054906101000a900473ffffffffffffffffffffffffffffffffffffffff1673ffffffffffffffffffffffffffffffffffffffff1673ffffffffffffffffffffffffffffffffffffffff16815260200160028201805461069d9061354d565b80601f01602080910402602001604051908101604052809291908181526020018280546106c99061354d565b80156107165780601f106106eb57610100808354040283529160200191610716565b820191906000526020600020905b8154815290600101906020018083116106f957829003601f168201915b5050505050815250509050919050565b600080600460008473ffffffffffffffffffffffffffffffffffffffff1673ffffffffffffffffffffffffffffffffffffffff168152602001908152602001600020541415610778576000905061077d565b600190505b919050565b6000806000838152602001908152602001600020600201549050919050565b6107c7600080848152602001908152602001600020600201546107c26112db565b610f89565b610806576040517f08c379a00000000000000000000000000000000000000000000000000000000081526004016107fd906131db565b60405180910390fd5b61081082826112e3565b5050565b600061081f33611376565b506001905090565b61082f612634565b600260018361083e9190613461565b81548110610875577f4e487b7100000000000000000000000000000000000000000000000000000000600052603260045260246000fd5b90600052602060002090600302016040518060600160405290816000820160009054906101000a900473ffffffffffffffffffffffffffffffffffffffff1673ffffffffffffffffffffffffffffffffffffffff1673ffffffffffffffffffffffffffffffffffffffff1681526020016001820160009054906101000a900473ffffffffffffffffffffffffffffffffffffffff1673ffffffffffffffffffffffffffffffffffffffff1673ffffffffffffffffffffffffffffffffffffffff16815260200160028201805461094a9061354d565b80601f01602080910402602001604051908101604052809291908181526020018280546109769061354d565b80156109c35780601f10610998576101008083540402835291602001916109c3565b820191906000526020600020905b8154815290600101906020018083116109a657829003601f168201915b5050505050815250509050919050565b6109db6112db565b73ffffffffffffffffffffffffffffffffffffffff168173ffffffffffffffffffffffffffffffffffffffff1614610a48576040517f08c379a0000000000000000000000000000000000000000000000000000000008152600401610a3f906132bb565b60405180910390fd5b610a528282611ab8565b5050565b610a5e612634565b6002600360008473ffffffffffffffffffffffffffffffffffffffff1673ffffffffffffffffffffffffffffffffffffffff1681526020019081526020016000205481548110610ad7577f4e487b7100000000000000000000000000000000000000000000000000000000600052603260045260246000fd5b90600052602060002090600302016040518060600160405290816000820160009054906101000a900473ffffffffffffffffffffffffffffffffffffffff1673ffffffffffffffffffffffffffffffffffffffff1673ffffffffffffffffffffffffffffffffffffffff1681526020016001820160009054906101000a900473ffffffffffffffffffffffffffffffffffffffff1673ffffffffffffffffffffffffffffffffffffffff1673ffffffffffffffffffffffffffffffffffffffff168152602001600282018054610bac9061354d565b80601f0160208091040260200160405190810160405280929190818152602001828054610bd89061354d565b8015610c255780601f10610bfa57610100808354040283529160200191610c25565b820191906000526020600020905b815481529060010190602001808311610c0857829003601f168201915b5050505050815250509050919050565b606060008290508073ffffffffffffffffffffffffffffffffffffffff166317d7de7c6040518163ffffffff1660e01b815260040160006040518083038186803b158015610c8257600080fd5b505afa158015610c96573d6000803e3d6000fd5b505050506040513d6000823e3d601f19601f82011682018060405250810190610cbf9190612c4c565b915050919050565b60606002805480602002602001604051908101604052809291908181526020016000905b82821015610e5b57838290600052602060002090600302016040518060600160405290816000820160009054906101000a900473ffffffffffffffffffffffffffffffffffffffff1673ffffffffffffffffffffffffffffffffffffffff1673ffffffffffffffffffffffffffffffffffffffff1681526020016001820160009054906101000a900473ffffffffffffffffffffffffffffffffffffffff1673ffffffffffffffffffffffffffffffffffffffff1673ffffffffffffffffffffffffffffffffffffffff168152602001600282018054610dca9061354d565b80601f0160208091040260200160405190810160405280929190818152602001828054610df69061354d565b8015610e435780601f10610e1857610100808354040283529160200191610e43565b820191906000526020600020905b815481529060010190602001808311610e2657829003601f168201915b50505050508152505081526020019060010190610ceb565b50505050905090565b6000610e736000801b33610f89565b610eb2576040517f08c379a0000000000000000000000000000000000000000000000000000000008152600401610ea99061321b565b60405180910390fd5b81600160006101000a81548173ffffffffffffffffffffffffffffffffffffffff021916908373ffffffffffffffffffffffffffffffffffffffff16021790555060019050919050565b600080600360008473ffffffffffffffffffffffffffffffffffffffff1673ffffffffffffffffffffffffffffffffffffffff168152602001908152602001600020541415610f4e5760009050610f53565b600190505b919050565b6000610f8182600080868152602001908152602001600020600001611b4b90919063ffffffff16565b905092915050565b6000610fb282600080868152602001908152602001600020600001611b6590919063ffffffff16565b905092915050565b6000808290508073ffffffffffffffffffffffffffffffffffffffff16638da5cb5b6040518163ffffffff1660e01b815260040160206040518083038186803b15801561100657600080fd5b505afa15801561101a573d6000803e3d6000fd5b505050506040513d601f19601f8201168201806040525081019061103e9190612a9e565b915050919050565b6000801b81565b6000600280549050905090565b60006110696000801b33610f89565b6110a8576040517f08c379a000000000000000000000000000000000000000000000000000000000815260040161109f9061321b565b60405180910390fd5b6110b182611376565b5060019050919050565b60006110da600080848152602001908152602001600020600001611b95565b9050919050565b60006110ee338484611baa565b506001905092915050565b600160009054906101000a900473ffffffffffffffffffffffffffffffffffffffff1681565b611145600080848152602001908152602001600020600201546111406112db565b610f89565b611184576040517f08c379a000000000000000000000000000000000000000000000000000000000815260040161117b906131fb565b60405180910390fd5b61118e8282611ab8565b5050565b60006111a16000801b33610f89565b6111e0576040517f08c379a00000000000000000000000000000000000000000000000000000000081526004016111d79061321b565b60405180910390fd5b6111eb848484611baa565b50600190509392505050565b60008083905060008173ffffffffffffffffffffffffffffffffffffffff166317d7de7c6040518163ffffffff1660e01b815260040160006040518083038186803b15801561124557600080fd5b505afa158015611259573d6000803e3d6000fd5b505050506040513d6000823e3d601f19601f820116820180604052508101906112829190612c4c565b905061128e8185612063565b1561129e576001925050506112a5565b6000925050505b92915050565b60006112d3836000018373ffffffffffffffffffffffffffffffffffffffff1660001b6120bc565b905092915050565b600033905090565b61130a816000808581526020019081526020016000206000016112ab90919063ffffffff16565b15611372576113176112db565b73ffffffffffffffffffffffffffffffffffffffff168173ffffffffffffffffffffffffffffffffffffffff16837f2f8788117e7eff1d82e926ec794901d17c78024a50270940304540a733656f0d60405160405180910390a45b5050565b600061138182610efc565b6113c0576040517f08c379a00000000000000000000000000000000000000000000000000000000081526004016113b79061327b565b60405180910390fd5b60006001600360008573ffffffffffffffffffffffffffffffffffffffff1673ffffffffffffffffffffffffffffffffffffffff1681526020019081526020016000205461140e9190613461565b905060006002828154811061144c577f4e487b7100000000000000000000000000000000000000000000000000000000600052603260045260246000fd5b906000526020600020906003020160010160009054906101000a900473ffffffffffffffffffffffffffffffffffffffff169050600060016002805490506114949190613461565b90506000600282815481106114d2577f4e487b7100000000000000000000000000000000000000000000000000000000600052603260045260246000fd5b906000526020600020906003020160000160009054906101000a900473ffffffffffffffffffffffffffffffffffffffff169050600060028381548110611542577f4e487b7100000000000000000000000000000000000000000000000000000000600052603260045260246000fd5b906000526020600020906003020160010160009054906101000a900473ffffffffffffffffffffffffffffffffffffffff169050600283815481106115b0577f4e487b7100000000000000000000000000000000000000000000000000000000600052603260045260246000fd5b9060005260206000209060030201600286815481106115f8577f4e487b7100000000000000000000000000000000000000000000000000000000600052603260045260246000fd5b90600052602060002090600302016000820160009054906101000a900473ffffffffffffffffffffffffffffffffffffffff168160000160006101000a81548173ffffffffffffffffffffffffffffffffffffffff021916908373ffffffffffffffffffffffffffffffffffffffff1602179055506001820160009054906101000a900473ffffffffffffffffffffffffffffffffffffffff168160010160006101000a81548173ffffffffffffffffffffffffffffffffffffffff021916908373ffffffffffffffffffffffffffffffffffffffff16021790555060028201816002019080546116e89061354d565b6116f3929190612681565b50905050600185611704919061340b565b600360008473ffffffffffffffffffffffffffffffffffffffff1673ffffffffffffffffffffffffffffffffffffffff16815260200190815260200160002081905550600185611754919061340b565b600460008373ffffffffffffffffffffffffffffffffffffffff1673ffffffffffffffffffffffffffffffffffffffff16815260200190815260200160002081905550600360008873ffffffffffffffffffffffffffffffffffffffff1673ffffffffffffffffffffffffffffffffffffffff16815260200190815260200160002060009055600460008573ffffffffffffffffffffffffffffffffffffffff1673ffffffffffffffffffffffffffffffffffffffff168152602001908152602001600020600090556002805480611855577f4e487b7100000000000000000000000000000000000000000000000000000000600052603160045260246000fd5b6001900381819060005260206000209060030201600080820160006101000a81549073ffffffffffffffffffffffffffffffffffffffff02191690556001820160006101000a81549073ffffffffffffffffffffffffffffffffffffffff02191690556002820160006118c8919061270e565b505090556000600160009054906101000a900473ffffffffffffffffffffffffffffffffffffffff1673ffffffffffffffffffffffffffffffffffffffff16639f3da5cc896040518263ffffffff1660e01b815260040161192991906130bb565b60006040518083038186803b15801561194157600080fd5b505afa158015611955573d6000803e3d6000fd5b505050506040513d6000823e3d601f19601f8201168201806040525081019061197e9190612c8d565b9050600073ffffffffffffffffffffffffffffffffffffffff16816040015173ffffffffffffffffffffffffffffffffffffffff1614611a4f576000816040015190508073ffffffffffffffffffffffffffffffffffffffff1663f4a496b7876040518263ffffffff1660e01b81526004016119fa91906130bb565b602060405180830381600087803b158015611a1457600080fd5b505af1158015611a28573d6000803e3d6000fd5b505050506040513d601f19601f82011682018060405250810190611a4c9190612b82565b50505b8473ffffffffffffffffffffffffffffffffffffffff168873ffffffffffffffffffffffffffffffffffffffff167f3fafcd48c28ba1ae67f12f2c45df19bd1ddf8375c33d97042ad428b1d55026d660405160405180910390a360019650505050505050919050565b611adf8160008085815260200190815260200160002060000161212c90919063ffffffff16565b15611b4757611aec6112db565b73ffffffffffffffffffffffffffffffffffffffff168173ffffffffffffffffffffffffffffffffffffffff16837ff6391f5c32d9c69d2a47ea670b442974b53935d1edc7fd64eb21e047a839171b60405160405180910390a45b5050565b6000611b5a836000018361215c565b60001c905092915050565b6000611b8d836000018373ffffffffffffffffffffffffffffffffffffffff1660001b6121f6565b905092915050565b6000611ba382600001612219565b9050919050565b6000611bb583610726565b15611bf5576040517f08c379a0000000000000000000000000000000000000000000000000000000008152600401611bec906131bb565b60405180910390fd5b611bfe84610efc565b15611c3e576040517f08c379a0000000000000000000000000000000000000000000000000000000008152600401611c359061325b565b60405180910390fd5b6000839050611ccf8173ffffffffffffffffffffffffffffffffffffffff166317d7de7c6040518163ffffffff1660e01b815260040160006040518083038186803b158015611c8c57600080fd5b505afa158015611ca0573d6000803e3d6000fd5b505050506040513d6000823e3d601f19601f82011682018060405250810190611cc99190612c4c565b84612063565b611d0e576040517f08c379a0000000000000000000000000000000000000000000000000000000008152600401611d059061329b565b60405180910390fd5b8473ffffffffffffffffffffffffffffffffffffffff168173ffffffffffffffffffffffffffffffffffffffff16638da5cb5b6040518163ffffffff1660e01b815260040160206040518083038186803b158015611d6b57600080fd5b505afa158015611d7f573d6000803e3d6000fd5b505050506040513d601f19601f82011682018060405250810190611da39190612a9e565b73ffffffffffffffffffffffffffffffffffffffff1614611df9576040517f08c379a0000000000000000000000000000000000000000000000000000000008152600401611df09061323b565b60405180910390fd5b611e01612634565b85816000019073ffffffffffffffffffffffffffffffffffffffff16908173ffffffffffffffffffffffffffffffffffffffff168152505084816020019073ffffffffffffffffffffffffffffffffffffffff16908173ffffffffffffffffffffffffffffffffffffffff1681525050838160400181905250600281908060018154018082558091505060019003906000526020600020906003020160009091909190915060008201518160000160006101000a81548173ffffffffffffffffffffffffffffffffffffffff021916908373ffffffffffffffffffffffffffffffffffffffff16021790555060208201518160010160006101000a81548173ffffffffffffffffffffffffffffffffffffffff021916908373ffffffffffffffffffffffffffffffffffffffff1602179055506040820151816002019080519060200190611f5092919061274e565b5050506000600280549050905080600360008973ffffffffffffffffffffffffffffffffffffffff1673ffffffffffffffffffffffffffffffffffffffff1681526020019081526020016000208190555080600460008873ffffffffffffffffffffffffffffffffffffffff1673ffffffffffffffffffffffffffffffffffffffff16815260200190815260200160002081905550611fef878761222a565b508673ffffffffffffffffffffffffffffffffffffffff168673ffffffffffffffffffffffffffffffffffffffff167f2b824af0f727954b97daea8fcd4ca48fb52a488e8853e716f5b48faa3cd1a2f48760405161204d9190613179565b60405180910390a3600193505050509392505050565b60008160405160200161207691906130a4565b604051602081830303815290604052805190602001208360405160200161209d91906130a4565b6040516020818303038152906040528051906020012014905092915050565b60006120c883836121f6565b612121578260000182908060018154018082558091505060019003906000526020600020016000909190919091505582600001805490508360010160008481526020019081526020016000208190555060019050612126565b600090505b92915050565b6000612154836000018373ffffffffffffffffffffffffffffffffffffffff1660001b6124aa565b905092915050565b6000818360000180549050116121a7576040517f08c379a000000000000000000000000000000000000000000000000000000000815260040161219e9061319b565b60405180910390fd5b8260000182815481106121e3577f4e487b7100000000000000000000000000000000000000000000000000000000600052603260045260246000fd5b9060005260206000200154905092915050565b600080836001016000848152602001908152602001600020541415905092915050565b600081600001805490509050919050565b6000600160009054906101000a900473ffffffffffffffffffffffffffffffffffffffff1673ffffffffffffffffffffffffffffffffffffffff166382f7d392846040518263ffffffff1660e01b815260040161228791906130bb565b60206040518083038186803b15801561229f57600080fd5b505afa1580156122b3573d6000803e3d6000fd5b505050506040513d601f19601f820116820180604052508101906122d79190612b82565b6122e457600090506124a4565b6000600160009054906101000a900473ffffffffffffffffffffffffffffffffffffffff1673ffffffffffffffffffffffffffffffffffffffff16639f3da5cc856040518263ffffffff1660e01b815260040161234191906130bb565b60006040518083038186803b15801561235957600080fd5b505afa15801561236d573d6000803e3d6000fd5b505050506040513d6000823e3d601f19601f820116820180604052508101906123969190612c8d565b9050600073ffffffffffffffffffffffffffffffffffffffff16816040015173ffffffffffffffffffffffffffffffffffffffff161461249e576000816040015190508073ffffffffffffffffffffffffffffffffffffffff16638a06d20b856040518060400160405280600481526020017f4e616d65000000000000000000000000000000000000000000000000000000008152506040518363ffffffff1660e01b81526004016124499291906130d6565b602060405180830381600087803b15801561246357600080fd5b505af1158015612477573d6000803e3d6000fd5b505050506040513d601f19601f8201168201806040525081019061249b9190612cf7565b50505b60019150505b92915050565b600080836001016000848152602001908152602001600020549050600081146126285760006001826124dc9190613461565b90506000600186600001805490506124f49190613461565b90506000866000018281548110612534577f4e487b7100000000000000000000000000000000000000000000000000000000600052603260045260246000fd5b906000526020600020015490508087600001848154811061257e577f4e487b7100000000000000000000000000000000000000000000000000000000600052603260045260246000fd5b9060005260206000200181905550600183612599919061340b565b87600101600083815260200190815260200160002081905550866000018054806125ec577f4e487b7100000000000000000000000000000000000000000000000000000000600052603160045260246000fd5b6001900381819060005260206000200160009055905586600101600087815260200190815260200160002060009055600194505050505061262e565b60009150505b92915050565b6040518060600160405280600073ffffffffffffffffffffffffffffffffffffffff168152602001600073ffffffffffffffffffffffffffffffffffffffff168152602001606081525090565b82805461268d9061354d565b90600052602060002090601f0160209004810192826126af57600085556126fd565b82601f106126c057805485556126fd565b828001600101855582156126fd57600052602060002091601f016020900482015b828111156126fc5782548255916001019190600101906126e1565b5b50905061270a91906127d4565b5090565b50805461271a9061354d565b6000825580601f1061272c575061274b565b601f01602090049060005260206000209081019061274a91906127d4565b5b50565b82805461275a9061354d565b90600052602060002090601f01602090048101928261277c57600085556127c3565b82601f1061279557805160ff19168380011785556127c3565b828001600101855582156127c3579182015b828111156127c25782518255916020019190600101906127a7565b5b5090506127d091906127d4565b5090565b5b808211156127ed5760008160009055506001016127d5565b5090565b60006128046127ff8461333d565b613318565b9050808382526020820190508285602086028201111561282357600080fd5b60005b85811015612853578161283988826128ee565b845260208401935060208301925050600181019050612826565b5050509392505050565b600061287061286b84613369565b613318565b90508281526020810184848401111561288857600080fd5b61289384828561350b565b509392505050565b60006128ae6128a984613369565b613318565b9050828152602081018484840111156128c657600080fd5b6128d184828561351a565b509392505050565b6000813590506128e881613880565b92915050565b6000815190506128fd81613880565b92915050565b600082601f83011261291457600080fd5b81516129248482602086016127f1565b91505092915050565b60008151905061293c81613897565b92915050565b600081359050612951816138ae565b92915050565b600082601f83011261296857600080fd5b813561297884826020860161285d565b91505092915050565b600082601f83011261299257600080fd5b81516129a284826020860161289b565b91505092915050565b600060a082840312156129bd57600080fd5b6129c760a0613318565b905060006129d784828501612a60565b60008301525060206129eb848285016128ee565b60208301525060406129ff848285016128ee565b6040830152506060612a13848285016128ee565b606083015250608082015167ffffffffffffffff811115612a3357600080fd5b612a3f84828501612903565b60808301525092915050565b600081359050612a5a816138c5565b92915050565b600081519050612a6f816138c5565b92915050565b600060208284031215612a8757600080fd5b6000612a95848285016128d9565b91505092915050565b600060208284031215612ab057600080fd5b6000612abe848285016128ee565b91505092915050565b600080600060608486031215612adc57600080fd5b6000612aea868287016128d9565b9350506020612afb868287016128d9565b925050604084013567ffffffffffffffff811115612b1857600080fd5b612b2486828701612957565b9150509250925092565b60008060408385031215612b4157600080fd5b6000612b4f858286016128d9565b925050602083013567ffffffffffffffff811115612b6c57600080fd5b612b7885828601612957565b9150509250929050565b600060208284031215612b9457600080fd5b6000612ba28482850161292d565b91505092915050565b600060208284031215612bbd57600080fd5b6000612bcb84828501612942565b91505092915050565b60008060408385031215612be757600080fd5b6000612bf585828601612942565b9250506020612c06858286016128d9565b9150509250929050565b60008060408385031215612c2357600080fd5b6000612c3185828601612942565b9250506020612c4285828601612a4b565b9150509250929050565b600060208284031215612c5e57600080fd5b600082015167ffffffffffffffff811115612c7857600080fd5b612c8484828501612981565b91505092915050565b600060208284031215612c9f57600080fd5b600082015167ffffffffffffffff811115612cb957600080fd5b612cc5848285016129ab565b91505092915050565b600060208284031215612ce057600080fd5b6000612cee84828501612a4b565b91505092915050565b600060208284031215612d0957600080fd5b6000612d1784828501612a60565b91505092915050565b6000612d2c8383612ff5565b905092915050565b612d3d81613495565b82525050565b612d4c81613495565b82525050565b6000612d5d826133aa565b612d6781856133cd565b935083602082028501612d798561339a565b8060005b85811015612db55784840389528151612d968582612d20565b9450612da1836133c0565b925060208a01995050600181019050612d7d565b50829750879550505050505092915050565b612dd0816134a7565b82525050565b612ddf816134b3565b82525050565b612dee816134e7565b82525050565b6000612dff826133b5565b612e0981856133de565b9350612e1981856020860161351a565b612e228161363d565b840191505092915050565b6000612e38826133b5565b612e4281856133ef565b9350612e5281856020860161351a565b612e5b8161363d565b840191505092915050565b6000612e71826133b5565b612e7b8185613400565b9350612e8b81856020860161351a565b80840191505092915050565b6000612ea46022836133ef565b9150612eaf8261364e565b604082019050919050565b6000612ec7600d836133ef565b9150612ed28261369d565b602082019050919050565b6000612eea602f836133ef565b9150612ef5826136c6565b604082019050919050565b6000612f0d6030836133ef565b9150612f1882613715565b604082019050919050565b6000612f306016836133ef565b9150612f3b82613764565b602082019050919050565b6000612f53600d836133ef565b9150612f5e8261378d565b602082019050919050565b6000612f76600c836133ef565b9150612f81826137b6565b602082019050919050565b6000612f996010836133ef565b9150612fa4826137df565b602082019050919050565b6000612fbc600e836133ef565b9150612fc782613808565b602082019050919050565b6000612fdf602f836133ef565b9150612fea82613831565b604082019050919050565b600060608301600083015161300d6000860182612d34565b5060208301516130206020860182612d34565b50604083015184820360408601526130388282612df4565b9150508091505092915050565b600060608301600083015161305d6000860182612d34565b5060208301516130706020860182612d34565b50604083015184820360408601526130888282612df4565b9150508091505092915050565b61309e816134dd565b82525050565b60006130b08284612e66565b915081905092915050565b60006020820190506130d06000830184612d43565b92915050565b60006040820190506130eb6000830185612d43565b81810360208301526130fd8184612e2d565b90509392505050565b600060208201905081810360008301526131208184612d52565b905092915050565b600060208201905061313d6000830184612dc7565b92915050565b60006020820190506131586000830184612dd6565b92915050565b60006020820190506131736000830184612de5565b92915050565b600060208201905081810360008301526131938184612e2d565b905092915050565b600060208201905081810360008301526131b481612e97565b9050919050565b600060208201905081810360008301526131d481612eba565b9050919050565b600060208201905081810360008301526131f481612edd565b9050919050565b6000602082019050818103600083015261321481612f00565b9050919050565b6000602082019050818103600083015261323481612f23565b9050919050565b6000602082019050818103600083015261325481612f46565b9050919050565b6000602082019050818103600083015261327481612f69565b9050919050565b6000602082019050818103600083015261329481612f8c565b9050919050565b600060208201905081810360008301526132b481612faf565b9050919050565b600060208201905081810360008301526132d481612fd2565b9050919050565b600060208201905081810360008301526132f58184613045565b905092915050565b60006020820190506133126000830184613095565b92915050565b6000613322613333565b905061332e828261357f565b919050565b6000604051905090565b600067ffffffffffffffff8211156133585761335761360e565b5b602082029050602081019050919050565b600067ffffffffffffffff8211156133845761338361360e565b5b61338d8261363d565b9050602081019050919050565b6000819050602082019050919050565b600081519050919050565b600081519050919050565b6000602082019050919050565b600082825260208201905092915050565b600082825260208201905092915050565b600082825260208201905092915050565b600081905092915050565b6000613416826134dd565b9150613421836134dd565b9250827fffffffffffffffffffffffffffffffffffffffffffffffffffffffffffffffff03821115613456576134556135b0565b5b828201905092915050565b600061346c826134dd565b9150613477836134dd565b92508282101561348a576134896135b0565b5b828203905092915050565b60006134a0826134bd565b9050919050565b60008115159050919050565b6000819050919050565b600073ffffffffffffffffffffffffffffffffffffffff82169050919050565b6000819050919050565b60006134f2826134f9565b9050919050565b6000613504826134bd565b9050919050565b82818337600083830152505050565b60005b8381101561353857808201518184015260208101905061351d565b83811115613547576000848401525b50505050565b6000600282049050600182168061356557607f821691505b60208210811415613579576135786135df565b5b50919050565b6135888261363d565b810181811067ffffffffffffffff821117156135a7576135a661360e565b5b80604052505050565b7f4e487b7100000000000000000000000000000000000000000000000000000000600052601160045260246000fd5b7f4e487b7100000000000000000000000000000000000000000000000000000000600052602260045260246000fd5b7f4e487b7100000000000000000000000000000000000000000000000000000000600052604160045260246000fd5b6000601f19601f8301169050919050565b7f456e756d657261626c655365743a20696e646578206f7574206f6620626f756e60008201527f6473000000000000000000000000000000000000000000000000000000000000602082015250565b7f73634e616d652065786973747300000000000000000000000000000000000000600082015250565b7f416363657373436f6e74726f6c3a2073656e646572206d75737420626520616e60008201527f2061646d696e20746f206772616e740000000000000000000000000000000000602082015250565b7f416363657373436f6e74726f6c3a2073656e646572206d75737420626520616e60008201527f2061646d696e20746f207265766f6b6500000000000000000000000000000000602082015250565b7f4d61737465724e616d653a206f6e6c79206f776e657200000000000000000000600082015250565b7f6f6e6c79207363206f776e657200000000000000000000000000000000000000600082015250565b7f6f776e6572206578697374730000000000000000000000000000000000000000600082015250565b7f6f776e6572206e6f742065786973747300000000000000000000000000000000600082015250565b7f646966666572656e74206e616d65000000000000000000000000000000000000600082015250565b7f416363657373436f6e74726f6c3a2063616e206f6e6c792072656e6f756e636560008201527f20726f6c657320666f722073656c660000000000000000000000000000000000602082015250565b61388981613495565b811461389457600080fd5b50565b6138a0816134a7565b81146138ab57600080fd5b50565b6138b7816134b3565b81146138c257600080fd5b50565b6138ce816134dd565b81146138d957600080fd5b5056fea26469706673582212204c9376c5b124904d0e83bae69ebe48090acc773185cbd0002850dce03476289e64736f6c63430008010033",
  "immutableReferences": {},
  "source": "// SPDX-License-Identifier: MIT\r\npragma solidity 0.8.1;\r\n\r\n//import \"https://github.com/OpenZeppelin/openzeppelin-contracts/blob/master/contracts/access/AccessControl.sol\";\r\n//import '@openzeppelin/contracts/access/AccessControl.sol';\r\nimport './oz-contracts/access/AccessControl.sol';\r\n\r\nimport './iName.sol';\r\nimport './iAcademyStudents.sol';\r\nimport './iStudentPortfolio.sol';\r\n\r\n\r\n/*\r\n    It must have a Project in AcademyProjectList in order to a Master works.\r\n    The Master validate the project which is in AcademyProjectList.\r\n\r\n    PROJECT_NAMEis a key.\r\n    So every Master must hava a PROJECT_NAME which the same name in project in AcademyProjectList.\r\n\r\n    Master is linked to addressStudentList\r\n    After creater a Master:\r\n        your address must be updated in the project in AcademyProjectList.\r\n        \r\n    A Master has the student list who submited this project.\r\n\r\n    MasterName validates the Name and add in student's portfolio.\r\n    MasterName has the student's names = student list!\r\n*/\r\n\r\nstruct NameStruct {\r\n    address owner;\r\n    address scName;\r\n    string name;\r\n}\r\n\r\ncontract MasterName is AccessControl {\r\n\r\n    string constant PROJECT_NAME = \"Name\";\r\n    iAcademyStudents public studentList;\r\n\r\n    NameStruct[] private nameInfo;\r\n    mapping(address => uint256) private ownerIndex;\r\n    mapping(address => uint256) private scNameIndex;\r\n    \r\n\r\n    constructor(address addressStudentList) {\r\n        _setupRole(DEFAULT_ADMIN_ROLE, msg.sender);\r\n        studentList = iAcademyStudents(addressStudentList);\r\n    }\r\n    \r\n    event NameAdded (address indexed owner, address indexed scName, string name);\r\n    event NameDeleted (address indexed owner, address indexed scName);\r\n\r\n    modifier onlyOwner() {\r\n        require(hasRole(DEFAULT_ADMIN_ROLE, msg.sender), \"MasterName: only owner\");\r\n        _;\r\n    }\r\n\r\n    function addName (address scNameAddress, string memory name) public returns (bool) {\r\n        _addName (msg.sender, scNameAddress, name);\r\n        return true;\r\n    }\r\n    \r\n    function addNameBySC (address scOwner, address scNameAddress, string memory name) public onlyOwner returns (bool) {\r\n        _addName (scOwner, scNameAddress, name);\r\n        return true;\r\n    }\r\n    \r\n    function _addName (address scOwner, address scNameAddress,  string memory name) private returns (bool) {\r\n        //Does it already exist?\r\n        require (!existsScName(scNameAddress), \"scName exists\");\r\n        require (!existsOwner(scOwner), \"owner exists\");\r\n        \r\n        iName scName = iName(scNameAddress);\r\n        //string memory name = scName.getName();\r\n        require (compareStrings(scName.getName(), name), \"different name\");\r\n        \r\n        //Only owner's sc can add\r\n        require (scName.owner() == scOwner, \"only sc owner\");\r\n        \r\n        NameStruct memory n;\r\n        n.owner = scOwner;\r\n        n.scName = scNameAddress;\r\n        n.name = name;\r\n\r\n        nameInfo.push(n);\r\n        uint256 index = nameInfo.length;    //Attention: real location is index-1!\r\n        ownerIndex[scOwner] = index;\r\n        scNameIndex[scNameAddress] = index;\r\n        \r\n        _addInPortfolio(scOwner, scNameAddress);\r\n\r\n        emit NameAdded(scNameAddress, scOwner, name);\r\n        return true;\r\n    }    \r\n\r\n    function _addInPortfolio(address scOwner, address scNameAddress) private returns (bool) {\r\n        if (!studentList.isStudent(scOwner))\r\n            return false;\r\n\r\n        StudentStruct memory s = studentList.getStudentByAddress(scOwner);        \r\n        if (s.portfolioAddress != address(0x0)) {\r\n            iStudentPortfolio p = iStudentPortfolio(s.portfolioAddress);\r\n            p.addProject(scNameAddress, PROJECT_NAME);\r\n        }\r\n        \r\n        return true;\r\n    }\r\n\r\n    function deleteName () public returns (bool) {\r\n        _deleteName (msg.sender);\r\n        return true;        \r\n    }\r\n\r\n    function deleteNameBySC (address scOwner) public onlyOwner returns (bool) {\r\n        _deleteName (scOwner);\r\n        return true;        \r\n    }\r\n\r\n    function _deleteName (address scOwner) private returns (bool) {\r\n        require (existsOwner(scOwner), \"owner not exists\");\r\n\r\n        uint256 indexToDelete = ownerIndex[scOwner] - 1;\r\n        address scNameToDelete = nameInfo[indexToDelete].scName;\r\n\r\n        uint256 indexToMove = nameInfo.length - 1;\r\n        address ownerToMove = nameInfo[indexToMove].owner;\r\n        address scNameToMove = nameInfo[indexToMove].scName;\r\n\r\n        nameInfo[indexToDelete] = nameInfo[indexToMove];\r\n        ownerIndex[ownerToMove] = indexToDelete + 1;\r\n        scNameIndex[scNameToMove] = indexToDelete + 1;\r\n\r\n        delete ownerIndex[scOwner];\r\n        delete scNameIndex[scNameToDelete];\r\n        nameInfo.pop();\r\n        \r\n        StudentStruct memory s = studentList.getStudentByAddress(scOwner); \r\n        if (s.portfolioAddress != address(0x0)) {\r\n            iStudentPortfolio p = iStudentPortfolio(s.portfolioAddress);\r\n            p.deleteProjectByAddress(scNameToDelete);\r\n        }\r\n\r\n        emit NameDeleted (scOwner, scNameToDelete);\r\n        return true;\r\n    }\r\n    \r\n    function updateStudentList(address addressStudentList) public onlyOwner returns (bool) {\r\n        studentList = iAcademyStudents(addressStudentList);\r\n        return true;\r\n    }\r\n    \r\n    //Owner can have more than one SCName? NO\r\n    function existsOwner(address account) public view returns (bool) {\r\n        if (ownerIndex[account] == 0)\r\n            return false;\r\n        else\r\n            return true;\r\n    }\r\n    \r\n    function existsScName(address scAddress) public view returns (bool) {\r\n        if (scNameIndex[scAddress] == 0)\r\n            return false;\r\n        else\r\n            return true;\r\n    }\r\n    \r\n    function checkName (address scNameAddress, string memory name) public view returns (bool) {\r\n        //Name stored in scName equal name_\r\n        iName scName = iName(scNameAddress);\r\n        string memory nameInSC = scName.getName();\r\n        if (compareStrings(nameInSC, name)) {\r\n            return true;\r\n        }\r\n        return false;\r\n    }\r\n    \r\n    function listNameInfo () public view returns (NameStruct[] memory) {\r\n        return nameInfo;\r\n    }\r\n    \r\n    function countNames () public view returns (uint) {\r\n        return (nameInfo.length);\r\n    }\r\n\r\n    function getOwnerSc (address scNameAddress) public view returns (address) {\r\n        iName scName = iName(scNameAddress);\r\n        return scName.owner();\r\n    }\r\n    \r\n    function getName (address scNameAddress) public view returns (string memory) {\r\n        iName scName = iName(scNameAddress);\r\n        return scName.getName();\r\n    }\r\n    \r\n    function getNameInfoByOwner (address account) public view returns (NameStruct memory) {\r\n        return nameInfo[ownerIndex[account]];\r\n    }    \r\n\r\n    function getNameInfoByNameSC (address scNameAddress) public view returns (NameStruct memory) {\r\n        return nameInfo[scNameIndex[scNameAddress]];\r\n    }    \r\n\r\n    function getNameInfoByIndex (uint256 index) public view returns (NameStruct memory) {\r\n        return nameInfo[index-1];\r\n    } \r\n    \r\n    function compareStrings(string memory a, string memory b) private pure returns (bool) {\r\n        return (keccak256(abi.encodePacked((a))) == keccak256(abi.encodePacked((b))));\r\n    }    \r\n}\r\n",
  "sourcePath": "C:/ACADEMY/GITHUB/rsk-academy-dapp/contracts/MasterName.sol",
  "compiler": {
    "name": "solc",
    "version": "0.8.1+commit.df193b15.Emscripten.clang"
  },
  "schemaVersion": "3.3.3",
  "updatedAt": "2021-03-06T18:19:26.333Z",
  "networkType": "ethereum",
  "devdoc": {
    "kind": "dev",
    "methods": {
      "getRoleAdmin(bytes32)": {
        "details": "Returns the admin role that controls `role`. See {grantRole} and {revokeRole}. To change a role's admin, use {_setRoleAdmin}."
      },
      "getRoleMember(bytes32,uint256)": {
        "details": "Returns one of the accounts that have `role`. `index` must be a value between 0 and {getRoleMemberCount}, non-inclusive. Role bearers are not sorted in any particular way, and their ordering may change at any point. WARNING: When using {getRoleMember} and {getRoleMemberCount}, make sure you perform all queries on the same block. See the following https://forum.openzeppelin.com/t/iterating-over-elements-on-enumerableset-in-openzeppelin-contracts/2296[forum post] for more information."
      },
      "getRoleMemberCount(bytes32)": {
        "details": "Returns the number of accounts that have `role`. Can be used together with {getRoleMember} to enumerate all bearers of a role."
      },
      "grantRole(bytes32,address)": {
        "details": "Grants `role` to `account`. If `account` had not been already granted `role`, emits a {RoleGranted} event. Requirements: - the caller must have ``role``'s admin role."
      },
      "hasRole(bytes32,address)": {
        "details": "Returns `true` if `account` has been granted `role`."
      },
      "renounceRole(bytes32,address)": {
        "details": "Revokes `role` from the calling account. Roles are often managed via {grantRole} and {revokeRole}: this function's purpose is to provide a mechanism for accounts to lose their privileges if they are compromised (such as when a trusted device is misplaced). If the calling account had been granted `role`, emits a {RoleRevoked} event. Requirements: - the caller must be `account`."
      },
      "revokeRole(bytes32,address)": {
        "details": "Revokes `role` from `account`. If `account` had been granted `role`, emits a {RoleRevoked} event. Requirements: - the caller must have ``role``'s admin role."
      }
    },
    "version": 1
  },
  "userdoc": {
    "kind": "user",
    "methods": {},
    "version": 1
  }
}