{
  "contractName": "MasterQuote",
  "abi": [
    {
      "inputs": [
        {
          "internalType": "address",
          "name": "addressStudentList",
          "type": "address"
        }
      ],
      "stateMutability": "nonpayable",
      "type": "constructor"
    },
    {
      "anonymous": false,
      "inputs": [
        {
          "indexed": true,
          "internalType": "address",
          "name": "owner",
          "type": "address"
        },
        {
          "indexed": true,
          "internalType": "address",
          "name": "scProject",
          "type": "address"
        }
      ],
      "name": "ProjectAdded",
      "type": "event"
    },
    {
      "anonymous": false,
      "inputs": [
        {
          "indexed": true,
          "internalType": "address",
          "name": "owner",
          "type": "address"
        },
        {
          "indexed": true,
          "internalType": "address",
          "name": "scProject",
          "type": "address"
        }
      ],
      "name": "ProjectDeleted",
      "type": "event"
    },
    {
      "anonymous": false,
      "inputs": [
        {
          "indexed": true,
          "internalType": "bytes32",
          "name": "role",
          "type": "bytes32"
        },
        {
          "indexed": true,
          "internalType": "bytes32",
          "name": "previousAdminRole",
          "type": "bytes32"
        },
        {
          "indexed": true,
          "internalType": "bytes32",
          "name": "newAdminRole",
          "type": "bytes32"
        }
      ],
      "name": "RoleAdminChanged",
      "type": "event"
    },
    {
      "anonymous": false,
      "inputs": [
        {
          "indexed": true,
          "internalType": "bytes32",
          "name": "role",
          "type": "bytes32"
        },
        {
          "indexed": true,
          "internalType": "address",
          "name": "account",
          "type": "address"
        },
        {
          "indexed": true,
          "internalType": "address",
          "name": "sender",
          "type": "address"
        }
      ],
      "name": "RoleGranted",
      "type": "event"
    },
    {
      "anonymous": false,
      "inputs": [
        {
          "indexed": true,
          "internalType": "bytes32",
          "name": "role",
          "type": "bytes32"
        },
        {
          "indexed": true,
          "internalType": "address",
          "name": "account",
          "type": "address"
        },
        {
          "indexed": true,
          "internalType": "address",
          "name": "sender",
          "type": "address"
        }
      ],
      "name": "RoleRevoked",
      "type": "event"
    },
    {
      "inputs": [],
      "name": "DEFAULT_ADMIN_ROLE",
      "outputs": [
        {
          "internalType": "bytes32",
          "name": "",
          "type": "bytes32"
        }
      ],
      "stateMutability": "view",
      "type": "function"
    },
    {
      "inputs": [
        {
          "internalType": "bytes32",
          "name": "role",
          "type": "bytes32"
        }
      ],
      "name": "getRoleAdmin",
      "outputs": [
        {
          "internalType": "bytes32",
          "name": "",
          "type": "bytes32"
        }
      ],
      "stateMutability": "view",
      "type": "function"
    },
    {
      "inputs": [
        {
          "internalType": "bytes32",
          "name": "role",
          "type": "bytes32"
        },
        {
          "internalType": "uint256",
          "name": "index",
          "type": "uint256"
        }
      ],
      "name": "getRoleMember",
      "outputs": [
        {
          "internalType": "address",
          "name": "",
          "type": "address"
        }
      ],
      "stateMutability": "view",
      "type": "function"
    },
    {
      "inputs": [
        {
          "internalType": "bytes32",
          "name": "role",
          "type": "bytes32"
        }
      ],
      "name": "getRoleMemberCount",
      "outputs": [
        {
          "internalType": "uint256",
          "name": "",
          "type": "uint256"
        }
      ],
      "stateMutability": "view",
      "type": "function"
    },
    {
      "inputs": [
        {
          "internalType": "bytes32",
          "name": "role",
          "type": "bytes32"
        },
        {
          "internalType": "address",
          "name": "account",
          "type": "address"
        }
      ],
      "name": "grantRole",
      "outputs": [],
      "stateMutability": "nonpayable",
      "type": "function"
    },
    {
      "inputs": [
        {
          "internalType": "bytes32",
          "name": "role",
          "type": "bytes32"
        },
        {
          "internalType": "address",
          "name": "account",
          "type": "address"
        }
      ],
      "name": "hasRole",
      "outputs": [
        {
          "internalType": "bool",
          "name": "",
          "type": "bool"
        }
      ],
      "stateMutability": "view",
      "type": "function"
    },
    {
      "inputs": [
        {
          "internalType": "bytes32",
          "name": "role",
          "type": "bytes32"
        },
        {
          "internalType": "address",
          "name": "account",
          "type": "address"
        }
      ],
      "name": "renounceRole",
      "outputs": [],
      "stateMutability": "nonpayable",
      "type": "function"
    },
    {
      "inputs": [
        {
          "internalType": "bytes32",
          "name": "role",
          "type": "bytes32"
        },
        {
          "internalType": "address",
          "name": "account",
          "type": "address"
        }
      ],
      "name": "revokeRole",
      "outputs": [],
      "stateMutability": "nonpayable",
      "type": "function"
    },
    {
      "inputs": [],
      "name": "studentList",
      "outputs": [
        {
          "internalType": "contract iAcademyStudents",
          "name": "",
          "type": "address"
        }
      ],
      "stateMutability": "view",
      "type": "function"
    },
    {
      "inputs": [
        {
          "internalType": "address",
          "name": "scProjectAddress",
          "type": "address"
        }
      ],
      "name": "validate",
      "outputs": [
        {
          "internalType": "bool",
          "name": "",
          "type": "bool"
        }
      ],
      "stateMutability": "nonpayable",
      "type": "function"
    },
    {
      "inputs": [
        {
          "internalType": "address",
          "name": "scOwner",
          "type": "address"
        },
        {
          "internalType": "address",
          "name": "scProjectAddress",
          "type": "address"
        }
      ],
      "name": "validateBySC",
      "outputs": [
        {
          "internalType": "bool",
          "name": "",
          "type": "bool"
        }
      ],
      "stateMutability": "nonpayable",
      "type": "function"
    },
    {
      "inputs": [],
      "name": "deleteProject",
      "outputs": [
        {
          "internalType": "bool",
          "name": "",
          "type": "bool"
        }
      ],
      "stateMutability": "nonpayable",
      "type": "function"
    },
    {
      "inputs": [
        {
          "internalType": "address",
          "name": "scOwner",
          "type": "address"
        }
      ],
      "name": "deleteProjectBySC",
      "outputs": [
        {
          "internalType": "bool",
          "name": "",
          "type": "bool"
        }
      ],
      "stateMutability": "nonpayable",
      "type": "function"
    },
    {
      "inputs": [
        {
          "internalType": "address",
          "name": "addressStudentList",
          "type": "address"
        }
      ],
      "name": "updateStudentList",
      "outputs": [
        {
          "internalType": "bool",
          "name": "",
          "type": "bool"
        }
      ],
      "stateMutability": "nonpayable",
      "type": "function"
    },
    {
      "inputs": [
        {
          "internalType": "address",
          "name": "account",
          "type": "address"
        }
      ],
      "name": "existsOwner",
      "outputs": [
        {
          "internalType": "bool",
          "name": "",
          "type": "bool"
        }
      ],
      "stateMutability": "view",
      "type": "function"
    },
    {
      "inputs": [
        {
          "internalType": "address",
          "name": "scAddress",
          "type": "address"
        }
      ],
      "name": "existsScProject",
      "outputs": [
        {
          "internalType": "bool",
          "name": "",
          "type": "bool"
        }
      ],
      "stateMutability": "view",
      "type": "function"
    },
    {
      "inputs": [],
      "name": "listProjectsInfo",
      "outputs": [
        {
          "components": [
            {
              "internalType": "address",
              "name": "owner",
              "type": "address"
            },
            {
              "internalType": "address",
              "name": "scProject",
              "type": "address"
            },
            {
              "internalType": "string",
              "name": "info",
              "type": "string"
            }
          ],
          "internalType": "struct StudentProjectStruct[]",
          "name": "",
          "type": "tuple[]"
        }
      ],
      "stateMutability": "view",
      "type": "function"
    },
    {
      "inputs": [],
      "name": "countProjects",
      "outputs": [
        {
          "internalType": "uint256",
          "name": "",
          "type": "uint256"
        }
      ],
      "stateMutability": "view",
      "type": "function"
    },
    {
      "inputs": [
        {
          "internalType": "uint256",
          "name": "index",
          "type": "uint256"
        }
      ],
      "name": "getProjectByIndex",
      "outputs": [
        {
          "components": [
            {
              "internalType": "address",
              "name": "owner",
              "type": "address"
            },
            {
              "internalType": "address",
              "name": "scProject",
              "type": "address"
            },
            {
              "internalType": "string",
              "name": "info",
              "type": "string"
            }
          ],
          "internalType": "struct StudentProjectStruct",
          "name": "",
          "type": "tuple"
        }
      ],
      "stateMutability": "view",
      "type": "function"
    },
    {
      "inputs": [
        {
          "internalType": "address",
          "name": "scOwner",
          "type": "address"
        }
      ],
      "name": "getProjectByOwner",
      "outputs": [
        {
          "components": [
            {
              "internalType": "address",
              "name": "owner",
              "type": "address"
            },
            {
              "internalType": "address",
              "name": "scProject",
              "type": "address"
            },
            {
              "internalType": "string",
              "name": "info",
              "type": "string"
            }
          ],
          "internalType": "struct StudentProjectStruct",
          "name": "",
          "type": "tuple"
        }
      ],
      "stateMutability": "view",
      "type": "function"
    }
  ],
  "bytecode": "0x60806040523480156200001157600080fd5b50604051620031de380380620031de833981810160405281019062000037919062000241565b6200004c6000801b336200009460201b60201c565b80600160006101000a81548173ffffffffffffffffffffffffffffffffffffffff021916908373ffffffffffffffffffffffffffffffffffffffff16021790555050620002bb565b620000a68282620000aa60201b60201c565b5050565b620000d8816000808581526020019081526020016000206000016200014d60201b62000e1c1790919060201c565b156200014957620000ee6200018560201b60201c565b73ffffffffffffffffffffffffffffffffffffffff168173ffffffffffffffffffffffffffffffffffffffff16837f2f8788117e7eff1d82e926ec794901d17c78024a50270940304540a733656f0d60405160405180910390a45b5050565b60006200017d836000018373ffffffffffffffffffffffffffffffffffffffff1660001b6200018d60201b60201c565b905092915050565b600033905090565b6000620001a183836200020760201b60201c565b620001fc57826000018290806001815401808255809150506001900390600052602060002001600090919091909150558260000180549050836001016000848152602001908152602001600020819055506001905062000201565b600090505b92915050565b600080836001016000848152602001908152602001600020541415905092915050565b6000815190506200023b81620002a1565b92915050565b6000602082840312156200025457600080fd5b600062000264848285016200022a565b91505092915050565b60006200027a8262000281565b9050919050565b600073ffffffffffffffffffffffffffffffffffffffff82169050919050565b620002ac816200026d565b8114620002b857600080fd5b50565b612f1380620002cb6000396000f3fe608060405234801561001057600080fd5b506004361061012c5760003560e01c80639010d07c116100ad578063d43e001a11610071578063d43e001a146103a3578063d547741f146103c1578063ecff58df146103dd578063f7903c2a146103fb578063ffacd3491461042b5761012c565b80639010d07c146102c557806391d14854146102f5578063a217fddf14610325578063b8d99d6214610343578063ca15c873146103735761012c565b80632b7e328a116100f45780632b7e328a146101fd5780632f2ff15d1461022d57806336568abe146102495780638edb4a43146102655780638f1b8293146102955761012c565b806303db6385146101315780630cf0f9bd14610161578063207c64fb1461017f578063248a9ca3146101af5780632941b725146101df575b600080fd5b61014b60048036038101906101469190612315565b61045b565b6040516101589190612828565b60405180910390f35b6101696104be565b6040516101769190612806565b60405180910390f35b610199600480360381019061019491906122ec565b61065b565b6040516101a69190612828565b60405180910390f35b6101c960048036038101906101c4919061237a565b610671565b6040516101d69190612843565b60405180910390f35b6101e7610690565b6040516101f49190612828565b60405180910390f35b6102176004803603810190610212919061245c565b6106a3565b6040516102249190612979565b60405180910390f35b610247600480360381019061024291906123a3565b61084f565b005b610263600480360381019061025e91906123a3565b6108c2565b005b61027f600480360381019061027a91906122ec565b610945565b60405161028c9190612828565b60405180910390f35b6102af60048036038101906102aa91906122ec565b6109dd565b6040516102bc9190612828565b60405180910390f35b6102df60048036038101906102da91906123df565b610a39565b6040516102ec91906127bb565b60405180910390f35b61030f600480360381019061030a91906123a3565b610a6a565b60405161031c9190612828565b60405180910390f35b61032d610a9b565b60405161033a9190612843565b60405180910390f35b61035d600480360381019061035891906122ec565b610aa2565b60405161036a9190612828565b60405180910390f35b61038d6004803603810190610388919061237a565b610b03565b60405161039a919061299b565b60405180910390f35b6103ab610b29565b6040516103b8919061285e565b60405180910390f35b6103db60048036038101906103d691906123a3565b610b4f565b005b6103e5610bc2565b6040516103f2919061299b565b60405180910390f35b610415600480360381019061041091906122ec565b610bcf565b6040516104229190612979565b60405180910390f35b610445600480360381019061044091906122ec565b610dc0565b6040516104529190612828565b60405180910390f35b600061046a6000801b33610a6a565b6104a9576040517f08c379a00000000000000000000000000000000000000000000000000000000081526004016104a0906128d9565b60405180910390fd5b6104b38383610e4c565b506001905092915050565b60606002805480602002602001604051908101604052809291908181526020016000905b8282101561065257838290600052602060002090600302016040518060600160405290816000820160009054906101000a900473ffffffffffffffffffffffffffffffffffffffff1673ffffffffffffffffffffffffffffffffffffffff1673ffffffffffffffffffffffffffffffffffffffff1681526020016001820160009054906101000a900473ffffffffffffffffffffffffffffffffffffffff1673ffffffffffffffffffffffffffffffffffffffff1673ffffffffffffffffffffffffffffffffffffffff1681526020016002820180546105c190612ba0565b80601f01602080910402602001604051908101604052809291908181526020018280546105ed90612ba0565b801561063a5780601f1061060f5761010080835404028352916020019161063a565b820191906000526020600020905b81548152906001019060200180831161061d57829003601f168201915b505050505081525050815260200190600101906104e2565b50505050905090565b60006106673383610e4c565b5060019050919050565b6000806000838152602001908152602001600020600201549050919050565b600061069b33611134565b506001905090565b6106ab611f7b565b60026001836106ba9190612ac3565b815481106106f1577f4e487b7100000000000000000000000000000000000000000000000000000000600052603260045260246000fd5b90600052602060002090600302016040518060600160405290816000820160009054906101000a900473ffffffffffffffffffffffffffffffffffffffff1673ffffffffffffffffffffffffffffffffffffffff1673ffffffffffffffffffffffffffffffffffffffff1681526020016001820160009054906101000a900473ffffffffffffffffffffffffffffffffffffffff1673ffffffffffffffffffffffffffffffffffffffff1673ffffffffffffffffffffffffffffffffffffffff1681526020016002820180546107c690612ba0565b80601f01602080910402602001604051908101604052809291908181526020018280546107f290612ba0565b801561083f5780601f106108145761010080835404028352916020019161083f565b820191906000526020600020905b81548152906001019060200180831161082257829003601f168201915b5050505050815250509050919050565b61087560008084815260200190815260200160002060020154610870611876565b610a6a565b6108b4576040517f08c379a00000000000000000000000000000000000000000000000000000000081526004016108ab90612899565b60405180910390fd5b6108be828261187e565b5050565b6108ca611876565b73ffffffffffffffffffffffffffffffffffffffff168173ffffffffffffffffffffffffffffffffffffffff1614610937576040517f08c379a000000000000000000000000000000000000000000000000000000000815260040161092e90612959565b60405180910390fd5b6109418282611911565b5050565b60006109546000801b33610a6a565b610993576040517f08c379a000000000000000000000000000000000000000000000000000000000815260040161098a906128d9565b60405180910390fd5b81600160006101000a81548173ffffffffffffffffffffffffffffffffffffffff021916908373ffffffffffffffffffffffffffffffffffffffff16021790555060019050919050565b600080600360008473ffffffffffffffffffffffffffffffffffffffff1673ffffffffffffffffffffffffffffffffffffffff168152602001908152602001600020541415610a2f5760009050610a34565b600190505b919050565b6000610a62826000808681526020019081526020016000206000016119a490919063ffffffff16565b905092915050565b6000610a93826000808681526020019081526020016000206000016119be90919063ffffffff16565b905092915050565b6000801b81565b6000610ab16000801b33610a6a565b610af0576040517f08c379a0000000000000000000000000000000000000000000000000000000008152600401610ae7906128d9565b60405180910390fd5b610af982611134565b5060019050919050565b6000610b226000808481526020019081526020016000206000016119ee565b9050919050565b600160009054906101000a900473ffffffffffffffffffffffffffffffffffffffff1681565b610b7560008084815260200190815260200160002060020154610b70611876565b610a6a565b610bb4576040517f08c379a0000000000000000000000000000000000000000000000000000000008152600401610bab906128b9565b60405180910390fd5b610bbe8282611911565b5050565b6000600280549050905090565b610bd7611f7b565b6000600360008473ffffffffffffffffffffffffffffffffffffffff1673ffffffffffffffffffffffffffffffffffffffff1681526020019081526020016000205490506002600182610c2a9190612ac3565b81548110610c61577f4e487b7100000000000000000000000000000000000000000000000000000000600052603260045260246000fd5b90600052602060002090600302016040518060600160405290816000820160009054906101000a900473ffffffffffffffffffffffffffffffffffffffff1673ffffffffffffffffffffffffffffffffffffffff1673ffffffffffffffffffffffffffffffffffffffff1681526020016001820160009054906101000a900473ffffffffffffffffffffffffffffffffffffffff1673ffffffffffffffffffffffffffffffffffffffff1673ffffffffffffffffffffffffffffffffffffffff168152602001600282018054610d3690612ba0565b80601f0160208091040260200160405190810160405280929190818152602001828054610d6290612ba0565b8015610daf5780601f10610d8457610100808354040283529160200191610daf565b820191906000526020600020905b815481529060010190602001808311610d9257829003601f168201915b505050505081525050915050919050565b600080600460008473ffffffffffffffffffffffffffffffffffffffff1673ffffffffffffffffffffffffffffffffffffffff168152602001908152602001600020541415610e125760009050610e17565b600190505b919050565b6000610e44836000018373ffffffffffffffffffffffffffffffffffffffff1660001b611a03565b905092915050565b6000610e5782610dc0565b15610e97576040517f08c379a0000000000000000000000000000000000000000000000000000000008152600401610e8e906128f9565b60405180910390fd5b610ea0836109dd565b15610ee0576040517f08c379a0000000000000000000000000000000000000000000000000000000008152600401610ed790612919565b60405180910390fd5b610ee8611f7b565b83816000019073ffffffffffffffffffffffffffffffffffffffff16908173ffffffffffffffffffffffffffffffffffffffff168152505082816020019073ffffffffffffffffffffffffffffffffffffffff16908173ffffffffffffffffffffffffffffffffffffffff1681525050600281908060018154018082558091505060019003906000526020600020906003020160009091909190915060008201518160000160006101000a81548173ffffffffffffffffffffffffffffffffffffffff021916908373ffffffffffffffffffffffffffffffffffffffff16021790555060208201518160010160006101000a81548173ffffffffffffffffffffffffffffffffffffffff021916908373ffffffffffffffffffffffffffffffffffffffff160217905550604082015181600201908051906020019061102e929190611fc8565b5050506000600280549050905080600360008773ffffffffffffffffffffffffffffffffffffffff1673ffffffffffffffffffffffffffffffffffffffff1681526020019081526020016000208190555080600460008673ffffffffffffffffffffffffffffffffffffffff1673ffffffffffffffffffffffffffffffffffffffff168152602001908152602001600020819055506110cd8585611a73565b508373ffffffffffffffffffffffffffffffffffffffff168573ffffffffffffffffffffffffffffffffffffffff167fd190470f26407852e2c67d5ab34aa04986a29e088aeca7b0745bfb3bef0112c860405160405180910390a360019250505092915050565b600061113f826109dd565b61117e576040517f08c379a000000000000000000000000000000000000000000000000000000000815260040161117590612939565b60405180910390fd5b60006001600360008573ffffffffffffffffffffffffffffffffffffffff1673ffffffffffffffffffffffffffffffffffffffff168152602001908152602001600020546111cc9190612ac3565b905060006002828154811061120a577f4e487b7100000000000000000000000000000000000000000000000000000000600052603260045260246000fd5b906000526020600020906003020160010160009054906101000a900473ffffffffffffffffffffffffffffffffffffffff169050600060016002805490506112529190612ac3565b9050600060028281548110611290577f4e487b7100000000000000000000000000000000000000000000000000000000600052603260045260246000fd5b906000526020600020906003020160000160009054906101000a900473ffffffffffffffffffffffffffffffffffffffff169050600060028381548110611300577f4e487b7100000000000000000000000000000000000000000000000000000000600052603260045260246000fd5b906000526020600020906003020160010160009054906101000a900473ffffffffffffffffffffffffffffffffffffffff1690506002838154811061136e577f4e487b7100000000000000000000000000000000000000000000000000000000600052603260045260246000fd5b9060005260206000209060030201600286815481106113b6577f4e487b7100000000000000000000000000000000000000000000000000000000600052603260045260246000fd5b90600052602060002090600302016000820160009054906101000a900473ffffffffffffffffffffffffffffffffffffffff168160000160006101000a81548173ffffffffffffffffffffffffffffffffffffffff021916908373ffffffffffffffffffffffffffffffffffffffff1602179055506001820160009054906101000a900473ffffffffffffffffffffffffffffffffffffffff168160010160006101000a81548173ffffffffffffffffffffffffffffffffffffffff021916908373ffffffffffffffffffffffffffffffffffffffff16021790555060028201816002019080546114a690612ba0565b6114b192919061204e565b509050506001856114c29190612a6d565b600360008473ffffffffffffffffffffffffffffffffffffffff1673ffffffffffffffffffffffffffffffffffffffff168152602001908152602001600020819055506001856115129190612a6d565b600460008373ffffffffffffffffffffffffffffffffffffffff1673ffffffffffffffffffffffffffffffffffffffff16815260200190815260200160002081905550600360008873ffffffffffffffffffffffffffffffffffffffff1673ffffffffffffffffffffffffffffffffffffffff16815260200190815260200160002060009055600460008573ffffffffffffffffffffffffffffffffffffffff1673ffffffffffffffffffffffffffffffffffffffff168152602001908152602001600020600090556002805480611613577f4e487b7100000000000000000000000000000000000000000000000000000000600052603160045260246000fd5b6001900381819060005260206000209060030201600080820160006101000a81549073ffffffffffffffffffffffffffffffffffffffff02191690556001820160006101000a81549073ffffffffffffffffffffffffffffffffffffffff021916905560028201600061168691906120db565b505090556000600160009054906101000a900473ffffffffffffffffffffffffffffffffffffffff1673ffffffffffffffffffffffffffffffffffffffff16639f3da5cc896040518263ffffffff1660e01b81526004016116e791906127bb565b60006040518083038186803b1580156116ff57600080fd5b505afa158015611713573d6000803e3d6000fd5b505050506040513d6000823e3d601f19601f8201168201806040525081019061173c919061241b565b9050600073ffffffffffffffffffffffffffffffffffffffff16816040015173ffffffffffffffffffffffffffffffffffffffff161461180d576000816040015190508073ffffffffffffffffffffffffffffffffffffffff1663f4a496b7876040518263ffffffff1660e01b81526004016117b891906127bb565b602060405180830381600087803b1580156117d257600080fd5b505af11580156117e6573d6000803e3d6000fd5b505050506040513d601f19601f8201168201806040525081019061180a9190612351565b50505b8473ffffffffffffffffffffffffffffffffffffffff168873ffffffffffffffffffffffffffffffffffffffff167f2a6e09f426ecde7ef28b57b915feca3507f253e1a6319c107ba40d884715ec2b60405160405180910390a360019650505050505050919050565b600033905090565b6118a581600080858152602001908152602001600020600001610e1c90919063ffffffff16565b1561190d576118b2611876565b73ffffffffffffffffffffffffffffffffffffffff168173ffffffffffffffffffffffffffffffffffffffff16837f2f8788117e7eff1d82e926ec794901d17c78024a50270940304540a733656f0d60405160405180910390a45b5050565b61193881600080858152602001908152602001600020600001611cf390919063ffffffff16565b156119a057611945611876565b73ffffffffffffffffffffffffffffffffffffffff168173ffffffffffffffffffffffffffffffffffffffff16837ff6391f5c32d9c69d2a47ea670b442974b53935d1edc7fd64eb21e047a839171b60405160405180910390a45b5050565b60006119b38360000183611d23565b60001c905092915050565b60006119e6836000018373ffffffffffffffffffffffffffffffffffffffff1660001b611dbd565b905092915050565b60006119fc82600001611de0565b9050919050565b6000611a0f8383611dbd565b611a68578260000182908060018154018082558091505060019003906000526020600020016000909190919091505582600001805490508360010160008481526020019081526020016000208190555060019050611a6d565b600090505b92915050565b6000600160009054906101000a900473ffffffffffffffffffffffffffffffffffffffff1673ffffffffffffffffffffffffffffffffffffffff166382f7d392846040518263ffffffff1660e01b8152600401611ad091906127bb565b60206040518083038186803b158015611ae857600080fd5b505afa158015611afc573d6000803e3d6000fd5b505050506040513d601f19601f82011682018060405250810190611b209190612351565b611b2d5760009050611ced565b6000600160009054906101000a900473ffffffffffffffffffffffffffffffffffffffff1673ffffffffffffffffffffffffffffffffffffffff16639f3da5cc856040518263ffffffff1660e01b8152600401611b8a91906127bb565b60006040518083038186803b158015611ba257600080fd5b505afa158015611bb6573d6000803e3d6000fd5b505050506040513d6000823e3d601f19601f82011682018060405250810190611bdf919061241b565b9050600073ffffffffffffffffffffffffffffffffffffffff16816040015173ffffffffffffffffffffffffffffffffffffffff1614611ce7576000816040015190508073ffffffffffffffffffffffffffffffffffffffff16638a06d20b856040518060400160405280600581526020017f51756f74650000000000000000000000000000000000000000000000000000008152506040518363ffffffff1660e01b8152600401611c929291906127d6565b602060405180830381600087803b158015611cac57600080fd5b505af1158015611cc0573d6000803e3d6000fd5b505050506040513d601f19601f82011682018060405250810190611ce49190612485565b50505b60019150505b92915050565b6000611d1b836000018373ffffffffffffffffffffffffffffffffffffffff1660001b611df1565b905092915050565b600081836000018054905011611d6e576040517f08c379a0000000000000000000000000000000000000000000000000000000008152600401611d6590612879565b60405180910390fd5b826000018281548110611daa577f4e487b7100000000000000000000000000000000000000000000000000000000600052603260045260246000fd5b9060005260206000200154905092915050565b600080836001016000848152602001908152602001600020541415905092915050565b600081600001805490509050919050565b60008083600101600084815260200190815260200160002054905060008114611f6f576000600182611e239190612ac3565b9050600060018660000180549050611e3b9190612ac3565b90506000866000018281548110611e7b577f4e487b7100000000000000000000000000000000000000000000000000000000600052603260045260246000fd5b9060005260206000200154905080876000018481548110611ec5577f4e487b7100000000000000000000000000000000000000000000000000000000600052603260045260246000fd5b9060005260206000200181905550600183611ee09190612a6d565b8760010160008381526020019081526020016000208190555086600001805480611f33577f4e487b7100000000000000000000000000000000000000000000000000000000600052603160045260246000fd5b60019003818190600052602060002001600090559055866001016000878152602001908152602001600020600090556001945050505050611f75565b60009150505b92915050565b6040518060600160405280600073ffffffffffffffffffffffffffffffffffffffff168152602001600073ffffffffffffffffffffffffffffffffffffffff168152602001606081525090565b828054611fd490612ba0565b90600052602060002090601f016020900481019282611ff6576000855561203d565b82601f1061200f57805160ff191683800117855561203d565b8280016001018555821561203d579182015b8281111561203c578251825591602001919060010190612021565b5b50905061204a919061211b565b5090565b82805461205a90612ba0565b90600052602060002090601f01602090048101928261207c57600085556120ca565b82601f1061208d57805485556120ca565b828001600101855582156120ca57600052602060002091601f016020900482015b828111156120c95782548255916001019190600101906120ae565b5b5090506120d7919061211b565b5090565b5080546120e790612ba0565b6000825580601f106120f95750612118565b601f016020900490600052602060002090810190612117919061211b565b5b50565b5b8082111561213457600081600090555060010161211c565b5090565b600061214b612146846129db565b6129b6565b9050808382526020820190508285602086028201111561216a57600080fd5b60005b8581101561219a578161218088826121b9565b84526020840193506020830192505060018101905061216d565b5050509392505050565b6000813590506121b381612e81565b92915050565b6000815190506121c881612e81565b92915050565b600082601f8301126121df57600080fd5b81516121ef848260208601612138565b91505092915050565b60008151905061220781612e98565b92915050565b60008135905061221c81612eaf565b92915050565b600060a0828403121561223457600080fd5b61223e60a06129b6565b9050600061224e848285016122d7565b6000830152506020612262848285016121b9565b6020830152506040612276848285016121b9565b604083015250606061228a848285016121b9565b606083015250608082015167ffffffffffffffff8111156122aa57600080fd5b6122b6848285016121ce565b60808301525092915050565b6000813590506122d181612ec6565b92915050565b6000815190506122e681612ec6565b92915050565b6000602082840312156122fe57600080fd5b600061230c848285016121a4565b91505092915050565b6000806040838503121561232857600080fd5b6000612336858286016121a4565b9250506020612347858286016121a4565b9150509250929050565b60006020828403121561236357600080fd5b6000612371848285016121f8565b91505092915050565b60006020828403121561238c57600080fd5b600061239a8482850161220d565b91505092915050565b600080604083850312156123b657600080fd5b60006123c48582860161220d565b92505060206123d5858286016121a4565b9150509250929050565b600080604083850312156123f257600080fd5b60006124008582860161220d565b9250506020612411858286016122c2565b9150509250929050565b60006020828403121561242d57600080fd5b600082015167ffffffffffffffff81111561244757600080fd5b61245384828501612222565b91505092915050565b60006020828403121561246e57600080fd5b600061247c848285016122c2565b91505092915050565b60006020828403121561249757600080fd5b60006124a5848285016122d7565b91505092915050565b60006124ba838361270c565b905092915050565b6124cb81612af7565b82525050565b6124da81612af7565b82525050565b60006124eb82612a17565b6124f58185612a3a565b93508360208202850161250785612a07565b8060005b85811015612543578484038952815161252485826124ae565b945061252f83612a2d565b925060208a0199505060018101905061250b565b50829750879550505050505092915050565b61255e81612b09565b82525050565b61256d81612b15565b82525050565b61257c81612b49565b82525050565b600061258d82612a22565b6125978185612a4b565b93506125a7818560208601612b6d565b6125b081612c90565b840191505092915050565b60006125c682612a22565b6125d08185612a5c565b93506125e0818560208601612b6d565b6125e981612c90565b840191505092915050565b6000612601602283612a5c565b915061260c82612ca1565b604082019050919050565b6000612624602f83612a5c565b915061262f82612cf0565b604082019050919050565b6000612647603083612a5c565b915061265282612d3f565b604082019050919050565b600061266a601683612a5c565b915061267582612d8e565b602082019050919050565b600061268d601083612a5c565b915061269882612db7565b602082019050919050565b60006126b0600c83612a5c565b91506126bb82612de0565b602082019050919050565b60006126d3601083612a5c565b91506126de82612e09565b602082019050919050565b60006126f6602f83612a5c565b915061270182612e32565b604082019050919050565b600060608301600083015161272460008601826124c2565b50602083015161273760208601826124c2565b506040830151848203604086015261274f8282612582565b9150508091505092915050565b600060608301600083015161277460008601826124c2565b50602083015161278760208601826124c2565b506040830151848203604086015261279f8282612582565b9150508091505092915050565b6127b581612b3f565b82525050565b60006020820190506127d060008301846124d1565b92915050565b60006040820190506127eb60008301856124d1565b81810360208301526127fd81846125bb565b90509392505050565b6000602082019050818103600083015261282081846124e0565b905092915050565b600060208201905061283d6000830184612555565b92915050565b60006020820190506128586000830184612564565b92915050565b60006020820190506128736000830184612573565b92915050565b60006020820190508181036000830152612892816125f4565b9050919050565b600060208201905081810360008301526128b281612617565b9050919050565b600060208201905081810360008301526128d28161263a565b9050919050565b600060208201905081810360008301526128f28161265d565b9050919050565b6000602082019050818103600083015261291281612680565b9050919050565b60006020820190508181036000830152612932816126a3565b9050919050565b60006020820190508181036000830152612952816126c6565b9050919050565b60006020820190508181036000830152612972816126e9565b9050919050565b60006020820190508181036000830152612993818461275c565b905092915050565b60006020820190506129b060008301846127ac565b92915050565b60006129c06129d1565b90506129cc8282612bd2565b919050565b6000604051905090565b600067ffffffffffffffff8211156129f6576129f5612c61565b5b602082029050602081019050919050565b6000819050602082019050919050565b600081519050919050565b600081519050919050565b6000602082019050919050565b600082825260208201905092915050565b600082825260208201905092915050565b600082825260208201905092915050565b6000612a7882612b3f565b9150612a8383612b3f565b9250827fffffffffffffffffffffffffffffffffffffffffffffffffffffffffffffffff03821115612ab857612ab7612c03565b5b828201905092915050565b6000612ace82612b3f565b9150612ad983612b3f565b925082821015612aec57612aeb612c03565b5b828203905092915050565b6000612b0282612b1f565b9050919050565b60008115159050919050565b6000819050919050565b600073ffffffffffffffffffffffffffffffffffffffff82169050919050565b6000819050919050565b6000612b5482612b5b565b9050919050565b6000612b6682612b1f565b9050919050565b60005b83811015612b8b578082015181840152602081019050612b70565b83811115612b9a576000848401525b50505050565b60006002820490506001821680612bb857607f821691505b60208210811415612bcc57612bcb612c32565b5b50919050565b612bdb82612c90565b810181811067ffffffffffffffff82111715612bfa57612bf9612c61565b5b80604052505050565b7f4e487b7100000000000000000000000000000000000000000000000000000000600052601160045260246000fd5b7f4e487b7100000000000000000000000000000000000000000000000000000000600052602260045260246000fd5b7f4e487b7100000000000000000000000000000000000000000000000000000000600052604160045260246000fd5b6000601f19601f8301169050919050565b7f456e756d657261626c655365743a20696e646578206f7574206f6620626f756e60008201527f6473000000000000000000000000000000000000000000000000000000000000602082015250565b7f416363657373436f6e74726f6c3a2073656e646572206d75737420626520616e60008201527f2061646d696e20746f206772616e740000000000000000000000000000000000602082015250565b7f416363657373436f6e74726f6c3a2073656e646572206d75737420626520616e60008201527f2061646d696e20746f207265766f6b6500000000000000000000000000000000602082015250565b7f4d61737465724e616d653a206f6e6c79206f776e657200000000000000000000600082015250565b7f736350726f6a6563742065786973747300000000000000000000000000000000600082015250565b7f6f776e6572206578697374730000000000000000000000000000000000000000600082015250565b7f6f776e6572206e6f742065786973747300000000000000000000000000000000600082015250565b7f416363657373436f6e74726f6c3a2063616e206f6e6c792072656e6f756e636560008201527f20726f6c657320666f722073656c660000000000000000000000000000000000602082015250565b612e8a81612af7565b8114612e9557600080fd5b50565b612ea181612b09565b8114612eac57600080fd5b50565b612eb881612b15565b8114612ec357600080fd5b50565b612ecf81612b3f565b8114612eda57600080fd5b5056fea2646970667358221220d605b0b8f6b475e071c8842c8d62b435c3c7711b4c40835dc8caac296df05b1f64736f6c63430008010033",
  "immutableReferences": {},
  "source": "// SPDX-License-Identifier: MIT\r\npragma solidity 0.8.1;\r\n\r\n//import \"https://github.com/OpenZeppelin/openzeppelin-contracts/blob/master/contracts/access/AccessControl.sol\";\r\n//import '@openzeppelin/contracts/access/AccessControl.sol';\r\nimport './oz-contracts/access/AccessControl.sol';\r\n\r\nimport './iAcademyStudents.sol';\r\nimport './iStudentPortfolio.sol';\r\n\r\nstruct StudentProjectStruct {\r\n    address owner;\r\n    address scProject;\r\n    string info;\r\n}\r\n\r\ncontract MasterQuote is AccessControl {\r\n\r\n    string constant PROJECT_NAME = \"Quote\";\r\n    iAcademyStudents public studentList;\r\n\r\n    StudentProjectStruct[] private projectInfo;\r\n    mapping(address => uint256) private ownerIndex;\r\n    mapping(address => uint256) private scProjectIndex;\r\n\r\n    constructor(address addressStudentList) {\r\n        _setupRole(DEFAULT_ADMIN_ROLE, msg.sender);\r\n        studentList = iAcademyStudents(addressStudentList);\r\n    }\r\n\r\n    event ProjectAdded (address indexed owner, address indexed scProject);\r\n    event ProjectDeleted (address indexed owner, address indexed scProject);    \r\n\r\n    modifier onlyOwner() {\r\n        require(hasRole(DEFAULT_ADMIN_ROLE, msg.sender), \"MasterName: only owner\");\r\n        _;\r\n    }\r\n\r\n    function validate (address scProjectAddress) public returns (bool) {\r\n        _validate (msg.sender, scProjectAddress);\r\n        return true;\r\n    }\r\n    \r\n    function validateBySC (address scOwner, address scProjectAddress) public onlyOwner returns (bool) {\r\n        _validate (scOwner, scProjectAddress);\r\n        return true;\r\n    }\r\n    \r\n    function _validate (address scOwner, address scProjectAddress) private returns (bool) {\r\n        //Does it already exist?\r\n        require (!existsScProject(scProjectAddress), \"scProject exists\");\r\n        require (!existsOwner(scOwner), \"owner exists\");\r\n        \r\n        //TODO: call Project and validate it\r\n\r\n        //Only owner's sc can add\r\n        //require (scProject.owner() == scOwner, \"only sc owner\");\r\n\r\n        StudentProjectStruct memory sps;\r\n        sps.owner = scOwner;\r\n        sps.scProject = scProjectAddress;\r\n\r\n        projectInfo.push(sps);\r\n        uint256 index = projectInfo.length;    //Attention: real location is index-1!\r\n        ownerIndex[scOwner] = index;\r\n        scProjectIndex[scProjectAddress] = index;\r\n        \r\n        _addInPortfolio(scOwner, scProjectAddress);\r\n\r\n        emit ProjectAdded (scOwner, scProjectAddress);\r\n        return true;\r\n    }    \r\n\r\n    function _addInPortfolio(address scOwner, address scProjectAddress) private returns (bool) {\r\n        if (!studentList.isStudent(scOwner))\r\n            return false;\r\n\r\n        StudentStruct memory s = studentList.getStudentByAddress(scOwner);        \r\n        if (s.portfolioAddress != address(0x0)) {\r\n            iStudentPortfolio p = iStudentPortfolio(s.portfolioAddress);\r\n            p.addProject(scProjectAddress, PROJECT_NAME);\r\n        }        \r\n        return true;\r\n    }\r\n\r\n    function deleteProject () public returns (bool) {\r\n        _deleteProject (msg.sender);\r\n        return true;        \r\n    }\r\n\r\n    function deleteProjectBySC (address scOwner) public onlyOwner returns (bool) {\r\n        _deleteProject (scOwner);\r\n        return true;        \r\n    }\r\n\r\n    function _deleteProject (address scOwner) private returns (bool) {\r\n        require (existsOwner(scOwner), \"owner not exists\");\r\n\r\n        uint256 indexToDelete = ownerIndex[scOwner] - 1;\r\n        address scProjectToDelete = projectInfo[indexToDelete].scProject;\r\n\r\n        uint256 indexToMove = projectInfo.length - 1;\r\n        address ownerToMove = projectInfo[indexToMove].owner;\r\n        address scProjectToMove = projectInfo[indexToMove].scProject;\r\n\r\n        projectInfo[indexToDelete] = projectInfo[indexToMove];\r\n        ownerIndex[ownerToMove] = indexToDelete + 1;\r\n        scProjectIndex[scProjectToMove] = indexToDelete + 1;\r\n\r\n        delete ownerIndex[scOwner];\r\n        delete scProjectIndex[scProjectToDelete];\r\n        projectInfo.pop();\r\n        \r\n        StudentStruct memory s = studentList.getStudentByAddress(scOwner); \r\n        if (s.portfolioAddress != address(0x0)) {\r\n            iStudentPortfolio p = iStudentPortfolio(s.portfolioAddress);\r\n            p.deleteProjectByAddress(scProjectToDelete);\r\n        }\r\n\r\n        emit ProjectDeleted (scOwner, scProjectToDelete);\r\n        return true;\r\n    }\r\n    \r\n    function updateStudentList(address addressStudentList) public onlyOwner returns (bool) {\r\n        studentList = iAcademyStudents(addressStudentList);\r\n        return true;\r\n    }\r\n    \r\n    //Owner can have more than one scProject? NO\r\n    function existsOwner(address account) public view returns (bool) {\r\n        if (ownerIndex[account] == 0)\r\n            return false;\r\n        else\r\n            return true;\r\n    }\r\n    \r\n    function existsScProject(address scAddress) public view returns (bool) {\r\n        if (scProjectIndex[scAddress] == 0)\r\n            return false;\r\n        else\r\n            return true;\r\n    }\r\n    \r\n    function listProjectsInfo () public view returns (StudentProjectStruct[] memory) {\r\n        return projectInfo;\r\n    }\r\n    \r\n    function countProjects () public view returns (uint) {\r\n        return (projectInfo.length);\r\n    }\r\n\r\n    function getProjectByIndex (uint256 index) public view returns (StudentProjectStruct memory) {\r\n        return projectInfo[index - 1];\r\n    }\r\n\r\n    function getProjectByOwner (address scOwner) public view returns (StudentProjectStruct memory) {\r\n        uint256 index = ownerIndex[scOwner];\r\n        return projectInfo[index - 1];\r\n    }        \r\n   \r\n   \r\n}\r\n",
  "sourcePath": "C:/ACADEMY/GITHUB/rsk-academy-dapp/contracts/MasterQuote.sol",
  "compiler": {
    "name": "solc",
    "version": "0.8.1+commit.df193b15.Emscripten.clang"
  },
  "schemaVersion": "3.3.3",
  "updatedAt": "2021-02-23T02:58:18.654Z",
  "networkType": "ethereum",
  "devdoc": {
    "kind": "dev",
    "methods": {
      "getRoleAdmin(bytes32)": {
        "details": "Returns the admin role that controls `role`. See {grantRole} and {revokeRole}. To change a role's admin, use {_setRoleAdmin}."
      },
      "getRoleMember(bytes32,uint256)": {
        "details": "Returns one of the accounts that have `role`. `index` must be a value between 0 and {getRoleMemberCount}, non-inclusive. Role bearers are not sorted in any particular way, and their ordering may change at any point. WARNING: When using {getRoleMember} and {getRoleMemberCount}, make sure you perform all queries on the same block. See the following https://forum.openzeppelin.com/t/iterating-over-elements-on-enumerableset-in-openzeppelin-contracts/2296[forum post] for more information."
      },
      "getRoleMemberCount(bytes32)": {
        "details": "Returns the number of accounts that have `role`. Can be used together with {getRoleMember} to enumerate all bearers of a role."
      },
      "grantRole(bytes32,address)": {
        "details": "Grants `role` to `account`. If `account` had not been already granted `role`, emits a {RoleGranted} event. Requirements: - the caller must have ``role``'s admin role."
      },
      "hasRole(bytes32,address)": {
        "details": "Returns `true` if `account` has been granted `role`."
      },
      "renounceRole(bytes32,address)": {
        "details": "Revokes `role` from the calling account. Roles are often managed via {grantRole} and {revokeRole}: this function's purpose is to provide a mechanism for accounts to lose their privileges if they are compromised (such as when a trusted device is misplaced). If the calling account had been granted `role`, emits a {RoleRevoked} event. Requirements: - the caller must be `account`."
      },
      "revokeRole(bytes32,address)": {
        "details": "Revokes `role` from `account`. If `account` had been granted `role`, emits a {RoleRevoked} event. Requirements: - the caller must have ``role``'s admin role."
      }
    },
    "version": 1
  },
  "userdoc": {
    "kind": "user",
    "methods": {},
    "version": 1
  }
}