{
  "contractName": "StudentPortfolio",
  "abi": [
    {
      "inputs": [
        {
          "internalType": "address",
          "name": "account",
          "type": "address"
        },
        {
          "internalType": "address",
          "name": "addressProjectList",
          "type": "address"
        }
      ],
      "stateMutability": "nonpayable",
      "type": "constructor"
    },
    {
      "anonymous": false,
      "inputs": [
        {
          "indexed": true,
          "internalType": "address",
          "name": "projectAddress",
          "type": "address"
        },
        {
          "indexed": false,
          "internalType": "string",
          "name": "projectName",
          "type": "string"
        }
      ],
      "name": "PortfolioProjectAdded",
      "type": "event"
    },
    {
      "anonymous": false,
      "inputs": [
        {
          "indexed": true,
          "internalType": "address",
          "name": "projectAddress",
          "type": "address"
        },
        {
          "indexed": false,
          "internalType": "string",
          "name": "projectName",
          "type": "string"
        }
      ],
      "name": "PortfolioProjectDeleted",
      "type": "event"
    },
    {
      "anonymous": false,
      "inputs": [
        {
          "indexed": true,
          "internalType": "bytes32",
          "name": "role",
          "type": "bytes32"
        },
        {
          "indexed": true,
          "internalType": "bytes32",
          "name": "previousAdminRole",
          "type": "bytes32"
        },
        {
          "indexed": true,
          "internalType": "bytes32",
          "name": "newAdminRole",
          "type": "bytes32"
        }
      ],
      "name": "RoleAdminChanged",
      "type": "event"
    },
    {
      "anonymous": false,
      "inputs": [
        {
          "indexed": true,
          "internalType": "bytes32",
          "name": "role",
          "type": "bytes32"
        },
        {
          "indexed": true,
          "internalType": "address",
          "name": "account",
          "type": "address"
        },
        {
          "indexed": true,
          "internalType": "address",
          "name": "sender",
          "type": "address"
        }
      ],
      "name": "RoleGranted",
      "type": "event"
    },
    {
      "anonymous": false,
      "inputs": [
        {
          "indexed": true,
          "internalType": "bytes32",
          "name": "role",
          "type": "bytes32"
        },
        {
          "indexed": true,
          "internalType": "address",
          "name": "account",
          "type": "address"
        },
        {
          "indexed": true,
          "internalType": "address",
          "name": "sender",
          "type": "address"
        }
      ],
      "name": "RoleRevoked",
      "type": "event"
    },
    {
      "inputs": [],
      "name": "DEFAULT_ADMIN_ROLE",
      "outputs": [
        {
          "internalType": "bytes32",
          "name": "",
          "type": "bytes32"
        }
      ],
      "stateMutability": "view",
      "type": "function",
      "constant": true
    },
    {
      "inputs": [
        {
          "internalType": "bytes32",
          "name": "role",
          "type": "bytes32"
        }
      ],
      "name": "getRoleAdmin",
      "outputs": [
        {
          "internalType": "bytes32",
          "name": "",
          "type": "bytes32"
        }
      ],
      "stateMutability": "view",
      "type": "function",
      "constant": true
    },
    {
      "inputs": [
        {
          "internalType": "bytes32",
          "name": "role",
          "type": "bytes32"
        },
        {
          "internalType": "uint256",
          "name": "index",
          "type": "uint256"
        }
      ],
      "name": "getRoleMember",
      "outputs": [
        {
          "internalType": "address",
          "name": "",
          "type": "address"
        }
      ],
      "stateMutability": "view",
      "type": "function",
      "constant": true
    },
    {
      "inputs": [
        {
          "internalType": "bytes32",
          "name": "role",
          "type": "bytes32"
        }
      ],
      "name": "getRoleMemberCount",
      "outputs": [
        {
          "internalType": "uint256",
          "name": "",
          "type": "uint256"
        }
      ],
      "stateMutability": "view",
      "type": "function",
      "constant": true
    },
    {
      "inputs": [
        {
          "internalType": "bytes32",
          "name": "role",
          "type": "bytes32"
        },
        {
          "internalType": "address",
          "name": "account",
          "type": "address"
        }
      ],
      "name": "grantRole",
      "outputs": [],
      "stateMutability": "nonpayable",
      "type": "function"
    },
    {
      "inputs": [
        {
          "internalType": "bytes32",
          "name": "role",
          "type": "bytes32"
        },
        {
          "internalType": "address",
          "name": "account",
          "type": "address"
        }
      ],
      "name": "hasRole",
      "outputs": [
        {
          "internalType": "bool",
          "name": "",
          "type": "bool"
        }
      ],
      "stateMutability": "view",
      "type": "function",
      "constant": true
    },
    {
      "inputs": [],
      "name": "projectList",
      "outputs": [
        {
          "internalType": "contract iAcademyProjectList",
          "name": "",
          "type": "address"
        }
      ],
      "stateMutability": "view",
      "type": "function",
      "constant": true
    },
    {
      "inputs": [
        {
          "internalType": "bytes32",
          "name": "role",
          "type": "bytes32"
        },
        {
          "internalType": "address",
          "name": "account",
          "type": "address"
        }
      ],
      "name": "renounceRole",
      "outputs": [],
      "stateMutability": "nonpayable",
      "type": "function"
    },
    {
      "inputs": [
        {
          "internalType": "bytes32",
          "name": "role",
          "type": "bytes32"
        },
        {
          "internalType": "address",
          "name": "account",
          "type": "address"
        }
      ],
      "name": "revokeRole",
      "outputs": [],
      "stateMutability": "nonpayable",
      "type": "function"
    },
    {
      "inputs": [],
      "name": "student",
      "outputs": [
        {
          "internalType": "address",
          "name": "",
          "type": "address"
        }
      ],
      "stateMutability": "view",
      "type": "function",
      "constant": true
    },
    {
      "inputs": [
        {
          "internalType": "address",
          "name": "projectAddress",
          "type": "address"
        },
        {
          "internalType": "string",
          "name": "projectName",
          "type": "string"
        }
      ],
      "name": "addProject",
      "outputs": [
        {
          "internalType": "uint256",
          "name": "",
          "type": "uint256"
        }
      ],
      "stateMutability": "nonpayable",
      "type": "function"
    },
    {
      "inputs": [
        {
          "internalType": "address",
          "name": "projectAddress",
          "type": "address"
        }
      ],
      "name": "deleteProjectByAddress",
      "outputs": [
        {
          "internalType": "bool",
          "name": "",
          "type": "bool"
        }
      ],
      "stateMutability": "nonpayable",
      "type": "function"
    },
    {
      "inputs": [
        {
          "internalType": "address",
          "name": "addressProjectList",
          "type": "address"
        }
      ],
      "name": "updateProjectList",
      "outputs": [
        {
          "internalType": "bool",
          "name": "",
          "type": "bool"
        }
      ],
      "stateMutability": "nonpayable",
      "type": "function"
    },
    {
      "inputs": [
        {
          "internalType": "address",
          "name": "projectAddress",
          "type": "address"
        }
      ],
      "name": "addressInPortfolio",
      "outputs": [
        {
          "internalType": "bool",
          "name": "",
          "type": "bool"
        }
      ],
      "stateMutability": "view",
      "type": "function",
      "constant": true
    },
    {
      "inputs": [
        {
          "internalType": "string",
          "name": "projectName",
          "type": "string"
        }
      ],
      "name": "nameInPortfolio",
      "outputs": [
        {
          "internalType": "bool",
          "name": "",
          "type": "bool"
        }
      ],
      "stateMutability": "view",
      "type": "function",
      "constant": true
    },
    {
      "inputs": [],
      "name": "listPortfolio",
      "outputs": [
        {
          "components": [
            {
              "internalType": "address",
              "name": "projectAddress",
              "type": "address"
            },
            {
              "internalType": "string",
              "name": "name",
              "type": "string"
            }
          ],
          "internalType": "struct PortfolioStruct[]",
          "name": "",
          "type": "tuple[]"
        }
      ],
      "stateMutability": "view",
      "type": "function",
      "constant": true
    },
    {
      "inputs": [],
      "name": "countPortfolio",
      "outputs": [
        {
          "internalType": "uint256",
          "name": "",
          "type": "uint256"
        }
      ],
      "stateMutability": "view",
      "type": "function",
      "constant": true
    },
    {
      "inputs": [
        {
          "internalType": "string",
          "name": "projectName",
          "type": "string"
        }
      ],
      "name": "projectByName",
      "outputs": [
        {
          "components": [
            {
              "internalType": "address",
              "name": "projectAddress",
              "type": "address"
            },
            {
              "internalType": "string",
              "name": "name",
              "type": "string"
            }
          ],
          "internalType": "struct PortfolioStruct",
          "name": "",
          "type": "tuple"
        }
      ],
      "stateMutability": "view",
      "type": "function",
      "constant": true
    },
    {
      "inputs": [
        {
          "internalType": "address",
          "name": "projectAddress",
          "type": "address"
        }
      ],
      "name": "projectByAddress",
      "outputs": [
        {
          "components": [
            {
              "internalType": "address",
              "name": "projectAddress",
              "type": "address"
            },
            {
              "internalType": "string",
              "name": "name",
              "type": "string"
            }
          ],
          "internalType": "struct PortfolioStruct",
          "name": "",
          "type": "tuple"
        }
      ],
      "stateMutability": "view",
      "type": "function",
      "constant": true
    },
    {
      "inputs": [
        {
          "internalType": "uint256",
          "name": "index",
          "type": "uint256"
        }
      ],
      "name": "projectByIndex",
      "outputs": [
        {
          "components": [
            {
              "internalType": "address",
              "name": "projectAddress",
              "type": "address"
            },
            {
              "internalType": "string",
              "name": "name",
              "type": "string"
            }
          ],
          "internalType": "struct PortfolioStruct",
          "name": "",
          "type": "tuple"
        }
      ],
      "stateMutability": "view",
      "type": "function",
      "constant": true
    },
    {
      "inputs": [
        {
          "internalType": "address",
          "name": "projectAddress",
          "type": "address"
        }
      ],
      "name": "indexOfProject",
      "outputs": [
        {
          "internalType": "uint256",
          "name": "",
          "type": "uint256"
        }
      ],
      "stateMutability": "view",
      "type": "function",
      "constant": true
    }
  ],
  "bytecode": "0x60806040523480156200001157600080fd5b506040516200372538038062003725833981810160405281019062000037919062000283565b6200004c6000801b33620000d660201b60201c565b81600160006101000a81548173ffffffffffffffffffffffffffffffffffffffff021916908373ffffffffffffffffffffffffffffffffffffffff16021790555080600260006101000a81548173ffffffffffffffffffffffffffffffffffffffff021916908373ffffffffffffffffffffffffffffffffffffffff160217905550505062000312565b620000e88282620000ec60201b60201c565b5050565b6200011a816000808581526020019081526020016000206000016200018f60201b62001bab1790919060201c565b156200018b5762000130620001c760201b60201c565b73ffffffffffffffffffffffffffffffffffffffff168173ffffffffffffffffffffffffffffffffffffffff16837f2f8788117e7eff1d82e926ec794901d17c78024a50270940304540a733656f0d60405160405180910390a45b5050565b6000620001bf836000018373ffffffffffffffffffffffffffffffffffffffff1660001b620001cf60201b60201c565b905092915050565b600033905090565b6000620001e383836200024960201b60201c565b6200023e57826000018290806001815401808255809150506001900390600052602060002001600090919091909150558260000180549050836001016000848152602001908152602001600020819055506001905062000243565b600090505b92915050565b600080836001016000848152602001908152602001600020541415905092915050565b6000815190506200027d81620002f8565b92915050565b600080604083850312156200029757600080fd5b6000620002a7858286016200026c565b9250506020620002ba858286016200026c565b9150509250929050565b6000620002d182620002d8565b9050919050565b600073ffffffffffffffffffffffffffffffffffffffff82169050919050565b6200030381620002c4565b81146200030f57600080fd5b50565b61340380620003226000396000f3fe608060405234801561001057600080fd5b50600436106101375760003560e01c806391d14854116100b8578063d547741f1161007c578063d547741f146103c0578063e4440b99146103dc578063ec77f8301461040c578063f4a496b71461042a578063f7e0123a1461045a578063fefd6e761461047857610137565b806391d14854146102e2578063a217fddf14610312578063a84224bc14610330578063ca15c87314610360578063d46e1c4a1461039057610137565b806336568abe116100ff57806336568abe14610218578063699450e8146102345780637201ac1e146102525780638a06d20b146102825780639010d07c146102b257610137565b80631734109a1461013c5780632289367f1461016c578063248a9ca31461019c5780632727737d146101cc5780632f2ff15d146101fc575b600080fd5b6101566004803603810190610151919061232a565b610496565b6040516101639190612a7b565b60405180910390f35b6101866004803603810190610181919061232a565b61052e565b6040516101939190612a7b565b60405180910390f35b6101b660048036038101906101b191906123f9565b61058a565b6040516101c39190612a96565b60405180910390f35b6101e660048036038101906101e1919061232a565b6105a9565b6040516101f39190612cf0565b60405180910390f35b61021660048036038101906102119190612422565b61073e565b005b610232600480360381019061022d9190612422565b6107b1565b005b61023c610834565b6040516102499190612a3e565b60405180910390f35b61026c6004803603810190610267919061249a565b61085a565b6040516102799190612cf0565b60405180910390f35b61029c6004803603810190610297919061237c565b6109ce565b6040516102a99190612d12565b60405180910390f35b6102cc60048036038101906102c7919061245e565b610fbc565b6040516102d99190612a3e565b60405180910390f35b6102fc60048036038101906102f79190612422565b610fed565b6040516103099190612a7b565b60405180910390f35b61031a61101e565b6040516103279190612a96565b60405180910390f35b61034a6004803603810190610345919061249a565b611025565b6040516103579190612a7b565b60405180910390f35b61037a600480360381019061037591906123f9565b611060565b6040516103879190612d12565b60405180910390f35b6103aa60048036038101906103a5919061232a565b611086565b6040516103b79190612d12565b60405180910390f35b6103da60048036038101906103d59190612422565b6110cf565b005b6103f660048036038101906103f191906124db565b611142565b6040516104039190612cf0565b60405180910390f35b6104146112ec565b6040516104219190612d12565b60405180910390f35b610444600480360381019061043f919061232a565b6112f9565b6040516104519190612a7b565b60405180910390f35b610462611a3e565b60405161046f9190612a59565b60405180910390f35b610480611b85565b60405161048d9190612ab1565b60405180910390f35b60006104a56000801b33610fed565b6104e4576040517f08c379a00000000000000000000000000000000000000000000000000000000081526004016104db90612c50565b60405180910390fd5b81600260006101000a81548173ffffffffffffffffffffffffffffffffffffffff021916908373ffffffffffffffffffffffffffffffffffffffff16021790555060019050919050565b600080600460008473ffffffffffffffffffffffffffffffffffffffff1673ffffffffffffffffffffffffffffffffffffffff1681526020019081526020016000205414156105805760009050610585565b600190505b919050565b6000806000838152602001908152602001600020600201549050919050565b6105b16120b9565b60036001600460008573ffffffffffffffffffffffffffffffffffffffff1673ffffffffffffffffffffffffffffffffffffffff168152602001908152602001600020546105ff9190612e5f565b81548110610636577f4e487b7100000000000000000000000000000000000000000000000000000000600052603260045260246000fd5b90600052602060002090600202016040518060400160405290816000820160009054906101000a900473ffffffffffffffffffffffffffffffffffffffff1673ffffffffffffffffffffffffffffffffffffffff1673ffffffffffffffffffffffffffffffffffffffff1681526020016001820180546106b590612f4b565b80601f01602080910402602001604051908101604052809291908181526020018280546106e190612f4b565b801561072e5780601f106107035761010080835404028352916020019161072e565b820191906000526020600020905b81548152906001019060200180831161071157829003601f168201915b5050505050815250509050919050565b6107646000808481526020019081526020016000206002015461075f611bdb565b610fed565b6107a3576040517f08c379a000000000000000000000000000000000000000000000000000000000815260040161079a90612b50565b60405180910390fd5b6107ad8282611be3565b5050565b6107b9611bdb565b73ffffffffffffffffffffffffffffffffffffffff168173ffffffffffffffffffffffffffffffffffffffff1614610826576040517f08c379a000000000000000000000000000000000000000000000000000000000815260040161081d90612cb0565b60405180910390fd5b6108308282611c76565b5050565b600160009054906101000a900473ffffffffffffffffffffffffffffffffffffffff1681565b6108626120b9565b600360016005846040516108769190612a10565b90815260200160405180910390205461088f9190612e5f565b815481106108c6577f4e487b7100000000000000000000000000000000000000000000000000000000600052603260045260246000fd5b90600052602060002090600202016040518060400160405290816000820160009054906101000a900473ffffffffffffffffffffffffffffffffffffffff1673ffffffffffffffffffffffffffffffffffffffff1673ffffffffffffffffffffffffffffffffffffffff16815260200160018201805461094590612f4b565b80601f016020809104026020016040519081016040528092919081815260200182805461097190612f4b565b80156109be5780601f10610993576101008083540402835291602001916109be565b820191906000526020600020905b8154815290600101906020018083116109a157829003601f168201915b5050505050815250509050919050565b60006109e98260405180602001604052806000815250611d09565b15610a29576040517f08c379a0000000000000000000000000000000000000000000000000000000008152600401610a2090612c70565b60405180910390fd5b600073ffffffffffffffffffffffffffffffffffffffff168373ffffffffffffffffffffffffffffffffffffffff161415610a99576040517f08c379a0000000000000000000000000000000000000000000000000000000008152600401610a9090612c30565b60405180910390fd5b600260009054906101000a900473ffffffffffffffffffffffffffffffffffffffff1673ffffffffffffffffffffffffffffffffffffffff1663261a323e836040518263ffffffff1660e01b8152600401610af49190612acc565b60206040518083038186803b158015610b0c57600080fd5b505afa158015610b20573d6000803e3d6000fd5b505050506040513d601f19601f82011682018060405250810190610b4491906123d0565b610b83576040517f08c379a0000000000000000000000000000000000000000000000000000000008152600401610b7a90612bb0565b60405180910390fd5b600260009054906101000a900473ffffffffffffffffffffffffffffffffffffffff1673ffffffffffffffffffffffffffffffffffffffff1663c8902a21836040518263ffffffff1660e01b8152600401610bde9190612acc565b60206040518083038186803b158015610bf657600080fd5b505afa158015610c0a573d6000803e3d6000fd5b505050506040513d601f19601f82011682018060405250810190610c2e91906123d0565b610c6d576040517f08c379a0000000000000000000000000000000000000000000000000000000008152600401610c6490612cd0565b60405180910390fd5b600260009054906101000a900473ffffffffffffffffffffffffffffffffffffffff1673ffffffffffffffffffffffffffffffffffffffff16634f491152836040518263ffffffff1660e01b8152600401610cc89190612acc565b60206040518083038186803b158015610ce057600080fd5b505afa158015610cf4573d6000803e3d6000fd5b505050506040513d601f19601f82011682018060405250810190610d189190612353565b73ffffffffffffffffffffffffffffffffffffffff163373ffffffffffffffffffffffffffffffffffffffff1614610d85576040517f08c379a0000000000000000000000000000000000000000000000000000000008152600401610d7c90612c90565b60405180910390fd5b610d8e8361052e565b15610dce576040517f08c379a0000000000000000000000000000000000000000000000000000000008152600401610dc590612b70565b60405180910390fd5b610dd782611025565b15610e17576040517f08c379a0000000000000000000000000000000000000000000000000000000008152600401610e0e90612b10565b60405180910390fd5b610e1f6120b9565b83816000019073ffffffffffffffffffffffffffffffffffffffff16908173ffffffffffffffffffffffffffffffffffffffff1681525050828160200181905250600381908060018154018082558091505060019003906000526020600020906002020160009091909190915060008201518160000160006101000a81548173ffffffffffffffffffffffffffffffffffffffff021916908373ffffffffffffffffffffffffffffffffffffffff1602179055506020820151816001019080519060200190610eef9291906120e9565b5050506000600380549050905080600460008773ffffffffffffffffffffffffffffffffffffffff1673ffffffffffffffffffffffffffffffffffffffff1681526020019081526020016000208190555080600585604051610f519190612a10565b9081526020016040518091039020819055508473ffffffffffffffffffffffffffffffffffffffff167f5f72ee8f126edb9517a308b63a1840bbade7cc7d2406cf0df01e0b0f2071e45385604051610fa99190612acc565b60405180910390a2809250505092915050565b6000610fe582600080868152602001908152602001600020600001611d6290919063ffffffff16565b905092915050565b600061101682600080868152602001908152602001600020600001611d7c90919063ffffffff16565b905092915050565b6000801b81565b6000806005836040516110389190612a10565b9081526020016040518091039020541415611056576000905061105b565b600190505b919050565b600061107f600080848152602001908152602001600020600001611dac565b9050919050565b6000600460008373ffffffffffffffffffffffffffffffffffffffff1673ffffffffffffffffffffffffffffffffffffffff168152602001908152602001600020549050919050565b6110f5600080848152602001908152602001600020600201546110f0611bdb565b610fed565b611134576040517f08c379a000000000000000000000000000000000000000000000000000000000815260040161112b90612bd0565b60405180910390fd5b61113e8282611c76565b5050565b61114a6120b9565b60008211801561115f57506003805490508211155b61119e576040517f08c379a000000000000000000000000000000000000000000000000000000000815260040161119590612b90565b60405180910390fd5b60036001836111ad9190612e5f565b815481106111e4577f4e487b7100000000000000000000000000000000000000000000000000000000600052603260045260246000fd5b90600052602060002090600202016040518060400160405290816000820160009054906101000a900473ffffffffffffffffffffffffffffffffffffffff1673ffffffffffffffffffffffffffffffffffffffff1673ffffffffffffffffffffffffffffffffffffffff16815260200160018201805461126390612f4b565b80601f016020809104026020016040519081016040528092919081815260200182805461128f90612f4b565b80156112dc5780601f106112b1576101008083540402835291602001916112dc565b820191906000526020600020905b8154815290600101906020018083116112bf57829003601f168201915b5050505050815250509050919050565b6000600380549050905090565b60008073ffffffffffffffffffffffffffffffffffffffff168273ffffffffffffffffffffffffffffffffffffffff16141561136a576040517f08c379a000000000000000000000000000000000000000000000000000000000815260040161136190612bf0565b60405180910390fd5b6113738261052e565b6113b2576040517f08c379a00000000000000000000000000000000000000000000000000000000081526004016113a990612c10565b60405180910390fd5b6000600260009054906101000a900473ffffffffffffffffffffffffffffffffffffffff1673ffffffffffffffffffffffffffffffffffffffff16634f49115260036001600460008873ffffffffffffffffffffffffffffffffffffffff1673ffffffffffffffffffffffffffffffffffffffff168152602001908152602001600020546114409190612e5f565b81548110611477577f4e487b7100000000000000000000000000000000000000000000000000000000600052603260045260246000fd5b90600052602060002090600202016001016040518263ffffffff1660e01b81526004016114a49190612aee565b60206040518083038186803b1580156114bc57600080fd5b505afa1580156114d0573d6000803e3d6000fd5b505050506040513d601f19601f820116820180604052508101906114f49190612353565b90508073ffffffffffffffffffffffffffffffffffffffff163373ffffffffffffffffffffffffffffffffffffffff1614611564576040517f08c379a000000000000000000000000000000000000000000000000000000000815260040161155b90612c90565b60405180910390fd5b60006001600460008673ffffffffffffffffffffffffffffffffffffffff1673ffffffffffffffffffffffffffffffffffffffff168152602001908152602001600020546115b29190612e5f565b90506000600382815481106115f0577f4e487b7100000000000000000000000000000000000000000000000000000000600052603260045260246000fd5b9060005260206000209060020201600101805461160c90612f4b565b80601f016020809104026020016040519081016040528092919081815260200182805461163890612f4b565b80156116855780601f1061165a57610100808354040283529160200191611685565b820191906000526020600020905b81548152906001019060200180831161166857829003601f168201915b50505050509050600060016003805490506116a09190612e5f565b90506000600382815481106116de577f4e487b7100000000000000000000000000000000000000000000000000000000600052603260045260246000fd5b906000526020600020906002020160000160009054906101000a900473ffffffffffffffffffffffffffffffffffffffff1690506003828154811061174c577f4e487b7100000000000000000000000000000000000000000000000000000000600052603260045260246000fd5b906000526020600020906002020160038581548110611794577f4e487b7100000000000000000000000000000000000000000000000000000000600052603260045260246000fd5b90600052602060002090600202016000820160009054906101000a900473ffffffffffffffffffffffffffffffffffffffff168160000160006101000a81548173ffffffffffffffffffffffffffffffffffffffff021916908373ffffffffffffffffffffffffffffffffffffffff160217905550600182018160010190805461181d90612f4b565b61182892919061216f565b509050506001846118399190612e09565b600460008373ffffffffffffffffffffffffffffffffffffffff1673ffffffffffffffffffffffffffffffffffffffff168152602001908152602001600020819055506001846118899190612e09565b6005600384815481106118c5577f4e487b7100000000000000000000000000000000000000000000000000000000600052603260045260246000fd5b90600052602060002090600202016001016040516118e39190612a27565b908152602001604051809103902081905550600460008873ffffffffffffffffffffffffffffffffffffffff1673ffffffffffffffffffffffffffffffffffffffff168152602001908152602001600020600090556005836040516119489190612a10565b9081526020016040518091039020600090556003805480611992577f4e487b7100000000000000000000000000000000000000000000000000000000600052603160045260246000fd5b6001900381819060005260206000209060020201600080820160006101000a81549073ffffffffffffffffffffffffffffffffffffffff02191690556001820160006119de91906121fc565b505090558673ffffffffffffffffffffffffffffffffffffffff167f28396d1fabed6609301bc39be12fb83c36ef88bb22fd01e7e40882caea308bf384604051611a289190612acc565b60405180910390a2600195505050505050919050565b60606003805480602002602001604051908101604052809291908181526020016000905b82821015611b7c57838290600052602060002090600202016040518060400160405290816000820160009054906101000a900473ffffffffffffffffffffffffffffffffffffffff1673ffffffffffffffffffffffffffffffffffffffff1673ffffffffffffffffffffffffffffffffffffffff168152602001600182018054611aeb90612f4b565b80601f0160208091040260200160405190810160405280929190818152602001828054611b1790612f4b565b8015611b645780601f10611b3957610100808354040283529160200191611b64565b820191906000526020600020905b815481529060010190602001808311611b4757829003601f168201915b50505050508152505081526020019060010190611a62565b50505050905090565b600260009054906101000a900473ffffffffffffffffffffffffffffffffffffffff1681565b6000611bd3836000018373ffffffffffffffffffffffffffffffffffffffff1660001b611dc1565b905092915050565b600033905090565b611c0a81600080858152602001908152602001600020600001611bab90919063ffffffff16565b15611c7257611c17611bdb565b73ffffffffffffffffffffffffffffffffffffffff168173ffffffffffffffffffffffffffffffffffffffff16837f2f8788117e7eff1d82e926ec794901d17c78024a50270940304540a733656f0d60405160405180910390a45b5050565b611c9d81600080858152602001908152602001600020600001611e3190919063ffffffff16565b15611d0557611caa611bdb565b73ffffffffffffffffffffffffffffffffffffffff168173ffffffffffffffffffffffffffffffffffffffff16837ff6391f5c32d9c69d2a47ea670b442974b53935d1edc7fd64eb21e047a839171b60405160405180910390a45b5050565b600081604051602001611d1c9190612a10565b6040516020818303038152906040528051906020012083604051602001611d439190612a10565b6040516020818303038152906040528051906020012014905092915050565b6000611d718360000183611e61565b60001c905092915050565b6000611da4836000018373ffffffffffffffffffffffffffffffffffffffff1660001b611efb565b905092915050565b6000611dba82600001611f1e565b9050919050565b6000611dcd8383611efb565b611e26578260000182908060018154018082558091505060019003906000526020600020016000909190919091505582600001805490508360010160008481526020019081526020016000208190555060019050611e2b565b600090505b92915050565b6000611e59836000018373ffffffffffffffffffffffffffffffffffffffff1660001b611f2f565b905092915050565b600081836000018054905011611eac576040517f08c379a0000000000000000000000000000000000000000000000000000000008152600401611ea390612b30565b60405180910390fd5b826000018281548110611ee8577f4e487b7100000000000000000000000000000000000000000000000000000000600052603260045260246000fd5b9060005260206000200154905092915050565b600080836001016000848152602001908152602001600020541415905092915050565b600081600001805490509050919050565b600080836001016000848152602001908152602001600020549050600081146120ad576000600182611f619190612e5f565b9050600060018660000180549050611f799190612e5f565b90506000866000018281548110611fb9577f4e487b7100000000000000000000000000000000000000000000000000000000600052603260045260246000fd5b9060005260206000200154905080876000018481548110612003577f4e487b7100000000000000000000000000000000000000000000000000000000600052603260045260246000fd5b906000526020600020018190555060018361201e9190612e09565b8760010160008381526020019081526020016000208190555086600001805480612071577f4e487b7100000000000000000000000000000000000000000000000000000000600052603160045260246000fd5b600190038181906000526020600020016000905590558660010160008781526020019081526020016000206000905560019450505050506120b3565b60009150505b92915050565b6040518060400160405280600073ffffffffffffffffffffffffffffffffffffffff168152602001606081525090565b8280546120f590612f4b565b90600052602060002090601f016020900481019282612117576000855561215e565b82601f1061213057805160ff191683800117855561215e565b8280016001018555821561215e579182015b8281111561215d578251825591602001919060010190612142565b5b50905061216b919061223c565b5090565b82805461217b90612f4b565b90600052602060002090601f01602090048101928261219d57600085556121eb565b82601f106121ae57805485556121eb565b828001600101855582156121eb57600052602060002091601f016020900482015b828111156121ea5782548255916001019190600101906121cf565b5b5090506121f8919061223c565b5090565b50805461220890612f4b565b6000825580601f1061221a5750612239565b601f016020900490600052602060002090810190612238919061223c565b5b50565b5b8082111561225557600081600090555060010161223d565b5090565b600061226c61226784612d52565b612d2d565b90508281526020810184848401111561228457600080fd5b61228f848285612f09565b509392505050565b6000813590506122a681613371565b92915050565b6000815190506122bb81613371565b92915050565b6000815190506122d081613388565b92915050565b6000813590506122e58161339f565b92915050565b600082601f8301126122fc57600080fd5b813561230c848260208601612259565b91505092915050565b600081359050612324816133b6565b92915050565b60006020828403121561233c57600080fd5b600061234a84828501612297565b91505092915050565b60006020828403121561236557600080fd5b6000612373848285016122ac565b91505092915050565b6000806040838503121561238f57600080fd5b600061239d85828601612297565b925050602083013567ffffffffffffffff8111156123ba57600080fd5b6123c6858286016122eb565b9150509250929050565b6000602082840312156123e257600080fd5b60006123f0848285016122c1565b91505092915050565b60006020828403121561240b57600080fd5b6000612419848285016122d6565b91505092915050565b6000806040838503121561243557600080fd5b6000612443858286016122d6565b925050602061245485828601612297565b9150509250929050565b6000806040838503121561247157600080fd5b600061247f858286016122d6565b925050602061249085828601612315565b9150509250929050565b6000602082840312156124ac57600080fd5b600082013567ffffffffffffffff8111156124c657600080fd5b6124d2848285016122eb565b91505092915050565b6000602082840312156124ed57600080fd5b60006124fb84828501612315565b91505092915050565b60006125108383612987565b905092915050565b61252181612e93565b82525050565b61253081612e93565b82525050565b600061254182612da8565b61254b8185612dcb565b93508360208202850161255d85612d83565b8060005b85811015612599578484038952815161257a8582612504565b945061258583612dbe565b925060208a01995050600181019050612561565b50829750879550505050505092915050565b6125b481612ea5565b82525050565b6125c381612eb1565b82525050565b6125d281612ee5565b82525050565b60006125e382612db3565b6125ed8185612ddc565b93506125fd818560208601612f18565b6126068161303b565b840191505092915050565b600061261c82612db3565b6126268185612ded565b9350612636818560208601612f18565b61263f8161303b565b840191505092915050565b600061265582612db3565b61265f8185612dfe565b935061266f818560208601612f18565b80840191505092915050565b6000815461268881612f4b565b6126928186612ded565b945060018216600081146126ad57600181146126bf576126f2565b60ff19831686526020860193506126f2565b6126c885612d93565b60005b838110156126ea578154818901526001820191506020810190506126cb565b808801955050505b50505092915050565b6000815461270881612f4b565b6127128186612dfe565b9450600182166000811461272d576001811461273e57612771565b60ff19831686528186019350612771565b61274785612d93565b60005b838110156127695781548189015260018201915060208101905061274a565b838801955050505b50505092915050565b6000612787601983612ded565b91506127928261304c565b602082019050919050565b60006127aa602283612ded565b91506127b582613075565b604082019050919050565b60006127cd602f83612ded565b91506127d8826130c4565b604082019050919050565b60006127f0601983612ded565b91506127fb82613113565b602082019050919050565b6000612813600c83612ded565b915061281e8261313c565b602082019050919050565b6000612836601d83612ded565b915061284182613165565b602082019050919050565b6000612859603083612ded565b91506128648261318e565b604082019050919050565b600061287c600f83612ded565b9150612887826131dd565b602082019050919050565b600061289f601283612ded565b91506128aa82613206565b602082019050919050565b60006128c2601a83612ded565b91506128cd8261322f565b602082019050919050565b60006128e5601c83612ded565b91506128f082613258565b602082019050919050565b6000612908601783612ded565b915061291382613281565b602082019050919050565b600061292b602883612ded565b9150612936826132aa565b604082019050919050565b600061294e602f83612ded565b9150612959826132f9565b604082019050919050565b6000612971601d83612ded565b915061297c82613348565b602082019050919050565b600060408301600083015161299f6000860182612518565b50602083015184820360208601526129b782826125d8565b9150508091505092915050565b60006040830160008301516129dc6000860182612518565b50602083015184820360208601526129f482826125d8565b9150508091505092915050565b612a0a81612edb565b82525050565b6000612a1c828461264a565b915081905092915050565b6000612a3382846126fb565b915081905092915050565b6000602082019050612a536000830184612527565b92915050565b60006020820190508181036000830152612a738184612536565b905092915050565b6000602082019050612a9060008301846125ab565b92915050565b6000602082019050612aab60008301846125ba565b92915050565b6000602082019050612ac660008301846125c9565b92915050565b60006020820190508181036000830152612ae68184612611565b905092915050565b60006020820190508181036000830152612b08818461267b565b905092915050565b60006020820190508181036000830152612b298161277a565b9050919050565b60006020820190508181036000830152612b498161279d565b9050919050565b60006020820190508181036000830152612b69816127c0565b9050919050565b60006020820190508181036000830152612b89816127e3565b9050919050565b60006020820190508181036000830152612ba981612806565b9050919050565b60006020820190508181036000830152612bc981612829565b9050919050565b60006020820190508181036000830152612be98161284c565b9050919050565b60006020820190508181036000830152612c098161286f565b9050919050565b60006020820190508181036000830152612c2981612892565b9050919050565b60006020820190508181036000830152612c49816128b5565b9050919050565b60006020820190508181036000830152612c69816128d8565b9050919050565b60006020820190508181036000830152612c89816128fb565b9050919050565b60006020820190508181036000830152612ca98161291e565b9050919050565b60006020820190508181036000830152612cc981612941565b9050919050565b60006020820190508181036000830152612ce981612964565b9050919050565b60006020820190508181036000830152612d0a81846129c4565b905092915050565b6000602082019050612d276000830184612a01565b92915050565b6000612d37612d48565b9050612d438282612f7d565b919050565b6000604051905090565b600067ffffffffffffffff821115612d6d57612d6c61300c565b5b612d768261303b565b9050602081019050919050565b6000819050602082019050919050565b60008190508160005260206000209050919050565b600081519050919050565b600081519050919050565b6000602082019050919050565b600082825260208201905092915050565b600082825260208201905092915050565b600082825260208201905092915050565b600081905092915050565b6000612e1482612edb565b9150612e1f83612edb565b9250827fffffffffffffffffffffffffffffffffffffffffffffffffffffffffffffffff03821115612e5457612e53612fae565b5b828201905092915050565b6000612e6a82612edb565b9150612e7583612edb565b925082821015612e8857612e87612fae565b5b828203905092915050565b6000612e9e82612ebb565b9050919050565b60008115159050919050565b6000819050919050565b600073ffffffffffffffffffffffffffffffffffffffff82169050919050565b6000819050919050565b6000612ef082612ef7565b9050919050565b6000612f0282612ebb565b9050919050565b82818337600083830152505050565b60005b83811015612f36578082015181840152602081019050612f1b565b83811115612f45576000848401525b50505050565b60006002820490506001821680612f6357607f821691505b60208210811415612f7757612f76612fdd565b5b50919050565b612f868261303b565b810181811067ffffffffffffffff82111715612fa557612fa461300c565b5b80604052505050565b7f4e487b7100000000000000000000000000000000000000000000000000000000600052601160045260246000fd5b7f4e487b7100000000000000000000000000000000000000000000000000000000600052602260045260246000fd5b7f4e487b7100000000000000000000000000000000000000000000000000000000600052604160045260246000fd5b6000601f19601f8301169050919050565b7f706f7274666f6c696f3a2070726f6a6563742065786973747300000000000000600082015250565b7f456e756d657261626c655365743a20696e646578206f7574206f6620626f756e60008201527f6473000000000000000000000000000000000000000000000000000000000000602082015250565b7f416363657373436f6e74726f6c3a2073656e646572206d75737420626520616e60008201527f2061646d696e20746f206772616e740000000000000000000000000000000000602082015250565b7f706f7274666f6c696f3a20616464726573732065786973747300000000000000600082015250565b7f6f7574206f662072616e67650000000000000000000000000000000000000000600082015250565b7f706f7274666f6c696f3a2070726f6a656374206e6f7420657869737473000000600082015250565b7f416363657373436f6e74726f6c3a2073656e646572206d75737420626520616e60008201527f2061646d696e20746f207265766f6b6500000000000000000000000000000000602082015250565b7f696e76616c696420616464726573730000000000000000000000000000000000600082015250565b7f61646472657373206e6f74206578697374730000000000000000000000000000600082015250565b7f706f7274666f6c696f3a20696e76616c69642061646472657373000000000000600082015250565b7f53747564656e74506f7274666f6c696f3a206f6e6c79206f776e657200000000600082015250565b7f706f7274666f6c696f3a20696e76616c6964206e616d65000000000000000000600082015250565b7f4f6e6c79204d61737465722063616e206164642070726f6a65637420696e207060008201527f6f7274666f6c696f000000000000000000000000000000000000000000000000602082015250565b7f416363657373436f6e74726f6c3a2063616e206f6e6c792072656e6f756e636560008201527f20726f6c657320666f722073656c660000000000000000000000000000000000602082015250565b7f706f7274666f6c696f3a2070726f6a656374206e6f7420616374697665000000600082015250565b61337a81612e93565b811461338557600080fd5b50565b61339181612ea5565b811461339c57600080fd5b50565b6133a881612eb1565b81146133b357600080fd5b50565b6133bf81612edb565b81146133ca57600080fd5b5056fea26469706673582212202be5e62015bbbf7e1a7f66686cfa6bc426fc8879a4449b90b4b1de8fe402ef0964736f6c63430008010033",
  "immutableReferences": {},
  "source": "// SPDX-License-Identifier: MIT\r\npragma solidity 0.8.1;\r\n\r\n//import \"https://github.com/OpenZeppelin/openzeppelin-contracts/blob/master/contracts/access/AccessControl.sol\";\r\n//import '@openzeppelin/contracts/access/AccessControl.sol';\r\nimport './oz-contracts/access/AccessControl.sol';\r\n\r\nimport './iAcademyProjectList.sol';\r\nimport './iStudentPortfolio.sol';\r\n\r\n\r\ncontract StudentPortfolio is AccessControl {\r\n    //One StudentPortfolio per Student\r\n    address public student;\r\n\r\n    //address public projectList;\r\n    iAcademyProjectList public projectList;\r\n\r\n    PortfolioStruct[] private portfolioProjects;\r\n    mapping(address => uint256) private addressIndex;\r\n    mapping(string => uint256) private nameIndex;\r\n\r\n    constructor(address account, address addressProjectList) {\r\n        _setupRole(DEFAULT_ADMIN_ROLE, msg.sender);\r\n        student = account;\r\n        projectList = iAcademyProjectList(addressProjectList);\r\n    }\r\n\r\n    event PortfolioProjectAdded(address indexed projectAddress, string projectName);\r\n    event PortfolioProjectDeleted(address indexed projectAddress, string projectName);\r\n\r\n    modifier onlyOwner() {\r\n        require(hasRole(DEFAULT_ADMIN_ROLE, msg.sender), \"StudentPortfolio: only owner\");\r\n        _;\r\n    }\r\n    \r\n    modifier onlyOwnerOrStudent() {\r\n        require(hasRole(DEFAULT_ADMIN_ROLE, msg.sender) || (msg.sender == student), \"StudentPortfolio: only student or owner\");\r\n        _;\r\n    }\r\n\r\n    function addProject (address projectAddress, string memory projectName) public returns(uint256) {\r\n        //Owners are the Masters or the Academy. \r\n        //Only them can add projects in portfolio, because they validate the project before add it.\r\n        require (!compareStrings(projectName, \"\"), \"portfolio: invalid name\");\r\n        require (!(projectAddress == address(0x0)), \"portfolio: invalid address\");\r\n        require (projectList.exists(projectName), \"portfolio: project not exists\");\r\n        require (projectList.isActive(projectName), \"portfolio: project not active\");\r\n        require(msg.sender == projectList.getMasterAddressByName(projectName), \"Only Master can add project in portfolio\");\r\n        \r\n        // Can the student have more than one same type project in portfolio? NO\r\n        require (!addressInPortfolio(projectAddress), \"portfolio: address exists\");\r\n        require (!nameInPortfolio(projectName), \"portfolio: project exists\");\r\n\r\n        PortfolioStruct memory p;\r\n        p.projectAddress = projectAddress;\r\n        p.name = projectName;\r\n\r\n        portfolioProjects.push(p);\r\n        uint256 index = portfolioProjects.length; \r\n        addressIndex[projectAddress] = index;\r\n        nameIndex[projectName] = index;\r\n\r\n        emit PortfolioProjectAdded(projectAddress, projectName);\r\n        return index;\r\n    }\r\n    \r\n    function deleteProjectByAddress (address projectAddress) public returns (bool) {\r\n        //If the student don't like your project, or did a mistake, he can delete it ad submit again.\r\n        require (!(projectAddress == address(0x0)), \"invalid address\");\r\n        require (addressInPortfolio(projectAddress), \"address not exists\");\r\n\r\n        //Called only by your MasterProject\r\n        address masterAddress = projectList.getMasterAddressByName(portfolioProjects[addressIndex[projectAddress]-1].name);\r\n        require(msg.sender == masterAddress, \"Only Master can add project in portfolio\");\r\n\r\n        uint256 indexToDelete = addressIndex[projectAddress]-1;\r\n        string memory nameToDelete =  portfolioProjects[indexToDelete].name;\r\n        \r\n        uint256 indexToMove = portfolioProjects.length-1;\r\n        address keyToMove = portfolioProjects[indexToMove].projectAddress;\r\n        portfolioProjects[indexToDelete] = portfolioProjects[indexToMove];\r\n        addressIndex[keyToMove] = indexToDelete+1;\r\n        nameIndex[portfolioProjects[indexToMove].name] = indexToDelete+1;\r\n        \r\n        delete addressIndex[projectAddress];\r\n        delete nameIndex[nameToDelete];    \r\n        portfolioProjects.pop();\r\n\r\n        emit PortfolioProjectDeleted(projectAddress, nameToDelete);\r\n        return true;\r\n    }\r\n \r\n    function updateProjectList (address addressProjectList) public onlyOwner returns (bool) {\r\n        projectList = iAcademyProjectList(addressProjectList);\r\n        return true;\r\n    }\r\n\r\n    function addressInPortfolio (address projectAddress) public view returns (bool) {\r\n        //if(portfolioProjects.length == 0) return false;        \r\n        if (addressIndex[projectAddress] == 0)\r\n            return false;\r\n        else\r\n            return true;\r\n    }\r\n\r\n    function nameInPortfolio (string memory projectName) public view returns (bool) {\r\n        if (nameIndex[projectName] == 0)\r\n            return false;\r\n        else\r\n            return true;\r\n    }\r\n    \r\n    function listPortfolio () public view returns (PortfolioStruct[] memory) {\r\n        return (portfolioProjects);\r\n    }\r\n    \r\n    function countPortfolio () public view returns (uint) {\r\n        return (portfolioProjects.length);\r\n    }\r\n\r\n    function projectByName (string memory projectName) public view returns (PortfolioStruct memory) {\r\n        return portfolioProjects[nameIndex[projectName]-1];\r\n    }\r\n    \r\n    function projectByAddress (address projectAddress) public view returns (PortfolioStruct memory) {\r\n        return portfolioProjects[addressIndex[projectAddress]-1];\r\n    }\r\n    \r\n    function projectByIndex (uint256 index) public view returns (PortfolioStruct memory) {\r\n        require ((index > 0 ) && (index <= portfolioProjects.length), \"out of range\");\r\n        return portfolioProjects[index-1];\r\n    }    \r\n\r\n    function indexOfProject (address projectAddress) public view returns (uint) {\r\n        return addressIndex[projectAddress];\r\n    }\r\n    \r\n    function compareStrings(string memory a, string memory b) private pure returns (bool) {\r\n        return (keccak256(abi.encodePacked((a))) == keccak256(abi.encodePacked((b))));\r\n    }\r\n    \r\n}\r\n\r\n",
  "sourcePath": "C:/ACADEMY/GITHUB/rsk-academy-dapp/contracts/StudentPortfolio.sol",
  "compiler": {
    "name": "solc",
    "version": "0.8.1+commit.df193b15.Emscripten.clang"
  },
  "schemaVersion": "3.3.4",
  "updatedAt": "2021-03-18T02:30:56.288Z",
  "networkType": "ethereum",
  "devdoc": {
    "kind": "dev",
    "methods": {
      "getRoleAdmin(bytes32)": {
        "details": "Returns the admin role that controls `role`. See {grantRole} and {revokeRole}. To change a role's admin, use {_setRoleAdmin}."
      },
      "getRoleMember(bytes32,uint256)": {
        "details": "Returns one of the accounts that have `role`. `index` must be a value between 0 and {getRoleMemberCount}, non-inclusive. Role bearers are not sorted in any particular way, and their ordering may change at any point. WARNING: When using {getRoleMember} and {getRoleMemberCount}, make sure you perform all queries on the same block. See the following https://forum.openzeppelin.com/t/iterating-over-elements-on-enumerableset-in-openzeppelin-contracts/2296[forum post] for more information."
      },
      "getRoleMemberCount(bytes32)": {
        "details": "Returns the number of accounts that have `role`. Can be used together with {getRoleMember} to enumerate all bearers of a role."
      },
      "grantRole(bytes32,address)": {
        "details": "Grants `role` to `account`. If `account` had not been already granted `role`, emits a {RoleGranted} event. Requirements: - the caller must have ``role``'s admin role."
      },
      "hasRole(bytes32,address)": {
        "details": "Returns `true` if `account` has been granted `role`."
      },
      "renounceRole(bytes32,address)": {
        "details": "Revokes `role` from the calling account. Roles are often managed via {grantRole} and {revokeRole}: this function's purpose is to provide a mechanism for accounts to lose their privileges if they are compromised (such as when a trusted device is misplaced). If the calling account had been granted `role`, emits a {RoleRevoked} event. Requirements: - the caller must be `account`."
      },
      "revokeRole(bytes32,address)": {
        "details": "Revokes `role` from `account`. If `account` had been granted `role`, emits a {RoleRevoked} event. Requirements: - the caller must have ``role``'s admin role."
      }
    },
    "version": 1
  },
  "userdoc": {
    "kind": "user",
    "methods": {},
    "version": 1
  }
}